{
	"contracts/LiskSupplyChain.sol": {
		"LiskSupplyChain": {
			"abi": [
				{
					"anonymous": false,
					"inputs": [
						{
							"indexed": false,
							"internalType": "uint256",
							"name": "productId",
							"type": "uint256"
						},
						{
							"indexed": false,
							"internalType": "address",
							"name": "newOwner",
							"type": "address"
						}
					],
					"name": "OwnershipTransferred",
					"type": "event"
				},
				{
					"anonymous": false,
					"inputs": [
						{
							"indexed": false,
							"internalType": "uint256",
							"name": "productId",
							"type": "uint256"
						},
						{
							"indexed": false,
							"internalType": "string",
							"name": "name",
							"type": "string"
						},
						{
							"indexed": false,
							"internalType": "address",
							"name": "owner",
							"type": "address"
						}
					],
					"name": "ProductCreated",
					"type": "event"
				},
				{
					"anonymous": false,
					"inputs": [
						{
							"indexed": false,
							"internalType": "uint256",
							"name": "productId",
							"type": "uint256"
						},
						{
							"indexed": false,
							"internalType": "enum LiskSupplyChain.Status",
							"name": "status",
							"type": "uint8"
						}
					],
					"name": "ProductStatusUpdated",
					"type": "event"
				},
				{
					"inputs": [],
					"name": "ProductOwner",
					"outputs": [
						{
							"internalType": "address",
							"name": "",
							"type": "address"
						}
					],
					"stateMutability": "view",
					"type": "function"
				},
				{
					"inputs": [
						{
							"internalType": "uint256",
							"name": "productId",
							"type": "uint256"
						},
						{
							"internalType": "address",
							"name": "newOwner",
							"type": "address"
						}
					],
					"name": "changeOwnership",
					"outputs": [],
					"stateMutability": "nonpayable",
					"type": "function"
				},
				{
					"inputs": [
						{
							"internalType": "string",
							"name": "name",
							"type": "string"
						},
						{
							"internalType": "string",
							"name": "location",
							"type": "string"
						},
						{
							"internalType": "string",
							"name": "desc",
							"type": "string"
						},
						{
							"internalType": "enum LiskSupplyChain.Roles",
							"name": "_role",
							"type": "uint8"
						}
					],
					"name": "createCustomer",
					"outputs": [],
					"stateMutability": "nonpayable",
					"type": "function"
				},
				{
					"inputs": [
						{
							"internalType": "string",
							"name": "_name",
							"type": "string"
						},
						{
							"internalType": "uint16",
							"name": "_price",
							"type": "uint16"
						},
						{
							"internalType": "uint256",
							"name": "_quantity",
							"type": "uint256"
						},
						{
							"internalType": "string",
							"name": "desc",
							"type": "string"
						},
						{
							"internalType": "string",
							"name": "_from",
							"type": "string"
						},
						{
							"internalType": "string",
							"name": "_to",
							"type": "string"
						}
					],
					"name": "createProduct",
					"outputs": [],
					"stateMutability": "nonpayable",
					"type": "function"
				},
				{
					"inputs": [],
					"name": "getTotalUsers",
					"outputs": [
						{
							"internalType": "uint256",
							"name": "",
							"type": "uint256"
						}
					],
					"stateMutability": "view",
					"type": "function"
				},
				{
					"inputs": [
						{
							"internalType": "uint256",
							"name": "userId",
							"type": "uint256"
						}
					],
					"name": "getUser",
					"outputs": [
						{
							"components": [
								{
									"internalType": "uint256",
									"name": "id",
									"type": "uint256"
								},
								{
									"internalType": "string",
									"name": "name",
									"type": "string"
								},
								{
									"internalType": "address",
									"name": "userAddress",
									"type": "address"
								},
								{
									"internalType": "string",
									"name": "location",
									"type": "string"
								},
								{
									"internalType": "string",
									"name": "description",
									"type": "string"
								},
								{
									"internalType": "uint256",
									"name": "date",
									"type": "uint256"
								},
								{
									"internalType": "enum LiskSupplyChain.Roles",
									"name": "role",
									"type": "uint8"
								}
							],
							"internalType": "struct LiskSupplyChain.User",
							"name": "",
							"type": "tuple"
						}
					],
					"stateMutability": "view",
					"type": "function"
				},
				{
					"inputs": [],
					"name": "productCount",
					"outputs": [
						{
							"internalType": "uint256",
							"name": "",
							"type": "uint256"
						}
					],
					"stateMutability": "view",
					"type": "function"
				},
				{
					"inputs": [
						{
							"internalType": "uint256",
							"name": "_productId",
							"type": "uint256"
						}
					],
					"name": "productDetails",
					"outputs": [
						{
							"components": [
								{
									"internalType": "uint256",
									"name": "id",
									"type": "uint256"
								},
								{
									"internalType": "string",
									"name": "name",
									"type": "string"
								},
								{
									"internalType": "address",
									"name": "owner",
									"type": "address"
								},
								{
									"internalType": "uint16",
									"name": "price",
									"type": "uint16"
								},
								{
									"internalType": "uint256",
									"name": "quantity",
									"type": "uint256"
								},
								{
									"internalType": "string",
									"name": "description",
									"type": "string"
								},
								{
									"internalType": "string",
									"name": "from",
									"type": "string"
								},
								{
									"internalType": "string",
									"name": "to",
									"type": "string"
								},
								{
									"internalType": "uint256",
									"name": "date",
									"type": "uint256"
								},
								{
									"internalType": "enum LiskSupplyChain.Status",
									"name": "status",
									"type": "uint8"
								}
							],
							"internalType": "struct LiskSupplyChain.Product",
							"name": "",
							"type": "tuple"
						}
					],
					"stateMutability": "view",
					"type": "function"
				},
				{
					"inputs": [
						{
							"internalType": "uint256",
							"name": "",
							"type": "uint256"
						}
					],
					"name": "products",
					"outputs": [
						{
							"internalType": "uint256",
							"name": "id",
							"type": "uint256"
						},
						{
							"internalType": "string",
							"name": "name",
							"type": "string"
						},
						{
							"internalType": "address",
							"name": "owner",
							"type": "address"
						},
						{
							"internalType": "uint16",
							"name": "price",
							"type": "uint16"
						},
						{
							"internalType": "uint256",
							"name": "quantity",
							"type": "uint256"
						},
						{
							"internalType": "string",
							"name": "description",
							"type": "string"
						},
						{
							"internalType": "string",
							"name": "from",
							"type": "string"
						},
						{
							"internalType": "string",
							"name": "to",
							"type": "string"
						},
						{
							"internalType": "uint256",
							"name": "date",
							"type": "uint256"
						},
						{
							"internalType": "enum LiskSupplyChain.Status",
							"name": "status",
							"type": "uint8"
						}
					],
					"stateMutability": "view",
					"type": "function"
				},
				{
					"inputs": [
						{
							"internalType": "uint256",
							"name": "productId",
							"type": "uint256"
						},
						{
							"internalType": "enum LiskSupplyChain.Status",
							"name": "status",
							"type": "uint8"
						}
					],
					"name": "updateProductStatus",
					"outputs": [],
					"stateMutability": "nonpayable",
					"type": "function"
				},
				{
					"inputs": [],
					"name": "userCount",
					"outputs": [
						{
							"internalType": "uint256",
							"name": "",
							"type": "uint256"
						}
					],
					"stateMutability": "view",
					"type": "function"
				},
				{
					"inputs": [
						{
							"internalType": "uint256",
							"name": "",
							"type": "uint256"
						}
					],
					"name": "users",
					"outputs": [
						{
							"internalType": "uint256",
							"name": "id",
							"type": "uint256"
						},
						{
							"internalType": "string",
							"name": "name",
							"type": "string"
						},
						{
							"internalType": "address",
							"name": "userAddress",
							"type": "address"
						},
						{
							"internalType": "string",
							"name": "location",
							"type": "string"
						},
						{
							"internalType": "string",
							"name": "description",
							"type": "string"
						},
						{
							"internalType": "uint256",
							"name": "date",
							"type": "uint256"
						},
						{
							"internalType": "enum LiskSupplyChain.Roles",
							"name": "role",
							"type": "uint8"
						}
					],
					"stateMutability": "view",
					"type": "function"
				},
				{
					"inputs": [
						{
							"internalType": "uint256",
							"name": "productId",
							"type": "uint256"
						}
					],
					"name": "viewStatus",
					"outputs": [
						{
							"internalType": "enum LiskSupplyChain.Status",
							"name": "status",
							"type": "uint8"
						}
					],
					"stateMutability": "view",
					"type": "function"
				}
			],
			"devdoc": {
				"kind": "dev",
				"methods": {},
				"version": 1
			},
			"evm": {
				"assembly": "    /* \"contracts/LiskSupplyChain.sol\":74:3813  contract LiskSupplyChain{... */\n  mstore(0x40, 0x80)\n    /* \"contracts/LiskSupplyChain.sol\":1097:1098  0 */\n  0x00\n    /* \"contracts/LiskSupplyChain.sol\":1066:1098  uint256 public  productCount = 0 */\n  dup1\n  sstore\n    /* \"contracts/LiskSupplyChain.sol\":1132:1133  0 */\n  0x00\n    /* \"contracts/LiskSupplyChain.sol\":1105:1133  uint256 public userCount = 0 */\n  0x01\n  sstore\n    /* \"contracts/LiskSupplyChain.sol\":74:3813  contract LiskSupplyChain{... */\n  callvalue\n  dup1\n  iszero\n  tag_1\n  jumpi\n  0x00\n  dup1\n  revert\ntag_1:\n  pop\n  dataSize(sub_0)\n  dup1\n  dataOffset(sub_0)\n  0x00\n  codecopy\n  0x00\n  return\nstop\n\nsub_0: assembly {\n        /* \"contracts/LiskSupplyChain.sol\":74:3813  contract LiskSupplyChain{... */\n      mstore(0x40, 0x80)\n      callvalue\n      dup1\n      iszero\n      tag_1\n      jumpi\n      0x00\n      dup1\n      revert\n    tag_1:\n      pop\n      jumpi(tag_2, lt(calldatasize, 0x04))\n      shr(0xe0, calldataload(0x00))\n      dup1\n      0x89b3887e\n      gt\n      tag_16\n      jumpi\n      dup1\n      0xac4640e1\n      gt\n      tag_17\n      jumpi\n      dup1\n      0xac4640e1\n      eq\n      tag_12\n      jumpi\n      dup1\n      0xb0467deb\n      eq\n      tag_13\n      jumpi\n      dup1\n      0xe0f6ef87\n      eq\n      tag_14\n      jumpi\n      dup1\n      0xf46296be\n      eq\n      tag_15\n      jumpi\n      jump(tag_2)\n    tag_17:\n      dup1\n      0x89b3887e\n      eq\n      tag_9\n      jumpi\n      dup1\n      0x920e2621\n      eq\n      tag_10\n      jumpi\n      dup1\n      0x9be572f6\n      eq\n      tag_11\n      jumpi\n      jump(tag_2)\n    tag_16:\n      dup1\n      0x07973ccf\n      eq\n      tag_3\n      jumpi\n      dup1\n      0x084289f8\n      eq\n      tag_4\n      jumpi\n      dup1\n      0x365b98b2\n      eq\n      tag_5\n      jumpi\n      dup1\n      0x48f7eb30\n      eq\n      tag_6\n      jumpi\n      dup1\n      0x52312cea\n      eq\n      tag_7\n      jumpi\n      dup1\n      0x7acc0b20\n      eq\n      tag_8\n      jumpi\n    tag_2:\n      0x00\n      dup1\n      revert\n        /* \"contracts/LiskSupplyChain.sol\":1105:1133  uint256 public userCount = 0 */\n    tag_3:\n      tag_18\n      tag_19\n      jump\t// in\n    tag_18:\n      mload(0x40)\n      tag_20\n      swap2\n      swap1\n      tag_21\n      jump\t// in\n    tag_20:\n      mload(0x40)\n      dup1\n      swap2\n      sub\n      swap1\n      return\n        /* \"contracts/LiskSupplyChain.sol\":1472:2073  function createProduct(string memory _name, uint16 _price, uint256 _quantity, string memory desc, string memory _from, string memory  _to) public{... */\n    tag_4:\n      tag_22\n      0x04\n      dup1\n      calldatasize\n      sub\n      dup2\n      add\n      swap1\n      tag_23\n      swap2\n      swap1\n      tag_24\n      jump\t// in\n    tag_23:\n      tag_25\n      jump\t// in\n    tag_22:\n      stop\n        /* \"contracts/LiskSupplyChain.sol\":1227:1265  mapping (uint256 => User) public users */\n    tag_5:\n      tag_26\n      0x04\n      dup1\n      calldatasize\n      sub\n      dup2\n      add\n      swap1\n      tag_27\n      swap2\n      swap1\n      tag_28\n      jump\t// in\n    tag_27:\n      tag_29\n      jump\t// in\n    tag_26:\n      mload(0x40)\n      tag_30\n      swap8\n      swap7\n      swap6\n      swap5\n      swap4\n      swap3\n      swap2\n      swap1\n      tag_31\n      jump\t// in\n    tag_30:\n      mload(0x40)\n      dup1\n      swap2\n      sub\n      swap1\n      return\n        /* \"contracts/LiskSupplyChain.sol\":2344:2467  function productDetails(uint _productId) public view returns (Product memory){... */\n    tag_6:\n      tag_32\n      0x04\n      dup1\n      calldatasize\n      sub\n      dup2\n      add\n      swap1\n      tag_33\n      swap2\n      swap1\n      tag_28\n      jump\t// in\n    tag_33:\n      tag_34\n      jump\t// in\n    tag_32:\n      mload(0x40)\n      tag_35\n      swap2\n      swap1\n      tag_36\n      jump\t// in\n    tag_35:\n      mload(0x40)\n      dup1\n      swap2\n      sub\n      swap1\n      return\n        /* \"contracts/LiskSupplyChain.sol\":2882:3285  function createCustomer(string memory name, string memory location, string memory desc, Roles _role) public {... */\n    tag_7:\n      tag_37\n      0x04\n      dup1\n      calldatasize\n      sub\n      dup2\n      add\n      swap1\n      tag_38\n      swap2\n      swap1\n      tag_39\n      jump\t// in\n    tag_38:\n      tag_40\n      jump\t// in\n    tag_37:\n      stop\n        /* \"contracts/LiskSupplyChain.sol\":1175:1220  mapping (uint256 => Product) public  products */\n    tag_8:\n      tag_41\n      0x04\n      dup1\n      calldatasize\n      sub\n      dup2\n      add\n      swap1\n      tag_42\n      swap2\n      swap1\n      tag_28\n      jump\t// in\n    tag_42:\n      tag_43\n      jump\t// in\n    tag_41:\n      mload(0x40)\n      tag_44\n      swap11\n      swap10\n      swap9\n      swap8\n      swap7\n      swap6\n      swap5\n      swap4\n      swap3\n      swap2\n      swap1\n      tag_45\n      jump\t// in\n    tag_44:\n      mload(0x40)\n      dup1\n      swap2\n      sub\n      swap1\n      return\n        /* \"contracts/LiskSupplyChain.sol\":2514:2714  function changeOwnership(uint productId, address newOwner) public onlyOwner(productId){... */\n    tag_9:\n      tag_46\n      0x04\n      dup1\n      calldatasize\n      sub\n      dup2\n      add\n      swap1\n      tag_47\n      swap2\n      swap1\n      tag_48\n      jump\t// in\n    tag_47:\n      tag_49\n      jump\t// in\n    tag_46:\n      stop\n        /* \"contracts/LiskSupplyChain.sol\":2112:2309  function updateProductStatus(uint productId, Status status) public onlyOwner(productId) {... */\n    tag_10:\n      tag_50\n      0x04\n      dup1\n      calldatasize\n      sub\n      dup2\n      add\n      swap1\n      tag_51\n      swap2\n      swap1\n      tag_52\n      jump\t// in\n    tag_51:\n      tag_53\n      jump\t// in\n    tag_50:\n      stop\n        /* \"contracts/LiskSupplyChain.sol\":3465:3555  function getTotalUsers() public view returns (uint256 ){... */\n    tag_11:\n      tag_54\n      tag_55\n      jump\t// in\n    tag_54:\n      mload(0x40)\n      tag_56\n      swap2\n      swap1\n      tag_21\n      jump\t// in\n    tag_56:\n      mload(0x40)\n      dup1\n      swap2\n      sub\n      swap1\n      return\n        /* \"contracts/LiskSupplyChain.sol\":2722:2848  function viewStatus(uint256 productId) public view returns (Status status){... */\n    tag_12:\n      tag_57\n      0x04\n      dup1\n      calldatasize\n      sub\n      dup2\n      add\n      swap1\n      tag_58\n      swap2\n      swap1\n      tag_28\n      jump\t// in\n    tag_58:\n      tag_59\n      jump\t// in\n    tag_57:\n      mload(0x40)\n      tag_60\n      swap2\n      swap1\n      tag_61\n      jump\t// in\n    tag_60:\n      mload(0x40)\n      dup1\n      swap2\n      sub\n      swap1\n      return\n        /* \"contracts/LiskSupplyChain.sol\":3324:3429  function getUser(uint256 userId) public view returns (User memory){... */\n    tag_13:\n      tag_62\n      0x04\n      dup1\n      calldatasize\n      sub\n      dup2\n      add\n      swap1\n      tag_63\n      swap2\n      swap1\n      tag_28\n      jump\t// in\n    tag_63:\n      tag_64\n      jump\t// in\n    tag_62:\n      mload(0x40)\n      tag_65\n      swap2\n      swap1\n      tag_66\n      jump\t// in\n    tag_65:\n      mload(0x40)\n      dup1\n      swap2\n      sub\n      swap1\n      return\n        /* \"contracts/LiskSupplyChain.sol\":1066:1098  uint256 public  productCount = 0 */\n    tag_14:\n      tag_67\n      tag_68\n      jump\t// in\n    tag_67:\n      mload(0x40)\n      tag_69\n      swap2\n      swap1\n      tag_21\n      jump\t// in\n    tag_69:\n      mload(0x40)\n      dup1\n      swap2\n      sub\n      swap1\n      return\n        /* \"contracts/LiskSupplyChain.sol\":1140:1168  address public  ProductOwner */\n    tag_15:\n      tag_70\n      tag_71\n      jump\t// in\n    tag_70:\n      mload(0x40)\n      tag_72\n      swap2\n      swap1\n      tag_73\n      jump\t// in\n    tag_72:\n      mload(0x40)\n      dup1\n      swap2\n      sub\n      swap1\n      return\n        /* \"contracts/LiskSupplyChain.sol\":1105:1133  uint256 public userCount = 0 */\n    tag_19:\n      sload(0x01)\n      dup2\n      jump\t// out\n        /* \"contracts/LiskSupplyChain.sol\":1472:2073  function createProduct(string memory _name, uint16 _price, uint256 _quantity, string memory desc, string memory _from, string memory  _to) public{... */\n    tag_25:\n        /* \"contracts/LiskSupplyChain.sol\":1628:1640  productCount */\n      0x00\n      dup1\n        /* \"contracts/LiskSupplyChain.sol\":1628:1642  productCount++ */\n      dup2\n      sload\n      dup1\n      swap3\n      swap2\n      swap1\n      tag_75\n      swap1\n      tag_76\n      jump\t// in\n    tag_75:\n      swap2\n      swap1\n      pop\n      sstore\n      pop\n        /* \"contracts/LiskSupplyChain.sol\":1678:2002  Product({... */\n      mload(0x40)\n      dup1\n      0x0140\n      add\n      0x40\n      mstore\n      dup1\n        /* \"contracts/LiskSupplyChain.sol\":1705:1717  productCount */\n      sload(0x00)\n        /* \"contracts/LiskSupplyChain.sol\":1678:2002  Product({... */\n      dup2\n      mstore\n      0x20\n      add\n        /* \"contracts/LiskSupplyChain.sol\":1738:1743  _name */\n      dup8\n        /* \"contracts/LiskSupplyChain.sol\":1678:2002  Product({... */\n      dup2\n      mstore\n      0x20\n      add\n        /* \"contracts/LiskSupplyChain.sol\":1765:1775  msg.sender */\n      caller\n        /* \"contracts/LiskSupplyChain.sol\":1678:2002  Product({... */\n      0xffffffffffffffffffffffffffffffffffffffff\n      and\n      dup2\n      mstore\n      0x20\n      add\n        /* \"contracts/LiskSupplyChain.sol\":1797:1803  _price */\n      dup7\n        /* \"contracts/LiskSupplyChain.sol\":1678:2002  Product({... */\n      0xffff\n      and\n      dup2\n      mstore\n      0x20\n      add\n        /* \"contracts/LiskSupplyChain.sol\":1828:1837  _quantity */\n      dup6\n        /* \"contracts/LiskSupplyChain.sol\":1678:2002  Product({... */\n      dup2\n      mstore\n      0x20\n      add\n        /* \"contracts/LiskSupplyChain.sol\":1865:1869  desc */\n      dup5\n        /* \"contracts/LiskSupplyChain.sol\":1678:2002  Product({... */\n      dup2\n      mstore\n      0x20\n      add\n        /* \"contracts/LiskSupplyChain.sol\":1890:1895  _from */\n      dup4\n        /* \"contracts/LiskSupplyChain.sol\":1678:2002  Product({... */\n      dup2\n      mstore\n      0x20\n      add\n        /* \"contracts/LiskSupplyChain.sol\":1914:1917  _to */\n      dup3\n        /* \"contracts/LiskSupplyChain.sol\":1678:2002  Product({... */\n      dup2\n      mstore\n      0x20\n      add\n        /* \"contracts/LiskSupplyChain.sol\":1975:1990  block.timestamp */\n      timestamp\n        /* \"contracts/LiskSupplyChain.sol\":1678:2002  Product({... */\n      dup2\n      mstore\n      0x20\n      add\n        /* \"contracts/LiskSupplyChain.sol\":1940:1954  Status.Created */\n      0x00\n        /* \"contracts/LiskSupplyChain.sol\":1678:2002  Product({... */\n      0x03\n      dup2\n      gt\n      iszero\n      tag_77\n      jumpi\n      tag_78\n      tag_79\n      jump\t// in\n    tag_78:\n    tag_77:\n      dup2\n      mstore\n      pop\n        /* \"contracts/LiskSupplyChain.sol\":1653:1661  products */\n      0x03\n        /* \"contracts/LiskSupplyChain.sol\":1653:1675  products[productCount] */\n      0x00\n        /* \"contracts/LiskSupplyChain.sol\":1662:1674  productCount */\n      dup1\n      sload\n        /* \"contracts/LiskSupplyChain.sol\":1653:1675  products[productCount] */\n      dup2\n      mstore\n      0x20\n      add\n      swap1\n      dup2\n      mstore\n      0x20\n      add\n      0x00\n      keccak256\n        /* \"contracts/LiskSupplyChain.sol\":1653:2002  products[productCount] = Product({... */\n      0x00\n      dup3\n      add\n      mload\n      dup2\n      0x00\n      add\n      sstore\n      0x20\n      dup3\n      add\n      mload\n      dup2\n      0x01\n      add\n      swap1\n      dup2\n      tag_80\n      swap2\n      swap1\n      tag_81\n      jump\t// in\n    tag_80:\n      pop\n      0x40\n      dup3\n      add\n      mload\n      dup2\n      0x02\n      add\n      exp(0x0100, 0x00)\n      dup2\n      sload\n      dup2\n      0xffffffffffffffffffffffffffffffffffffffff\n      mul\n      not\n      and\n      swap1\n      dup4\n      0xffffffffffffffffffffffffffffffffffffffff\n      and\n      mul\n      or\n      swap1\n      sstore\n      pop\n      0x60\n      dup3\n      add\n      mload\n      dup2\n      0x02\n      add\n      exp(0x0100, 0x14)\n      dup2\n      sload\n      dup2\n      0xffff\n      mul\n      not\n      and\n      swap1\n      dup4\n      0xffff\n      and\n      mul\n      or\n      swap1\n      sstore\n      pop\n      0x80\n      dup3\n      add\n      mload\n      dup2\n      0x03\n      add\n      sstore\n      0xa0\n      dup3\n      add\n      mload\n      dup2\n      0x04\n      add\n      swap1\n      dup2\n      tag_82\n      swap2\n      swap1\n      tag_81\n      jump\t// in\n    tag_82:\n      pop\n      0xc0\n      dup3\n      add\n      mload\n      dup2\n      0x05\n      add\n      swap1\n      dup2\n      tag_83\n      swap2\n      swap1\n      tag_81\n      jump\t// in\n    tag_83:\n      pop\n      0xe0\n      dup3\n      add\n      mload\n      dup2\n      0x06\n      add\n      swap1\n      dup2\n      tag_84\n      swap2\n      swap1\n      tag_81\n      jump\t// in\n    tag_84:\n      pop\n      0x0100\n      dup3\n      add\n      mload\n      dup2\n      0x07\n      add\n      sstore\n      0x0120\n      dup3\n      add\n      mload\n      dup2\n      0x08\n      add\n      exp(0x0100, 0x00)\n      dup2\n      sload\n      dup2\n      0xff\n      mul\n      not\n      and\n      swap1\n      dup4\n      0x03\n      dup2\n      gt\n      iszero\n      tag_85\n      jumpi\n      tag_86\n      tag_79\n      jump\t// in\n    tag_86:\n    tag_85:\n      mul\n      or\n      swap1\n      sstore\n      pop\n      swap1\n      pop\n      pop\n        /* \"contracts/LiskSupplyChain.sol\":2018:2065  ProductCreated(productCount, _name, msg.sender) */\n      0xaf6ffb6277511513e7d579327cc1fc57f0266df2fb11a60b13487b8c9cd2c388\n        /* \"contracts/LiskSupplyChain.sol\":2033:2045  productCount */\n      sload(0x00)\n        /* \"contracts/LiskSupplyChain.sol\":2047:2052  _name */\n      dup8\n        /* \"contracts/LiskSupplyChain.sol\":2054:2064  msg.sender */\n      caller\n        /* \"contracts/LiskSupplyChain.sol\":2018:2065  ProductCreated(productCount, _name, msg.sender) */\n      mload(0x40)\n      tag_87\n      swap4\n      swap3\n      swap2\n      swap1\n      tag_88\n      jump\t// in\n    tag_87:\n      mload(0x40)\n      dup1\n      swap2\n      sub\n      swap1\n      log1\n        /* \"contracts/LiskSupplyChain.sol\":1472:2073  function createProduct(string memory _name, uint16 _price, uint256 _quantity, string memory desc, string memory _from, string memory  _to) public{... */\n      pop\n      pop\n      pop\n      pop\n      pop\n      pop\n      jump\t// out\n        /* \"contracts/LiskSupplyChain.sol\":1227:1265  mapping (uint256 => User) public users */\n    tag_29:\n      mstore(0x20, 0x04)\n      dup1\n      0x00\n      mstore\n      keccak256(0x00, 0x40)\n      0x00\n      swap2\n      pop\n      swap1\n      pop\n      dup1\n      0x00\n      add\n      sload\n      swap1\n      dup1\n      0x01\n      add\n      dup1\n      sload\n      tag_89\n      swap1\n      tag_90\n      jump\t// in\n    tag_89:\n      dup1\n      0x1f\n      add\n      0x20\n      dup1\n      swap2\n      div\n      mul\n      0x20\n      add\n      mload(0x40)\n      swap1\n      dup2\n      add\n      0x40\n      mstore\n      dup1\n      swap3\n      swap2\n      swap1\n      dup2\n      dup2\n      mstore\n      0x20\n      add\n      dup3\n      dup1\n      sload\n      tag_91\n      swap1\n      tag_90\n      jump\t// in\n    tag_91:\n      dup1\n      iszero\n      tag_92\n      jumpi\n      dup1\n      0x1f\n      lt\n      tag_93\n      jumpi\n      0x0100\n      dup1\n      dup4\n      sload\n      div\n      mul\n      dup4\n      mstore\n      swap2\n      0x20\n      add\n      swap2\n      jump(tag_92)\n    tag_93:\n      dup3\n      add\n      swap2\n      swap1\n      0x00\n      mstore\n      keccak256(0x00, 0x20)\n      swap1\n    tag_94:\n      dup2\n      sload\n      dup2\n      mstore\n      swap1\n      0x01\n      add\n      swap1\n      0x20\n      add\n      dup1\n      dup4\n      gt\n      tag_94\n      jumpi\n      dup3\n      swap1\n      sub\n      0x1f\n      and\n      dup3\n      add\n      swap2\n    tag_92:\n      pop\n      pop\n      pop\n      pop\n      pop\n      swap1\n      dup1\n      0x02\n      add\n      0x00\n      swap1\n      sload\n      swap1\n      0x0100\n      exp\n      swap1\n      div\n      0xffffffffffffffffffffffffffffffffffffffff\n      and\n      swap1\n      dup1\n      0x03\n      add\n      dup1\n      sload\n      tag_95\n      swap1\n      tag_90\n      jump\t// in\n    tag_95:\n      dup1\n      0x1f\n      add\n      0x20\n      dup1\n      swap2\n      div\n      mul\n      0x20\n      add\n      mload(0x40)\n      swap1\n      dup2\n      add\n      0x40\n      mstore\n      dup1\n      swap3\n      swap2\n      swap1\n      dup2\n      dup2\n      mstore\n      0x20\n      add\n      dup3\n      dup1\n      sload\n      tag_96\n      swap1\n      tag_90\n      jump\t// in\n    tag_96:\n      dup1\n      iszero\n      tag_97\n      jumpi\n      dup1\n      0x1f\n      lt\n      tag_98\n      jumpi\n      0x0100\n      dup1\n      dup4\n      sload\n      div\n      mul\n      dup4\n      mstore\n      swap2\n      0x20\n      add\n      swap2\n      jump(tag_97)\n    tag_98:\n      dup3\n      add\n      swap2\n      swap1\n      0x00\n      mstore\n      keccak256(0x00, 0x20)\n      swap1\n    tag_99:\n      dup2\n      sload\n      dup2\n      mstore\n      swap1\n      0x01\n      add\n      swap1\n      0x20\n      add\n      dup1\n      dup4\n      gt\n      tag_99\n      jumpi\n      dup3\n      swap1\n      sub\n      0x1f\n      and\n      dup3\n      add\n      swap2\n    tag_97:\n      pop\n      pop\n      pop\n      pop\n      pop\n      swap1\n      dup1\n      0x04\n      add\n      dup1\n      sload\n      tag_100\n      swap1\n      tag_90\n      jump\t// in\n    tag_100:\n      dup1\n      0x1f\n      add\n      0x20\n      dup1\n      swap2\n      div\n      mul\n      0x20\n      add\n      mload(0x40)\n      swap1\n      dup2\n      add\n      0x40\n      mstore\n      dup1\n      swap3\n      swap2\n      swap1\n      dup2\n      dup2\n      mstore\n      0x20\n      add\n      dup3\n      dup1\n      sload\n      tag_101\n      swap1\n      tag_90\n      jump\t// in\n    tag_101:\n      dup1\n      iszero\n      tag_102\n      jumpi\n      dup1\n      0x1f\n      lt\n      tag_103\n      jumpi\n      0x0100\n      dup1\n      dup4\n      sload\n      div\n      mul\n      dup4\n      mstore\n      swap2\n      0x20\n      add\n      swap2\n      jump(tag_102)\n    tag_103:\n      dup3\n      add\n      swap2\n      swap1\n      0x00\n      mstore\n      keccak256(0x00, 0x20)\n      swap1\n    tag_104:\n      dup2\n      sload\n      dup2\n      mstore\n      swap1\n      0x01\n      add\n      swap1\n      0x20\n      add\n      dup1\n      dup4\n      gt\n      tag_104\n      jumpi\n      dup3\n      swap1\n      sub\n      0x1f\n      and\n      dup3\n      add\n      swap2\n    tag_102:\n      pop\n      pop\n      pop\n      pop\n      pop\n      swap1\n      dup1\n      0x05\n      add\n      sload\n      swap1\n      dup1\n      0x06\n      add\n      0x00\n      swap1\n      sload\n      swap1\n      0x0100\n      exp\n      swap1\n      div\n      0xff\n      and\n      swap1\n      pop\n      dup8\n      jump\t// out\n        /* \"contracts/LiskSupplyChain.sol\":2344:2467  function productDetails(uint _productId) public view returns (Product memory){... */\n    tag_34:\n        /* \"contracts/LiskSupplyChain.sol\":2406:2420  Product memory */\n      tag_105\n      tag_106\n      jump\t// in\n    tag_105:\n        /* \"contracts/LiskSupplyChain.sol\":2439:2447  products */\n      0x03\n        /* \"contracts/LiskSupplyChain.sol\":2439:2459  products[_productId] */\n      0x00\n        /* \"contracts/LiskSupplyChain.sol\":2448:2458  _productId */\n      dup4\n        /* \"contracts/LiskSupplyChain.sol\":2439:2459  products[_productId] */\n      dup2\n      mstore\n      0x20\n      add\n      swap1\n      dup2\n      mstore\n      0x20\n      add\n      0x00\n      keccak256\n        /* \"contracts/LiskSupplyChain.sol\":2432:2459  return products[_productId] */\n      mload(0x40)\n      dup1\n      0x0140\n      add\n      0x40\n      mstore\n      swap1\n      dup2\n      0x00\n      dup3\n      add\n      sload\n      dup2\n      mstore\n      0x20\n      add\n      0x01\n      dup3\n      add\n      dup1\n      sload\n      tag_108\n      swap1\n      tag_90\n      jump\t// in\n    tag_108:\n      dup1\n      0x1f\n      add\n      0x20\n      dup1\n      swap2\n      div\n      mul\n      0x20\n      add\n      mload(0x40)\n      swap1\n      dup2\n      add\n      0x40\n      mstore\n      dup1\n      swap3\n      swap2\n      swap1\n      dup2\n      dup2\n      mstore\n      0x20\n      add\n      dup3\n      dup1\n      sload\n      tag_109\n      swap1\n      tag_90\n      jump\t// in\n    tag_109:\n      dup1\n      iszero\n      tag_110\n      jumpi\n      dup1\n      0x1f\n      lt\n      tag_111\n      jumpi\n      0x0100\n      dup1\n      dup4\n      sload\n      div\n      mul\n      dup4\n      mstore\n      swap2\n      0x20\n      add\n      swap2\n      jump(tag_110)\n    tag_111:\n      dup3\n      add\n      swap2\n      swap1\n      0x00\n      mstore\n      keccak256(0x00, 0x20)\n      swap1\n    tag_112:\n      dup2\n      sload\n      dup2\n      mstore\n      swap1\n      0x01\n      add\n      swap1\n      0x20\n      add\n      dup1\n      dup4\n      gt\n      tag_112\n      jumpi\n      dup3\n      swap1\n      sub\n      0x1f\n      and\n      dup3\n      add\n      swap2\n    tag_110:\n      pop\n      pop\n      pop\n      pop\n      pop\n      dup2\n      mstore\n      0x20\n      add\n      0x02\n      dup3\n      add\n      0x00\n      swap1\n      sload\n      swap1\n      0x0100\n      exp\n      swap1\n      div\n      0xffffffffffffffffffffffffffffffffffffffff\n      and\n      0xffffffffffffffffffffffffffffffffffffffff\n      and\n      0xffffffffffffffffffffffffffffffffffffffff\n      and\n      dup2\n      mstore\n      0x20\n      add\n      0x02\n      dup3\n      add\n      0x14\n      swap1\n      sload\n      swap1\n      0x0100\n      exp\n      swap1\n      div\n      0xffff\n      and\n      0xffff\n      and\n      0xffff\n      and\n      dup2\n      mstore\n      0x20\n      add\n      0x03\n      dup3\n      add\n      sload\n      dup2\n      mstore\n      0x20\n      add\n      0x04\n      dup3\n      add\n      dup1\n      sload\n      tag_113\n      swap1\n      tag_90\n      jump\t// in\n    tag_113:\n      dup1\n      0x1f\n      add\n      0x20\n      dup1\n      swap2\n      div\n      mul\n      0x20\n      add\n      mload(0x40)\n      swap1\n      dup2\n      add\n      0x40\n      mstore\n      dup1\n      swap3\n      swap2\n      swap1\n      dup2\n      dup2\n      mstore\n      0x20\n      add\n      dup3\n      dup1\n      sload\n      tag_114\n      swap1\n      tag_90\n      jump\t// in\n    tag_114:\n      dup1\n      iszero\n      tag_115\n      jumpi\n      dup1\n      0x1f\n      lt\n      tag_116\n      jumpi\n      0x0100\n      dup1\n      dup4\n      sload\n      div\n      mul\n      dup4\n      mstore\n      swap2\n      0x20\n      add\n      swap2\n      jump(tag_115)\n    tag_116:\n      dup3\n      add\n      swap2\n      swap1\n      0x00\n      mstore\n      keccak256(0x00, 0x20)\n      swap1\n    tag_117:\n      dup2\n      sload\n      dup2\n      mstore\n      swap1\n      0x01\n      add\n      swap1\n      0x20\n      add\n      dup1\n      dup4\n      gt\n      tag_117\n      jumpi\n      dup3\n      swap1\n      sub\n      0x1f\n      and\n      dup3\n      add\n      swap2\n    tag_115:\n      pop\n      pop\n      pop\n      pop\n      pop\n      dup2\n      mstore\n      0x20\n      add\n      0x05\n      dup3\n      add\n      dup1\n      sload\n      tag_118\n      swap1\n      tag_90\n      jump\t// in\n    tag_118:\n      dup1\n      0x1f\n      add\n      0x20\n      dup1\n      swap2\n      div\n      mul\n      0x20\n      add\n      mload(0x40)\n      swap1\n      dup2\n      add\n      0x40\n      mstore\n      dup1\n      swap3\n      swap2\n      swap1\n      dup2\n      dup2\n      mstore\n      0x20\n      add\n      dup3\n      dup1\n      sload\n      tag_119\n      swap1\n      tag_90\n      jump\t// in\n    tag_119:\n      dup1\n      iszero\n      tag_120\n      jumpi\n      dup1\n      0x1f\n      lt\n      tag_121\n      jumpi\n      0x0100\n      dup1\n      dup4\n      sload\n      div\n      mul\n      dup4\n      mstore\n      swap2\n      0x20\n      add\n      swap2\n      jump(tag_120)\n    tag_121:\n      dup3\n      add\n      swap2\n      swap1\n      0x00\n      mstore\n      keccak256(0x00, 0x20)\n      swap1\n    tag_122:\n      dup2\n      sload\n      dup2\n      mstore\n      swap1\n      0x01\n      add\n      swap1\n      0x20\n      add\n      dup1\n      dup4\n      gt\n      tag_122\n      jumpi\n      dup3\n      swap1\n      sub\n      0x1f\n      and\n      dup3\n      add\n      swap2\n    tag_120:\n      pop\n      pop\n      pop\n      pop\n      pop\n      dup2\n      mstore\n      0x20\n      add\n      0x06\n      dup3\n      add\n      dup1\n      sload\n      tag_123\n      swap1\n      tag_90\n      jump\t// in\n    tag_123:\n      dup1\n      0x1f\n      add\n      0x20\n      dup1\n      swap2\n      div\n      mul\n      0x20\n      add\n      mload(0x40)\n      swap1\n      dup2\n      add\n      0x40\n      mstore\n      dup1\n      swap3\n      swap2\n      swap1\n      dup2\n      dup2\n      mstore\n      0x20\n      add\n      dup3\n      dup1\n      sload\n      tag_124\n      swap1\n      tag_90\n      jump\t// in\n    tag_124:\n      dup1\n      iszero\n      tag_125\n      jumpi\n      dup1\n      0x1f\n      lt\n      tag_126\n      jumpi\n      0x0100\n      dup1\n      dup4\n      sload\n      div\n      mul\n      dup4\n      mstore\n      swap2\n      0x20\n      add\n      swap2\n      jump(tag_125)\n    tag_126:\n      dup3\n      add\n      swap2\n      swap1\n      0x00\n      mstore\n      keccak256(0x00, 0x20)\n      swap1\n    tag_127:\n      dup2\n      sload\n      dup2\n      mstore\n      swap1\n      0x01\n      add\n      swap1\n      0x20\n      add\n      dup1\n      dup4\n      gt\n      tag_127\n      jumpi\n      dup3\n      swap1\n      sub\n      0x1f\n      and\n      dup3\n      add\n      swap2\n    tag_125:\n      pop\n      pop\n      pop\n      pop\n      pop\n      dup2\n      mstore\n      0x20\n      add\n      0x07\n      dup3\n      add\n      sload\n      dup2\n      mstore\n      0x20\n      add\n      0x08\n      dup3\n      add\n      0x00\n      swap1\n      sload\n      swap1\n      0x0100\n      exp\n      swap1\n      div\n      0xff\n      and\n      0x03\n      dup2\n      gt\n      iszero\n      tag_128\n      jumpi\n      tag_129\n      tag_79\n      jump\t// in\n    tag_129:\n    tag_128:\n      0x03\n      dup2\n      gt\n      iszero\n      tag_130\n      jumpi\n      tag_131\n      tag_79\n      jump\t// in\n    tag_131:\n    tag_130:\n      dup2\n      mstore\n      pop\n      pop\n      swap1\n      pop\n        /* \"contracts/LiskSupplyChain.sol\":2344:2467  function productDetails(uint _productId) public view returns (Product memory){... */\n      swap2\n      swap1\n      pop\n      jump\t// out\n        /* \"contracts/LiskSupplyChain.sol\":2882:3285  function createCustomer(string memory name, string memory location, string memory desc, Roles _role) public {... */\n    tag_40:\n        /* \"contracts/LiskSupplyChain.sol\":3001:3010  userCount */\n      0x01\n      0x00\n        /* \"contracts/LiskSupplyChain.sol\":3001:3012  userCount++ */\n      dup2\n      sload\n      dup1\n      swap3\n      swap2\n      swap1\n      tag_133\n      swap1\n      tag_76\n      jump\t// in\n    tag_133:\n      swap2\n      swap1\n      pop\n      sstore\n      pop\n        /* \"contracts/LiskSupplyChain.sol\":3042:3277  User({... */\n      mload(0x40)\n      dup1\n      0xe0\n      add\n      0x40\n      mstore\n      dup1\n        /* \"contracts/LiskSupplyChain.sol\":3066:3075  userCount */\n      sload(0x01)\n        /* \"contracts/LiskSupplyChain.sol\":3042:3277  User({... */\n      dup2\n      mstore\n      0x20\n      add\n        /* \"contracts/LiskSupplyChain.sol\":3096:3100  name */\n      dup6\n        /* \"contracts/LiskSupplyChain.sol\":3042:3277  User({... */\n      dup2\n      mstore\n      0x20\n      add\n        /* \"contracts/LiskSupplyChain.sol\":3128:3138  msg.sender */\n      caller\n        /* \"contracts/LiskSupplyChain.sol\":3042:3277  User({... */\n      0xffffffffffffffffffffffffffffffffffffffff\n      and\n      dup2\n      mstore\n      0x20\n      add\n        /* \"contracts/LiskSupplyChain.sol\":3163:3171  location */\n      dup5\n        /* \"contracts/LiskSupplyChain.sol\":3042:3277  User({... */\n      dup2\n      mstore\n      0x20\n      add\n        /* \"contracts/LiskSupplyChain.sol\":3199:3203  desc */\n      dup4\n        /* \"contracts/LiskSupplyChain.sol\":3042:3277  User({... */\n      dup2\n      mstore\n      0x20\n      add\n        /* \"contracts/LiskSupplyChain.sol\":3224:3239  block.timestamp */\n      timestamp\n        /* \"contracts/LiskSupplyChain.sol\":3042:3277  User({... */\n      dup2\n      mstore\n      0x20\n      add\n        /* \"contracts/LiskSupplyChain.sol\":3260:3265  _role */\n      dup3\n        /* \"contracts/LiskSupplyChain.sol\":3042:3277  User({... */\n      0x03\n      dup2\n      gt\n      iszero\n      tag_134\n      jumpi\n      tag_135\n      tag_79\n      jump\t// in\n    tag_135:\n    tag_134:\n      dup2\n      mstore\n      pop\n        /* \"contracts/LiskSupplyChain.sol\":3023:3028  users */\n      0x04\n        /* \"contracts/LiskSupplyChain.sol\":3023:3039  users[userCount] */\n      0x00\n        /* \"contracts/LiskSupplyChain.sol\":3029:3038  userCount */\n      sload(0x01)\n        /* \"contracts/LiskSupplyChain.sol\":3023:3039  users[userCount] */\n      dup2\n      mstore\n      0x20\n      add\n      swap1\n      dup2\n      mstore\n      0x20\n      add\n      0x00\n      keccak256\n        /* \"contracts/LiskSupplyChain.sol\":3023:3277  users[userCount] = User({... */\n      0x00\n      dup3\n      add\n      mload\n      dup2\n      0x00\n      add\n      sstore\n      0x20\n      dup3\n      add\n      mload\n      dup2\n      0x01\n      add\n      swap1\n      dup2\n      tag_136\n      swap2\n      swap1\n      tag_81\n      jump\t// in\n    tag_136:\n      pop\n      0x40\n      dup3\n      add\n      mload\n      dup2\n      0x02\n      add\n      exp(0x0100, 0x00)\n      dup2\n      sload\n      dup2\n      0xffffffffffffffffffffffffffffffffffffffff\n      mul\n      not\n      and\n      swap1\n      dup4\n      0xffffffffffffffffffffffffffffffffffffffff\n      and\n      mul\n      or\n      swap1\n      sstore\n      pop\n      0x60\n      dup3\n      add\n      mload\n      dup2\n      0x03\n      add\n      swap1\n      dup2\n      tag_137\n      swap2\n      swap1\n      tag_81\n      jump\t// in\n    tag_137:\n      pop\n      0x80\n      dup3\n      add\n      mload\n      dup2\n      0x04\n      add\n      swap1\n      dup2\n      tag_138\n      swap2\n      swap1\n      tag_81\n      jump\t// in\n    tag_138:\n      pop\n      0xa0\n      dup3\n      add\n      mload\n      dup2\n      0x05\n      add\n      sstore\n      0xc0\n      dup3\n      add\n      mload\n      dup2\n      0x06\n      add\n      exp(0x0100, 0x00)\n      dup2\n      sload\n      dup2\n      0xff\n      mul\n      not\n      and\n      swap1\n      dup4\n      0x03\n      dup2\n      gt\n      iszero\n      tag_139\n      jumpi\n      tag_140\n      tag_79\n      jump\t// in\n    tag_140:\n    tag_139:\n      mul\n      or\n      swap1\n      sstore\n      pop\n      swap1\n      pop\n      pop\n        /* \"contracts/LiskSupplyChain.sol\":2882:3285  function createCustomer(string memory name, string memory location, string memory desc, Roles _role) public {... */\n      pop\n      pop\n      pop\n      pop\n      jump\t// out\n        /* \"contracts/LiskSupplyChain.sol\":1175:1220  mapping (uint256 => Product) public  products */\n    tag_43:\n      mstore(0x20, 0x03)\n      dup1\n      0x00\n      mstore\n      keccak256(0x00, 0x40)\n      0x00\n      swap2\n      pop\n      swap1\n      pop\n      dup1\n      0x00\n      add\n      sload\n      swap1\n      dup1\n      0x01\n      add\n      dup1\n      sload\n      tag_141\n      swap1\n      tag_90\n      jump\t// in\n    tag_141:\n      dup1\n      0x1f\n      add\n      0x20\n      dup1\n      swap2\n      div\n      mul\n      0x20\n      add\n      mload(0x40)\n      swap1\n      dup2\n      add\n      0x40\n      mstore\n      dup1\n      swap3\n      swap2\n      swap1\n      dup2\n      dup2\n      mstore\n      0x20\n      add\n      dup3\n      dup1\n      sload\n      tag_142\n      swap1\n      tag_90\n      jump\t// in\n    tag_142:\n      dup1\n      iszero\n      tag_143\n      jumpi\n      dup1\n      0x1f\n      lt\n      tag_144\n      jumpi\n      0x0100\n      dup1\n      dup4\n      sload\n      div\n      mul\n      dup4\n      mstore\n      swap2\n      0x20\n      add\n      swap2\n      jump(tag_143)\n    tag_144:\n      dup3\n      add\n      swap2\n      swap1\n      0x00\n      mstore\n      keccak256(0x00, 0x20)\n      swap1\n    tag_145:\n      dup2\n      sload\n      dup2\n      mstore\n      swap1\n      0x01\n      add\n      swap1\n      0x20\n      add\n      dup1\n      dup4\n      gt\n      tag_145\n      jumpi\n      dup3\n      swap1\n      sub\n      0x1f\n      and\n      dup3\n      add\n      swap2\n    tag_143:\n      pop\n      pop\n      pop\n      pop\n      pop\n      swap1\n      dup1\n      0x02\n      add\n      0x00\n      swap1\n      sload\n      swap1\n      0x0100\n      exp\n      swap1\n      div\n      0xffffffffffffffffffffffffffffffffffffffff\n      and\n      swap1\n      dup1\n      0x02\n      add\n      0x14\n      swap1\n      sload\n      swap1\n      0x0100\n      exp\n      swap1\n      div\n      0xffff\n      and\n      swap1\n      dup1\n      0x03\n      add\n      sload\n      swap1\n      dup1\n      0x04\n      add\n      dup1\n      sload\n      tag_146\n      swap1\n      tag_90\n      jump\t// in\n    tag_146:\n      dup1\n      0x1f\n      add\n      0x20\n      dup1\n      swap2\n      div\n      mul\n      0x20\n      add\n      mload(0x40)\n      swap1\n      dup2\n      add\n      0x40\n      mstore\n      dup1\n      swap3\n      swap2\n      swap1\n      dup2\n      dup2\n      mstore\n      0x20\n      add\n      dup3\n      dup1\n      sload\n      tag_147\n      swap1\n      tag_90\n      jump\t// in\n    tag_147:\n      dup1\n      iszero\n      tag_148\n      jumpi\n      dup1\n      0x1f\n      lt\n      tag_149\n      jumpi\n      0x0100\n      dup1\n      dup4\n      sload\n      div\n      mul\n      dup4\n      mstore\n      swap2\n      0x20\n      add\n      swap2\n      jump(tag_148)\n    tag_149:\n      dup3\n      add\n      swap2\n      swap1\n      0x00\n      mstore\n      keccak256(0x00, 0x20)\n      swap1\n    tag_150:\n      dup2\n      sload\n      dup2\n      mstore\n      swap1\n      0x01\n      add\n      swap1\n      0x20\n      add\n      dup1\n      dup4\n      gt\n      tag_150\n      jumpi\n      dup3\n      swap1\n      sub\n      0x1f\n      and\n      dup3\n      add\n      swap2\n    tag_148:\n      pop\n      pop\n      pop\n      pop\n      pop\n      swap1\n      dup1\n      0x05\n      add\n      dup1\n      sload\n      tag_151\n      swap1\n      tag_90\n      jump\t// in\n    tag_151:\n      dup1\n      0x1f\n      add\n      0x20\n      dup1\n      swap2\n      div\n      mul\n      0x20\n      add\n      mload(0x40)\n      swap1\n      dup2\n      add\n      0x40\n      mstore\n      dup1\n      swap3\n      swap2\n      swap1\n      dup2\n      dup2\n      mstore\n      0x20\n      add\n      dup3\n      dup1\n      sload\n      tag_152\n      swap1\n      tag_90\n      jump\t// in\n    tag_152:\n      dup1\n      iszero\n      tag_153\n      jumpi\n      dup1\n      0x1f\n      lt\n      tag_154\n      jumpi\n      0x0100\n      dup1\n      dup4\n      sload\n      div\n      mul\n      dup4\n      mstore\n      swap2\n      0x20\n      add\n      swap2\n      jump(tag_153)\n    tag_154:\n      dup3\n      add\n      swap2\n      swap1\n      0x00\n      mstore\n      keccak256(0x00, 0x20)\n      swap1\n    tag_155:\n      dup2\n      sload\n      dup2\n      mstore\n      swap1\n      0x01\n      add\n      swap1\n      0x20\n      add\n      dup1\n      dup4\n      gt\n      tag_155\n      jumpi\n      dup3\n      swap1\n      sub\n      0x1f\n      and\n      dup3\n      add\n      swap2\n    tag_153:\n      pop\n      pop\n      pop\n      pop\n      pop\n      swap1\n      dup1\n      0x06\n      add\n      dup1\n      sload\n      tag_156\n      swap1\n      tag_90\n      jump\t// in\n    tag_156:\n      dup1\n      0x1f\n      add\n      0x20\n      dup1\n      swap2\n      div\n      mul\n      0x20\n      add\n      mload(0x40)\n      swap1\n      dup2\n      add\n      0x40\n      mstore\n      dup1\n      swap3\n      swap2\n      swap1\n      dup2\n      dup2\n      mstore\n      0x20\n      add\n      dup3\n      dup1\n      sload\n      tag_157\n      swap1\n      tag_90\n      jump\t// in\n    tag_157:\n      dup1\n      iszero\n      tag_158\n      jumpi\n      dup1\n      0x1f\n      lt\n      tag_159\n      jumpi\n      0x0100\n      dup1\n      dup4\n      sload\n      div\n      mul\n      dup4\n      mstore\n      swap2\n      0x20\n      add\n      swap2\n      jump(tag_158)\n    tag_159:\n      dup3\n      add\n      swap2\n      swap1\n      0x00\n      mstore\n      keccak256(0x00, 0x20)\n      swap1\n    tag_160:\n      dup2\n      sload\n      dup2\n      mstore\n      swap1\n      0x01\n      add\n      swap1\n      0x20\n      add\n      dup1\n      dup4\n      gt\n      tag_160\n      jumpi\n      dup3\n      swap1\n      sub\n      0x1f\n      and\n      dup3\n      add\n      swap2\n    tag_158:\n      pop\n      pop\n      pop\n      pop\n      pop\n      swap1\n      dup1\n      0x07\n      add\n      sload\n      swap1\n      dup1\n      0x08\n      add\n      0x00\n      swap1\n      sload\n      swap1\n      0x0100\n      exp\n      swap1\n      div\n      0xff\n      and\n      swap1\n      pop\n      dup11\n      jump\t// out\n        /* \"contracts/LiskSupplyChain.sol\":2514:2714  function changeOwnership(uint productId, address newOwner) public onlyOwner(productId){... */\n    tag_49:\n        /* \"contracts/LiskSupplyChain.sol\":2590:2599  productId */\n      dup2\n        /* \"contracts/LiskSupplyChain.sol\":1396:1406  msg.sender */\n      caller\n        /* \"contracts/LiskSupplyChain.sol\":1366:1406  products[_productId].owner == msg.sender */\n      0xffffffffffffffffffffffffffffffffffffffff\n      and\n        /* \"contracts/LiskSupplyChain.sol\":1366:1374  products */\n      0x03\n        /* \"contracts/LiskSupplyChain.sol\":1366:1386  products[_productId] */\n      0x00\n        /* \"contracts/LiskSupplyChain.sol\":1375:1385  _productId */\n      dup4\n        /* \"contracts/LiskSupplyChain.sol\":1366:1386  products[_productId] */\n      dup2\n      mstore\n      0x20\n      add\n      swap1\n      dup2\n      mstore\n      0x20\n      add\n      0x00\n      keccak256\n        /* \"contracts/LiskSupplyChain.sol\":1366:1392  products[_productId].owner */\n      0x02\n      add\n      0x00\n      swap1\n      sload\n      swap1\n      0x0100\n      exp\n      swap1\n      div\n      0xffffffffffffffffffffffffffffffffffffffff\n      and\n        /* \"contracts/LiskSupplyChain.sol\":1366:1406  products[_productId].owner == msg.sender */\n      0xffffffffffffffffffffffffffffffffffffffff\n      and\n      eq\n        /* \"contracts/LiskSupplyChain.sol\":1358:1420  require(products[_productId].owner == msg.sender, \"Not Owner\") */\n      tag_162\n      jumpi\n      mload(0x40)\n      0x08c379a000000000000000000000000000000000000000000000000000000000\n      dup2\n      mstore\n      0x04\n      add\n      tag_163\n      swap1\n      tag_164\n      jump\t// in\n    tag_163:\n      mload(0x40)\n      dup1\n      swap2\n      sub\n      swap1\n      revert\n    tag_162:\n        /* \"contracts/LiskSupplyChain.sol\":2639:2647  newOwner */\n      dup2\n        /* \"contracts/LiskSupplyChain.sol\":2611:2619  products */\n      0x03\n        /* \"contracts/LiskSupplyChain.sol\":2611:2630  products[productId] */\n      0x00\n        /* \"contracts/LiskSupplyChain.sol\":2620:2629  productId */\n      dup6\n        /* \"contracts/LiskSupplyChain.sol\":2611:2630  products[productId] */\n      dup2\n      mstore\n      0x20\n      add\n      swap1\n      dup2\n      mstore\n      0x20\n      add\n      0x00\n      keccak256\n        /* \"contracts/LiskSupplyChain.sol\":2611:2636  products[productId].owner */\n      0x02\n      add\n      0x00\n        /* \"contracts/LiskSupplyChain.sol\":2611:2647  products[productId].owner = newOwner */\n      0x0100\n      exp\n      dup2\n      sload\n      dup2\n      0xffffffffffffffffffffffffffffffffffffffff\n      mul\n      not\n      and\n      swap1\n      dup4\n      0xffffffffffffffffffffffffffffffffffffffff\n      and\n      mul\n      or\n      swap1\n      sstore\n      pop\n        /* \"contracts/LiskSupplyChain.sol\":2665:2706  OwnershipTransferred(productId, newOwner) */\n      0xba8cc72bdfdb4f3e2281c3f17f6be90c470f76dd1106321a2928859835874bc2\n        /* \"contracts/LiskSupplyChain.sol\":2686:2695  productId */\n      dup4\n        /* \"contracts/LiskSupplyChain.sol\":2697:2705  newOwner */\n      dup4\n        /* \"contracts/LiskSupplyChain.sol\":2665:2706  OwnershipTransferred(productId, newOwner) */\n      mload(0x40)\n      tag_166\n      swap3\n      swap2\n      swap1\n      tag_167\n      jump\t// in\n    tag_166:\n      mload(0x40)\n      dup1\n      swap2\n      sub\n      swap1\n      log1\n        /* \"contracts/LiskSupplyChain.sol\":2514:2714  function changeOwnership(uint productId, address newOwner) public onlyOwner(productId){... */\n      pop\n      pop\n      pop\n      jump\t// out\n        /* \"contracts/LiskSupplyChain.sol\":2112:2309  function updateProductStatus(uint productId, Status status) public onlyOwner(productId) {... */\n    tag_53:\n        /* \"contracts/LiskSupplyChain.sol\":2189:2198  productId */\n      dup2\n        /* \"contracts/LiskSupplyChain.sol\":1396:1406  msg.sender */\n      caller\n        /* \"contracts/LiskSupplyChain.sol\":1366:1406  products[_productId].owner == msg.sender */\n      0xffffffffffffffffffffffffffffffffffffffff\n      and\n        /* \"contracts/LiskSupplyChain.sol\":1366:1374  products */\n      0x03\n        /* \"contracts/LiskSupplyChain.sol\":1366:1386  products[_productId] */\n      0x00\n        /* \"contracts/LiskSupplyChain.sol\":1375:1385  _productId */\n      dup4\n        /* \"contracts/LiskSupplyChain.sol\":1366:1386  products[_productId] */\n      dup2\n      mstore\n      0x20\n      add\n      swap1\n      dup2\n      mstore\n      0x20\n      add\n      0x00\n      keccak256\n        /* \"contracts/LiskSupplyChain.sol\":1366:1392  products[_productId].owner */\n      0x02\n      add\n      0x00\n      swap1\n      sload\n      swap1\n      0x0100\n      exp\n      swap1\n      div\n      0xffffffffffffffffffffffffffffffffffffffff\n      and\n        /* \"contracts/LiskSupplyChain.sol\":1366:1406  products[_productId].owner == msg.sender */\n      0xffffffffffffffffffffffffffffffffffffffff\n      and\n      eq\n        /* \"contracts/LiskSupplyChain.sol\":1358:1420  require(products[_productId].owner == msg.sender, \"Not Owner\") */\n      tag_169\n      jumpi\n      mload(0x40)\n      0x08c379a000000000000000000000000000000000000000000000000000000000\n      dup2\n      mstore\n      0x04\n      add\n      tag_170\n      swap1\n      tag_164\n      jump\t// in\n    tag_170:\n      mload(0x40)\n      dup1\n      swap2\n      sub\n      swap1\n      revert\n    tag_169:\n        /* \"contracts/LiskSupplyChain.sol\":2240:2246  status */\n      dup2\n        /* \"contracts/LiskSupplyChain.sol\":2211:2219  products */\n      0x03\n        /* \"contracts/LiskSupplyChain.sol\":2211:2230  products[productId] */\n      0x00\n        /* \"contracts/LiskSupplyChain.sol\":2220:2229  productId */\n      dup6\n        /* \"contracts/LiskSupplyChain.sol\":2211:2230  products[productId] */\n      dup2\n      mstore\n      0x20\n      add\n      swap1\n      dup2\n      mstore\n      0x20\n      add\n      0x00\n      keccak256\n        /* \"contracts/LiskSupplyChain.sol\":2211:2237  products[productId].status */\n      0x08\n      add\n      0x00\n        /* \"contracts/LiskSupplyChain.sol\":2211:2246  products[productId].status = status */\n      0x0100\n      exp\n      dup2\n      sload\n      dup2\n      0xff\n      mul\n      not\n      and\n      swap1\n      dup4\n      0x03\n      dup2\n      gt\n      iszero\n      tag_172\n      jumpi\n      tag_173\n      tag_79\n      jump\t// in\n    tag_173:\n    tag_172:\n      mul\n      or\n      swap1\n      sstore\n      pop\n        /* \"contracts/LiskSupplyChain.sol\":2262:2301  ProductStatusUpdated(productId, status) */\n      0xb8a3401adfc11253c3aff18e4b48103cec45c852b9afc487c23f32e26746242c\n        /* \"contracts/LiskSupplyChain.sol\":2283:2292  productId */\n      dup4\n        /* \"contracts/LiskSupplyChain.sol\":2294:2300  status */\n      dup4\n        /* \"contracts/LiskSupplyChain.sol\":2262:2301  ProductStatusUpdated(productId, status) */\n      mload(0x40)\n      tag_174\n      swap3\n      swap2\n      swap1\n      tag_175\n      jump\t// in\n    tag_174:\n      mload(0x40)\n      dup1\n      swap2\n      sub\n      swap1\n      log1\n        /* \"contracts/LiskSupplyChain.sol\":2112:2309  function updateProductStatus(uint productId, Status status) public onlyOwner(productId) {... */\n      pop\n      pop\n      pop\n      jump\t// out\n        /* \"contracts/LiskSupplyChain.sol\":3465:3555  function getTotalUsers() public view returns (uint256 ){... */\n    tag_55:\n        /* \"contracts/LiskSupplyChain.sol\":3511:3518  uint256 */\n      0x00\n        /* \"contracts/LiskSupplyChain.sol\":3538:3547  userCount */\n      sload(0x01)\n        /* \"contracts/LiskSupplyChain.sol\":3531:3547  return userCount */\n      swap1\n      pop\n        /* \"contracts/LiskSupplyChain.sol\":3465:3555  function getTotalUsers() public view returns (uint256 ){... */\n      swap1\n      jump\t// out\n        /* \"contracts/LiskSupplyChain.sol\":2722:2848  function viewStatus(uint256 productId) public view returns (Status status){... */\n    tag_59:\n        /* \"contracts/LiskSupplyChain.sol\":2782:2795  Status status */\n      0x00\n        /* \"contracts/LiskSupplyChain.sol\":2814:2822  products */\n      0x03\n        /* \"contracts/LiskSupplyChain.sol\":2814:2833  products[productId] */\n      0x00\n        /* \"contracts/LiskSupplyChain.sol\":2823:2832  productId */\n      dup4\n        /* \"contracts/LiskSupplyChain.sol\":2814:2833  products[productId] */\n      dup2\n      mstore\n      0x20\n      add\n      swap1\n      dup2\n      mstore\n      0x20\n      add\n      0x00\n      keccak256\n        /* \"contracts/LiskSupplyChain.sol\":2814:2840  products[productId].status */\n      0x08\n      add\n      0x00\n      swap1\n      sload\n      swap1\n      0x0100\n      exp\n      swap1\n      div\n      0xff\n      and\n        /* \"contracts/LiskSupplyChain.sol\":2807:2840  return products[productId].status */\n      swap1\n      pop\n        /* \"contracts/LiskSupplyChain.sol\":2722:2848  function viewStatus(uint256 productId) public view returns (Status status){... */\n      swap2\n      swap1\n      pop\n      jump\t// out\n        /* \"contracts/LiskSupplyChain.sol\":3324:3429  function getUser(uint256 userId) public view returns (User memory){... */\n    tag_64:\n        /* \"contracts/LiskSupplyChain.sol\":3378:3389  User memory */\n      tag_178\n      tag_179\n      jump\t// in\n    tag_178:\n        /* \"contracts/LiskSupplyChain.sol\":3408:3413  users */\n      0x04\n        /* \"contracts/LiskSupplyChain.sol\":3408:3421  users[userId] */\n      0x00\n        /* \"contracts/LiskSupplyChain.sol\":3414:3420  userId */\n      dup4\n        /* \"contracts/LiskSupplyChain.sol\":3408:3421  users[userId] */\n      dup2\n      mstore\n      0x20\n      add\n      swap1\n      dup2\n      mstore\n      0x20\n      add\n      0x00\n      keccak256\n        /* \"contracts/LiskSupplyChain.sol\":3401:3421  return users[userId] */\n      mload(0x40)\n      dup1\n      0xe0\n      add\n      0x40\n      mstore\n      swap1\n      dup2\n      0x00\n      dup3\n      add\n      sload\n      dup2\n      mstore\n      0x20\n      add\n      0x01\n      dup3\n      add\n      dup1\n      sload\n      tag_181\n      swap1\n      tag_90\n      jump\t// in\n    tag_181:\n      dup1\n      0x1f\n      add\n      0x20\n      dup1\n      swap2\n      div\n      mul\n      0x20\n      add\n      mload(0x40)\n      swap1\n      dup2\n      add\n      0x40\n      mstore\n      dup1\n      swap3\n      swap2\n      swap1\n      dup2\n      dup2\n      mstore\n      0x20\n      add\n      dup3\n      dup1\n      sload\n      tag_182\n      swap1\n      tag_90\n      jump\t// in\n    tag_182:\n      dup1\n      iszero\n      tag_183\n      jumpi\n      dup1\n      0x1f\n      lt\n      tag_184\n      jumpi\n      0x0100\n      dup1\n      dup4\n      sload\n      div\n      mul\n      dup4\n      mstore\n      swap2\n      0x20\n      add\n      swap2\n      jump(tag_183)\n    tag_184:\n      dup3\n      add\n      swap2\n      swap1\n      0x00\n      mstore\n      keccak256(0x00, 0x20)\n      swap1\n    tag_185:\n      dup2\n      sload\n      dup2\n      mstore\n      swap1\n      0x01\n      add\n      swap1\n      0x20\n      add\n      dup1\n      dup4\n      gt\n      tag_185\n      jumpi\n      dup3\n      swap1\n      sub\n      0x1f\n      and\n      dup3\n      add\n      swap2\n    tag_183:\n      pop\n      pop\n      pop\n      pop\n      pop\n      dup2\n      mstore\n      0x20\n      add\n      0x02\n      dup3\n      add\n      0x00\n      swap1\n      sload\n      swap1\n      0x0100\n      exp\n      swap1\n      div\n      0xffffffffffffffffffffffffffffffffffffffff\n      and\n      0xffffffffffffffffffffffffffffffffffffffff\n      and\n      0xffffffffffffffffffffffffffffffffffffffff\n      and\n      dup2\n      mstore\n      0x20\n      add\n      0x03\n      dup3\n      add\n      dup1\n      sload\n      tag_186\n      swap1\n      tag_90\n      jump\t// in\n    tag_186:\n      dup1\n      0x1f\n      add\n      0x20\n      dup1\n      swap2\n      div\n      mul\n      0x20\n      add\n      mload(0x40)\n      swap1\n      dup2\n      add\n      0x40\n      mstore\n      dup1\n      swap3\n      swap2\n      swap1\n      dup2\n      dup2\n      mstore\n      0x20\n      add\n      dup3\n      dup1\n      sload\n      tag_187\n      swap1\n      tag_90\n      jump\t// in\n    tag_187:\n      dup1\n      iszero\n      tag_188\n      jumpi\n      dup1\n      0x1f\n      lt\n      tag_189\n      jumpi\n      0x0100\n      dup1\n      dup4\n      sload\n      div\n      mul\n      dup4\n      mstore\n      swap2\n      0x20\n      add\n      swap2\n      jump(tag_188)\n    tag_189:\n      dup3\n      add\n      swap2\n      swap1\n      0x00\n      mstore\n      keccak256(0x00, 0x20)\n      swap1\n    tag_190:\n      dup2\n      sload\n      dup2\n      mstore\n      swap1\n      0x01\n      add\n      swap1\n      0x20\n      add\n      dup1\n      dup4\n      gt\n      tag_190\n      jumpi\n      dup3\n      swap1\n      sub\n      0x1f\n      and\n      dup3\n      add\n      swap2\n    tag_188:\n      pop\n      pop\n      pop\n      pop\n      pop\n      dup2\n      mstore\n      0x20\n      add\n      0x04\n      dup3\n      add\n      dup1\n      sload\n      tag_191\n      swap1\n      tag_90\n      jump\t// in\n    tag_191:\n      dup1\n      0x1f\n      add\n      0x20\n      dup1\n      swap2\n      div\n      mul\n      0x20\n      add\n      mload(0x40)\n      swap1\n      dup2\n      add\n      0x40\n      mstore\n      dup1\n      swap3\n      swap2\n      swap1\n      dup2\n      dup2\n      mstore\n      0x20\n      add\n      dup3\n      dup1\n      sload\n      tag_192\n      swap1\n      tag_90\n      jump\t// in\n    tag_192:\n      dup1\n      iszero\n      tag_193\n      jumpi\n      dup1\n      0x1f\n      lt\n      tag_194\n      jumpi\n      0x0100\n      dup1\n      dup4\n      sload\n      div\n      mul\n      dup4\n      mstore\n      swap2\n      0x20\n      add\n      swap2\n      jump(tag_193)\n    tag_194:\n      dup3\n      add\n      swap2\n      swap1\n      0x00\n      mstore\n      keccak256(0x00, 0x20)\n      swap1\n    tag_195:\n      dup2\n      sload\n      dup2\n      mstore\n      swap1\n      0x01\n      add\n      swap1\n      0x20\n      add\n      dup1\n      dup4\n      gt\n      tag_195\n      jumpi\n      dup3\n      swap1\n      sub\n      0x1f\n      and\n      dup3\n      add\n      swap2\n    tag_193:\n      pop\n      pop\n      pop\n      pop\n      pop\n      dup2\n      mstore\n      0x20\n      add\n      0x05\n      dup3\n      add\n      sload\n      dup2\n      mstore\n      0x20\n      add\n      0x06\n      dup3\n      add\n      0x00\n      swap1\n      sload\n      swap1\n      0x0100\n      exp\n      swap1\n      div\n      0xff\n      and\n      0x03\n      dup2\n      gt\n      iszero\n      tag_196\n      jumpi\n      tag_197\n      tag_79\n      jump\t// in\n    tag_197:\n    tag_196:\n      0x03\n      dup2\n      gt\n      iszero\n      tag_198\n      jumpi\n      tag_199\n      tag_79\n      jump\t// in\n    tag_199:\n    tag_198:\n      dup2\n      mstore\n      pop\n      pop\n      swap1\n      pop\n        /* \"contracts/LiskSupplyChain.sol\":3324:3429  function getUser(uint256 userId) public view returns (User memory){... */\n      swap2\n      swap1\n      pop\n      jump\t// out\n        /* \"contracts/LiskSupplyChain.sol\":1066:1098  uint256 public  productCount = 0 */\n    tag_68:\n      sload(0x00)\n      dup2\n      jump\t// out\n        /* \"contracts/LiskSupplyChain.sol\":1140:1168  address public  ProductOwner */\n    tag_71:\n      0x02\n      0x00\n      swap1\n      sload\n      swap1\n      0x0100\n      exp\n      swap1\n      div\n      0xffffffffffffffffffffffffffffffffffffffff\n      and\n      dup2\n      jump\t// out\n    tag_106:\n      mload(0x40)\n      dup1\n      0x0140\n      add\n      0x40\n      mstore\n      dup1\n      0x00\n      dup2\n      mstore\n      0x20\n      add\n      0x60\n      dup2\n      mstore\n      0x20\n      add\n      and(0xffffffffffffffffffffffffffffffffffffffff, 0x00)\n      dup2\n      mstore\n      0x20\n      add\n      and(0xffff, 0x00)\n      dup2\n      mstore\n      0x20\n      add\n      0x00\n      dup2\n      mstore\n      0x20\n      add\n      0x60\n      dup2\n      mstore\n      0x20\n      add\n      0x60\n      dup2\n      mstore\n      0x20\n      add\n      0x60\n      dup2\n      mstore\n      0x20\n      add\n      0x00\n      dup2\n      mstore\n      0x20\n      add\n      0x00\n      0x03\n      dup2\n      gt\n      iszero\n      tag_200\n      jumpi\n      tag_201\n      tag_79\n      jump\t// in\n    tag_201:\n    tag_200:\n      dup2\n      mstore\n      pop\n      swap1\n      jump\t// out\n    tag_179:\n      mload(0x40)\n      dup1\n      0xe0\n      add\n      0x40\n      mstore\n      dup1\n      0x00\n      dup2\n      mstore\n      0x20\n      add\n      0x60\n      dup2\n      mstore\n      0x20\n      add\n      and(0xffffffffffffffffffffffffffffffffffffffff, 0x00)\n      dup2\n      mstore\n      0x20\n      add\n      0x60\n      dup2\n      mstore\n      0x20\n      add\n      0x60\n      dup2\n      mstore\n      0x20\n      add\n      0x00\n      dup2\n      mstore\n      0x20\n      add\n      0x00\n      0x03\n      dup2\n      gt\n      iszero\n      tag_202\n      jumpi\n      tag_203\n      tag_79\n      jump\t// in\n    tag_203:\n    tag_202:\n      dup2\n      mstore\n      pop\n      swap1\n      jump\t// out\n        /* \"#utility.yul\":7:84   */\n    tag_204:\n        /* \"#utility.yul\":44:51   */\n      0x00\n        /* \"#utility.yul\":73:78   */\n      dup2\n        /* \"#utility.yul\":62:78   */\n      swap1\n      pop\n        /* \"#utility.yul\":7:84   */\n      swap2\n      swap1\n      pop\n      jump\t// out\n        /* \"#utility.yul\":90:208   */\n    tag_205:\n        /* \"#utility.yul\":177:201   */\n      tag_277\n        /* \"#utility.yul\":195:200   */\n      dup2\n        /* \"#utility.yul\":177:201   */\n      tag_204\n      jump\t// in\n    tag_277:\n        /* \"#utility.yul\":172:175   */\n      dup3\n        /* \"#utility.yul\":165:202   */\n      mstore\n        /* \"#utility.yul\":90:208   */\n      pop\n      pop\n      jump\t// out\n        /* \"#utility.yul\":214:436   */\n    tag_21:\n        /* \"#utility.yul\":307:311   */\n      0x00\n        /* \"#utility.yul\":345:347   */\n      0x20\n        /* \"#utility.yul\":334:343   */\n      dup3\n        /* \"#utility.yul\":330:348   */\n      add\n        /* \"#utility.yul\":322:348   */\n      swap1\n      pop\n        /* \"#utility.yul\":358:429   */\n      tag_279\n        /* \"#utility.yul\":426:427   */\n      0x00\n        /* \"#utility.yul\":415:424   */\n      dup4\n        /* \"#utility.yul\":411:428   */\n      add\n        /* \"#utility.yul\":402:408   */\n      dup5\n        /* \"#utility.yul\":358:429   */\n      tag_205\n      jump\t// in\n    tag_279:\n        /* \"#utility.yul\":214:436   */\n      swap3\n      swap2\n      pop\n      pop\n      jump\t// out\n        /* \"#utility.yul\":442:517   */\n    tag_206:\n        /* \"#utility.yul\":475:481   */\n      0x00\n        /* \"#utility.yul\":508:510   */\n      0x40\n        /* \"#utility.yul\":502:511   */\n      mload\n        /* \"#utility.yul\":492:511   */\n      swap1\n      pop\n        /* \"#utility.yul\":442:517   */\n      swap1\n      jump\t// out\n        /* \"#utility.yul\":523:640   */\n    tag_207:\n        /* \"#utility.yul\":632:633   */\n      0x00\n        /* \"#utility.yul\":629:630   */\n      dup1\n        /* \"#utility.yul\":622:634   */\n      revert\n        /* \"#utility.yul\":646:763   */\n    tag_208:\n        /* \"#utility.yul\":755:756   */\n      0x00\n        /* \"#utility.yul\":752:753   */\n      dup1\n        /* \"#utility.yul\":745:757   */\n      revert\n        /* \"#utility.yul\":769:886   */\n    tag_209:\n        /* \"#utility.yul\":878:879   */\n      0x00\n        /* \"#utility.yul\":875:876   */\n      dup1\n        /* \"#utility.yul\":868:880   */\n      revert\n        /* \"#utility.yul\":892:1009   */\n    tag_210:\n        /* \"#utility.yul\":1001:1002   */\n      0x00\n        /* \"#utility.yul\":998:999   */\n      dup1\n        /* \"#utility.yul\":991:1003   */\n      revert\n        /* \"#utility.yul\":1015:1117   */\n    tag_211:\n        /* \"#utility.yul\":1056:1062   */\n      0x00\n        /* \"#utility.yul\":1107:1109   */\n      0x1f\n        /* \"#utility.yul\":1103:1110   */\n      not\n        /* \"#utility.yul\":1098:1100   */\n      0x1f\n        /* \"#utility.yul\":1091:1096   */\n      dup4\n        /* \"#utility.yul\":1087:1101   */\n      add\n        /* \"#utility.yul\":1083:1111   */\n      and\n        /* \"#utility.yul\":1073:1111   */\n      swap1\n      pop\n        /* \"#utility.yul\":1015:1117   */\n      swap2\n      swap1\n      pop\n      jump\t// out\n        /* \"#utility.yul\":1123:1303   */\n    tag_212:\n        /* \"#utility.yul\":1171:1248   */\n      0x4e487b7100000000000000000000000000000000000000000000000000000000\n        /* \"#utility.yul\":1168:1169   */\n      0x00\n        /* \"#utility.yul\":1161:1249   */\n      mstore\n        /* \"#utility.yul\":1268:1272   */\n      0x41\n        /* \"#utility.yul\":1265:1266   */\n      0x04\n        /* \"#utility.yul\":1258:1273   */\n      mstore\n        /* \"#utility.yul\":1292:1296   */\n      0x24\n        /* \"#utility.yul\":1289:1290   */\n      0x00\n        /* \"#utility.yul\":1282:1297   */\n      revert\n        /* \"#utility.yul\":1309:1590   */\n    tag_213:\n        /* \"#utility.yul\":1392:1419   */\n      tag_288\n        /* \"#utility.yul\":1414:1418   */\n      dup3\n        /* \"#utility.yul\":1392:1419   */\n      tag_211\n      jump\t// in\n    tag_288:\n        /* \"#utility.yul\":1384:1390   */\n      dup2\n        /* \"#utility.yul\":1380:1420   */\n      add\n        /* \"#utility.yul\":1522:1528   */\n      dup2\n        /* \"#utility.yul\":1510:1520   */\n      dup2\n        /* \"#utility.yul\":1507:1529   */\n      lt\n        /* \"#utility.yul\":1486:1504   */\n      0xffffffffffffffff\n        /* \"#utility.yul\":1474:1484   */\n      dup3\n        /* \"#utility.yul\":1471:1505   */\n      gt\n        /* \"#utility.yul\":1468:1530   */\n      or\n        /* \"#utility.yul\":1465:1553   */\n      iszero\n      tag_289\n      jumpi\n        /* \"#utility.yul\":1533:1551   */\n      tag_290\n      tag_212\n      jump\t// in\n    tag_290:\n        /* \"#utility.yul\":1465:1553   */\n    tag_289:\n        /* \"#utility.yul\":1573:1583   */\n      dup1\n        /* \"#utility.yul\":1569:1571   */\n      0x40\n        /* \"#utility.yul\":1562:1584   */\n      mstore\n        /* \"#utility.yul\":1352:1590   */\n      pop\n        /* \"#utility.yul\":1309:1590   */\n      pop\n      pop\n      jump\t// out\n        /* \"#utility.yul\":1596:1725   */\n    tag_214:\n        /* \"#utility.yul\":1630:1636   */\n      0x00\n        /* \"#utility.yul\":1657:1677   */\n      tag_292\n      tag_206\n      jump\t// in\n    tag_292:\n        /* \"#utility.yul\":1647:1677   */\n      swap1\n      pop\n        /* \"#utility.yul\":1686:1719   */\n      tag_293\n        /* \"#utility.yul\":1714:1718   */\n      dup3\n        /* \"#utility.yul\":1706:1712   */\n      dup3\n        /* \"#utility.yul\":1686:1719   */\n      tag_213\n      jump\t// in\n    tag_293:\n        /* \"#utility.yul\":1596:1725   */\n      swap2\n      swap1\n      pop\n      jump\t// out\n        /* \"#utility.yul\":1731:2039   */\n    tag_215:\n        /* \"#utility.yul\":1793:1797   */\n      0x00\n        /* \"#utility.yul\":1883:1901   */\n      0xffffffffffffffff\n        /* \"#utility.yul\":1875:1881   */\n      dup3\n        /* \"#utility.yul\":1872:1902   */\n      gt\n        /* \"#utility.yul\":1869:1925   */\n      iszero\n      tag_295\n      jumpi\n        /* \"#utility.yul\":1905:1923   */\n      tag_296\n      tag_212\n      jump\t// in\n    tag_296:\n        /* \"#utility.yul\":1869:1925   */\n    tag_295:\n        /* \"#utility.yul\":1943:1972   */\n      tag_297\n        /* \"#utility.yul\":1965:1971   */\n      dup3\n        /* \"#utility.yul\":1943:1972   */\n      tag_211\n      jump\t// in\n    tag_297:\n        /* \"#utility.yul\":1935:1972   */\n      swap1\n      pop\n        /* \"#utility.yul\":2027:2031   */\n      0x20\n        /* \"#utility.yul\":2021:2025   */\n      dup2\n        /* \"#utility.yul\":2017:2032   */\n      add\n        /* \"#utility.yul\":2009:2032   */\n      swap1\n      pop\n        /* \"#utility.yul\":1731:2039   */\n      swap2\n      swap1\n      pop\n      jump\t// out\n        /* \"#utility.yul\":2045:2193   */\n    tag_216:\n        /* \"#utility.yul\":2143:2149   */\n      dup3\n        /* \"#utility.yul\":2138:2141   */\n      dup2\n        /* \"#utility.yul\":2133:2136   */\n      dup4\n        /* \"#utility.yul\":2120:2150   */\n      calldatacopy\n        /* \"#utility.yul\":2184:2185   */\n      0x00\n        /* \"#utility.yul\":2175:2181   */\n      dup4\n        /* \"#utility.yul\":2170:2173   */\n      dup4\n        /* \"#utility.yul\":2166:2182   */\n      add\n        /* \"#utility.yul\":2159:2186   */\n      mstore\n        /* \"#utility.yul\":2045:2193   */\n      pop\n      pop\n      pop\n      jump\t// out\n        /* \"#utility.yul\":2199:2624   */\n    tag_217:\n        /* \"#utility.yul\":2277:2282   */\n      0x00\n        /* \"#utility.yul\":2302:2368   */\n      tag_300\n        /* \"#utility.yul\":2318:2367   */\n      tag_301\n        /* \"#utility.yul\":2360:2366   */\n      dup5\n        /* \"#utility.yul\":2318:2367   */\n      tag_215\n      jump\t// in\n    tag_301:\n        /* \"#utility.yul\":2302:2368   */\n      tag_214\n      jump\t// in\n    tag_300:\n        /* \"#utility.yul\":2293:2368   */\n      swap1\n      pop\n        /* \"#utility.yul\":2391:2397   */\n      dup3\n        /* \"#utility.yul\":2384:2389   */\n      dup2\n        /* \"#utility.yul\":2377:2398   */\n      mstore\n        /* \"#utility.yul\":2429:2433   */\n      0x20\n        /* \"#utility.yul\":2422:2427   */\n      dup2\n        /* \"#utility.yul\":2418:2434   */\n      add\n        /* \"#utility.yul\":2467:2470   */\n      dup5\n        /* \"#utility.yul\":2458:2464   */\n      dup5\n        /* \"#utility.yul\":2453:2456   */\n      dup5\n        /* \"#utility.yul\":2449:2465   */\n      add\n        /* \"#utility.yul\":2446:2471   */\n      gt\n        /* \"#utility.yul\":2443:2555   */\n      iszero\n      tag_302\n      jumpi\n        /* \"#utility.yul\":2474:2553   */\n      tag_303\n      tag_210\n      jump\t// in\n    tag_303:\n        /* \"#utility.yul\":2443:2555   */\n    tag_302:\n        /* \"#utility.yul\":2564:2618   */\n      tag_304\n        /* \"#utility.yul\":2611:2617   */\n      dup5\n        /* \"#utility.yul\":2606:2609   */\n      dup3\n        /* \"#utility.yul\":2601:2604   */\n      dup6\n        /* \"#utility.yul\":2564:2618   */\n      tag_216\n      jump\t// in\n    tag_304:\n        /* \"#utility.yul\":2283:2624   */\n      pop\n        /* \"#utility.yul\":2199:2624   */\n      swap4\n      swap3\n      pop\n      pop\n      pop\n      jump\t// out\n        /* \"#utility.yul\":2644:2984   */\n    tag_218:\n        /* \"#utility.yul\":2700:2705   */\n      0x00\n        /* \"#utility.yul\":2749:2752   */\n      dup3\n        /* \"#utility.yul\":2742:2746   */\n      0x1f\n        /* \"#utility.yul\":2734:2740   */\n      dup4\n        /* \"#utility.yul\":2730:2747   */\n      add\n        /* \"#utility.yul\":2726:2753   */\n      slt\n        /* \"#utility.yul\":2716:2838   */\n      tag_306\n      jumpi\n        /* \"#utility.yul\":2757:2836   */\n      tag_307\n      tag_209\n      jump\t// in\n    tag_307:\n        /* \"#utility.yul\":2716:2838   */\n    tag_306:\n        /* \"#utility.yul\":2874:2880   */\n      dup2\n        /* \"#utility.yul\":2861:2881   */\n      calldataload\n        /* \"#utility.yul\":2899:2978   */\n      tag_308\n        /* \"#utility.yul\":2974:2977   */\n      dup5\n        /* \"#utility.yul\":2966:2972   */\n      dup3\n        /* \"#utility.yul\":2959:2963   */\n      0x20\n        /* \"#utility.yul\":2951:2957   */\n      dup7\n        /* \"#utility.yul\":2947:2964   */\n      add\n        /* \"#utility.yul\":2899:2978   */\n      tag_217\n      jump\t// in\n    tag_308:\n        /* \"#utility.yul\":2890:2978   */\n      swap2\n      pop\n        /* \"#utility.yul\":2706:2984   */\n      pop\n        /* \"#utility.yul\":2644:2984   */\n      swap3\n      swap2\n      pop\n      pop\n      jump\t// out\n        /* \"#utility.yul\":2990:3079   */\n    tag_219:\n        /* \"#utility.yul\":3026:3033   */\n      0x00\n        /* \"#utility.yul\":3066:3072   */\n      0xffff\n        /* \"#utility.yul\":3059:3064   */\n      dup3\n        /* \"#utility.yul\":3055:3073   */\n      and\n        /* \"#utility.yul\":3044:3073   */\n      swap1\n      pop\n        /* \"#utility.yul\":2990:3079   */\n      swap2\n      swap1\n      pop\n      jump\t// out\n        /* \"#utility.yul\":3085:3205   */\n    tag_220:\n        /* \"#utility.yul\":3157:3180   */\n      tag_311\n        /* \"#utility.yul\":3174:3179   */\n      dup2\n        /* \"#utility.yul\":3157:3180   */\n      tag_219\n      jump\t// in\n    tag_311:\n        /* \"#utility.yul\":3150:3155   */\n      dup2\n        /* \"#utility.yul\":3147:3181   */\n      eq\n        /* \"#utility.yul\":3137:3199   */\n      tag_312\n      jumpi\n        /* \"#utility.yul\":3195:3196   */\n      0x00\n        /* \"#utility.yul\":3192:3193   */\n      dup1\n        /* \"#utility.yul\":3185:3197   */\n      revert\n        /* \"#utility.yul\":3137:3199   */\n    tag_312:\n        /* \"#utility.yul\":3085:3205   */\n      pop\n      jump\t// out\n        /* \"#utility.yul\":3211:3348   */\n    tag_221:\n        /* \"#utility.yul\":3256:3261   */\n      0x00\n        /* \"#utility.yul\":3294:3300   */\n      dup2\n        /* \"#utility.yul\":3281:3301   */\n      calldataload\n        /* \"#utility.yul\":3272:3301   */\n      swap1\n      pop\n        /* \"#utility.yul\":3310:3342   */\n      tag_314\n        /* \"#utility.yul\":3336:3341   */\n      dup2\n        /* \"#utility.yul\":3310:3342   */\n      tag_220\n      jump\t// in\n    tag_314:\n        /* \"#utility.yul\":3211:3348   */\n      swap3\n      swap2\n      pop\n      pop\n      jump\t// out\n        /* \"#utility.yul\":3354:3476   */\n    tag_222:\n        /* \"#utility.yul\":3427:3451   */\n      tag_316\n        /* \"#utility.yul\":3445:3450   */\n      dup2\n        /* \"#utility.yul\":3427:3451   */\n      tag_204\n      jump\t// in\n    tag_316:\n        /* \"#utility.yul\":3420:3425   */\n      dup2\n        /* \"#utility.yul\":3417:3452   */\n      eq\n        /* \"#utility.yul\":3407:3470   */\n      tag_317\n      jumpi\n        /* \"#utility.yul\":3466:3467   */\n      0x00\n        /* \"#utility.yul\":3463:3464   */\n      dup1\n        /* \"#utility.yul\":3456:3468   */\n      revert\n        /* \"#utility.yul\":3407:3470   */\n    tag_317:\n        /* \"#utility.yul\":3354:3476   */\n      pop\n      jump\t// out\n        /* \"#utility.yul\":3482:3621   */\n    tag_223:\n        /* \"#utility.yul\":3528:3533   */\n      0x00\n        /* \"#utility.yul\":3566:3572   */\n      dup2\n        /* \"#utility.yul\":3553:3573   */\n      calldataload\n        /* \"#utility.yul\":3544:3573   */\n      swap1\n      pop\n        /* \"#utility.yul\":3582:3615   */\n      tag_319\n        /* \"#utility.yul\":3609:3614   */\n      dup2\n        /* \"#utility.yul\":3582:3615   */\n      tag_222\n      jump\t// in\n    tag_319:\n        /* \"#utility.yul\":3482:3621   */\n      swap3\n      swap2\n      pop\n      pop\n      jump\t// out\n        /* \"#utility.yul\":3627:5402   */\n    tag_24:\n        /* \"#utility.yul\":3770:3776   */\n      0x00\n        /* \"#utility.yul\":3778:3784   */\n      dup1\n        /* \"#utility.yul\":3786:3792   */\n      0x00\n        /* \"#utility.yul\":3794:3800   */\n      dup1\n        /* \"#utility.yul\":3802:3808   */\n      0x00\n        /* \"#utility.yul\":3810:3816   */\n      dup1\n        /* \"#utility.yul\":3859:3862   */\n      0xc0\n        /* \"#utility.yul\":3847:3856   */\n      dup8\n        /* \"#utility.yul\":3838:3845   */\n      dup10\n        /* \"#utility.yul\":3834:3857   */\n      sub\n        /* \"#utility.yul\":3830:3863   */\n      slt\n        /* \"#utility.yul\":3827:3947   */\n      iszero\n      tag_321\n      jumpi\n        /* \"#utility.yul\":3866:3945   */\n      tag_322\n      tag_207\n      jump\t// in\n    tag_322:\n        /* \"#utility.yul\":3827:3947   */\n    tag_321:\n        /* \"#utility.yul\":4014:4015   */\n      0x00\n        /* \"#utility.yul\":4003:4012   */\n      dup8\n        /* \"#utility.yul\":3999:4016   */\n      add\n        /* \"#utility.yul\":3986:4017   */\n      calldataload\n        /* \"#utility.yul\":4044:4062   */\n      0xffffffffffffffff\n        /* \"#utility.yul\":4036:4042   */\n      dup2\n        /* \"#utility.yul\":4033:4063   */\n      gt\n        /* \"#utility.yul\":4030:4147   */\n      iszero\n      tag_323\n      jumpi\n        /* \"#utility.yul\":4066:4145   */\n      tag_324\n      tag_208\n      jump\t// in\n    tag_324:\n        /* \"#utility.yul\":4030:4147   */\n    tag_323:\n        /* \"#utility.yul\":4171:4234   */\n      tag_325\n        /* \"#utility.yul\":4226:4233   */\n      dup10\n        /* \"#utility.yul\":4217:4223   */\n      dup3\n        /* \"#utility.yul\":4206:4215   */\n      dup11\n        /* \"#utility.yul\":4202:4224   */\n      add\n        /* \"#utility.yul\":4171:4234   */\n      tag_218\n      jump\t// in\n    tag_325:\n        /* \"#utility.yul\":4161:4234   */\n      swap7\n      pop\n        /* \"#utility.yul\":3957:4244   */\n      pop\n        /* \"#utility.yul\":4283:4285   */\n      0x20\n        /* \"#utility.yul\":4309:4361   */\n      tag_326\n        /* \"#utility.yul\":4353:4360   */\n      dup10\n        /* \"#utility.yul\":4344:4350   */\n      dup3\n        /* \"#utility.yul\":4333:4342   */\n      dup11\n        /* \"#utility.yul\":4329:4351   */\n      add\n        /* \"#utility.yul\":4309:4361   */\n      tag_221\n      jump\t// in\n    tag_326:\n        /* \"#utility.yul\":4299:4361   */\n      swap6\n      pop\n        /* \"#utility.yul\":4254:4371   */\n      pop\n        /* \"#utility.yul\":4410:4412   */\n      0x40\n        /* \"#utility.yul\":4436:4489   */\n      tag_327\n        /* \"#utility.yul\":4481:4488   */\n      dup10\n        /* \"#utility.yul\":4472:4478   */\n      dup3\n        /* \"#utility.yul\":4461:4470   */\n      dup11\n        /* \"#utility.yul\":4457:4479   */\n      add\n        /* \"#utility.yul\":4436:4489   */\n      tag_223\n      jump\t// in\n    tag_327:\n        /* \"#utility.yul\":4426:4489   */\n      swap5\n      pop\n        /* \"#utility.yul\":4381:4499   */\n      pop\n        /* \"#utility.yul\":4566:4568   */\n      0x60\n        /* \"#utility.yul\":4555:4564   */\n      dup8\n        /* \"#utility.yul\":4551:4569   */\n      add\n        /* \"#utility.yul\":4538:4570   */\n      calldataload\n        /* \"#utility.yul\":4597:4615   */\n      0xffffffffffffffff\n        /* \"#utility.yul\":4589:4595   */\n      dup2\n        /* \"#utility.yul\":4586:4616   */\n      gt\n        /* \"#utility.yul\":4583:4700   */\n      iszero\n      tag_328\n      jumpi\n        /* \"#utility.yul\":4619:4698   */\n      tag_329\n      tag_208\n      jump\t// in\n    tag_329:\n        /* \"#utility.yul\":4583:4700   */\n    tag_328:\n        /* \"#utility.yul\":4724:4787   */\n      tag_330\n        /* \"#utility.yul\":4779:4786   */\n      dup10\n        /* \"#utility.yul\":4770:4776   */\n      dup3\n        /* \"#utility.yul\":4759:4768   */\n      dup11\n        /* \"#utility.yul\":4755:4777   */\n      add\n        /* \"#utility.yul\":4724:4787   */\n      tag_218\n      jump\t// in\n    tag_330:\n        /* \"#utility.yul\":4714:4787   */\n      swap4\n      pop\n        /* \"#utility.yul\":4509:4797   */\n      pop\n        /* \"#utility.yul\":4864:4867   */\n      0x80\n        /* \"#utility.yul\":4853:4862   */\n      dup8\n        /* \"#utility.yul\":4849:4868   */\n      add\n        /* \"#utility.yul\":4836:4869   */\n      calldataload\n        /* \"#utility.yul\":4896:4914   */\n      0xffffffffffffffff\n        /* \"#utility.yul\":4888:4894   */\n      dup2\n        /* \"#utility.yul\":4885:4915   */\n      gt\n        /* \"#utility.yul\":4882:4999   */\n      iszero\n      tag_331\n      jumpi\n        /* \"#utility.yul\":4918:4997   */\n      tag_332\n      tag_208\n      jump\t// in\n    tag_332:\n        /* \"#utility.yul\":4882:4999   */\n    tag_331:\n        /* \"#utility.yul\":5023:5086   */\n      tag_333\n        /* \"#utility.yul\":5078:5085   */\n      dup10\n        /* \"#utility.yul\":5069:5075   */\n      dup3\n        /* \"#utility.yul\":5058:5067   */\n      dup11\n        /* \"#utility.yul\":5054:5076   */\n      add\n        /* \"#utility.yul\":5023:5086   */\n      tag_218\n      jump\t// in\n    tag_333:\n        /* \"#utility.yul\":5013:5086   */\n      swap3\n      pop\n        /* \"#utility.yul\":4807:5096   */\n      pop\n        /* \"#utility.yul\":5163:5166   */\n      0xa0\n        /* \"#utility.yul\":5152:5161   */\n      dup8\n        /* \"#utility.yul\":5148:5167   */\n      add\n        /* \"#utility.yul\":5135:5168   */\n      calldataload\n        /* \"#utility.yul\":5195:5213   */\n      0xffffffffffffffff\n        /* \"#utility.yul\":5187:5193   */\n      dup2\n        /* \"#utility.yul\":5184:5214   */\n      gt\n        /* \"#utility.yul\":5181:5298   */\n      iszero\n      tag_334\n      jumpi\n        /* \"#utility.yul\":5217:5296   */\n      tag_335\n      tag_208\n      jump\t// in\n    tag_335:\n        /* \"#utility.yul\":5181:5298   */\n    tag_334:\n        /* \"#utility.yul\":5322:5385   */\n      tag_336\n        /* \"#utility.yul\":5377:5384   */\n      dup10\n        /* \"#utility.yul\":5368:5374   */\n      dup3\n        /* \"#utility.yul\":5357:5366   */\n      dup11\n        /* \"#utility.yul\":5353:5375   */\n      add\n        /* \"#utility.yul\":5322:5385   */\n      tag_218\n      jump\t// in\n    tag_336:\n        /* \"#utility.yul\":5312:5385   */\n      swap2\n      pop\n        /* \"#utility.yul\":5106:5395   */\n      pop\n        /* \"#utility.yul\":3627:5402   */\n      swap3\n      swap6\n      pop\n      swap3\n      swap6\n      pop\n      swap3\n      swap6\n      jump\t// out\n        /* \"#utility.yul\":5408:5737   */\n    tag_28:\n        /* \"#utility.yul\":5467:5473   */\n      0x00\n        /* \"#utility.yul\":5516:5518   */\n      0x20\n        /* \"#utility.yul\":5504:5513   */\n      dup3\n        /* \"#utility.yul\":5495:5502   */\n      dup5\n        /* \"#utility.yul\":5491:5514   */\n      sub\n        /* \"#utility.yul\":5487:5519   */\n      slt\n        /* \"#utility.yul\":5484:5603   */\n      iszero\n      tag_338\n      jumpi\n        /* \"#utility.yul\":5522:5601   */\n      tag_339\n      tag_207\n      jump\t// in\n    tag_339:\n        /* \"#utility.yul\":5484:5603   */\n    tag_338:\n        /* \"#utility.yul\":5642:5643   */\n      0x00\n        /* \"#utility.yul\":5667:5720   */\n      tag_340\n        /* \"#utility.yul\":5712:5719   */\n      dup5\n        /* \"#utility.yul\":5703:5709   */\n      dup3\n        /* \"#utility.yul\":5692:5701   */\n      dup6\n        /* \"#utility.yul\":5688:5710   */\n      add\n        /* \"#utility.yul\":5667:5720   */\n      tag_223\n      jump\t// in\n    tag_340:\n        /* \"#utility.yul\":5657:5720   */\n      swap2\n      pop\n        /* \"#utility.yul\":5613:5730   */\n      pop\n        /* \"#utility.yul\":5408:5737   */\n      swap3\n      swap2\n      pop\n      pop\n      jump\t// out\n        /* \"#utility.yul\":5743:5842   */\n    tag_224:\n        /* \"#utility.yul\":5795:5801   */\n      0x00\n        /* \"#utility.yul\":5829:5834   */\n      dup2\n        /* \"#utility.yul\":5823:5835   */\n      mload\n        /* \"#utility.yul\":5813:5835   */\n      swap1\n      pop\n        /* \"#utility.yul\":5743:5842   */\n      swap2\n      swap1\n      pop\n      jump\t// out\n        /* \"#utility.yul\":5848:6017   */\n    tag_225:\n        /* \"#utility.yul\":5932:5943   */\n      0x00\n        /* \"#utility.yul\":5966:5972   */\n      dup3\n        /* \"#utility.yul\":5961:5964   */\n      dup3\n        /* \"#utility.yul\":5954:5973   */\n      mstore\n        /* \"#utility.yul\":6006:6010   */\n      0x20\n        /* \"#utility.yul\":6001:6004   */\n      dup3\n        /* \"#utility.yul\":5997:6011   */\n      add\n        /* \"#utility.yul\":5982:6011   */\n      swap1\n      pop\n        /* \"#utility.yul\":5848:6017   */\n      swap3\n      swap2\n      pop\n      pop\n      jump\t// out\n        /* \"#utility.yul\":6023:6162   */\n    tag_226:\n        /* \"#utility.yul\":6112:6118   */\n      dup3\n        /* \"#utility.yul\":6107:6110   */\n      dup2\n        /* \"#utility.yul\":6102:6105   */\n      dup4\n        /* \"#utility.yul\":6096:6119   */\n      mcopy\n        /* \"#utility.yul\":6153:6154   */\n      0x00\n        /* \"#utility.yul\":6144:6150   */\n      dup4\n        /* \"#utility.yul\":6139:6142   */\n      dup4\n        /* \"#utility.yul\":6135:6151   */\n      add\n        /* \"#utility.yul\":6128:6155   */\n      mstore\n        /* \"#utility.yul\":6023:6162   */\n      pop\n      pop\n      pop\n      jump\t// out\n        /* \"#utility.yul\":6168:6545   */\n    tag_227:\n        /* \"#utility.yul\":6256:6259   */\n      0x00\n        /* \"#utility.yul\":6284:6323   */\n      tag_345\n        /* \"#utility.yul\":6317:6322   */\n      dup3\n        /* \"#utility.yul\":6284:6323   */\n      tag_224\n      jump\t// in\n    tag_345:\n        /* \"#utility.yul\":6339:6410   */\n      tag_346\n        /* \"#utility.yul\":6403:6409   */\n      dup2\n        /* \"#utility.yul\":6398:6401   */\n      dup6\n        /* \"#utility.yul\":6339:6410   */\n      tag_225\n      jump\t// in\n    tag_346:\n        /* \"#utility.yul\":6332:6410   */\n      swap4\n      pop\n        /* \"#utility.yul\":6419:6484   */\n      tag_347\n        /* \"#utility.yul\":6477:6483   */\n      dup2\n        /* \"#utility.yul\":6472:6475   */\n      dup6\n        /* \"#utility.yul\":6465:6469   */\n      0x20\n        /* \"#utility.yul\":6458:6463   */\n      dup7\n        /* \"#utility.yul\":6454:6470   */\n      add\n        /* \"#utility.yul\":6419:6484   */\n      tag_226\n      jump\t// in\n    tag_347:\n        /* \"#utility.yul\":6509:6538   */\n      tag_348\n        /* \"#utility.yul\":6531:6537   */\n      dup2\n        /* \"#utility.yul\":6509:6538   */\n      tag_211\n      jump\t// in\n    tag_348:\n        /* \"#utility.yul\":6504:6507   */\n      dup5\n        /* \"#utility.yul\":6500:6539   */\n      add\n        /* \"#utility.yul\":6493:6539   */\n      swap2\n      pop\n        /* \"#utility.yul\":6260:6545   */\n      pop\n        /* \"#utility.yul\":6168:6545   */\n      swap3\n      swap2\n      pop\n      pop\n      jump\t// out\n        /* \"#utility.yul\":6551:6677   */\n    tag_228:\n        /* \"#utility.yul\":6588:6595   */\n      0x00\n        /* \"#utility.yul\":6628:6670   */\n      0xffffffffffffffffffffffffffffffffffffffff\n        /* \"#utility.yul\":6621:6626   */\n      dup3\n        /* \"#utility.yul\":6617:6671   */\n      and\n        /* \"#utility.yul\":6606:6671   */\n      swap1\n      pop\n        /* \"#utility.yul\":6551:6677   */\n      swap2\n      swap1\n      pop\n      jump\t// out\n        /* \"#utility.yul\":6683:6779   */\n    tag_229:\n        /* \"#utility.yul\":6720:6727   */\n      0x00\n        /* \"#utility.yul\":6749:6773   */\n      tag_351\n        /* \"#utility.yul\":6767:6772   */\n      dup3\n        /* \"#utility.yul\":6749:6773   */\n      tag_228\n      jump\t// in\n    tag_351:\n        /* \"#utility.yul\":6738:6773   */\n      swap1\n      pop\n        /* \"#utility.yul\":6683:6779   */\n      swap2\n      swap1\n      pop\n      jump\t// out\n        /* \"#utility.yul\":6785:6903   */\n    tag_230:\n        /* \"#utility.yul\":6872:6896   */\n      tag_353\n        /* \"#utility.yul\":6890:6895   */\n      dup2\n        /* \"#utility.yul\":6872:6896   */\n      tag_229\n      jump\t// in\n    tag_353:\n        /* \"#utility.yul\":6867:6870   */\n      dup3\n        /* \"#utility.yul\":6860:6897   */\n      mstore\n        /* \"#utility.yul\":6785:6903   */\n      pop\n      pop\n      jump\t// out\n        /* \"#utility.yul\":6909:7089   */\n    tag_79:\n        /* \"#utility.yul\":6957:7034   */\n      0x4e487b7100000000000000000000000000000000000000000000000000000000\n        /* \"#utility.yul\":6954:6955   */\n      0x00\n        /* \"#utility.yul\":6947:7035   */\n      mstore\n        /* \"#utility.yul\":7054:7058   */\n      0x21\n        /* \"#utility.yul\":7051:7052   */\n      0x04\n        /* \"#utility.yul\":7044:7059   */\n      mstore\n        /* \"#utility.yul\":7078:7082   */\n      0x24\n        /* \"#utility.yul\":7075:7076   */\n      0x00\n        /* \"#utility.yul\":7068:7083   */\n      revert\n        /* \"#utility.yul\":7095:7207   */\n    tag_231:\n        /* \"#utility.yul\":7175:7176   */\n      0x04\n        /* \"#utility.yul\":7168:7173   */\n      dup2\n        /* \"#utility.yul\":7165:7177   */\n      lt\n        /* \"#utility.yul\":7155:7201   */\n      tag_356\n      jumpi\n        /* \"#utility.yul\":7181:7199   */\n      tag_357\n      tag_79\n      jump\t// in\n    tag_357:\n        /* \"#utility.yul\":7155:7201   */\n    tag_356:\n        /* \"#utility.yul\":7095:7207   */\n      pop\n      jump\t// out\n        /* \"#utility.yul\":7213:7338   */\n    tag_232:\n        /* \"#utility.yul\":7257:7264   */\n      0x00\n        /* \"#utility.yul\":7286:7291   */\n      dup2\n        /* \"#utility.yul\":7275:7291   */\n      swap1\n      pop\n        /* \"#utility.yul\":7292:7332   */\n      tag_359\n        /* \"#utility.yul\":7326:7331   */\n      dup3\n        /* \"#utility.yul\":7292:7332   */\n      tag_231\n      jump\t// in\n    tag_359:\n        /* \"#utility.yul\":7213:7338   */\n      swap2\n      swap1\n      pop\n      jump\t// out\n        /* \"#utility.yul\":7344:7469   */\n    tag_233:\n        /* \"#utility.yul\":7399:7408   */\n      0x00\n        /* \"#utility.yul\":7432:7463   */\n      tag_361\n        /* \"#utility.yul\":7457:7462   */\n      dup3\n        /* \"#utility.yul\":7432:7463   */\n      tag_232\n      jump\t// in\n    tag_361:\n        /* \"#utility.yul\":7419:7463   */\n      swap1\n      pop\n        /* \"#utility.yul\":7344:7469   */\n      swap2\n      swap1\n      pop\n      jump\t// out\n        /* \"#utility.yul\":7475:7616   */\n    tag_234:\n        /* \"#utility.yul\":7567:7609   */\n      tag_363\n        /* \"#utility.yul\":7603:7608   */\n      dup2\n        /* \"#utility.yul\":7567:7609   */\n      tag_233\n      jump\t// in\n    tag_363:\n        /* \"#utility.yul\":7562:7565   */\n      dup3\n        /* \"#utility.yul\":7555:7610   */\n      mstore\n        /* \"#utility.yul\":7475:7616   */\n      pop\n      pop\n      jump\t// out\n        /* \"#utility.yul\":7622:8791   */\n    tag_31:\n        /* \"#utility.yul\":7948:7952   */\n      0x00\n        /* \"#utility.yul\":7986:7989   */\n      0xe0\n        /* \"#utility.yul\":7975:7984   */\n      dup3\n        /* \"#utility.yul\":7971:7990   */\n      add\n        /* \"#utility.yul\":7963:7990   */\n      swap1\n      pop\n        /* \"#utility.yul\":8000:8071   */\n      tag_365\n        /* \"#utility.yul\":8068:8069   */\n      0x00\n        /* \"#utility.yul\":8057:8066   */\n      dup4\n        /* \"#utility.yul\":8053:8070   */\n      add\n        /* \"#utility.yul\":8044:8050   */\n      dup11\n        /* \"#utility.yul\":8000:8071   */\n      tag_205\n      jump\t// in\n    tag_365:\n        /* \"#utility.yul\":8118:8127   */\n      dup2\n        /* \"#utility.yul\":8112:8116   */\n      dup2\n        /* \"#utility.yul\":8108:8128   */\n      sub\n        /* \"#utility.yul\":8103:8105   */\n      0x20\n        /* \"#utility.yul\":8092:8101   */\n      dup4\n        /* \"#utility.yul\":8088:8106   */\n      add\n        /* \"#utility.yul\":8081:8129   */\n      mstore\n        /* \"#utility.yul\":8146:8224   */\n      tag_366\n        /* \"#utility.yul\":8219:8223   */\n      dup2\n        /* \"#utility.yul\":8210:8216   */\n      dup10\n        /* \"#utility.yul\":8146:8224   */\n      tag_227\n      jump\t// in\n    tag_366:\n        /* \"#utility.yul\":8138:8224   */\n      swap1\n      pop\n        /* \"#utility.yul\":8234:8306   */\n      tag_367\n        /* \"#utility.yul\":8302:8304   */\n      0x40\n        /* \"#utility.yul\":8291:8300   */\n      dup4\n        /* \"#utility.yul\":8287:8305   */\n      add\n        /* \"#utility.yul\":8278:8284   */\n      dup9\n        /* \"#utility.yul\":8234:8306   */\n      tag_230\n      jump\t// in\n    tag_367:\n        /* \"#utility.yul\":8353:8362   */\n      dup2\n        /* \"#utility.yul\":8347:8351   */\n      dup2\n        /* \"#utility.yul\":8343:8363   */\n      sub\n        /* \"#utility.yul\":8338:8340   */\n      0x60\n        /* \"#utility.yul\":8327:8336   */\n      dup4\n        /* \"#utility.yul\":8323:8341   */\n      add\n        /* \"#utility.yul\":8316:8364   */\n      mstore\n        /* \"#utility.yul\":8381:8459   */\n      tag_368\n        /* \"#utility.yul\":8454:8458   */\n      dup2\n        /* \"#utility.yul\":8445:8451   */\n      dup8\n        /* \"#utility.yul\":8381:8459   */\n      tag_227\n      jump\t// in\n    tag_368:\n        /* \"#utility.yul\":8373:8459   */\n      swap1\n      pop\n        /* \"#utility.yul\":8507:8516   */\n      dup2\n        /* \"#utility.yul\":8501:8505   */\n      dup2\n        /* \"#utility.yul\":8497:8517   */\n      sub\n        /* \"#utility.yul\":8491:8494   */\n      0x80\n        /* \"#utility.yul\":8480:8489   */\n      dup4\n        /* \"#utility.yul\":8476:8495   */\n      add\n        /* \"#utility.yul\":8469:8518   */\n      mstore\n        /* \"#utility.yul\":8535:8613   */\n      tag_369\n        /* \"#utility.yul\":8608:8612   */\n      dup2\n        /* \"#utility.yul\":8599:8605   */\n      dup7\n        /* \"#utility.yul\":8535:8613   */\n      tag_227\n      jump\t// in\n    tag_369:\n        /* \"#utility.yul\":8527:8613   */\n      swap1\n      pop\n        /* \"#utility.yul\":8623:8696   */\n      tag_370\n        /* \"#utility.yul\":8691:8694   */\n      0xa0\n        /* \"#utility.yul\":8680:8689   */\n      dup4\n        /* \"#utility.yul\":8676:8695   */\n      add\n        /* \"#utility.yul\":8667:8673   */\n      dup6\n        /* \"#utility.yul\":8623:8696   */\n      tag_205\n      jump\t// in\n    tag_370:\n        /* \"#utility.yul\":8706:8784   */\n      tag_371\n        /* \"#utility.yul\":8779:8782   */\n      0xc0\n        /* \"#utility.yul\":8768:8777   */\n      dup4\n        /* \"#utility.yul\":8764:8783   */\n      add\n        /* \"#utility.yul\":8755:8761   */\n      dup5\n        /* \"#utility.yul\":8706:8784   */\n      tag_234\n      jump\t// in\n    tag_371:\n        /* \"#utility.yul\":7622:8791   */\n      swap9\n      swap8\n      pop\n      pop\n      pop\n      pop\n      pop\n      pop\n      pop\n      pop\n      jump\t// out\n        /* \"#utility.yul\":8797:8905   */\n    tag_235:\n        /* \"#utility.yul\":8874:8898   */\n      tag_373\n        /* \"#utility.yul\":8892:8897   */\n      dup2\n        /* \"#utility.yul\":8874:8898   */\n      tag_204\n      jump\t// in\n    tag_373:\n        /* \"#utility.yul\":8869:8872   */\n      dup3\n        /* \"#utility.yul\":8862:8899   */\n      mstore\n        /* \"#utility.yul\":8797:8905   */\n      pop\n      pop\n      jump\t// out\n        /* \"#utility.yul\":8911:9070   */\n    tag_236:\n        /* \"#utility.yul\":8985:8996   */\n      0x00\n        /* \"#utility.yul\":9019:9025   */\n      dup3\n        /* \"#utility.yul\":9014:9017   */\n      dup3\n        /* \"#utility.yul\":9007:9026   */\n      mstore\n        /* \"#utility.yul\":9059:9063   */\n      0x20\n        /* \"#utility.yul\":9054:9057   */\n      dup3\n        /* \"#utility.yul\":9050:9064   */\n      add\n        /* \"#utility.yul\":9035:9064   */\n      swap1\n      pop\n        /* \"#utility.yul\":8911:9070   */\n      swap3\n      swap2\n      pop\n      pop\n      jump\t// out\n        /* \"#utility.yul\":9076:9433   */\n    tag_237:\n        /* \"#utility.yul\":9154:9157   */\n      0x00\n        /* \"#utility.yul\":9182:9221   */\n      tag_376\n        /* \"#utility.yul\":9215:9220   */\n      dup3\n        /* \"#utility.yul\":9182:9221   */\n      tag_224\n      jump\t// in\n    tag_376:\n        /* \"#utility.yul\":9237:9298   */\n      tag_377\n        /* \"#utility.yul\":9291:9297   */\n      dup2\n        /* \"#utility.yul\":9286:9289   */\n      dup6\n        /* \"#utility.yul\":9237:9298   */\n      tag_236\n      jump\t// in\n    tag_377:\n        /* \"#utility.yul\":9230:9298   */\n      swap4\n      pop\n        /* \"#utility.yul\":9307:9372   */\n      tag_378\n        /* \"#utility.yul\":9365:9371   */\n      dup2\n        /* \"#utility.yul\":9360:9363   */\n      dup6\n        /* \"#utility.yul\":9353:9357   */\n      0x20\n        /* \"#utility.yul\":9346:9351   */\n      dup7\n        /* \"#utility.yul\":9342:9358   */\n      add\n        /* \"#utility.yul\":9307:9372   */\n      tag_226\n      jump\t// in\n    tag_378:\n        /* \"#utility.yul\":9397:9426   */\n      tag_379\n        /* \"#utility.yul\":9419:9425   */\n      dup2\n        /* \"#utility.yul\":9397:9426   */\n      tag_211\n      jump\t// in\n    tag_379:\n        /* \"#utility.yul\":9392:9395   */\n      dup5\n        /* \"#utility.yul\":9388:9427   */\n      add\n        /* \"#utility.yul\":9381:9427   */\n      swap2\n      pop\n        /* \"#utility.yul\":9158:9433   */\n      pop\n        /* \"#utility.yul\":9076:9433   */\n      swap3\n      swap2\n      pop\n      pop\n      jump\t// out\n        /* \"#utility.yul\":9439:9547   */\n    tag_238:\n        /* \"#utility.yul\":9516:9540   */\n      tag_381\n        /* \"#utility.yul\":9534:9539   */\n      dup2\n        /* \"#utility.yul\":9516:9540   */\n      tag_229\n      jump\t// in\n    tag_381:\n        /* \"#utility.yul\":9511:9514   */\n      dup3\n        /* \"#utility.yul\":9504:9541   */\n      mstore\n        /* \"#utility.yul\":9439:9547   */\n      pop\n      pop\n      jump\t// out\n        /* \"#utility.yul\":9553:9658   */\n    tag_239:\n        /* \"#utility.yul\":9628:9651   */\n      tag_383\n        /* \"#utility.yul\":9645:9650   */\n      dup2\n        /* \"#utility.yul\":9628:9651   */\n      tag_219\n      jump\t// in\n    tag_383:\n        /* \"#utility.yul\":9623:9626   */\n      dup3\n        /* \"#utility.yul\":9616:9652   */\n      mstore\n        /* \"#utility.yul\":9553:9658   */\n      pop\n      pop\n      jump\t// out\n        /* \"#utility.yul\":9664:9778   */\n    tag_240:\n        /* \"#utility.yul\":9746:9747   */\n      0x04\n        /* \"#utility.yul\":9739:9744   */\n      dup2\n        /* \"#utility.yul\":9736:9748   */\n      lt\n        /* \"#utility.yul\":9726:9772   */\n      tag_385\n      jumpi\n        /* \"#utility.yul\":9752:9770   */\n      tag_386\n      tag_79\n      jump\t// in\n    tag_386:\n        /* \"#utility.yul\":9726:9772   */\n    tag_385:\n        /* \"#utility.yul\":9664:9778   */\n      pop\n      jump\t// out\n        /* \"#utility.yul\":9784:9913   */\n    tag_241:\n        /* \"#utility.yul\":9830:9837   */\n      0x00\n        /* \"#utility.yul\":9859:9864   */\n      dup2\n        /* \"#utility.yul\":9848:9864   */\n      swap1\n      pop\n        /* \"#utility.yul\":9865:9907   */\n      tag_388\n        /* \"#utility.yul\":9901:9906   */\n      dup3\n        /* \"#utility.yul\":9865:9907   */\n      tag_240\n      jump\t// in\n    tag_388:\n        /* \"#utility.yul\":9784:9913   */\n      swap2\n      swap1\n      pop\n      jump\t// out\n        /* \"#utility.yul\":9919:10048   */\n    tag_242:\n        /* \"#utility.yul\":9976:9985   */\n      0x00\n        /* \"#utility.yul\":10009:10042   */\n      tag_390\n        /* \"#utility.yul\":10036:10041   */\n      dup3\n        /* \"#utility.yul\":10009:10042   */\n      tag_241\n      jump\t// in\n    tag_390:\n        /* \"#utility.yul\":9996:10042   */\n      swap1\n      pop\n        /* \"#utility.yul\":9919:10048   */\n      swap2\n      swap1\n      pop\n      jump\t// out\n        /* \"#utility.yul\":10054:10189   */\n    tag_243:\n        /* \"#utility.yul\":10138:10182   */\n      tag_392\n        /* \"#utility.yul\":10176:10181   */\n      dup2\n        /* \"#utility.yul\":10138:10182   */\n      tag_242\n      jump\t// in\n    tag_392:\n        /* \"#utility.yul\":10133:10136   */\n      dup3\n        /* \"#utility.yul\":10126:10183   */\n      mstore\n        /* \"#utility.yul\":10054:10189   */\n      pop\n      pop\n      jump\t// out\n        /* \"#utility.yul\":10267:12500   */\n    tag_244:\n        /* \"#utility.yul\":10382:10385   */\n      0x00\n        /* \"#utility.yul\":10418:10424   */\n      0x0140\n        /* \"#utility.yul\":10413:10416   */\n      dup4\n        /* \"#utility.yul\":10409:10425   */\n      add\n        /* \"#utility.yul\":10505:10509   */\n      0x00\n        /* \"#utility.yul\":10498:10503   */\n      dup4\n        /* \"#utility.yul\":10494:10510   */\n      add\n        /* \"#utility.yul\":10488:10511   */\n      mload\n        /* \"#utility.yul\":10524:10587   */\n      tag_394\n        /* \"#utility.yul\":10581:10585   */\n      0x00\n        /* \"#utility.yul\":10576:10579   */\n      dup7\n        /* \"#utility.yul\":10572:10586   */\n      add\n        /* \"#utility.yul\":10558:10570   */\n      dup3\n        /* \"#utility.yul\":10524:10587   */\n      tag_235\n      jump\t// in\n    tag_394:\n        /* \"#utility.yul\":10435:10597   */\n      pop\n        /* \"#utility.yul\":10679:10683   */\n      0x20\n        /* \"#utility.yul\":10672:10677   */\n      dup4\n        /* \"#utility.yul\":10668:10684   */\n      add\n        /* \"#utility.yul\":10662:10685   */\n      mload\n        /* \"#utility.yul\":10732:10735   */\n      dup5\n        /* \"#utility.yul\":10726:10730   */\n      dup3\n        /* \"#utility.yul\":10722:10736   */\n      sub\n        /* \"#utility.yul\":10715:10719   */\n      0x20\n        /* \"#utility.yul\":10710:10713   */\n      dup7\n        /* \"#utility.yul\":10706:10720   */\n      add\n        /* \"#utility.yul\":10699:10737   */\n      mstore\n        /* \"#utility.yul\":10758:10831   */\n      tag_395\n        /* \"#utility.yul\":10826:10830   */\n      dup3\n        /* \"#utility.yul\":10812:10824   */\n      dup3\n        /* \"#utility.yul\":10758:10831   */\n      tag_237\n      jump\t// in\n    tag_395:\n        /* \"#utility.yul\":10750:10831   */\n      swap2\n      pop\n        /* \"#utility.yul\":10607:10842   */\n      pop\n        /* \"#utility.yul\":10925:10929   */\n      0x40\n        /* \"#utility.yul\":10918:10923   */\n      dup4\n        /* \"#utility.yul\":10914:10930   */\n      add\n        /* \"#utility.yul\":10908:10931   */\n      mload\n        /* \"#utility.yul\":10944:11007   */\n      tag_396\n        /* \"#utility.yul\":11001:11005   */\n      0x40\n        /* \"#utility.yul\":10996:10999   */\n      dup7\n        /* \"#utility.yul\":10992:11006   */\n      add\n        /* \"#utility.yul\":10978:10990   */\n      dup3\n        /* \"#utility.yul\":10944:11007   */\n      tag_238\n      jump\t// in\n    tag_396:\n        /* \"#utility.yul\":10852:11017   */\n      pop\n        /* \"#utility.yul\":11100:11104   */\n      0x60\n        /* \"#utility.yul\":11093:11098   */\n      dup4\n        /* \"#utility.yul\":11089:11105   */\n      add\n        /* \"#utility.yul\":11083:11106   */\n      mload\n        /* \"#utility.yul\":11119:11180   */\n      tag_397\n        /* \"#utility.yul\":11174:11178   */\n      0x60\n        /* \"#utility.yul\":11169:11172   */\n      dup7\n        /* \"#utility.yul\":11165:11179   */\n      add\n        /* \"#utility.yul\":11151:11163   */\n      dup3\n        /* \"#utility.yul\":11119:11180   */\n      tag_239\n      jump\t// in\n    tag_397:\n        /* \"#utility.yul\":11027:11190   */\n      pop\n        /* \"#utility.yul\":11276:11280   */\n      0x80\n        /* \"#utility.yul\":11269:11274   */\n      dup4\n        /* \"#utility.yul\":11265:11281   */\n      add\n        /* \"#utility.yul\":11259:11282   */\n      mload\n        /* \"#utility.yul\":11295:11358   */\n      tag_398\n        /* \"#utility.yul\":11352:11356   */\n      0x80\n        /* \"#utility.yul\":11347:11350   */\n      dup7\n        /* \"#utility.yul\":11343:11357   */\n      add\n        /* \"#utility.yul\":11329:11341   */\n      dup3\n        /* \"#utility.yul\":11295:11358   */\n      tag_235\n      jump\t// in\n    tag_398:\n        /* \"#utility.yul\":11200:11368   */\n      pop\n        /* \"#utility.yul\":11457:11461   */\n      0xa0\n        /* \"#utility.yul\":11450:11455   */\n      dup4\n        /* \"#utility.yul\":11446:11462   */\n      add\n        /* \"#utility.yul\":11440:11463   */\n      mload\n        /* \"#utility.yul\":11510:11513   */\n      dup5\n        /* \"#utility.yul\":11504:11508   */\n      dup3\n        /* \"#utility.yul\":11500:11514   */\n      sub\n        /* \"#utility.yul\":11493:11497   */\n      0xa0\n        /* \"#utility.yul\":11488:11491   */\n      dup7\n        /* \"#utility.yul\":11484:11498   */\n      add\n        /* \"#utility.yul\":11477:11515   */\n      mstore\n        /* \"#utility.yul\":11536:11609   */\n      tag_399\n        /* \"#utility.yul\":11604:11608   */\n      dup3\n        /* \"#utility.yul\":11590:11602   */\n      dup3\n        /* \"#utility.yul\":11536:11609   */\n      tag_237\n      jump\t// in\n    tag_399:\n        /* \"#utility.yul\":11528:11609   */\n      swap2\n      pop\n        /* \"#utility.yul\":11378:11620   */\n      pop\n        /* \"#utility.yul\":11702:11706   */\n      0xc0\n        /* \"#utility.yul\":11695:11700   */\n      dup4\n        /* \"#utility.yul\":11691:11707   */\n      add\n        /* \"#utility.yul\":11685:11708   */\n      mload\n        /* \"#utility.yul\":11755:11758   */\n      dup5\n        /* \"#utility.yul\":11749:11753   */\n      dup3\n        /* \"#utility.yul\":11745:11759   */\n      sub\n        /* \"#utility.yul\":11738:11742   */\n      0xc0\n        /* \"#utility.yul\":11733:11736   */\n      dup7\n        /* \"#utility.yul\":11729:11743   */\n      add\n        /* \"#utility.yul\":11722:11760   */\n      mstore\n        /* \"#utility.yul\":11781:11854   */\n      tag_400\n        /* \"#utility.yul\":11849:11853   */\n      dup3\n        /* \"#utility.yul\":11835:11847   */\n      dup3\n        /* \"#utility.yul\":11781:11854   */\n      tag_237\n      jump\t// in\n    tag_400:\n        /* \"#utility.yul\":11773:11854   */\n      swap2\n      pop\n        /* \"#utility.yul\":11630:11865   */\n      pop\n        /* \"#utility.yul\":11945:11949   */\n      0xe0\n        /* \"#utility.yul\":11938:11943   */\n      dup4\n        /* \"#utility.yul\":11934:11950   */\n      add\n        /* \"#utility.yul\":11928:11951   */\n      mload\n        /* \"#utility.yul\":11998:12001   */\n      dup5\n        /* \"#utility.yul\":11992:11996   */\n      dup3\n        /* \"#utility.yul\":11988:12002   */\n      sub\n        /* \"#utility.yul\":11981:11985   */\n      0xe0\n        /* \"#utility.yul\":11976:11979   */\n      dup7\n        /* \"#utility.yul\":11972:11986   */\n      add\n        /* \"#utility.yul\":11965:12003   */\n      mstore\n        /* \"#utility.yul\":12024:12097   */\n      tag_401\n        /* \"#utility.yul\":12092:12096   */\n      dup3\n        /* \"#utility.yul\":12078:12090   */\n      dup3\n        /* \"#utility.yul\":12024:12097   */\n      tag_237\n      jump\t// in\n    tag_401:\n        /* \"#utility.yul\":12016:12097   */\n      swap2\n      pop\n        /* \"#utility.yul\":11875:12108   */\n      pop\n        /* \"#utility.yul\":12190:12196   */\n      0x0100\n        /* \"#utility.yul\":12183:12188   */\n      dup4\n        /* \"#utility.yul\":12179:12197   */\n      add\n        /* \"#utility.yul\":12173:12198   */\n      mload\n        /* \"#utility.yul\":12211:12276   */\n      tag_402\n        /* \"#utility.yul\":12268:12274   */\n      0x0100\n        /* \"#utility.yul\":12263:12266   */\n      dup7\n        /* \"#utility.yul\":12259:12275   */\n      add\n        /* \"#utility.yul\":12245:12257   */\n      dup3\n        /* \"#utility.yul\":12211:12276   */\n      tag_235\n      jump\t// in\n    tag_402:\n        /* \"#utility.yul\":12118:12286   */\n      pop\n        /* \"#utility.yul\":12370:12376   */\n      0x0120\n        /* \"#utility.yul\":12363:12368   */\n      dup4\n        /* \"#utility.yul\":12359:12377   */\n      add\n        /* \"#utility.yul\":12353:12378   */\n      mload\n        /* \"#utility.yul\":12391:12463   */\n      tag_403\n        /* \"#utility.yul\":12455:12461   */\n      0x0120\n        /* \"#utility.yul\":12450:12453   */\n      dup7\n        /* \"#utility.yul\":12446:12462   */\n      add\n        /* \"#utility.yul\":12432:12444   */\n      dup3\n        /* \"#utility.yul\":12391:12463   */\n      tag_243\n      jump\t// in\n    tag_403:\n        /* \"#utility.yul\":12296:12473   */\n      pop\n        /* \"#utility.yul\":12490:12494   */\n      dup1\n        /* \"#utility.yul\":12483:12494   */\n      swap2\n      pop\n        /* \"#utility.yul\":10387:12500   */\n      pop\n        /* \"#utility.yul\":10267:12500   */\n      swap3\n      swap2\n      pop\n      pop\n      jump\t// out\n        /* \"#utility.yul\":12506:12871   */\n    tag_36:\n        /* \"#utility.yul\":12645:12649   */\n      0x00\n        /* \"#utility.yul\":12683:12685   */\n      0x20\n        /* \"#utility.yul\":12672:12681   */\n      dup3\n        /* \"#utility.yul\":12668:12686   */\n      add\n        /* \"#utility.yul\":12660:12686   */\n      swap1\n      pop\n        /* \"#utility.yul\":12732:12741   */\n      dup2\n        /* \"#utility.yul\":12726:12730   */\n      dup2\n        /* \"#utility.yul\":12722:12742   */\n      sub\n        /* \"#utility.yul\":12718:12719   */\n      0x00\n        /* \"#utility.yul\":12707:12716   */\n      dup4\n        /* \"#utility.yul\":12703:12720   */\n      add\n        /* \"#utility.yul\":12696:12743   */\n      mstore\n        /* \"#utility.yul\":12760:12864   */\n      tag_405\n        /* \"#utility.yul\":12859:12863   */\n      dup2\n        /* \"#utility.yul\":12850:12856   */\n      dup5\n        /* \"#utility.yul\":12760:12864   */\n      tag_244\n      jump\t// in\n    tag_405:\n        /* \"#utility.yul\":12752:12864   */\n      swap1\n      pop\n        /* \"#utility.yul\":12506:12871   */\n      swap3\n      swap2\n      pop\n      pop\n      jump\t// out\n        /* \"#utility.yul\":12877:12983   */\n    tag_245:\n        /* \"#utility.yul\":12957:12958   */\n      0x04\n        /* \"#utility.yul\":12950:12955   */\n      dup2\n        /* \"#utility.yul\":12947:12959   */\n      lt\n        /* \"#utility.yul\":12937:12977   */\n      tag_407\n      jumpi\n        /* \"#utility.yul\":12973:12974   */\n      0x00\n        /* \"#utility.yul\":12970:12971   */\n      dup1\n        /* \"#utility.yul\":12963:12975   */\n      revert\n        /* \"#utility.yul\":12937:12977   */\n    tag_407:\n        /* \"#utility.yul\":12877:12983   */\n      pop\n      jump\t// out\n        /* \"#utility.yul\":12989:13142   */\n    tag_246:\n        /* \"#utility.yul\":13042:13047   */\n      0x00\n        /* \"#utility.yul\":13080:13086   */\n      dup2\n        /* \"#utility.yul\":13067:13087   */\n      calldataload\n        /* \"#utility.yul\":13058:13087   */\n      swap1\n      pop\n        /* \"#utility.yul\":13096:13136   */\n      tag_409\n        /* \"#utility.yul\":13130:13135   */\n      dup2\n        /* \"#utility.yul\":13096:13136   */\n      tag_245\n      jump\t// in\n    tag_409:\n        /* \"#utility.yul\":12989:13142   */\n      swap3\n      swap2\n      pop\n      pop\n      jump\t// out\n        /* \"#utility.yul\":13148:14467   */\n    tag_39:\n        /* \"#utility.yul\":13271:13277   */\n      0x00\n        /* \"#utility.yul\":13279:13285   */\n      dup1\n        /* \"#utility.yul\":13287:13293   */\n      0x00\n        /* \"#utility.yul\":13295:13301   */\n      dup1\n        /* \"#utility.yul\":13344:13347   */\n      0x80\n        /* \"#utility.yul\":13332:13341   */\n      dup6\n        /* \"#utility.yul\":13323:13330   */\n      dup8\n        /* \"#utility.yul\":13319:13342   */\n      sub\n        /* \"#utility.yul\":13315:13348   */\n      slt\n        /* \"#utility.yul\":13312:13432   */\n      iszero\n      tag_411\n      jumpi\n        /* \"#utility.yul\":13351:13430   */\n      tag_412\n      tag_207\n      jump\t// in\n    tag_412:\n        /* \"#utility.yul\":13312:13432   */\n    tag_411:\n        /* \"#utility.yul\":13499:13500   */\n      0x00\n        /* \"#utility.yul\":13488:13497   */\n      dup6\n        /* \"#utility.yul\":13484:13501   */\n      add\n        /* \"#utility.yul\":13471:13502   */\n      calldataload\n        /* \"#utility.yul\":13529:13547   */\n      0xffffffffffffffff\n        /* \"#utility.yul\":13521:13527   */\n      dup2\n        /* \"#utility.yul\":13518:13548   */\n      gt\n        /* \"#utility.yul\":13515:13632   */\n      iszero\n      tag_413\n      jumpi\n        /* \"#utility.yul\":13551:13630   */\n      tag_414\n      tag_208\n      jump\t// in\n    tag_414:\n        /* \"#utility.yul\":13515:13632   */\n    tag_413:\n        /* \"#utility.yul\":13656:13719   */\n      tag_415\n        /* \"#utility.yul\":13711:13718   */\n      dup8\n        /* \"#utility.yul\":13702:13708   */\n      dup3\n        /* \"#utility.yul\":13691:13700   */\n      dup9\n        /* \"#utility.yul\":13687:13709   */\n      add\n        /* \"#utility.yul\":13656:13719   */\n      tag_218\n      jump\t// in\n    tag_415:\n        /* \"#utility.yul\":13646:13719   */\n      swap5\n      pop\n        /* \"#utility.yul\":13442:13729   */\n      pop\n        /* \"#utility.yul\":13796:13798   */\n      0x20\n        /* \"#utility.yul\":13785:13794   */\n      dup6\n        /* \"#utility.yul\":13781:13799   */\n      add\n        /* \"#utility.yul\":13768:13800   */\n      calldataload\n        /* \"#utility.yul\":13827:13845   */\n      0xffffffffffffffff\n        /* \"#utility.yul\":13819:13825   */\n      dup2\n        /* \"#utility.yul\":13816:13846   */\n      gt\n        /* \"#utility.yul\":13813:13930   */\n      iszero\n      tag_416\n      jumpi\n        /* \"#utility.yul\":13849:13928   */\n      tag_417\n      tag_208\n      jump\t// in\n    tag_417:\n        /* \"#utility.yul\":13813:13930   */\n    tag_416:\n        /* \"#utility.yul\":13954:14017   */\n      tag_418\n        /* \"#utility.yul\":14009:14016   */\n      dup8\n        /* \"#utility.yul\":14000:14006   */\n      dup3\n        /* \"#utility.yul\":13989:13998   */\n      dup9\n        /* \"#utility.yul\":13985:14007   */\n      add\n        /* \"#utility.yul\":13954:14017   */\n      tag_218\n      jump\t// in\n    tag_418:\n        /* \"#utility.yul\":13944:14017   */\n      swap4\n      pop\n        /* \"#utility.yul\":13739:14027   */\n      pop\n        /* \"#utility.yul\":14094:14096   */\n      0x40\n        /* \"#utility.yul\":14083:14092   */\n      dup6\n        /* \"#utility.yul\":14079:14097   */\n      add\n        /* \"#utility.yul\":14066:14098   */\n      calldataload\n        /* \"#utility.yul\":14125:14143   */\n      0xffffffffffffffff\n        /* \"#utility.yul\":14117:14123   */\n      dup2\n        /* \"#utility.yul\":14114:14144   */\n      gt\n        /* \"#utility.yul\":14111:14228   */\n      iszero\n      tag_419\n      jumpi\n        /* \"#utility.yul\":14147:14226   */\n      tag_420\n      tag_208\n      jump\t// in\n    tag_420:\n        /* \"#utility.yul\":14111:14228   */\n    tag_419:\n        /* \"#utility.yul\":14252:14315   */\n      tag_421\n        /* \"#utility.yul\":14307:14314   */\n      dup8\n        /* \"#utility.yul\":14298:14304   */\n      dup3\n        /* \"#utility.yul\":14287:14296   */\n      dup9\n        /* \"#utility.yul\":14283:14305   */\n      add\n        /* \"#utility.yul\":14252:14315   */\n      tag_218\n      jump\t// in\n    tag_421:\n        /* \"#utility.yul\":14242:14315   */\n      swap3\n      pop\n        /* \"#utility.yul\":14037:14325   */\n      pop\n        /* \"#utility.yul\":14364:14366   */\n      0x60\n        /* \"#utility.yul\":14390:14450   */\n      tag_422\n        /* \"#utility.yul\":14442:14449   */\n      dup8\n        /* \"#utility.yul\":14433:14439   */\n      dup3\n        /* \"#utility.yul\":14422:14431   */\n      dup9\n        /* \"#utility.yul\":14418:14440   */\n      add\n        /* \"#utility.yul\":14390:14450   */\n      tag_246\n      jump\t// in\n    tag_422:\n        /* \"#utility.yul\":14380:14450   */\n      swap2\n      pop\n        /* \"#utility.yul\":14335:14460   */\n      pop\n        /* \"#utility.yul\":13148:14467   */\n      swap3\n      swap6\n      swap2\n      swap5\n      pop\n      swap3\n      pop\n      jump\t// out\n        /* \"#utility.yul\":14473:14588   */\n    tag_247:\n        /* \"#utility.yul\":14558:14581   */\n      tag_424\n        /* \"#utility.yul\":14575:14580   */\n      dup2\n        /* \"#utility.yul\":14558:14581   */\n      tag_219\n      jump\t// in\n    tag_424:\n        /* \"#utility.yul\":14553:14556   */\n      dup3\n        /* \"#utility.yul\":14546:14582   */\n      mstore\n        /* \"#utility.yul\":14473:14588   */\n      pop\n      pop\n      jump\t// out\n        /* \"#utility.yul\":14594:14739   */\n    tag_248:\n        /* \"#utility.yul\":14688:14732   */\n      tag_426\n        /* \"#utility.yul\":14726:14731   */\n      dup2\n        /* \"#utility.yul\":14688:14732   */\n      tag_242\n      jump\t// in\n    tag_426:\n        /* \"#utility.yul\":14683:14686   */\n      dup3\n        /* \"#utility.yul\":14676:14733   */\n      mstore\n        /* \"#utility.yul\":14594:14739   */\n      pop\n      pop\n      jump\t// out\n        /* \"#utility.yul\":14745:16338   */\n    tag_45:\n        /* \"#utility.yul\":15175:15179   */\n      0x00\n        /* \"#utility.yul\":15213:15216   */\n      0x0140\n        /* \"#utility.yul\":15202:15211   */\n      dup3\n        /* \"#utility.yul\":15198:15217   */\n      add\n        /* \"#utility.yul\":15190:15217   */\n      swap1\n      pop\n        /* \"#utility.yul\":15227:15298   */\n      tag_428\n        /* \"#utility.yul\":15295:15296   */\n      0x00\n        /* \"#utility.yul\":15284:15293   */\n      dup4\n        /* \"#utility.yul\":15280:15297   */\n      add\n        /* \"#utility.yul\":15271:15277   */\n      dup14\n        /* \"#utility.yul\":15227:15298   */\n      tag_205\n      jump\t// in\n    tag_428:\n        /* \"#utility.yul\":15345:15354   */\n      dup2\n        /* \"#utility.yul\":15339:15343   */\n      dup2\n        /* \"#utility.yul\":15335:15355   */\n      sub\n        /* \"#utility.yul\":15330:15332   */\n      0x20\n        /* \"#utility.yul\":15319:15328   */\n      dup4\n        /* \"#utility.yul\":15315:15333   */\n      add\n        /* \"#utility.yul\":15308:15356   */\n      mstore\n        /* \"#utility.yul\":15373:15451   */\n      tag_429\n        /* \"#utility.yul\":15446:15450   */\n      dup2\n        /* \"#utility.yul\":15437:15443   */\n      dup13\n        /* \"#utility.yul\":15373:15451   */\n      tag_227\n      jump\t// in\n    tag_429:\n        /* \"#utility.yul\":15365:15451   */\n      swap1\n      pop\n        /* \"#utility.yul\":15461:15533   */\n      tag_430\n        /* \"#utility.yul\":15529:15531   */\n      0x40\n        /* \"#utility.yul\":15518:15527   */\n      dup4\n        /* \"#utility.yul\":15514:15532   */\n      add\n        /* \"#utility.yul\":15505:15511   */\n      dup12\n        /* \"#utility.yul\":15461:15533   */\n      tag_230\n      jump\t// in\n    tag_430:\n        /* \"#utility.yul\":15543:15613   */\n      tag_431\n        /* \"#utility.yul\":15609:15611   */\n      0x60\n        /* \"#utility.yul\":15598:15607   */\n      dup4\n        /* \"#utility.yul\":15594:15612   */\n      add\n        /* \"#utility.yul\":15585:15591   */\n      dup11\n        /* \"#utility.yul\":15543:15613   */\n      tag_247\n      jump\t// in\n    tag_431:\n        /* \"#utility.yul\":15623:15696   */\n      tag_432\n        /* \"#utility.yul\":15691:15694   */\n      0x80\n        /* \"#utility.yul\":15680:15689   */\n      dup4\n        /* \"#utility.yul\":15676:15695   */\n      add\n        /* \"#utility.yul\":15667:15673   */\n      dup10\n        /* \"#utility.yul\":15623:15696   */\n      tag_205\n      jump\t// in\n    tag_432:\n        /* \"#utility.yul\":15744:15753   */\n      dup2\n        /* \"#utility.yul\":15738:15742   */\n      dup2\n        /* \"#utility.yul\":15734:15754   */\n      sub\n        /* \"#utility.yul\":15728:15731   */\n      0xa0\n        /* \"#utility.yul\":15717:15726   */\n      dup4\n        /* \"#utility.yul\":15713:15732   */\n      add\n        /* \"#utility.yul\":15706:15755   */\n      mstore\n        /* \"#utility.yul\":15772:15850   */\n      tag_433\n        /* \"#utility.yul\":15845:15849   */\n      dup2\n        /* \"#utility.yul\":15836:15842   */\n      dup9\n        /* \"#utility.yul\":15772:15850   */\n      tag_227\n      jump\t// in\n    tag_433:\n        /* \"#utility.yul\":15764:15850   */\n      swap1\n      pop\n        /* \"#utility.yul\":15898:15907   */\n      dup2\n        /* \"#utility.yul\":15892:15896   */\n      dup2\n        /* \"#utility.yul\":15888:15908   */\n      sub\n        /* \"#utility.yul\":15882:15885   */\n      0xc0\n        /* \"#utility.yul\":15871:15880   */\n      dup4\n        /* \"#utility.yul\":15867:15886   */\n      add\n        /* \"#utility.yul\":15860:15909   */\n      mstore\n        /* \"#utility.yul\":15926:16004   */\n      tag_434\n        /* \"#utility.yul\":15999:16003   */\n      dup2\n        /* \"#utility.yul\":15990:15996   */\n      dup8\n        /* \"#utility.yul\":15926:16004   */\n      tag_227\n      jump\t// in\n    tag_434:\n        /* \"#utility.yul\":15918:16004   */\n      swap1\n      pop\n        /* \"#utility.yul\":16052:16061   */\n      dup2\n        /* \"#utility.yul\":16046:16050   */\n      dup2\n        /* \"#utility.yul\":16042:16062   */\n      sub\n        /* \"#utility.yul\":16036:16039   */\n      0xe0\n        /* \"#utility.yul\":16025:16034   */\n      dup4\n        /* \"#utility.yul\":16021:16040   */\n      add\n        /* \"#utility.yul\":16014:16063   */\n      mstore\n        /* \"#utility.yul\":16080:16158   */\n      tag_435\n        /* \"#utility.yul\":16153:16157   */\n      dup2\n        /* \"#utility.yul\":16144:16150   */\n      dup7\n        /* \"#utility.yul\":16080:16158   */\n      tag_227\n      jump\t// in\n    tag_435:\n        /* \"#utility.yul\":16072:16158   */\n      swap1\n      pop\n        /* \"#utility.yul\":16168:16241   */\n      tag_436\n        /* \"#utility.yul\":16236:16239   */\n      0x0100\n        /* \"#utility.yul\":16225:16234   */\n      dup4\n        /* \"#utility.yul\":16221:16240   */\n      add\n        /* \"#utility.yul\":16212:16218   */\n      dup6\n        /* \"#utility.yul\":16168:16241   */\n      tag_205\n      jump\t// in\n    tag_436:\n        /* \"#utility.yul\":16251:16331   */\n      tag_437\n        /* \"#utility.yul\":16326:16329   */\n      0x0120\n        /* \"#utility.yul\":16315:16324   */\n      dup4\n        /* \"#utility.yul\":16311:16330   */\n      add\n        /* \"#utility.yul\":16302:16308   */\n      dup5\n        /* \"#utility.yul\":16251:16331   */\n      tag_248\n      jump\t// in\n    tag_437:\n        /* \"#utility.yul\":14745:16338   */\n      swap12\n      swap11\n      pop\n      pop\n      pop\n      pop\n      pop\n      pop\n      pop\n      pop\n      pop\n      pop\n      pop\n      jump\t// out\n        /* \"#utility.yul\":16344:16466   */\n    tag_249:\n        /* \"#utility.yul\":16417:16441   */\n      tag_439\n        /* \"#utility.yul\":16435:16440   */\n      dup2\n        /* \"#utility.yul\":16417:16441   */\n      tag_229\n      jump\t// in\n    tag_439:\n        /* \"#utility.yul\":16410:16415   */\n      dup2\n        /* \"#utility.yul\":16407:16442   */\n      eq\n        /* \"#utility.yul\":16397:16460   */\n      tag_440\n      jumpi\n        /* \"#utility.yul\":16456:16457   */\n      0x00\n        /* \"#utility.yul\":16453:16454   */\n      dup1\n        /* \"#utility.yul\":16446:16458   */\n      revert\n        /* \"#utility.yul\":16397:16460   */\n    tag_440:\n        /* \"#utility.yul\":16344:16466   */\n      pop\n      jump\t// out\n        /* \"#utility.yul\":16472:16611   */\n    tag_250:\n        /* \"#utility.yul\":16518:16523   */\n      0x00\n        /* \"#utility.yul\":16556:16562   */\n      dup2\n        /* \"#utility.yul\":16543:16563   */\n      calldataload\n        /* \"#utility.yul\":16534:16563   */\n      swap1\n      pop\n        /* \"#utility.yul\":16572:16605   */\n      tag_442\n        /* \"#utility.yul\":16599:16604   */\n      dup2\n        /* \"#utility.yul\":16572:16605   */\n      tag_249\n      jump\t// in\n    tag_442:\n        /* \"#utility.yul\":16472:16611   */\n      swap3\n      swap2\n      pop\n      pop\n      jump\t// out\n        /* \"#utility.yul\":16617:17091   */\n    tag_48:\n        /* \"#utility.yul\":16685:16691   */\n      0x00\n        /* \"#utility.yul\":16693:16699   */\n      dup1\n        /* \"#utility.yul\":16742:16744   */\n      0x40\n        /* \"#utility.yul\":16730:16739   */\n      dup4\n        /* \"#utility.yul\":16721:16728   */\n      dup6\n        /* \"#utility.yul\":16717:16740   */\n      sub\n        /* \"#utility.yul\":16713:16745   */\n      slt\n        /* \"#utility.yul\":16710:16829   */\n      iszero\n      tag_444\n      jumpi\n        /* \"#utility.yul\":16748:16827   */\n      tag_445\n      tag_207\n      jump\t// in\n    tag_445:\n        /* \"#utility.yul\":16710:16829   */\n    tag_444:\n        /* \"#utility.yul\":16868:16869   */\n      0x00\n        /* \"#utility.yul\":16893:16946   */\n      tag_446\n        /* \"#utility.yul\":16938:16945   */\n      dup6\n        /* \"#utility.yul\":16929:16935   */\n      dup3\n        /* \"#utility.yul\":16918:16927   */\n      dup7\n        /* \"#utility.yul\":16914:16936   */\n      add\n        /* \"#utility.yul\":16893:16946   */\n      tag_223\n      jump\t// in\n    tag_446:\n        /* \"#utility.yul\":16883:16946   */\n      swap3\n      pop\n        /* \"#utility.yul\":16839:16956   */\n      pop\n        /* \"#utility.yul\":16995:16997   */\n      0x20\n        /* \"#utility.yul\":17021:17074   */\n      tag_447\n        /* \"#utility.yul\":17066:17073   */\n      dup6\n        /* \"#utility.yul\":17057:17063   */\n      dup3\n        /* \"#utility.yul\":17046:17055   */\n      dup7\n        /* \"#utility.yul\":17042:17064   */\n      add\n        /* \"#utility.yul\":17021:17074   */\n      tag_250\n      jump\t// in\n    tag_447:\n        /* \"#utility.yul\":17011:17074   */\n      swap2\n      pop\n        /* \"#utility.yul\":16966:17084   */\n      pop\n        /* \"#utility.yul\":16617:17091   */\n      swap3\n      pop\n      swap3\n      swap1\n      pop\n      jump\t// out\n        /* \"#utility.yul\":17097:17205   */\n    tag_251:\n        /* \"#utility.yul\":17179:17180   */\n      0x04\n        /* \"#utility.yul\":17172:17177   */\n      dup2\n        /* \"#utility.yul\":17169:17181   */\n      lt\n        /* \"#utility.yul\":17159:17199   */\n      tag_449\n      jumpi\n        /* \"#utility.yul\":17195:17196   */\n      0x00\n        /* \"#utility.yul\":17192:17193   */\n      dup1\n        /* \"#utility.yul\":17185:17197   */\n      revert\n        /* \"#utility.yul\":17159:17199   */\n    tag_449:\n        /* \"#utility.yul\":17097:17205   */\n      pop\n      jump\t// out\n        /* \"#utility.yul\":17211:17368   */\n    tag_252:\n        /* \"#utility.yul\":17266:17271   */\n      0x00\n        /* \"#utility.yul\":17304:17310   */\n      dup2\n        /* \"#utility.yul\":17291:17311   */\n      calldataload\n        /* \"#utility.yul\":17282:17311   */\n      swap1\n      pop\n        /* \"#utility.yul\":17320:17362   */\n      tag_451\n        /* \"#utility.yul\":17356:17361   */\n      dup2\n        /* \"#utility.yul\":17320:17362   */\n      tag_251\n      jump\t// in\n    tag_451:\n        /* \"#utility.yul\":17211:17368   */\n      swap3\n      swap2\n      pop\n      pop\n      jump\t// out\n        /* \"#utility.yul\":17374:17866   */\n    tag_52:\n        /* \"#utility.yul\":17451:17457   */\n      0x00\n        /* \"#utility.yul\":17459:17465   */\n      dup1\n        /* \"#utility.yul\":17508:17510   */\n      0x40\n        /* \"#utility.yul\":17496:17505   */\n      dup4\n        /* \"#utility.yul\":17487:17494   */\n      dup6\n        /* \"#utility.yul\":17483:17506   */\n      sub\n        /* \"#utility.yul\":17479:17511   */\n      slt\n        /* \"#utility.yul\":17476:17595   */\n      iszero\n      tag_453\n      jumpi\n        /* \"#utility.yul\":17514:17593   */\n      tag_454\n      tag_207\n      jump\t// in\n    tag_454:\n        /* \"#utility.yul\":17476:17595   */\n    tag_453:\n        /* \"#utility.yul\":17634:17635   */\n      0x00\n        /* \"#utility.yul\":17659:17712   */\n      tag_455\n        /* \"#utility.yul\":17704:17711   */\n      dup6\n        /* \"#utility.yul\":17695:17701   */\n      dup3\n        /* \"#utility.yul\":17684:17693   */\n      dup7\n        /* \"#utility.yul\":17680:17702   */\n      add\n        /* \"#utility.yul\":17659:17712   */\n      tag_223\n      jump\t// in\n    tag_455:\n        /* \"#utility.yul\":17649:17712   */\n      swap3\n      pop\n        /* \"#utility.yul\":17605:17722   */\n      pop\n        /* \"#utility.yul\":17761:17763   */\n      0x20\n        /* \"#utility.yul\":17787:17849   */\n      tag_456\n        /* \"#utility.yul\":17841:17848   */\n      dup6\n        /* \"#utility.yul\":17832:17838   */\n      dup3\n        /* \"#utility.yul\":17821:17830   */\n      dup7\n        /* \"#utility.yul\":17817:17839   */\n      add\n        /* \"#utility.yul\":17787:17849   */\n      tag_252\n      jump\t// in\n    tag_456:\n        /* \"#utility.yul\":17777:17849   */\n      swap2\n      pop\n        /* \"#utility.yul\":17732:17859   */\n      pop\n        /* \"#utility.yul\":17374:17866   */\n      swap3\n      pop\n      swap3\n      swap1\n      pop\n      jump\t// out\n        /* \"#utility.yul\":17872:18108   */\n    tag_61:\n        /* \"#utility.yul\":17972:17976   */\n      0x00\n        /* \"#utility.yul\":18010:18012   */\n      0x20\n        /* \"#utility.yul\":17999:18008   */\n      dup3\n        /* \"#utility.yul\":17995:18013   */\n      add\n        /* \"#utility.yul\":17987:18013   */\n      swap1\n      pop\n        /* \"#utility.yul\":18023:18101   */\n      tag_458\n        /* \"#utility.yul\":18098:18099   */\n      0x00\n        /* \"#utility.yul\":18087:18096   */\n      dup4\n        /* \"#utility.yul\":18083:18100   */\n      add\n        /* \"#utility.yul\":18074:18080   */\n      dup5\n        /* \"#utility.yul\":18023:18101   */\n      tag_248\n      jump\t// in\n    tag_458:\n        /* \"#utility.yul\":17872:18108   */\n      swap3\n      swap2\n      pop\n      pop\n      jump\t// out\n        /* \"#utility.yul\":18114:18245   */\n    tag_253:\n        /* \"#utility.yul\":18196:18238   */\n      tag_460\n        /* \"#utility.yul\":18232:18237   */\n      dup2\n        /* \"#utility.yul\":18196:18238   */\n      tag_233\n      jump\t// in\n    tag_460:\n        /* \"#utility.yul\":18191:18194   */\n      dup3\n        /* \"#utility.yul\":18184:18239   */\n      mstore\n        /* \"#utility.yul\":18114:18245   */\n      pop\n      pop\n      jump\t// out\n        /* \"#utility.yul\":18317:19946   */\n    tag_254:\n        /* \"#utility.yul\":18426:18429   */\n      0x00\n        /* \"#utility.yul\":18462:18466   */\n      0xe0\n        /* \"#utility.yul\":18457:18460   */\n      dup4\n        /* \"#utility.yul\":18453:18467   */\n      add\n        /* \"#utility.yul\":18547:18551   */\n      0x00\n        /* \"#utility.yul\":18540:18545   */\n      dup4\n        /* \"#utility.yul\":18536:18552   */\n      add\n        /* \"#utility.yul\":18530:18553   */\n      mload\n        /* \"#utility.yul\":18566:18629   */\n      tag_462\n        /* \"#utility.yul\":18623:18627   */\n      0x00\n        /* \"#utility.yul\":18618:18621   */\n      dup7\n        /* \"#utility.yul\":18614:18628   */\n      add\n        /* \"#utility.yul\":18600:18612   */\n      dup3\n        /* \"#utility.yul\":18566:18629   */\n      tag_235\n      jump\t// in\n    tag_462:\n        /* \"#utility.yul\":18477:18639   */\n      pop\n        /* \"#utility.yul\":18721:18725   */\n      0x20\n        /* \"#utility.yul\":18714:18719   */\n      dup4\n        /* \"#utility.yul\":18710:18726   */\n      add\n        /* \"#utility.yul\":18704:18727   */\n      mload\n        /* \"#utility.yul\":18774:18777   */\n      dup5\n        /* \"#utility.yul\":18768:18772   */\n      dup3\n        /* \"#utility.yul\":18764:18778   */\n      sub\n        /* \"#utility.yul\":18757:18761   */\n      0x20\n        /* \"#utility.yul\":18752:18755   */\n      dup7\n        /* \"#utility.yul\":18748:18762   */\n      add\n        /* \"#utility.yul\":18741:18779   */\n      mstore\n        /* \"#utility.yul\":18800:18873   */\n      tag_463\n        /* \"#utility.yul\":18868:18872   */\n      dup3\n        /* \"#utility.yul\":18854:18866   */\n      dup3\n        /* \"#utility.yul\":18800:18873   */\n      tag_237\n      jump\t// in\n    tag_463:\n        /* \"#utility.yul\":18792:18873   */\n      swap2\n      pop\n        /* \"#utility.yul\":18649:18884   */\n      pop\n        /* \"#utility.yul\":18973:18977   */\n      0x40\n        /* \"#utility.yul\":18966:18971   */\n      dup4\n        /* \"#utility.yul\":18962:18978   */\n      add\n        /* \"#utility.yul\":18956:18979   */\n      mload\n        /* \"#utility.yul\":18992:19055   */\n      tag_464\n        /* \"#utility.yul\":19049:19053   */\n      0x40\n        /* \"#utility.yul\":19044:19047   */\n      dup7\n        /* \"#utility.yul\":19040:19054   */\n      add\n        /* \"#utility.yul\":19026:19038   */\n      dup3\n        /* \"#utility.yul\":18992:19055   */\n      tag_238\n      jump\t// in\n    tag_464:\n        /* \"#utility.yul\":18894:19065   */\n      pop\n        /* \"#utility.yul\":19151:19155   */\n      0x60\n        /* \"#utility.yul\":19144:19149   */\n      dup4\n        /* \"#utility.yul\":19140:19156   */\n      add\n        /* \"#utility.yul\":19134:19157   */\n      mload\n        /* \"#utility.yul\":19204:19207   */\n      dup5\n        /* \"#utility.yul\":19198:19202   */\n      dup3\n        /* \"#utility.yul\":19194:19208   */\n      sub\n        /* \"#utility.yul\":19187:19191   */\n      0x60\n        /* \"#utility.yul\":19182:19185   */\n      dup7\n        /* \"#utility.yul\":19178:19192   */\n      add\n        /* \"#utility.yul\":19171:19209   */\n      mstore\n        /* \"#utility.yul\":19230:19303   */\n      tag_465\n        /* \"#utility.yul\":19298:19302   */\n      dup3\n        /* \"#utility.yul\":19284:19296   */\n      dup3\n        /* \"#utility.yul\":19230:19303   */\n      tag_237\n      jump\t// in\n    tag_465:\n        /* \"#utility.yul\":19222:19303   */\n      swap2\n      pop\n        /* \"#utility.yul\":19075:19314   */\n      pop\n        /* \"#utility.yul\":19403:19407   */\n      0x80\n        /* \"#utility.yul\":19396:19401   */\n      dup4\n        /* \"#utility.yul\":19392:19408   */\n      add\n        /* \"#utility.yul\":19386:19409   */\n      mload\n        /* \"#utility.yul\":19456:19459   */\n      dup5\n        /* \"#utility.yul\":19450:19454   */\n      dup3\n        /* \"#utility.yul\":19446:19460   */\n      sub\n        /* \"#utility.yul\":19439:19443   */\n      0x80\n        /* \"#utility.yul\":19434:19437   */\n      dup7\n        /* \"#utility.yul\":19430:19444   */\n      add\n        /* \"#utility.yul\":19423:19461   */\n      mstore\n        /* \"#utility.yul\":19482:19555   */\n      tag_466\n        /* \"#utility.yul\":19550:19554   */\n      dup3\n        /* \"#utility.yul\":19536:19548   */\n      dup3\n        /* \"#utility.yul\":19482:19555   */\n      tag_237\n      jump\t// in\n    tag_466:\n        /* \"#utility.yul\":19474:19555   */\n      swap2\n      pop\n        /* \"#utility.yul\":19324:19566   */\n      pop\n        /* \"#utility.yul\":19648:19652   */\n      0xa0\n        /* \"#utility.yul\":19641:19646   */\n      dup4\n        /* \"#utility.yul\":19637:19653   */\n      add\n        /* \"#utility.yul\":19631:19654   */\n      mload\n        /* \"#utility.yul\":19667:19730   */\n      tag_467\n        /* \"#utility.yul\":19724:19728   */\n      0xa0\n        /* \"#utility.yul\":19719:19722   */\n      dup7\n        /* \"#utility.yul\":19715:19729   */\n      add\n        /* \"#utility.yul\":19701:19713   */\n      dup3\n        /* \"#utility.yul\":19667:19730   */\n      tag_235\n      jump\t// in\n    tag_467:\n        /* \"#utility.yul\":19576:19740   */\n      pop\n        /* \"#utility.yul\":19822:19826   */\n      0xc0\n        /* \"#utility.yul\":19815:19820   */\n      dup4\n        /* \"#utility.yul\":19811:19827   */\n      add\n        /* \"#utility.yul\":19805:19828   */\n      mload\n        /* \"#utility.yul\":19841:19909   */\n      tag_468\n        /* \"#utility.yul\":19903:19907   */\n      0xc0\n        /* \"#utility.yul\":19898:19901   */\n      dup7\n        /* \"#utility.yul\":19894:19908   */\n      add\n        /* \"#utility.yul\":19880:19892   */\n      dup3\n        /* \"#utility.yul\":19841:19909   */\n      tag_253\n      jump\t// in\n    tag_468:\n        /* \"#utility.yul\":19750:19919   */\n      pop\n        /* \"#utility.yul\":19936:19940   */\n      dup1\n        /* \"#utility.yul\":19929:19940   */\n      swap2\n      pop\n        /* \"#utility.yul\":18431:19946   */\n      pop\n        /* \"#utility.yul\":18317:19946   */\n      swap3\n      swap2\n      pop\n      pop\n      jump\t// out\n        /* \"#utility.yul\":19952:20305   */\n    tag_66:\n        /* \"#utility.yul\":20085:20089   */\n      0x00\n        /* \"#utility.yul\":20123:20125   */\n      0x20\n        /* \"#utility.yul\":20112:20121   */\n      dup3\n        /* \"#utility.yul\":20108:20126   */\n      add\n        /* \"#utility.yul\":20100:20126   */\n      swap1\n      pop\n        /* \"#utility.yul\":20172:20181   */\n      dup2\n        /* \"#utility.yul\":20166:20170   */\n      dup2\n        /* \"#utility.yul\":20162:20182   */\n      sub\n        /* \"#utility.yul\":20158:20159   */\n      0x00\n        /* \"#utility.yul\":20147:20156   */\n      dup4\n        /* \"#utility.yul\":20143:20160   */\n      add\n        /* \"#utility.yul\":20136:20183   */\n      mstore\n        /* \"#utility.yul\":20200:20298   */\n      tag_470\n        /* \"#utility.yul\":20293:20297   */\n      dup2\n        /* \"#utility.yul\":20284:20290   */\n      dup5\n        /* \"#utility.yul\":20200:20298   */\n      tag_254\n      jump\t// in\n    tag_470:\n        /* \"#utility.yul\":20192:20298   */\n      swap1\n      pop\n        /* \"#utility.yul\":19952:20305   */\n      swap3\n      swap2\n      pop\n      pop\n      jump\t// out\n        /* \"#utility.yul\":20311:20533   */\n    tag_73:\n        /* \"#utility.yul\":20404:20408   */\n      0x00\n        /* \"#utility.yul\":20442:20444   */\n      0x20\n        /* \"#utility.yul\":20431:20440   */\n      dup3\n        /* \"#utility.yul\":20427:20445   */\n      add\n        /* \"#utility.yul\":20419:20445   */\n      swap1\n      pop\n        /* \"#utility.yul\":20455:20526   */\n      tag_472\n        /* \"#utility.yul\":20523:20524   */\n      0x00\n        /* \"#utility.yul\":20512:20521   */\n      dup4\n        /* \"#utility.yul\":20508:20525   */\n      add\n        /* \"#utility.yul\":20499:20505   */\n      dup5\n        /* \"#utility.yul\":20455:20526   */\n      tag_230\n      jump\t// in\n    tag_472:\n        /* \"#utility.yul\":20311:20533   */\n      swap3\n      swap2\n      pop\n      pop\n      jump\t// out\n        /* \"#utility.yul\":20539:20719   */\n    tag_255:\n        /* \"#utility.yul\":20587:20664   */\n      0x4e487b7100000000000000000000000000000000000000000000000000000000\n        /* \"#utility.yul\":20584:20585   */\n      0x00\n        /* \"#utility.yul\":20577:20665   */\n      mstore\n        /* \"#utility.yul\":20684:20688   */\n      0x11\n        /* \"#utility.yul\":20681:20682   */\n      0x04\n        /* \"#utility.yul\":20674:20689   */\n      mstore\n        /* \"#utility.yul\":20708:20712   */\n      0x24\n        /* \"#utility.yul\":20705:20706   */\n      0x00\n        /* \"#utility.yul\":20698:20713   */\n      revert\n        /* \"#utility.yul\":20725:20958   */\n    tag_76:\n        /* \"#utility.yul\":20764:20767   */\n      0x00\n        /* \"#utility.yul\":20787:20811   */\n      tag_475\n        /* \"#utility.yul\":20805:20810   */\n      dup3\n        /* \"#utility.yul\":20787:20811   */\n      tag_204\n      jump\t// in\n    tag_475:\n        /* \"#utility.yul\":20778:20811   */\n      swap2\n      pop\n        /* \"#utility.yul\":20833:20899   */\n      0xffffffffffffffffffffffffffffffffffffffffffffffffffffffffffffffff\n        /* \"#utility.yul\":20826:20831   */\n      dup3\n        /* \"#utility.yul\":20823:20900   */\n      sub\n        /* \"#utility.yul\":20820:20923   */\n      tag_476\n      jumpi\n        /* \"#utility.yul\":20903:20921   */\n      tag_477\n      tag_255\n      jump\t// in\n    tag_477:\n        /* \"#utility.yul\":20820:20923   */\n    tag_476:\n        /* \"#utility.yul\":20950:20951   */\n      0x01\n        /* \"#utility.yul\":20943:20948   */\n      dup3\n        /* \"#utility.yul\":20939:20952   */\n      add\n        /* \"#utility.yul\":20932:20952   */\n      swap1\n      pop\n        /* \"#utility.yul\":20725:20958   */\n      swap2\n      swap1\n      pop\n      jump\t// out\n        /* \"#utility.yul\":20964:21144   */\n    tag_256:\n        /* \"#utility.yul\":21012:21089   */\n      0x4e487b7100000000000000000000000000000000000000000000000000000000\n        /* \"#utility.yul\":21009:21010   */\n      0x00\n        /* \"#utility.yul\":21002:21090   */\n      mstore\n        /* \"#utility.yul\":21109:21113   */\n      0x22\n        /* \"#utility.yul\":21106:21107   */\n      0x04\n        /* \"#utility.yul\":21099:21114   */\n      mstore\n        /* \"#utility.yul\":21133:21137   */\n      0x24\n        /* \"#utility.yul\":21130:21131   */\n      0x00\n        /* \"#utility.yul\":21123:21138   */\n      revert\n        /* \"#utility.yul\":21150:21470   */\n    tag_90:\n        /* \"#utility.yul\":21194:21200   */\n      0x00\n        /* \"#utility.yul\":21231:21232   */\n      0x02\n        /* \"#utility.yul\":21225:21229   */\n      dup3\n        /* \"#utility.yul\":21221:21233   */\n      div\n        /* \"#utility.yul\":21211:21233   */\n      swap1\n      pop\n        /* \"#utility.yul\":21278:21279   */\n      0x01\n        /* \"#utility.yul\":21272:21276   */\n      dup3\n        /* \"#utility.yul\":21268:21280   */\n      and\n        /* \"#utility.yul\":21299:21317   */\n      dup1\n        /* \"#utility.yul\":21289:21370   */\n      tag_480\n      jumpi\n        /* \"#utility.yul\":21355:21359   */\n      0x7f\n        /* \"#utility.yul\":21347:21353   */\n      dup3\n        /* \"#utility.yul\":21343:21360   */\n      and\n        /* \"#utility.yul\":21333:21360   */\n      swap2\n      pop\n        /* \"#utility.yul\":21289:21370   */\n    tag_480:\n        /* \"#utility.yul\":21417:21419   */\n      0x20\n        /* \"#utility.yul\":21409:21415   */\n      dup3\n        /* \"#utility.yul\":21406:21420   */\n      lt\n        /* \"#utility.yul\":21386:21404   */\n      dup2\n        /* \"#utility.yul\":21383:21421   */\n      sub\n        /* \"#utility.yul\":21380:21464   */\n      tag_481\n      jumpi\n        /* \"#utility.yul\":21436:21454   */\n      tag_482\n      tag_256\n      jump\t// in\n    tag_482:\n        /* \"#utility.yul\":21380:21464   */\n    tag_481:\n        /* \"#utility.yul\":21201:21470   */\n      pop\n        /* \"#utility.yul\":21150:21470   */\n      swap2\n      swap1\n      pop\n      jump\t// out\n        /* \"#utility.yul\":21476:21617   */\n    tag_257:\n        /* \"#utility.yul\":21525:21529   */\n      0x00\n        /* \"#utility.yul\":21548:21551   */\n      dup2\n        /* \"#utility.yul\":21540:21551   */\n      swap1\n      pop\n        /* \"#utility.yul\":21571:21574   */\n      dup2\n        /* \"#utility.yul\":21568:21569   */\n      0x00\n        /* \"#utility.yul\":21561:21575   */\n      mstore\n        /* \"#utility.yul\":21605:21609   */\n      0x20\n        /* \"#utility.yul\":21602:21603   */\n      0x00\n        /* \"#utility.yul\":21592:21610   */\n      keccak256\n        /* \"#utility.yul\":21584:21610   */\n      swap1\n      pop\n        /* \"#utility.yul\":21476:21617   */\n      swap2\n      swap1\n      pop\n      jump\t// out\n        /* \"#utility.yul\":21623:21716   */\n    tag_258:\n        /* \"#utility.yul\":21660:21666   */\n      0x00\n        /* \"#utility.yul\":21707:21709   */\n      0x20\n        /* \"#utility.yul\":21702:21704   */\n      0x1f\n        /* \"#utility.yul\":21695:21700   */\n      dup4\n        /* \"#utility.yul\":21691:21705   */\n      add\n        /* \"#utility.yul\":21687:21710   */\n      div\n        /* \"#utility.yul\":21677:21710   */\n      swap1\n      pop\n        /* \"#utility.yul\":21623:21716   */\n      swap2\n      swap1\n      pop\n      jump\t// out\n        /* \"#utility.yul\":21722:21829   */\n    tag_259:\n        /* \"#utility.yul\":21766:21774   */\n      0x00\n        /* \"#utility.yul\":21816:21821   */\n      dup3\n        /* \"#utility.yul\":21810:21814   */\n      dup3\n        /* \"#utility.yul\":21806:21822   */\n      shl\n        /* \"#utility.yul\":21785:21822   */\n      swap1\n      pop\n        /* \"#utility.yul\":21722:21829   */\n      swap3\n      swap2\n      pop\n      pop\n      jump\t// out\n        /* \"#utility.yul\":21835:22228   */\n    tag_260:\n        /* \"#utility.yul\":21904:21910   */\n      0x00\n        /* \"#utility.yul\":21954:21955   */\n      0x08\n        /* \"#utility.yul\":21942:21952   */\n      dup4\n        /* \"#utility.yul\":21938:21956   */\n      mul\n        /* \"#utility.yul\":21977:22074   */\n      tag_487\n        /* \"#utility.yul\":22007:22073   */\n      0xffffffffffffffffffffffffffffffffffffffffffffffffffffffffffffffff\n        /* \"#utility.yul\":21996:22005   */\n      dup3\n        /* \"#utility.yul\":21977:22074   */\n      tag_259\n      jump\t// in\n    tag_487:\n        /* \"#utility.yul\":22095:22134   */\n      tag_488\n        /* \"#utility.yul\":22125:22133   */\n      dup7\n        /* \"#utility.yul\":22114:22123   */\n      dup4\n        /* \"#utility.yul\":22095:22134   */\n      tag_259\n      jump\t// in\n    tag_488:\n        /* \"#utility.yul\":22083:22134   */\n      swap6\n      pop\n        /* \"#utility.yul\":22167:22171   */\n      dup1\n        /* \"#utility.yul\":22163:22172   */\n      not\n        /* \"#utility.yul\":22156:22161   */\n      dup5\n        /* \"#utility.yul\":22152:22173   */\n      and\n        /* \"#utility.yul\":22143:22173   */\n      swap4\n      pop\n        /* \"#utility.yul\":22216:22220   */\n      dup1\n        /* \"#utility.yul\":22206:22214   */\n      dup7\n        /* \"#utility.yul\":22202:22221   */\n      and\n        /* \"#utility.yul\":22195:22200   */\n      dup5\n        /* \"#utility.yul\":22192:22222   */\n      or\n        /* \"#utility.yul\":22182:22222   */\n      swap3\n      pop\n        /* \"#utility.yul\":21911:22228   */\n      pop\n      pop\n        /* \"#utility.yul\":21835:22228   */\n      swap4\n      swap3\n      pop\n      pop\n      pop\n      jump\t// out\n        /* \"#utility.yul\":22234:22294   */\n    tag_261:\n        /* \"#utility.yul\":22262:22265   */\n      0x00\n        /* \"#utility.yul\":22283:22288   */\n      dup2\n        /* \"#utility.yul\":22276:22288   */\n      swap1\n      pop\n        /* \"#utility.yul\":22234:22294   */\n      swap2\n      swap1\n      pop\n      jump\t// out\n        /* \"#utility.yul\":22300:22442   */\n    tag_262:\n        /* \"#utility.yul\":22350:22359   */\n      0x00\n        /* \"#utility.yul\":22383:22436   */\n      tag_491\n        /* \"#utility.yul\":22401:22435   */\n      tag_492\n        /* \"#utility.yul\":22410:22434   */\n      tag_493\n        /* \"#utility.yul\":22428:22433   */\n      dup5\n        /* \"#utility.yul\":22410:22434   */\n      tag_204\n      jump\t// in\n    tag_493:\n        /* \"#utility.yul\":22401:22435   */\n      tag_261\n      jump\t// in\n    tag_492:\n        /* \"#utility.yul\":22383:22436   */\n      tag_204\n      jump\t// in\n    tag_491:\n        /* \"#utility.yul\":22370:22436   */\n      swap1\n      pop\n        /* \"#utility.yul\":22300:22442   */\n      swap2\n      swap1\n      pop\n      jump\t// out\n        /* \"#utility.yul\":22448:22523   */\n    tag_263:\n        /* \"#utility.yul\":22491:22494   */\n      0x00\n        /* \"#utility.yul\":22512:22517   */\n      dup2\n        /* \"#utility.yul\":22505:22517   */\n      swap1\n      pop\n        /* \"#utility.yul\":22448:22523   */\n      swap2\n      swap1\n      pop\n      jump\t// out\n        /* \"#utility.yul\":22529:22798   */\n    tag_264:\n        /* \"#utility.yul\":22639:22678   */\n      tag_496\n        /* \"#utility.yul\":22670:22677   */\n      dup4\n        /* \"#utility.yul\":22639:22678   */\n      tag_262\n      jump\t// in\n    tag_496:\n        /* \"#utility.yul\":22700:22791   */\n      tag_497\n        /* \"#utility.yul\":22749:22790   */\n      tag_498\n        /* \"#utility.yul\":22773:22789   */\n      dup3\n        /* \"#utility.yul\":22749:22790   */\n      tag_263\n      jump\t// in\n    tag_498:\n        /* \"#utility.yul\":22741:22747   */\n      dup5\n        /* \"#utility.yul\":22734:22738   */\n      dup5\n        /* \"#utility.yul\":22728:22739   */\n      sload\n        /* \"#utility.yul\":22700:22791   */\n      tag_260\n      jump\t// in\n    tag_497:\n        /* \"#utility.yul\":22694:22698   */\n      dup3\n        /* \"#utility.yul\":22687:22792   */\n      sstore\n        /* \"#utility.yul\":22605:22798   */\n      pop\n        /* \"#utility.yul\":22529:22798   */\n      pop\n      pop\n      pop\n      jump\t// out\n        /* \"#utility.yul\":22804:22877   */\n    tag_265:\n        /* \"#utility.yul\":22849:22852   */\n      0x00\n        /* \"#utility.yul\":22804:22877   */\n      swap1\n      jump\t// out\n        /* \"#utility.yul\":22883:23072   */\n    tag_266:\n        /* \"#utility.yul\":22960:22992   */\n      tag_501\n      tag_265\n      jump\t// in\n    tag_501:\n        /* \"#utility.yul\":23001:23066   */\n      tag_502\n        /* \"#utility.yul\":23059:23065   */\n      dup2\n        /* \"#utility.yul\":23051:23057   */\n      dup5\n        /* \"#utility.yul\":23045:23049   */\n      dup5\n        /* \"#utility.yul\":23001:23066   */\n      tag_264\n      jump\t// in\n    tag_502:\n        /* \"#utility.yul\":22936:23072   */\n      pop\n        /* \"#utility.yul\":22883:23072   */\n      pop\n      pop\n      jump\t// out\n        /* \"#utility.yul\":23078:23264   */\n    tag_267:\n        /* \"#utility.yul\":23138:23258   */\n    tag_504:\n        /* \"#utility.yul\":23155:23158   */\n      dup2\n        /* \"#utility.yul\":23148:23153   */\n      dup2\n        /* \"#utility.yul\":23145:23159   */\n      lt\n        /* \"#utility.yul\":23138:23258   */\n      iszero\n      tag_506\n      jumpi\n        /* \"#utility.yul\":23209:23248   */\n      tag_507\n        /* \"#utility.yul\":23246:23247   */\n      0x00\n        /* \"#utility.yul\":23239:23244   */\n      dup3\n        /* \"#utility.yul\":23209:23248   */\n      tag_266\n      jump\t// in\n    tag_507:\n        /* \"#utility.yul\":23182:23183   */\n      0x01\n        /* \"#utility.yul\":23175:23180   */\n      dup2\n        /* \"#utility.yul\":23171:23184   */\n      add\n        /* \"#utility.yul\":23162:23184   */\n      swap1\n      pop\n        /* \"#utility.yul\":23138:23258   */\n      jump(tag_504)\n    tag_506:\n        /* \"#utility.yul\":23078:23264   */\n      pop\n      pop\n      jump\t// out\n        /* \"#utility.yul\":23270:23813   */\n    tag_268:\n        /* \"#utility.yul\":23371:23373   */\n      0x1f\n        /* \"#utility.yul\":23366:23369   */\n      dup3\n        /* \"#utility.yul\":23363:23374   */\n      gt\n        /* \"#utility.yul\":23360:23806   */\n      iszero\n      tag_509\n      jumpi\n        /* \"#utility.yul\":23405:23443   */\n      tag_510\n        /* \"#utility.yul\":23437:23442   */\n      dup2\n        /* \"#utility.yul\":23405:23443   */\n      tag_257\n      jump\t// in\n    tag_510:\n        /* \"#utility.yul\":23489:23518   */\n      tag_511\n        /* \"#utility.yul\":23507:23517   */\n      dup5\n        /* \"#utility.yul\":23489:23518   */\n      tag_258\n      jump\t// in\n    tag_511:\n        /* \"#utility.yul\":23479:23487   */\n      dup2\n        /* \"#utility.yul\":23475:23519   */\n      add\n        /* \"#utility.yul\":23672:23674   */\n      0x20\n        /* \"#utility.yul\":23660:23670   */\n      dup6\n        /* \"#utility.yul\":23657:23675   */\n      lt\n        /* \"#utility.yul\":23654:23703   */\n      iszero\n      tag_512\n      jumpi\n        /* \"#utility.yul\":23693:23701   */\n      dup2\n        /* \"#utility.yul\":23678:23701   */\n      swap1\n      pop\n        /* \"#utility.yul\":23654:23703   */\n    tag_512:\n        /* \"#utility.yul\":23716:23796   */\n      tag_513\n        /* \"#utility.yul\":23772:23794   */\n      tag_514\n        /* \"#utility.yul\":23790:23793   */\n      dup6\n        /* \"#utility.yul\":23772:23794   */\n      tag_258\n      jump\t// in\n    tag_514:\n        /* \"#utility.yul\":23762:23770   */\n      dup4\n        /* \"#utility.yul\":23758:23795   */\n      add\n        /* \"#utility.yul\":23745:23756   */\n      dup3\n        /* \"#utility.yul\":23716:23796   */\n      tag_267\n      jump\t// in\n    tag_513:\n        /* \"#utility.yul\":23375:23806   */\n      pop\n      pop\n        /* \"#utility.yul\":23360:23806   */\n    tag_509:\n        /* \"#utility.yul\":23270:23813   */\n      pop\n      pop\n      pop\n      jump\t// out\n        /* \"#utility.yul\":23819:23936   */\n    tag_269:\n        /* \"#utility.yul\":23873:23881   */\n      0x00\n        /* \"#utility.yul\":23923:23928   */\n      dup3\n        /* \"#utility.yul\":23917:23921   */\n      dup3\n        /* \"#utility.yul\":23913:23929   */\n      shr\n        /* \"#utility.yul\":23892:23929   */\n      swap1\n      pop\n        /* \"#utility.yul\":23819:23936   */\n      swap3\n      swap2\n      pop\n      pop\n      jump\t// out\n        /* \"#utility.yul\":23942:24111   */\n    tag_270:\n        /* \"#utility.yul\":23986:23992   */\n      0x00\n        /* \"#utility.yul\":24019:24070   */\n      tag_517\n        /* \"#utility.yul\":24067:24068   */\n      0x00\n        /* \"#utility.yul\":24063:24069   */\n      not\n        /* \"#utility.yul\":24055:24060   */\n      dup5\n        /* \"#utility.yul\":24052:24053   */\n      0x08\n        /* \"#utility.yul\":24048:24061   */\n      mul\n        /* \"#utility.yul\":24019:24070   */\n      tag_269\n      jump\t// in\n    tag_517:\n        /* \"#utility.yul\":24015:24071   */\n      not\n        /* \"#utility.yul\":24100:24104   */\n      dup1\n        /* \"#utility.yul\":24094:24098   */\n      dup4\n        /* \"#utility.yul\":24090:24105   */\n      and\n        /* \"#utility.yul\":24080:24105   */\n      swap2\n      pop\n        /* \"#utility.yul\":23993:24111   */\n      pop\n        /* \"#utility.yul\":23942:24111   */\n      swap3\n      swap2\n      pop\n      pop\n      jump\t// out\n        /* \"#utility.yul\":24116:24411   */\n    tag_271:\n        /* \"#utility.yul\":24192:24196   */\n      0x00\n        /* \"#utility.yul\":24338:24367   */\n      tag_519\n        /* \"#utility.yul\":24363:24366   */\n      dup4\n        /* \"#utility.yul\":24357:24361   */\n      dup4\n        /* \"#utility.yul\":24338:24367   */\n      tag_270\n      jump\t// in\n    tag_519:\n        /* \"#utility.yul\":24330:24367   */\n      swap2\n      pop\n        /* \"#utility.yul\":24400:24403   */\n      dup3\n        /* \"#utility.yul\":24397:24398   */\n      0x02\n        /* \"#utility.yul\":24393:24404   */\n      mul\n        /* \"#utility.yul\":24387:24391   */\n      dup3\n        /* \"#utility.yul\":24384:24405   */\n      or\n        /* \"#utility.yul\":24376:24405   */\n      swap1\n      pop\n        /* \"#utility.yul\":24116:24411   */\n      swap3\n      swap2\n      pop\n      pop\n      jump\t// out\n        /* \"#utility.yul\":24416:25811   */\n    tag_81:\n        /* \"#utility.yul\":24533:24570   */\n      tag_521\n        /* \"#utility.yul\":24566:24569   */\n      dup3\n        /* \"#utility.yul\":24533:24570   */\n      tag_224\n      jump\t// in\n    tag_521:\n        /* \"#utility.yul\":24635:24653   */\n      0xffffffffffffffff\n        /* \"#utility.yul\":24627:24633   */\n      dup2\n        /* \"#utility.yul\":24624:24654   */\n      gt\n        /* \"#utility.yul\":24621:24677   */\n      iszero\n      tag_522\n      jumpi\n        /* \"#utility.yul\":24657:24675   */\n      tag_523\n      tag_212\n      jump\t// in\n    tag_523:\n        /* \"#utility.yul\":24621:24677   */\n    tag_522:\n        /* \"#utility.yul\":24701:24739   */\n      tag_524\n        /* \"#utility.yul\":24733:24737   */\n      dup3\n        /* \"#utility.yul\":24727:24738   */\n      sload\n        /* \"#utility.yul\":24701:24739   */\n      tag_90\n      jump\t// in\n    tag_524:\n        /* \"#utility.yul\":24786:24853   */\n      tag_525\n        /* \"#utility.yul\":24846:24852   */\n      dup3\n        /* \"#utility.yul\":24838:24844   */\n      dup3\n        /* \"#utility.yul\":24832:24836   */\n      dup6\n        /* \"#utility.yul\":24786:24853   */\n      tag_268\n      jump\t// in\n    tag_525:\n        /* \"#utility.yul\":24880:24881   */\n      0x00\n        /* \"#utility.yul\":24904:24908   */\n      0x20\n        /* \"#utility.yul\":24891:24908   */\n      swap1\n      pop\n        /* \"#utility.yul\":24936:24938   */\n      0x1f\n        /* \"#utility.yul\":24928:24934   */\n      dup4\n        /* \"#utility.yul\":24925:24939   */\n      gt\n        /* \"#utility.yul\":24953:24954   */\n      0x01\n        /* \"#utility.yul\":24948:25566   */\n      dup2\n      eq\n      tag_527\n      jumpi\n        /* \"#utility.yul\":25610:25611   */\n      0x00\n        /* \"#utility.yul\":25627:25633   */\n      dup5\n        /* \"#utility.yul\":25624:25701   */\n      iszero\n      tag_528\n      jumpi\n        /* \"#utility.yul\":25676:25685   */\n      dup3\n        /* \"#utility.yul\":25671:25674   */\n      dup8\n        /* \"#utility.yul\":25667:25686   */\n      add\n        /* \"#utility.yul\":25661:25687   */\n      mload\n        /* \"#utility.yul\":25652:25687   */\n      swap1\n      pop\n        /* \"#utility.yul\":25624:25701   */\n    tag_528:\n        /* \"#utility.yul\":25727:25794   */\n      tag_529\n        /* \"#utility.yul\":25787:25793   */\n      dup6\n        /* \"#utility.yul\":25780:25785   */\n      dup3\n        /* \"#utility.yul\":25727:25794   */\n      tag_271\n      jump\t// in\n    tag_529:\n        /* \"#utility.yul\":25721:25725   */\n      dup7\n        /* \"#utility.yul\":25714:25795   */\n      sstore\n        /* \"#utility.yul\":25583:25805   */\n      pop\n        /* \"#utility.yul\":24918:25805   */\n      jump(tag_526)\n        /* \"#utility.yul\":24948:25566   */\n    tag_527:\n        /* \"#utility.yul\":25000:25004   */\n      0x1f\n        /* \"#utility.yul\":24996:25005   */\n      not\n        /* \"#utility.yul\":24988:24994   */\n      dup5\n        /* \"#utility.yul\":24984:25006   */\n      and\n        /* \"#utility.yul\":25034:25071   */\n      tag_530\n        /* \"#utility.yul\":25066:25070   */\n      dup7\n        /* \"#utility.yul\":25034:25071   */\n      tag_257\n      jump\t// in\n    tag_530:\n        /* \"#utility.yul\":25093:25094   */\n      0x00\n        /* \"#utility.yul\":25107:25315   */\n    tag_531:\n        /* \"#utility.yul\":25121:25128   */\n      dup3\n        /* \"#utility.yul\":25118:25119   */\n      dup2\n        /* \"#utility.yul\":25115:25129   */\n      lt\n        /* \"#utility.yul\":25107:25315   */\n      iszero\n      tag_533\n      jumpi\n        /* \"#utility.yul\":25200:25209   */\n      dup5\n        /* \"#utility.yul\":25195:25198   */\n      dup10\n        /* \"#utility.yul\":25191:25210   */\n      add\n        /* \"#utility.yul\":25185:25211   */\n      mload\n        /* \"#utility.yul\":25177:25183   */\n      dup3\n        /* \"#utility.yul\":25170:25212   */\n      sstore\n        /* \"#utility.yul\":25251:25252   */\n      0x01\n        /* \"#utility.yul\":25243:25249   */\n      dup3\n        /* \"#utility.yul\":25239:25253   */\n      add\n        /* \"#utility.yul\":25229:25253   */\n      swap2\n      pop\n        /* \"#utility.yul\":25298:25300   */\n      0x20\n        /* \"#utility.yul\":25287:25296   */\n      dup6\n        /* \"#utility.yul\":25283:25301   */\n      add\n        /* \"#utility.yul\":25270:25301   */\n      swap5\n      pop\n        /* \"#utility.yul\":25144:25148   */\n      0x20\n        /* \"#utility.yul\":25141:25142   */\n      dup2\n        /* \"#utility.yul\":25137:25149   */\n      add\n        /* \"#utility.yul\":25132:25149   */\n      swap1\n      pop\n        /* \"#utility.yul\":25107:25315   */\n      jump(tag_531)\n    tag_533:\n        /* \"#utility.yul\":25343:25349   */\n      dup7\n        /* \"#utility.yul\":25334:25341   */\n      dup4\n        /* \"#utility.yul\":25331:25350   */\n      lt\n        /* \"#utility.yul\":25328:25507   */\n      iszero\n      tag_534\n      jumpi\n        /* \"#utility.yul\":25401:25410   */\n      dup5\n        /* \"#utility.yul\":25396:25399   */\n      dup10\n        /* \"#utility.yul\":25392:25411   */\n      add\n        /* \"#utility.yul\":25386:25412   */\n      mload\n        /* \"#utility.yul\":25444:25492   */\n      tag_535\n        /* \"#utility.yul\":25486:25490   */\n      0x1f\n        /* \"#utility.yul\":25478:25484   */\n      dup10\n        /* \"#utility.yul\":25474:25491   */\n      and\n        /* \"#utility.yul\":25463:25472   */\n      dup3\n        /* \"#utility.yul\":25444:25492   */\n      tag_270\n      jump\t// in\n    tag_535:\n        /* \"#utility.yul\":25436:25442   */\n      dup4\n        /* \"#utility.yul\":25429:25493   */\n      sstore\n        /* \"#utility.yul\":25351:25507   */\n      pop\n        /* \"#utility.yul\":25328:25507   */\n    tag_534:\n        /* \"#utility.yul\":25553:25554   */\n      0x01\n        /* \"#utility.yul\":25549:25550   */\n      0x02\n        /* \"#utility.yul\":25541:25547   */\n      dup9\n        /* \"#utility.yul\":25537:25551   */\n      mul\n        /* \"#utility.yul\":25533:25555   */\n      add\n        /* \"#utility.yul\":25527:25531   */\n      dup9\n        /* \"#utility.yul\":25520:25556   */\n      sstore\n        /* \"#utility.yul\":24955:25566   */\n      pop\n      pop\n      pop\n        /* \"#utility.yul\":24918:25805   */\n    tag_526:\n      pop\n        /* \"#utility.yul\":24508:25811   */\n      pop\n      pop\n      pop\n        /* \"#utility.yul\":24416:25811   */\n      pop\n      pop\n      jump\t// out\n        /* \"#utility.yul\":25817:26350   */\n    tag_88:\n        /* \"#utility.yul\":25986:25990   */\n      0x00\n        /* \"#utility.yul\":26024:26026   */\n      0x60\n        /* \"#utility.yul\":26013:26022   */\n      dup3\n        /* \"#utility.yul\":26009:26027   */\n      add\n        /* \"#utility.yul\":26001:26027   */\n      swap1\n      pop\n        /* \"#utility.yul\":26037:26108   */\n      tag_537\n        /* \"#utility.yul\":26105:26106   */\n      0x00\n        /* \"#utility.yul\":26094:26103   */\n      dup4\n        /* \"#utility.yul\":26090:26107   */\n      add\n        /* \"#utility.yul\":26081:26087   */\n      dup7\n        /* \"#utility.yul\":26037:26108   */\n      tag_205\n      jump\t// in\n    tag_537:\n        /* \"#utility.yul\":26155:26164   */\n      dup2\n        /* \"#utility.yul\":26149:26153   */\n      dup2\n        /* \"#utility.yul\":26145:26165   */\n      sub\n        /* \"#utility.yul\":26140:26142   */\n      0x20\n        /* \"#utility.yul\":26129:26138   */\n      dup4\n        /* \"#utility.yul\":26125:26143   */\n      add\n        /* \"#utility.yul\":26118:26166   */\n      mstore\n        /* \"#utility.yul\":26183:26261   */\n      tag_538\n        /* \"#utility.yul\":26256:26260   */\n      dup2\n        /* \"#utility.yul\":26247:26253   */\n      dup6\n        /* \"#utility.yul\":26183:26261   */\n      tag_227\n      jump\t// in\n    tag_538:\n        /* \"#utility.yul\":26175:26261   */\n      swap1\n      pop\n        /* \"#utility.yul\":26271:26343   */\n      tag_539\n        /* \"#utility.yul\":26339:26341   */\n      0x40\n        /* \"#utility.yul\":26328:26337   */\n      dup4\n        /* \"#utility.yul\":26324:26342   */\n      add\n        /* \"#utility.yul\":26315:26321   */\n      dup5\n        /* \"#utility.yul\":26271:26343   */\n      tag_230\n      jump\t// in\n    tag_539:\n        /* \"#utility.yul\":25817:26350   */\n      swap5\n      swap4\n      pop\n      pop\n      pop\n      pop\n      jump\t// out\n        /* \"#utility.yul\":26356:26515   */\n    tag_272:\n        /* \"#utility.yul\":26496:26507   */\n      0x4e6f74204f776e65720000000000000000000000000000000000000000000000\n        /* \"#utility.yul\":26492:26493   */\n      0x00\n        /* \"#utility.yul\":26484:26490   */\n      dup3\n        /* \"#utility.yul\":26480:26494   */\n      add\n        /* \"#utility.yul\":26473:26508   */\n      mstore\n        /* \"#utility.yul\":26356:26515   */\n      pop\n      jump\t// out\n        /* \"#utility.yul\":26521:26886   */\n    tag_273:\n        /* \"#utility.yul\":26663:26666   */\n      0x00\n        /* \"#utility.yul\":26684:26750   */\n      tag_542\n        /* \"#utility.yul\":26748:26749   */\n      0x09\n        /* \"#utility.yul\":26743:26746   */\n      dup4\n        /* \"#utility.yul\":26684:26750   */\n      tag_225\n      jump\t// in\n    tag_542:\n        /* \"#utility.yul\":26677:26750   */\n      swap2\n      pop\n        /* \"#utility.yul\":26759:26852   */\n      tag_543\n        /* \"#utility.yul\":26848:26851   */\n      dup3\n        /* \"#utility.yul\":26759:26852   */\n      tag_272\n      jump\t// in\n    tag_543:\n        /* \"#utility.yul\":26877:26879   */\n      0x20\n        /* \"#utility.yul\":26872:26875   */\n      dup3\n        /* \"#utility.yul\":26868:26880   */\n      add\n        /* \"#utility.yul\":26861:26880   */\n      swap1\n      pop\n        /* \"#utility.yul\":26521:26886   */\n      swap2\n      swap1\n      pop\n      jump\t// out\n        /* \"#utility.yul\":26892:27311   */\n    tag_164:\n        /* \"#utility.yul\":27058:27062   */\n      0x00\n        /* \"#utility.yul\":27096:27098   */\n      0x20\n        /* \"#utility.yul\":27085:27094   */\n      dup3\n        /* \"#utility.yul\":27081:27099   */\n      add\n        /* \"#utility.yul\":27073:27099   */\n      swap1\n      pop\n        /* \"#utility.yul\":27145:27154   */\n      dup2\n        /* \"#utility.yul\":27139:27143   */\n      dup2\n        /* \"#utility.yul\":27135:27155   */\n      sub\n        /* \"#utility.yul\":27131:27132   */\n      0x00\n        /* \"#utility.yul\":27120:27129   */\n      dup4\n        /* \"#utility.yul\":27116:27133   */\n      add\n        /* \"#utility.yul\":27109:27156   */\n      mstore\n        /* \"#utility.yul\":27173:27304   */\n      tag_545\n        /* \"#utility.yul\":27299:27303   */\n      dup2\n        /* \"#utility.yul\":27173:27304   */\n      tag_273\n      jump\t// in\n    tag_545:\n        /* \"#utility.yul\":27165:27304   */\n      swap1\n      pop\n        /* \"#utility.yul\":26892:27311   */\n      swap2\n      swap1\n      pop\n      jump\t// out\n        /* \"#utility.yul\":27317:27649   */\n    tag_167:\n        /* \"#utility.yul\":27438:27442   */\n      0x00\n        /* \"#utility.yul\":27476:27478   */\n      0x40\n        /* \"#utility.yul\":27465:27474   */\n      dup3\n        /* \"#utility.yul\":27461:27479   */\n      add\n        /* \"#utility.yul\":27453:27479   */\n      swap1\n      pop\n        /* \"#utility.yul\":27489:27560   */\n      tag_547\n        /* \"#utility.yul\":27557:27558   */\n      0x00\n        /* \"#utility.yul\":27546:27555   */\n      dup4\n        /* \"#utility.yul\":27542:27559   */\n      add\n        /* \"#utility.yul\":27533:27539   */\n      dup6\n        /* \"#utility.yul\":27489:27560   */\n      tag_205\n      jump\t// in\n    tag_547:\n        /* \"#utility.yul\":27570:27642   */\n      tag_548\n        /* \"#utility.yul\":27638:27640   */\n      0x20\n        /* \"#utility.yul\":27627:27636   */\n      dup4\n        /* \"#utility.yul\":27623:27641   */\n      add\n        /* \"#utility.yul\":27614:27620   */\n      dup5\n        /* \"#utility.yul\":27570:27642   */\n      tag_230\n      jump\t// in\n    tag_548:\n        /* \"#utility.yul\":27317:27649   */\n      swap4\n      swap3\n      pop\n      pop\n      pop\n      jump\t// out\n        /* \"#utility.yul\":27655:28001   */\n    tag_175:\n        /* \"#utility.yul\":27783:27787   */\n      0x00\n        /* \"#utility.yul\":27821:27823   */\n      0x40\n        /* \"#utility.yul\":27810:27819   */\n      dup3\n        /* \"#utility.yul\":27806:27824   */\n      add\n        /* \"#utility.yul\":27798:27824   */\n      swap1\n      pop\n        /* \"#utility.yul\":27834:27905   */\n      tag_550\n        /* \"#utility.yul\":27902:27903   */\n      0x00\n        /* \"#utility.yul\":27891:27900   */\n      dup4\n        /* \"#utility.yul\":27887:27904   */\n      add\n        /* \"#utility.yul\":27878:27884   */\n      dup6\n        /* \"#utility.yul\":27834:27905   */\n      tag_205\n      jump\t// in\n    tag_550:\n        /* \"#utility.yul\":27915:27994   */\n      tag_551\n        /* \"#utility.yul\":27990:27992   */\n      0x20\n        /* \"#utility.yul\":27979:27988   */\n      dup4\n        /* \"#utility.yul\":27975:27993   */\n      add\n        /* \"#utility.yul\":27966:27972   */\n      dup5\n        /* \"#utility.yul\":27915:27994   */\n      tag_248\n      jump\t// in\n    tag_551:\n        /* \"#utility.yul\":27655:28001   */\n      swap4\n      swap3\n      pop\n      pop\n      pop\n      jump\t// out\n\n    auxdata: 0xa2646970667358221220ad47d302e996e2faaae190f1a8913111e3134f9f356860b0393597a03f525e4564736f6c634300081a0033\n}\n",
				"bytecode": {
					"linkReferences": {},
					"object": "60806040525f80555f6001553480156015575f80fd5b5061221e806100235f395ff3fe608060405234801561000f575f80fd5b50600436106100cd575f3560e01c806389b3887e1161008a578063ac4640e111610064578063ac4640e11461021c578063b0467deb1461024c578063e0f6ef871461027c578063f46296be1461029a576100cd565b806389b3887e146101c6578063920e2621146101e25780639be572f6146101fe576100cd565b806307973ccf146100d1578063084289f8146100ef578063365b98b21461010b57806348f7eb301461014157806352312cea146101715780637acc0b201461018d575b5f80fd5b6100d96102b8565b6040516100e691906113f3565b60405180910390f35b610109600480360381019061010491906115ba565b6102be565b005b610125600480360381019061012091906116b3565b6104ae565b60405161013897969594939291906117f0565b60405180910390f35b61015b600480360381019061015691906116b3565b6106a9565b6040516101689190611a19565b60405180910390f35b61018b60048036038101906101869190611a5c565b6109e1565b005b6101a760048036038101906101a291906116b3565b610b3a565b6040516101bd9a99989796959493929190611b32565b60405180910390f35b6101e060048036038101906101db9190611c12565b610ddb565b005b6101fc60048036038101906101f79190611c73565b610f0d565b005b610206611028565b60405161021391906113f3565b60405180910390f35b610236600480360381019061023191906116b3565b611031565b6040516102439190611cb1565b60405180910390f35b610266600480360381019061026191906116b3565b61105a565b6040516102739190611d80565b60405180910390f35b6102846112d7565b60405161029191906113f3565b60405180910390f35b6102a26112dc565b6040516102af9190611da0565b60405180910390f35b60015481565b5f808154809291906102cf90611de6565b91905055506040518061014001604052805f5481526020018781526020013373ffffffffffffffffffffffffffffffffffffffff1681526020018661ffff1681526020018581526020018481526020018381526020018281526020014281526020015f60038111156103445761034361177d565b5b81525060035f805481526020019081526020015f205f820151815f015560208201518160010190816103769190612027565b506040820151816002015f6101000a81548173ffffffffffffffffffffffffffffffffffffffff021916908373ffffffffffffffffffffffffffffffffffffffff16021790555060608201518160020160146101000a81548161ffff021916908361ffff1602179055506080820151816003015560a08201518160040190816103ff9190612027565b5060c08201518160050190816104159190612027565b5060e082015181600601908161042b9190612027565b506101008201518160070155610120820151816008015f6101000a81548160ff021916908360038111156104625761046161177d565b5b02179055509050507faf6ffb6277511513e7d579327cc1fc57f0266df2fb11a60b13487b8c9cd2c3885f54873360405161049e939291906120f6565b60405180910390a1505050505050565b6004602052805f5260405f205f91509050805f0154908060010180546104d390611e5a565b80601f01602080910402602001604051908101604052809291908181526020018280546104ff90611e5a565b801561054a5780601f106105215761010080835404028352916020019161054a565b820191905f5260205f20905b81548152906001019060200180831161052d57829003601f168201915b505050505090806002015f9054906101000a900473ffffffffffffffffffffffffffffffffffffffff169080600301805461058490611e5a565b80601f01602080910402602001604051908101604052809291908181526020018280546105b090611e5a565b80156105fb5780601f106105d2576101008083540402835291602001916105fb565b820191905f5260205f20905b8154815290600101906020018083116105de57829003601f168201915b50505050509080600401805461061090611e5a565b80601f016020809104026020016040519081016040528092919081815260200182805461063c90611e5a565b80156106875780601f1061065e57610100808354040283529160200191610687565b820191905f5260205f20905b81548152906001019060200180831161066a57829003601f168201915b505050505090806005015490806006015f9054906101000a900460ff16905087565b6106b1611301565b60035f8381526020019081526020015f20604051806101400160405290815f82015481526020016001820180546106e790611e5a565b80601f016020809104026020016040519081016040528092919081815260200182805461071390611e5a565b801561075e5780601f106107355761010080835404028352916020019161075e565b820191905f5260205f20905b81548152906001019060200180831161074157829003601f168201915b50505050508152602001600282015f9054906101000a900473ffffffffffffffffffffffffffffffffffffffff1673ffffffffffffffffffffffffffffffffffffffff1673ffffffffffffffffffffffffffffffffffffffff1681526020016002820160149054906101000a900461ffff1661ffff1661ffff168152602001600382015481526020016004820180546107f690611e5a565b80601f016020809104026020016040519081016040528092919081815260200182805461082290611e5a565b801561086d5780601f106108445761010080835404028352916020019161086d565b820191905f5260205f20905b81548152906001019060200180831161085057829003601f168201915b5050505050815260200160058201805461088690611e5a565b80601f01602080910402602001604051908101604052809291908181526020018280546108b290611e5a565b80156108fd5780601f106108d4576101008083540402835291602001916108fd565b820191905f5260205f20905b8154815290600101906020018083116108e057829003601f168201915b5050505050815260200160068201805461091690611e5a565b80601f016020809104026020016040519081016040528092919081815260200182805461094290611e5a565b801561098d5780601f106109645761010080835404028352916020019161098d565b820191905f5260205f20905b81548152906001019060200180831161097057829003601f168201915b5050505050815260200160078201548152602001600882015f9054906101000a900460ff1660038111156109c4576109c361177d565b5b60038111156109d6576109d561177d565b5b815250509050919050565b60015f8154809291906109f390611de6565b91905055506040518060e0016040528060015481526020018581526020013373ffffffffffffffffffffffffffffffffffffffff168152602001848152602001838152602001428152602001826003811115610a5257610a5161177d565b5b81525060045f60015481526020019081526020015f205f820151815f01556020820151816001019081610a859190612027565b506040820151816002015f6101000a81548173ffffffffffffffffffffffffffffffffffffffff021916908373ffffffffffffffffffffffffffffffffffffffff1602179055506060820151816003019081610ae19190612027565b506080820151816004019081610af79190612027565b5060a0820151816005015560c0820151816006015f6101000a81548160ff02191690836003811115610b2c57610b2b61177d565b5b021790555090505050505050565b6003602052805f5260405f205f91509050805f015490806001018054610b5f90611e5a565b80601f0160208091040260200160405190810160405280929190818152602001828054610b8b90611e5a565b8015610bd65780601f10610bad57610100808354040283529160200191610bd6565b820191905f5260205f20905b815481529060010190602001808311610bb957829003601f168201915b505050505090806002015f9054906101000a900473ffffffffffffffffffffffffffffffffffffffff16908060020160149054906101000a900461ffff1690806003015490806004018054610c2a90611e5a565b80601f0160208091040260200160405190810160405280929190818152602001828054610c5690611e5a565b8015610ca15780601f10610c7857610100808354040283529160200191610ca1565b820191905f5260205f20905b815481529060010190602001808311610c8457829003601f168201915b505050505090806005018054610cb690611e5a565b80601f0160208091040260200160405190810160405280929190818152602001828054610ce290611e5a565b8015610d2d5780601f10610d0457610100808354040283529160200191610d2d565b820191905f5260205f20905b815481529060010190602001808311610d1057829003601f168201915b505050505090806006018054610d4290611e5a565b80601f0160208091040260200160405190810160405280929190818152602001828054610d6e90611e5a565b8015610db95780601f10610d9057610100808354040283529160200191610db9565b820191905f5260205f20905b815481529060010190602001808311610d9c57829003601f168201915b505050505090806007015490806008015f9054906101000a900460ff1690508a565b813373ffffffffffffffffffffffffffffffffffffffff1660035f8381526020019081526020015f206002015f9054906101000a900473ffffffffffffffffffffffffffffffffffffffff1673ffffffffffffffffffffffffffffffffffffffff1614610e7d576040517f08c379a0000000000000000000000000000000000000000000000000000000008152600401610e749061217c565b60405180910390fd5b8160035f8581526020019081526020015f206002015f6101000a81548173ffffffffffffffffffffffffffffffffffffffff021916908373ffffffffffffffffffffffffffffffffffffffff1602179055507fba8cc72bdfdb4f3e2281c3f17f6be90c470f76dd1106321a2928859835874bc28383604051610f0092919061219a565b60405180910390a1505050565b813373ffffffffffffffffffffffffffffffffffffffff1660035f8381526020019081526020015f206002015f9054906101000a900473ffffffffffffffffffffffffffffffffffffffff1673ffffffffffffffffffffffffffffffffffffffff1614610faf576040517f08c379a0000000000000000000000000000000000000000000000000000000008152600401610fa69061217c565b60405180910390fd5b8160035f8581526020019081526020015f206008015f6101000a81548160ff02191690836003811115610fe557610fe461177d565b5b02179055507fb8a3401adfc11253c3aff18e4b48103cec45c852b9afc487c23f32e26746242c838360405161101b9291906121c1565b60405180910390a1505050565b5f600154905090565b5f60035f8381526020019081526020015f206008015f9054906101000a900460ff169050919050565b61106261137a565b60045f8381526020019081526020015f206040518060e00160405290815f820154815260200160018201805461109790611e5a565b80601f01602080910402602001604051908101604052809291908181526020018280546110c390611e5a565b801561110e5780601f106110e55761010080835404028352916020019161110e565b820191905f5260205f20905b8154815290600101906020018083116110f157829003601f168201915b50505050508152602001600282015f9054906101000a900473ffffffffffffffffffffffffffffffffffffffff1673ffffffffffffffffffffffffffffffffffffffff1673ffffffffffffffffffffffffffffffffffffffff16815260200160038201805461117c90611e5a565b80601f01602080910402602001604051908101604052809291908181526020018280546111a890611e5a565b80156111f35780601f106111ca576101008083540402835291602001916111f3565b820191905f5260205f20905b8154815290600101906020018083116111d657829003601f168201915b5050505050815260200160048201805461120c90611e5a565b80601f016020809104026020016040519081016040528092919081815260200182805461123890611e5a565b80156112835780601f1061125a57610100808354040283529160200191611283565b820191905f5260205f20905b81548152906001019060200180831161126657829003601f168201915b5050505050815260200160058201548152602001600682015f9054906101000a900460ff1660038111156112ba576112b961177d565b5b60038111156112cc576112cb61177d565b5b815250509050919050565b5f5481565b60025f9054906101000a900473ffffffffffffffffffffffffffffffffffffffff1681565b6040518061014001604052805f8152602001606081526020015f73ffffffffffffffffffffffffffffffffffffffff1681526020015f61ffff1681526020015f81526020016060815260200160608152602001606081526020015f81526020015f60038111156113745761137361177d565b5b81525090565b6040518060e001604052805f8152602001606081526020015f73ffffffffffffffffffffffffffffffffffffffff16815260200160608152602001606081526020015f81526020015f60038111156113d5576113d461177d565b5b81525090565b5f819050919050565b6113ed816113db565b82525050565b5f6020820190506114065f8301846113e4565b92915050565b5f604051905090565b5f80fd5b5f80fd5b5f80fd5b5f80fd5b5f601f19601f8301169050919050565b7f4e487b71000000000000000000000000000000000000000000000000000000005f52604160045260245ffd5b61146b82611425565b810181811067ffffffffffffffff8211171561148a57611489611435565b5b80604052505050565b5f61149c61140c565b90506114a88282611462565b919050565b5f67ffffffffffffffff8211156114c7576114c6611435565b5b6114d082611425565b9050602081019050919050565b828183375f83830152505050565b5f6114fd6114f8846114ad565b611493565b90508281526020810184848401111561151957611518611421565b5b6115248482856114dd565b509392505050565b5f82601f8301126115405761153f61141d565b5b81356115508482602086016114eb565b91505092915050565b5f61ffff82169050919050565b61156f81611559565b8114611579575f80fd5b50565b5f8135905061158a81611566565b92915050565b611599816113db565b81146115a3575f80fd5b50565b5f813590506115b481611590565b92915050565b5f805f805f8060c087890312156115d4576115d3611415565b5b5f87013567ffffffffffffffff8111156115f1576115f0611419565b5b6115fd89828a0161152c565b965050602061160e89828a0161157c565b955050604061161f89828a016115a6565b945050606087013567ffffffffffffffff8111156116405761163f611419565b5b61164c89828a0161152c565b935050608087013567ffffffffffffffff81111561166d5761166c611419565b5b61167989828a0161152c565b92505060a087013567ffffffffffffffff81111561169a57611699611419565b5b6116a689828a0161152c565b9150509295509295509295565b5f602082840312156116c8576116c7611415565b5b5f6116d5848285016115a6565b91505092915050565b5f81519050919050565b5f82825260208201905092915050565b8281835e5f83830152505050565b5f611710826116de565b61171a81856116e8565b935061172a8185602086016116f8565b61173381611425565b840191505092915050565b5f73ffffffffffffffffffffffffffffffffffffffff82169050919050565b5f6117678261173e565b9050919050565b6117778161175d565b82525050565b7f4e487b71000000000000000000000000000000000000000000000000000000005f52602160045260245ffd5b600481106117bb576117ba61177d565b5b50565b5f8190506117cb826117aa565b919050565b5f6117da826117be565b9050919050565b6117ea816117d0565b82525050565b5f60e0820190506118035f83018a6113e4565b81810360208301526118158189611706565b9050611824604083018861176e565b81810360608301526118368187611706565b9050818103608083015261184a8186611706565b905061185960a08301856113e4565b61186660c08301846117e1565b98975050505050505050565b61187b816113db565b82525050565b5f82825260208201905092915050565b5f61189b826116de565b6118a58185611881565b93506118b58185602086016116f8565b6118be81611425565b840191505092915050565b6118d28161175d565b82525050565b6118e181611559565b82525050565b600481106118f8576118f761177d565b5b50565b5f819050611908826118e7565b919050565b5f611917826118fb565b9050919050565b6119278161190d565b82525050565b5f61014083015f8301516119435f860182611872565b506020830151848203602086015261195b8282611891565b915050604083015161197060408601826118c9565b50606083015161198360608601826118d8565b5060808301516119966080860182611872565b5060a083015184820360a08601526119ae8282611891565b91505060c083015184820360c08601526119c88282611891565b91505060e083015184820360e08601526119e28282611891565b9150506101008301516119f9610100860182611872565b50610120830151611a0e61012086018261191e565b508091505092915050565b5f6020820190508181035f830152611a31818461192d565b905092915050565b60048110611a45575f80fd5b50565b5f81359050611a5681611a39565b92915050565b5f805f8060808587031215611a7457611a73611415565b5b5f85013567ffffffffffffffff811115611a9157611a90611419565b5b611a9d8782880161152c565b945050602085013567ffffffffffffffff811115611abe57611abd611419565b5b611aca8782880161152c565b935050604085013567ffffffffffffffff811115611aeb57611aea611419565b5b611af78782880161152c565b9250506060611b0887828801611a48565b91505092959194509250565b611b1d81611559565b82525050565b611b2c8161190d565b82525050565b5f61014082019050611b465f83018d6113e4565b8181036020830152611b58818c611706565b9050611b67604083018b61176e565b611b74606083018a611b14565b611b8160808301896113e4565b81810360a0830152611b938188611706565b905081810360c0830152611ba78187611706565b905081810360e0830152611bbb8186611706565b9050611bcb6101008301856113e4565b611bd9610120830184611b23565b9b9a5050505050505050505050565b611bf18161175d565b8114611bfb575f80fd5b50565b5f81359050611c0c81611be8565b92915050565b5f8060408385031215611c2857611c27611415565b5b5f611c35858286016115a6565b9250506020611c4685828601611bfe565b9150509250929050565b60048110611c5c575f80fd5b50565b5f81359050611c6d81611c50565b92915050565b5f8060408385031215611c8957611c88611415565b5b5f611c96858286016115a6565b9250506020611ca785828601611c5f565b9150509250929050565b5f602082019050611cc45f830184611b23565b92915050565b611cd3816117d0565b82525050565b5f60e083015f830151611cee5f860182611872565b5060208301518482036020860152611d068282611891565b9150506040830151611d1b60408601826118c9565b5060608301518482036060860152611d338282611891565b91505060808301518482036080860152611d4d8282611891565b91505060a0830151611d6260a0860182611872565b5060c0830151611d7560c0860182611cca565b508091505092915050565b5f6020820190508181035f830152611d988184611cd9565b905092915050565b5f602082019050611db35f83018461176e565b92915050565b7f4e487b71000000000000000000000000000000000000000000000000000000005f52601160045260245ffd5b5f611df0826113db565b91507fffffffffffffffffffffffffffffffffffffffffffffffffffffffffffffffff8203611e2257611e21611db9565b5b600182019050919050565b7f4e487b71000000000000000000000000000000000000000000000000000000005f52602260045260245ffd5b5f6002820490506001821680611e7157607f821691505b602082108103611e8457611e83611e2d565b5b50919050565b5f819050815f5260205f209050919050565b5f6020601f8301049050919050565b5f82821b905092915050565b5f60088302611ee67fffffffffffffffffffffffffffffffffffffffffffffffffffffffffffffffff82611eab565b611ef08683611eab565b95508019841693508086168417925050509392505050565b5f819050919050565b5f611f2b611f26611f21846113db565b611f08565b6113db565b9050919050565b5f819050919050565b611f4483611f11565b611f58611f5082611f32565b848454611eb7565b825550505050565b5f90565b611f6c611f60565b611f77818484611f3b565b505050565b5b81811015611f9a57611f8f5f82611f64565b600181019050611f7d565b5050565b601f821115611fdf57611fb081611e8a565b611fb984611e9c565b81016020851015611fc8578190505b611fdc611fd485611e9c565b830182611f7c565b50505b505050565b5f82821c905092915050565b5f611fff5f1984600802611fe4565b1980831691505092915050565b5f6120178383611ff0565b9150826002028217905092915050565b612030826116de565b67ffffffffffffffff81111561204957612048611435565b5b6120538254611e5a565b61205e828285611f9e565b5f60209050601f83116001811461208f575f841561207d578287015190505b612087858261200c565b8655506120ee565b601f19841661209d86611e8a565b5f5b828110156120c45784890151825560018201915060208501945060208101905061209f565b868310156120e157848901516120dd601f891682611ff0565b8355505b6001600288020188555050505b505050505050565b5f6060820190506121095f8301866113e4565b818103602083015261211b8185611706565b905061212a604083018461176e565b949350505050565b7f4e6f74204f776e657200000000000000000000000000000000000000000000005f82015250565b5f6121666009836116e8565b915061217182612132565b602082019050919050565b5f6020820190508181035f8301526121938161215a565b9050919050565b5f6040820190506121ad5f8301856113e4565b6121ba602083018461176e565b9392505050565b5f6040820190506121d45f8301856113e4565b6121e16020830184611b23565b939250505056fea2646970667358221220ad47d302e996e2faaae190f1a8913111e3134f9f356860b0393597a03f525e4564736f6c634300081a0033",
					"opcodes": "PUSH1 0x80 PUSH1 0x40 MSTORE PUSH0 DUP1 SSTORE PUSH0 PUSH1 0x1 SSTORE CALLVALUE DUP1 ISZERO PUSH1 0x15 JUMPI PUSH0 DUP1 REVERT JUMPDEST POP PUSH2 0x221E DUP1 PUSH2 0x23 PUSH0 CODECOPY PUSH0 RETURN INVALID PUSH1 0x80 PUSH1 0x40 MSTORE CALLVALUE DUP1 ISZERO PUSH2 0xF JUMPI PUSH0 DUP1 REVERT JUMPDEST POP PUSH1 0x4 CALLDATASIZE LT PUSH2 0xCD JUMPI PUSH0 CALLDATALOAD PUSH1 0xE0 SHR DUP1 PUSH4 0x89B3887E GT PUSH2 0x8A JUMPI DUP1 PUSH4 0xAC4640E1 GT PUSH2 0x64 JUMPI DUP1 PUSH4 0xAC4640E1 EQ PUSH2 0x21C JUMPI DUP1 PUSH4 0xB0467DEB EQ PUSH2 0x24C JUMPI DUP1 PUSH4 0xE0F6EF87 EQ PUSH2 0x27C JUMPI DUP1 PUSH4 0xF46296BE EQ PUSH2 0x29A JUMPI PUSH2 0xCD JUMP JUMPDEST DUP1 PUSH4 0x89B3887E EQ PUSH2 0x1C6 JUMPI DUP1 PUSH4 0x920E2621 EQ PUSH2 0x1E2 JUMPI DUP1 PUSH4 0x9BE572F6 EQ PUSH2 0x1FE JUMPI PUSH2 0xCD JUMP JUMPDEST DUP1 PUSH4 0x7973CCF EQ PUSH2 0xD1 JUMPI DUP1 PUSH4 0x84289F8 EQ PUSH2 0xEF JUMPI DUP1 PUSH4 0x365B98B2 EQ PUSH2 0x10B JUMPI DUP1 PUSH4 0x48F7EB30 EQ PUSH2 0x141 JUMPI DUP1 PUSH4 0x52312CEA EQ PUSH2 0x171 JUMPI DUP1 PUSH4 0x7ACC0B20 EQ PUSH2 0x18D JUMPI JUMPDEST PUSH0 DUP1 REVERT JUMPDEST PUSH2 0xD9 PUSH2 0x2B8 JUMP JUMPDEST PUSH1 0x40 MLOAD PUSH2 0xE6 SWAP2 SWAP1 PUSH2 0x13F3 JUMP JUMPDEST PUSH1 0x40 MLOAD DUP1 SWAP2 SUB SWAP1 RETURN JUMPDEST PUSH2 0x109 PUSH1 0x4 DUP1 CALLDATASIZE SUB DUP2 ADD SWAP1 PUSH2 0x104 SWAP2 SWAP1 PUSH2 0x15BA JUMP JUMPDEST PUSH2 0x2BE JUMP JUMPDEST STOP JUMPDEST PUSH2 0x125 PUSH1 0x4 DUP1 CALLDATASIZE SUB DUP2 ADD SWAP1 PUSH2 0x120 SWAP2 SWAP1 PUSH2 0x16B3 JUMP JUMPDEST PUSH2 0x4AE JUMP JUMPDEST PUSH1 0x40 MLOAD PUSH2 0x138 SWAP8 SWAP7 SWAP6 SWAP5 SWAP4 SWAP3 SWAP2 SWAP1 PUSH2 0x17F0 JUMP JUMPDEST PUSH1 0x40 MLOAD DUP1 SWAP2 SUB SWAP1 RETURN JUMPDEST PUSH2 0x15B PUSH1 0x4 DUP1 CALLDATASIZE SUB DUP2 ADD SWAP1 PUSH2 0x156 SWAP2 SWAP1 PUSH2 0x16B3 JUMP JUMPDEST PUSH2 0x6A9 JUMP JUMPDEST PUSH1 0x40 MLOAD PUSH2 0x168 SWAP2 SWAP1 PUSH2 0x1A19 JUMP JUMPDEST PUSH1 0x40 MLOAD DUP1 SWAP2 SUB SWAP1 RETURN JUMPDEST PUSH2 0x18B PUSH1 0x4 DUP1 CALLDATASIZE SUB DUP2 ADD SWAP1 PUSH2 0x186 SWAP2 SWAP1 PUSH2 0x1A5C JUMP JUMPDEST PUSH2 0x9E1 JUMP JUMPDEST STOP JUMPDEST PUSH2 0x1A7 PUSH1 0x4 DUP1 CALLDATASIZE SUB DUP2 ADD SWAP1 PUSH2 0x1A2 SWAP2 SWAP1 PUSH2 0x16B3 JUMP JUMPDEST PUSH2 0xB3A JUMP JUMPDEST PUSH1 0x40 MLOAD PUSH2 0x1BD SWAP11 SWAP10 SWAP9 SWAP8 SWAP7 SWAP6 SWAP5 SWAP4 SWAP3 SWAP2 SWAP1 PUSH2 0x1B32 JUMP JUMPDEST PUSH1 0x40 MLOAD DUP1 SWAP2 SUB SWAP1 RETURN JUMPDEST PUSH2 0x1E0 PUSH1 0x4 DUP1 CALLDATASIZE SUB DUP2 ADD SWAP1 PUSH2 0x1DB SWAP2 SWAP1 PUSH2 0x1C12 JUMP JUMPDEST PUSH2 0xDDB JUMP JUMPDEST STOP JUMPDEST PUSH2 0x1FC PUSH1 0x4 DUP1 CALLDATASIZE SUB DUP2 ADD SWAP1 PUSH2 0x1F7 SWAP2 SWAP1 PUSH2 0x1C73 JUMP JUMPDEST PUSH2 0xF0D JUMP JUMPDEST STOP JUMPDEST PUSH2 0x206 PUSH2 0x1028 JUMP JUMPDEST PUSH1 0x40 MLOAD PUSH2 0x213 SWAP2 SWAP1 PUSH2 0x13F3 JUMP JUMPDEST PUSH1 0x40 MLOAD DUP1 SWAP2 SUB SWAP1 RETURN JUMPDEST PUSH2 0x236 PUSH1 0x4 DUP1 CALLDATASIZE SUB DUP2 ADD SWAP1 PUSH2 0x231 SWAP2 SWAP1 PUSH2 0x16B3 JUMP JUMPDEST PUSH2 0x1031 JUMP JUMPDEST PUSH1 0x40 MLOAD PUSH2 0x243 SWAP2 SWAP1 PUSH2 0x1CB1 JUMP JUMPDEST PUSH1 0x40 MLOAD DUP1 SWAP2 SUB SWAP1 RETURN JUMPDEST PUSH2 0x266 PUSH1 0x4 DUP1 CALLDATASIZE SUB DUP2 ADD SWAP1 PUSH2 0x261 SWAP2 SWAP1 PUSH2 0x16B3 JUMP JUMPDEST PUSH2 0x105A JUMP JUMPDEST PUSH1 0x40 MLOAD PUSH2 0x273 SWAP2 SWAP1 PUSH2 0x1D80 JUMP JUMPDEST PUSH1 0x40 MLOAD DUP1 SWAP2 SUB SWAP1 RETURN JUMPDEST PUSH2 0x284 PUSH2 0x12D7 JUMP JUMPDEST PUSH1 0x40 MLOAD PUSH2 0x291 SWAP2 SWAP1 PUSH2 0x13F3 JUMP JUMPDEST PUSH1 0x40 MLOAD DUP1 SWAP2 SUB SWAP1 RETURN JUMPDEST PUSH2 0x2A2 PUSH2 0x12DC JUMP JUMPDEST PUSH1 0x40 MLOAD PUSH2 0x2AF SWAP2 SWAP1 PUSH2 0x1DA0 JUMP JUMPDEST PUSH1 0x40 MLOAD DUP1 SWAP2 SUB SWAP1 RETURN JUMPDEST PUSH1 0x1 SLOAD DUP2 JUMP JUMPDEST PUSH0 DUP1 DUP2 SLOAD DUP1 SWAP3 SWAP2 SWAP1 PUSH2 0x2CF SWAP1 PUSH2 0x1DE6 JUMP JUMPDEST SWAP2 SWAP1 POP SSTORE POP PUSH1 0x40 MLOAD DUP1 PUSH2 0x140 ADD PUSH1 0x40 MSTORE DUP1 PUSH0 SLOAD DUP2 MSTORE PUSH1 0x20 ADD DUP8 DUP2 MSTORE PUSH1 0x20 ADD CALLER PUSH20 0xFFFFFFFFFFFFFFFFFFFFFFFFFFFFFFFFFFFFFFFF AND DUP2 MSTORE PUSH1 0x20 ADD DUP7 PUSH2 0xFFFF AND DUP2 MSTORE PUSH1 0x20 ADD DUP6 DUP2 MSTORE PUSH1 0x20 ADD DUP5 DUP2 MSTORE PUSH1 0x20 ADD DUP4 DUP2 MSTORE PUSH1 0x20 ADD DUP3 DUP2 MSTORE PUSH1 0x20 ADD TIMESTAMP DUP2 MSTORE PUSH1 0x20 ADD PUSH0 PUSH1 0x3 DUP2 GT ISZERO PUSH2 0x344 JUMPI PUSH2 0x343 PUSH2 0x177D JUMP JUMPDEST JUMPDEST DUP2 MSTORE POP PUSH1 0x3 PUSH0 DUP1 SLOAD DUP2 MSTORE PUSH1 0x20 ADD SWAP1 DUP2 MSTORE PUSH1 0x20 ADD PUSH0 KECCAK256 PUSH0 DUP3 ADD MLOAD DUP2 PUSH0 ADD SSTORE PUSH1 0x20 DUP3 ADD MLOAD DUP2 PUSH1 0x1 ADD SWAP1 DUP2 PUSH2 0x376 SWAP2 SWAP1 PUSH2 0x2027 JUMP JUMPDEST POP PUSH1 0x40 DUP3 ADD MLOAD DUP2 PUSH1 0x2 ADD PUSH0 PUSH2 0x100 EXP DUP2 SLOAD DUP2 PUSH20 0xFFFFFFFFFFFFFFFFFFFFFFFFFFFFFFFFFFFFFFFF MUL NOT AND SWAP1 DUP4 PUSH20 0xFFFFFFFFFFFFFFFFFFFFFFFFFFFFFFFFFFFFFFFF AND MUL OR SWAP1 SSTORE POP PUSH1 0x60 DUP3 ADD MLOAD DUP2 PUSH1 0x2 ADD PUSH1 0x14 PUSH2 0x100 EXP DUP2 SLOAD DUP2 PUSH2 0xFFFF MUL NOT AND SWAP1 DUP4 PUSH2 0xFFFF AND MUL OR SWAP1 SSTORE POP PUSH1 0x80 DUP3 ADD MLOAD DUP2 PUSH1 0x3 ADD SSTORE PUSH1 0xA0 DUP3 ADD MLOAD DUP2 PUSH1 0x4 ADD SWAP1 DUP2 PUSH2 0x3FF SWAP2 SWAP1 PUSH2 0x2027 JUMP JUMPDEST POP PUSH1 0xC0 DUP3 ADD MLOAD DUP2 PUSH1 0x5 ADD SWAP1 DUP2 PUSH2 0x415 SWAP2 SWAP1 PUSH2 0x2027 JUMP JUMPDEST POP PUSH1 0xE0 DUP3 ADD MLOAD DUP2 PUSH1 0x6 ADD SWAP1 DUP2 PUSH2 0x42B SWAP2 SWAP1 PUSH2 0x2027 JUMP JUMPDEST POP PUSH2 0x100 DUP3 ADD MLOAD DUP2 PUSH1 0x7 ADD SSTORE PUSH2 0x120 DUP3 ADD MLOAD DUP2 PUSH1 0x8 ADD PUSH0 PUSH2 0x100 EXP DUP2 SLOAD DUP2 PUSH1 0xFF MUL NOT AND SWAP1 DUP4 PUSH1 0x3 DUP2 GT ISZERO PUSH2 0x462 JUMPI PUSH2 0x461 PUSH2 0x177D JUMP JUMPDEST JUMPDEST MUL OR SWAP1 SSTORE POP SWAP1 POP POP PUSH32 0xAF6FFB6277511513E7D579327CC1FC57F0266DF2FB11A60B13487B8C9CD2C388 PUSH0 SLOAD DUP8 CALLER PUSH1 0x40 MLOAD PUSH2 0x49E SWAP4 SWAP3 SWAP2 SWAP1 PUSH2 0x20F6 JUMP JUMPDEST PUSH1 0x40 MLOAD DUP1 SWAP2 SUB SWAP1 LOG1 POP POP POP POP POP POP JUMP JUMPDEST PUSH1 0x4 PUSH1 0x20 MSTORE DUP1 PUSH0 MSTORE PUSH1 0x40 PUSH0 KECCAK256 PUSH0 SWAP2 POP SWAP1 POP DUP1 PUSH0 ADD SLOAD SWAP1 DUP1 PUSH1 0x1 ADD DUP1 SLOAD PUSH2 0x4D3 SWAP1 PUSH2 0x1E5A JUMP JUMPDEST DUP1 PUSH1 0x1F ADD PUSH1 0x20 DUP1 SWAP2 DIV MUL PUSH1 0x20 ADD PUSH1 0x40 MLOAD SWAP1 DUP2 ADD PUSH1 0x40 MSTORE DUP1 SWAP3 SWAP2 SWAP1 DUP2 DUP2 MSTORE PUSH1 0x20 ADD DUP3 DUP1 SLOAD PUSH2 0x4FF SWAP1 PUSH2 0x1E5A JUMP JUMPDEST DUP1 ISZERO PUSH2 0x54A JUMPI DUP1 PUSH1 0x1F LT PUSH2 0x521 JUMPI PUSH2 0x100 DUP1 DUP4 SLOAD DIV MUL DUP4 MSTORE SWAP2 PUSH1 0x20 ADD SWAP2 PUSH2 0x54A JUMP JUMPDEST DUP3 ADD SWAP2 SWAP1 PUSH0 MSTORE PUSH1 0x20 PUSH0 KECCAK256 SWAP1 JUMPDEST DUP2 SLOAD DUP2 MSTORE SWAP1 PUSH1 0x1 ADD SWAP1 PUSH1 0x20 ADD DUP1 DUP4 GT PUSH2 0x52D JUMPI DUP3 SWAP1 SUB PUSH1 0x1F AND DUP3 ADD SWAP2 JUMPDEST POP POP POP POP POP SWAP1 DUP1 PUSH1 0x2 ADD PUSH0 SWAP1 SLOAD SWAP1 PUSH2 0x100 EXP SWAP1 DIV PUSH20 0xFFFFFFFFFFFFFFFFFFFFFFFFFFFFFFFFFFFFFFFF AND SWAP1 DUP1 PUSH1 0x3 ADD DUP1 SLOAD PUSH2 0x584 SWAP1 PUSH2 0x1E5A JUMP JUMPDEST DUP1 PUSH1 0x1F ADD PUSH1 0x20 DUP1 SWAP2 DIV MUL PUSH1 0x20 ADD PUSH1 0x40 MLOAD SWAP1 DUP2 ADD PUSH1 0x40 MSTORE DUP1 SWAP3 SWAP2 SWAP1 DUP2 DUP2 MSTORE PUSH1 0x20 ADD DUP3 DUP1 SLOAD PUSH2 0x5B0 SWAP1 PUSH2 0x1E5A JUMP JUMPDEST DUP1 ISZERO PUSH2 0x5FB JUMPI DUP1 PUSH1 0x1F LT PUSH2 0x5D2 JUMPI PUSH2 0x100 DUP1 DUP4 SLOAD DIV MUL DUP4 MSTORE SWAP2 PUSH1 0x20 ADD SWAP2 PUSH2 0x5FB JUMP JUMPDEST DUP3 ADD SWAP2 SWAP1 PUSH0 MSTORE PUSH1 0x20 PUSH0 KECCAK256 SWAP1 JUMPDEST DUP2 SLOAD DUP2 MSTORE SWAP1 PUSH1 0x1 ADD SWAP1 PUSH1 0x20 ADD DUP1 DUP4 GT PUSH2 0x5DE JUMPI DUP3 SWAP1 SUB PUSH1 0x1F AND DUP3 ADD SWAP2 JUMPDEST POP POP POP POP POP SWAP1 DUP1 PUSH1 0x4 ADD DUP1 SLOAD PUSH2 0x610 SWAP1 PUSH2 0x1E5A JUMP JUMPDEST DUP1 PUSH1 0x1F ADD PUSH1 0x20 DUP1 SWAP2 DIV MUL PUSH1 0x20 ADD PUSH1 0x40 MLOAD SWAP1 DUP2 ADD PUSH1 0x40 MSTORE DUP1 SWAP3 SWAP2 SWAP1 DUP2 DUP2 MSTORE PUSH1 0x20 ADD DUP3 DUP1 SLOAD PUSH2 0x63C SWAP1 PUSH2 0x1E5A JUMP JUMPDEST DUP1 ISZERO PUSH2 0x687 JUMPI DUP1 PUSH1 0x1F LT PUSH2 0x65E JUMPI PUSH2 0x100 DUP1 DUP4 SLOAD DIV MUL DUP4 MSTORE SWAP2 PUSH1 0x20 ADD SWAP2 PUSH2 0x687 JUMP JUMPDEST DUP3 ADD SWAP2 SWAP1 PUSH0 MSTORE PUSH1 0x20 PUSH0 KECCAK256 SWAP1 JUMPDEST DUP2 SLOAD DUP2 MSTORE SWAP1 PUSH1 0x1 ADD SWAP1 PUSH1 0x20 ADD DUP1 DUP4 GT PUSH2 0x66A JUMPI DUP3 SWAP1 SUB PUSH1 0x1F AND DUP3 ADD SWAP2 JUMPDEST POP POP POP POP POP SWAP1 DUP1 PUSH1 0x5 ADD SLOAD SWAP1 DUP1 PUSH1 0x6 ADD PUSH0 SWAP1 SLOAD SWAP1 PUSH2 0x100 EXP SWAP1 DIV PUSH1 0xFF AND SWAP1 POP DUP8 JUMP JUMPDEST PUSH2 0x6B1 PUSH2 0x1301 JUMP JUMPDEST PUSH1 0x3 PUSH0 DUP4 DUP2 MSTORE PUSH1 0x20 ADD SWAP1 DUP2 MSTORE PUSH1 0x20 ADD PUSH0 KECCAK256 PUSH1 0x40 MLOAD DUP1 PUSH2 0x140 ADD PUSH1 0x40 MSTORE SWAP1 DUP2 PUSH0 DUP3 ADD SLOAD DUP2 MSTORE PUSH1 0x20 ADD PUSH1 0x1 DUP3 ADD DUP1 SLOAD PUSH2 0x6E7 SWAP1 PUSH2 0x1E5A JUMP JUMPDEST DUP1 PUSH1 0x1F ADD PUSH1 0x20 DUP1 SWAP2 DIV MUL PUSH1 0x20 ADD PUSH1 0x40 MLOAD SWAP1 DUP2 ADD PUSH1 0x40 MSTORE DUP1 SWAP3 SWAP2 SWAP1 DUP2 DUP2 MSTORE PUSH1 0x20 ADD DUP3 DUP1 SLOAD PUSH2 0x713 SWAP1 PUSH2 0x1E5A JUMP JUMPDEST DUP1 ISZERO PUSH2 0x75E JUMPI DUP1 PUSH1 0x1F LT PUSH2 0x735 JUMPI PUSH2 0x100 DUP1 DUP4 SLOAD DIV MUL DUP4 MSTORE SWAP2 PUSH1 0x20 ADD SWAP2 PUSH2 0x75E JUMP JUMPDEST DUP3 ADD SWAP2 SWAP1 PUSH0 MSTORE PUSH1 0x20 PUSH0 KECCAK256 SWAP1 JUMPDEST DUP2 SLOAD DUP2 MSTORE SWAP1 PUSH1 0x1 ADD SWAP1 PUSH1 0x20 ADD DUP1 DUP4 GT PUSH2 0x741 JUMPI DUP3 SWAP1 SUB PUSH1 0x1F AND DUP3 ADD SWAP2 JUMPDEST POP POP POP POP POP DUP2 MSTORE PUSH1 0x20 ADD PUSH1 0x2 DUP3 ADD PUSH0 SWAP1 SLOAD SWAP1 PUSH2 0x100 EXP SWAP1 DIV PUSH20 0xFFFFFFFFFFFFFFFFFFFFFFFFFFFFFFFFFFFFFFFF AND PUSH20 0xFFFFFFFFFFFFFFFFFFFFFFFFFFFFFFFFFFFFFFFF AND PUSH20 0xFFFFFFFFFFFFFFFFFFFFFFFFFFFFFFFFFFFFFFFF AND DUP2 MSTORE PUSH1 0x20 ADD PUSH1 0x2 DUP3 ADD PUSH1 0x14 SWAP1 SLOAD SWAP1 PUSH2 0x100 EXP SWAP1 DIV PUSH2 0xFFFF AND PUSH2 0xFFFF AND PUSH2 0xFFFF AND DUP2 MSTORE PUSH1 0x20 ADD PUSH1 0x3 DUP3 ADD SLOAD DUP2 MSTORE PUSH1 0x20 ADD PUSH1 0x4 DUP3 ADD DUP1 SLOAD PUSH2 0x7F6 SWAP1 PUSH2 0x1E5A JUMP JUMPDEST DUP1 PUSH1 0x1F ADD PUSH1 0x20 DUP1 SWAP2 DIV MUL PUSH1 0x20 ADD PUSH1 0x40 MLOAD SWAP1 DUP2 ADD PUSH1 0x40 MSTORE DUP1 SWAP3 SWAP2 SWAP1 DUP2 DUP2 MSTORE PUSH1 0x20 ADD DUP3 DUP1 SLOAD PUSH2 0x822 SWAP1 PUSH2 0x1E5A JUMP JUMPDEST DUP1 ISZERO PUSH2 0x86D JUMPI DUP1 PUSH1 0x1F LT PUSH2 0x844 JUMPI PUSH2 0x100 DUP1 DUP4 SLOAD DIV MUL DUP4 MSTORE SWAP2 PUSH1 0x20 ADD SWAP2 PUSH2 0x86D JUMP JUMPDEST DUP3 ADD SWAP2 SWAP1 PUSH0 MSTORE PUSH1 0x20 PUSH0 KECCAK256 SWAP1 JUMPDEST DUP2 SLOAD DUP2 MSTORE SWAP1 PUSH1 0x1 ADD SWAP1 PUSH1 0x20 ADD DUP1 DUP4 GT PUSH2 0x850 JUMPI DUP3 SWAP1 SUB PUSH1 0x1F AND DUP3 ADD SWAP2 JUMPDEST POP POP POP POP POP DUP2 MSTORE PUSH1 0x20 ADD PUSH1 0x5 DUP3 ADD DUP1 SLOAD PUSH2 0x886 SWAP1 PUSH2 0x1E5A JUMP JUMPDEST DUP1 PUSH1 0x1F ADD PUSH1 0x20 DUP1 SWAP2 DIV MUL PUSH1 0x20 ADD PUSH1 0x40 MLOAD SWAP1 DUP2 ADD PUSH1 0x40 MSTORE DUP1 SWAP3 SWAP2 SWAP1 DUP2 DUP2 MSTORE PUSH1 0x20 ADD DUP3 DUP1 SLOAD PUSH2 0x8B2 SWAP1 PUSH2 0x1E5A JUMP JUMPDEST DUP1 ISZERO PUSH2 0x8FD JUMPI DUP1 PUSH1 0x1F LT PUSH2 0x8D4 JUMPI PUSH2 0x100 DUP1 DUP4 SLOAD DIV MUL DUP4 MSTORE SWAP2 PUSH1 0x20 ADD SWAP2 PUSH2 0x8FD JUMP JUMPDEST DUP3 ADD SWAP2 SWAP1 PUSH0 MSTORE PUSH1 0x20 PUSH0 KECCAK256 SWAP1 JUMPDEST DUP2 SLOAD DUP2 MSTORE SWAP1 PUSH1 0x1 ADD SWAP1 PUSH1 0x20 ADD DUP1 DUP4 GT PUSH2 0x8E0 JUMPI DUP3 SWAP1 SUB PUSH1 0x1F AND DUP3 ADD SWAP2 JUMPDEST POP POP POP POP POP DUP2 MSTORE PUSH1 0x20 ADD PUSH1 0x6 DUP3 ADD DUP1 SLOAD PUSH2 0x916 SWAP1 PUSH2 0x1E5A JUMP JUMPDEST DUP1 PUSH1 0x1F ADD PUSH1 0x20 DUP1 SWAP2 DIV MUL PUSH1 0x20 ADD PUSH1 0x40 MLOAD SWAP1 DUP2 ADD PUSH1 0x40 MSTORE DUP1 SWAP3 SWAP2 SWAP1 DUP2 DUP2 MSTORE PUSH1 0x20 ADD DUP3 DUP1 SLOAD PUSH2 0x942 SWAP1 PUSH2 0x1E5A JUMP JUMPDEST DUP1 ISZERO PUSH2 0x98D JUMPI DUP1 PUSH1 0x1F LT PUSH2 0x964 JUMPI PUSH2 0x100 DUP1 DUP4 SLOAD DIV MUL DUP4 MSTORE SWAP2 PUSH1 0x20 ADD SWAP2 PUSH2 0x98D JUMP JUMPDEST DUP3 ADD SWAP2 SWAP1 PUSH0 MSTORE PUSH1 0x20 PUSH0 KECCAK256 SWAP1 JUMPDEST DUP2 SLOAD DUP2 MSTORE SWAP1 PUSH1 0x1 ADD SWAP1 PUSH1 0x20 ADD DUP1 DUP4 GT PUSH2 0x970 JUMPI DUP3 SWAP1 SUB PUSH1 0x1F AND DUP3 ADD SWAP2 JUMPDEST POP POP POP POP POP DUP2 MSTORE PUSH1 0x20 ADD PUSH1 0x7 DUP3 ADD SLOAD DUP2 MSTORE PUSH1 0x20 ADD PUSH1 0x8 DUP3 ADD PUSH0 SWAP1 SLOAD SWAP1 PUSH2 0x100 EXP SWAP1 DIV PUSH1 0xFF AND PUSH1 0x3 DUP2 GT ISZERO PUSH2 0x9C4 JUMPI PUSH2 0x9C3 PUSH2 0x177D JUMP JUMPDEST JUMPDEST PUSH1 0x3 DUP2 GT ISZERO PUSH2 0x9D6 JUMPI PUSH2 0x9D5 PUSH2 0x177D JUMP JUMPDEST JUMPDEST DUP2 MSTORE POP POP SWAP1 POP SWAP2 SWAP1 POP JUMP JUMPDEST PUSH1 0x1 PUSH0 DUP2 SLOAD DUP1 SWAP3 SWAP2 SWAP1 PUSH2 0x9F3 SWAP1 PUSH2 0x1DE6 JUMP JUMPDEST SWAP2 SWAP1 POP SSTORE POP PUSH1 0x40 MLOAD DUP1 PUSH1 0xE0 ADD PUSH1 0x40 MSTORE DUP1 PUSH1 0x1 SLOAD DUP2 MSTORE PUSH1 0x20 ADD DUP6 DUP2 MSTORE PUSH1 0x20 ADD CALLER PUSH20 0xFFFFFFFFFFFFFFFFFFFFFFFFFFFFFFFFFFFFFFFF AND DUP2 MSTORE PUSH1 0x20 ADD DUP5 DUP2 MSTORE PUSH1 0x20 ADD DUP4 DUP2 MSTORE PUSH1 0x20 ADD TIMESTAMP DUP2 MSTORE PUSH1 0x20 ADD DUP3 PUSH1 0x3 DUP2 GT ISZERO PUSH2 0xA52 JUMPI PUSH2 0xA51 PUSH2 0x177D JUMP JUMPDEST JUMPDEST DUP2 MSTORE POP PUSH1 0x4 PUSH0 PUSH1 0x1 SLOAD DUP2 MSTORE PUSH1 0x20 ADD SWAP1 DUP2 MSTORE PUSH1 0x20 ADD PUSH0 KECCAK256 PUSH0 DUP3 ADD MLOAD DUP2 PUSH0 ADD SSTORE PUSH1 0x20 DUP3 ADD MLOAD DUP2 PUSH1 0x1 ADD SWAP1 DUP2 PUSH2 0xA85 SWAP2 SWAP1 PUSH2 0x2027 JUMP JUMPDEST POP PUSH1 0x40 DUP3 ADD MLOAD DUP2 PUSH1 0x2 ADD PUSH0 PUSH2 0x100 EXP DUP2 SLOAD DUP2 PUSH20 0xFFFFFFFFFFFFFFFFFFFFFFFFFFFFFFFFFFFFFFFF MUL NOT AND SWAP1 DUP4 PUSH20 0xFFFFFFFFFFFFFFFFFFFFFFFFFFFFFFFFFFFFFFFF AND MUL OR SWAP1 SSTORE POP PUSH1 0x60 DUP3 ADD MLOAD DUP2 PUSH1 0x3 ADD SWAP1 DUP2 PUSH2 0xAE1 SWAP2 SWAP1 PUSH2 0x2027 JUMP JUMPDEST POP PUSH1 0x80 DUP3 ADD MLOAD DUP2 PUSH1 0x4 ADD SWAP1 DUP2 PUSH2 0xAF7 SWAP2 SWAP1 PUSH2 0x2027 JUMP JUMPDEST POP PUSH1 0xA0 DUP3 ADD MLOAD DUP2 PUSH1 0x5 ADD SSTORE PUSH1 0xC0 DUP3 ADD MLOAD DUP2 PUSH1 0x6 ADD PUSH0 PUSH2 0x100 EXP DUP2 SLOAD DUP2 PUSH1 0xFF MUL NOT AND SWAP1 DUP4 PUSH1 0x3 DUP2 GT ISZERO PUSH2 0xB2C JUMPI PUSH2 0xB2B PUSH2 0x177D JUMP JUMPDEST JUMPDEST MUL OR SWAP1 SSTORE POP SWAP1 POP POP POP POP POP POP JUMP JUMPDEST PUSH1 0x3 PUSH1 0x20 MSTORE DUP1 PUSH0 MSTORE PUSH1 0x40 PUSH0 KECCAK256 PUSH0 SWAP2 POP SWAP1 POP DUP1 PUSH0 ADD SLOAD SWAP1 DUP1 PUSH1 0x1 ADD DUP1 SLOAD PUSH2 0xB5F SWAP1 PUSH2 0x1E5A JUMP JUMPDEST DUP1 PUSH1 0x1F ADD PUSH1 0x20 DUP1 SWAP2 DIV MUL PUSH1 0x20 ADD PUSH1 0x40 MLOAD SWAP1 DUP2 ADD PUSH1 0x40 MSTORE DUP1 SWAP3 SWAP2 SWAP1 DUP2 DUP2 MSTORE PUSH1 0x20 ADD DUP3 DUP1 SLOAD PUSH2 0xB8B SWAP1 PUSH2 0x1E5A JUMP JUMPDEST DUP1 ISZERO PUSH2 0xBD6 JUMPI DUP1 PUSH1 0x1F LT PUSH2 0xBAD JUMPI PUSH2 0x100 DUP1 DUP4 SLOAD DIV MUL DUP4 MSTORE SWAP2 PUSH1 0x20 ADD SWAP2 PUSH2 0xBD6 JUMP JUMPDEST DUP3 ADD SWAP2 SWAP1 PUSH0 MSTORE PUSH1 0x20 PUSH0 KECCAK256 SWAP1 JUMPDEST DUP2 SLOAD DUP2 MSTORE SWAP1 PUSH1 0x1 ADD SWAP1 PUSH1 0x20 ADD DUP1 DUP4 GT PUSH2 0xBB9 JUMPI DUP3 SWAP1 SUB PUSH1 0x1F AND DUP3 ADD SWAP2 JUMPDEST POP POP POP POP POP SWAP1 DUP1 PUSH1 0x2 ADD PUSH0 SWAP1 SLOAD SWAP1 PUSH2 0x100 EXP SWAP1 DIV PUSH20 0xFFFFFFFFFFFFFFFFFFFFFFFFFFFFFFFFFFFFFFFF AND SWAP1 DUP1 PUSH1 0x2 ADD PUSH1 0x14 SWAP1 SLOAD SWAP1 PUSH2 0x100 EXP SWAP1 DIV PUSH2 0xFFFF AND SWAP1 DUP1 PUSH1 0x3 ADD SLOAD SWAP1 DUP1 PUSH1 0x4 ADD DUP1 SLOAD PUSH2 0xC2A SWAP1 PUSH2 0x1E5A JUMP JUMPDEST DUP1 PUSH1 0x1F ADD PUSH1 0x20 DUP1 SWAP2 DIV MUL PUSH1 0x20 ADD PUSH1 0x40 MLOAD SWAP1 DUP2 ADD PUSH1 0x40 MSTORE DUP1 SWAP3 SWAP2 SWAP1 DUP2 DUP2 MSTORE PUSH1 0x20 ADD DUP3 DUP1 SLOAD PUSH2 0xC56 SWAP1 PUSH2 0x1E5A JUMP JUMPDEST DUP1 ISZERO PUSH2 0xCA1 JUMPI DUP1 PUSH1 0x1F LT PUSH2 0xC78 JUMPI PUSH2 0x100 DUP1 DUP4 SLOAD DIV MUL DUP4 MSTORE SWAP2 PUSH1 0x20 ADD SWAP2 PUSH2 0xCA1 JUMP JUMPDEST DUP3 ADD SWAP2 SWAP1 PUSH0 MSTORE PUSH1 0x20 PUSH0 KECCAK256 SWAP1 JUMPDEST DUP2 SLOAD DUP2 MSTORE SWAP1 PUSH1 0x1 ADD SWAP1 PUSH1 0x20 ADD DUP1 DUP4 GT PUSH2 0xC84 JUMPI DUP3 SWAP1 SUB PUSH1 0x1F AND DUP3 ADD SWAP2 JUMPDEST POP POP POP POP POP SWAP1 DUP1 PUSH1 0x5 ADD DUP1 SLOAD PUSH2 0xCB6 SWAP1 PUSH2 0x1E5A JUMP JUMPDEST DUP1 PUSH1 0x1F ADD PUSH1 0x20 DUP1 SWAP2 DIV MUL PUSH1 0x20 ADD PUSH1 0x40 MLOAD SWAP1 DUP2 ADD PUSH1 0x40 MSTORE DUP1 SWAP3 SWAP2 SWAP1 DUP2 DUP2 MSTORE PUSH1 0x20 ADD DUP3 DUP1 SLOAD PUSH2 0xCE2 SWAP1 PUSH2 0x1E5A JUMP JUMPDEST DUP1 ISZERO PUSH2 0xD2D JUMPI DUP1 PUSH1 0x1F LT PUSH2 0xD04 JUMPI PUSH2 0x100 DUP1 DUP4 SLOAD DIV MUL DUP4 MSTORE SWAP2 PUSH1 0x20 ADD SWAP2 PUSH2 0xD2D JUMP JUMPDEST DUP3 ADD SWAP2 SWAP1 PUSH0 MSTORE PUSH1 0x20 PUSH0 KECCAK256 SWAP1 JUMPDEST DUP2 SLOAD DUP2 MSTORE SWAP1 PUSH1 0x1 ADD SWAP1 PUSH1 0x20 ADD DUP1 DUP4 GT PUSH2 0xD10 JUMPI DUP3 SWAP1 SUB PUSH1 0x1F AND DUP3 ADD SWAP2 JUMPDEST POP POP POP POP POP SWAP1 DUP1 PUSH1 0x6 ADD DUP1 SLOAD PUSH2 0xD42 SWAP1 PUSH2 0x1E5A JUMP JUMPDEST DUP1 PUSH1 0x1F ADD PUSH1 0x20 DUP1 SWAP2 DIV MUL PUSH1 0x20 ADD PUSH1 0x40 MLOAD SWAP1 DUP2 ADD PUSH1 0x40 MSTORE DUP1 SWAP3 SWAP2 SWAP1 DUP2 DUP2 MSTORE PUSH1 0x20 ADD DUP3 DUP1 SLOAD PUSH2 0xD6E SWAP1 PUSH2 0x1E5A JUMP JUMPDEST DUP1 ISZERO PUSH2 0xDB9 JUMPI DUP1 PUSH1 0x1F LT PUSH2 0xD90 JUMPI PUSH2 0x100 DUP1 DUP4 SLOAD DIV MUL DUP4 MSTORE SWAP2 PUSH1 0x20 ADD SWAP2 PUSH2 0xDB9 JUMP JUMPDEST DUP3 ADD SWAP2 SWAP1 PUSH0 MSTORE PUSH1 0x20 PUSH0 KECCAK256 SWAP1 JUMPDEST DUP2 SLOAD DUP2 MSTORE SWAP1 PUSH1 0x1 ADD SWAP1 PUSH1 0x20 ADD DUP1 DUP4 GT PUSH2 0xD9C JUMPI DUP3 SWAP1 SUB PUSH1 0x1F AND DUP3 ADD SWAP2 JUMPDEST POP POP POP POP POP SWAP1 DUP1 PUSH1 0x7 ADD SLOAD SWAP1 DUP1 PUSH1 0x8 ADD PUSH0 SWAP1 SLOAD SWAP1 PUSH2 0x100 EXP SWAP1 DIV PUSH1 0xFF AND SWAP1 POP DUP11 JUMP JUMPDEST DUP2 CALLER PUSH20 0xFFFFFFFFFFFFFFFFFFFFFFFFFFFFFFFFFFFFFFFF AND PUSH1 0x3 PUSH0 DUP4 DUP2 MSTORE PUSH1 0x20 ADD SWAP1 DUP2 MSTORE PUSH1 0x20 ADD PUSH0 KECCAK256 PUSH1 0x2 ADD PUSH0 SWAP1 SLOAD SWAP1 PUSH2 0x100 EXP SWAP1 DIV PUSH20 0xFFFFFFFFFFFFFFFFFFFFFFFFFFFFFFFFFFFFFFFF AND PUSH20 0xFFFFFFFFFFFFFFFFFFFFFFFFFFFFFFFFFFFFFFFF AND EQ PUSH2 0xE7D JUMPI PUSH1 0x40 MLOAD PUSH32 0x8C379A000000000000000000000000000000000000000000000000000000000 DUP2 MSTORE PUSH1 0x4 ADD PUSH2 0xE74 SWAP1 PUSH2 0x217C JUMP JUMPDEST PUSH1 0x40 MLOAD DUP1 SWAP2 SUB SWAP1 REVERT JUMPDEST DUP2 PUSH1 0x3 PUSH0 DUP6 DUP2 MSTORE PUSH1 0x20 ADD SWAP1 DUP2 MSTORE PUSH1 0x20 ADD PUSH0 KECCAK256 PUSH1 0x2 ADD PUSH0 PUSH2 0x100 EXP DUP2 SLOAD DUP2 PUSH20 0xFFFFFFFFFFFFFFFFFFFFFFFFFFFFFFFFFFFFFFFF MUL NOT AND SWAP1 DUP4 PUSH20 0xFFFFFFFFFFFFFFFFFFFFFFFFFFFFFFFFFFFFFFFF AND MUL OR SWAP1 SSTORE POP PUSH32 0xBA8CC72BDFDB4F3E2281C3F17F6BE90C470F76DD1106321A2928859835874BC2 DUP4 DUP4 PUSH1 0x40 MLOAD PUSH2 0xF00 SWAP3 SWAP2 SWAP1 PUSH2 0x219A JUMP JUMPDEST PUSH1 0x40 MLOAD DUP1 SWAP2 SUB SWAP1 LOG1 POP POP POP JUMP JUMPDEST DUP2 CALLER PUSH20 0xFFFFFFFFFFFFFFFFFFFFFFFFFFFFFFFFFFFFFFFF AND PUSH1 0x3 PUSH0 DUP4 DUP2 MSTORE PUSH1 0x20 ADD SWAP1 DUP2 MSTORE PUSH1 0x20 ADD PUSH0 KECCAK256 PUSH1 0x2 ADD PUSH0 SWAP1 SLOAD SWAP1 PUSH2 0x100 EXP SWAP1 DIV PUSH20 0xFFFFFFFFFFFFFFFFFFFFFFFFFFFFFFFFFFFFFFFF AND PUSH20 0xFFFFFFFFFFFFFFFFFFFFFFFFFFFFFFFFFFFFFFFF AND EQ PUSH2 0xFAF JUMPI PUSH1 0x40 MLOAD PUSH32 0x8C379A000000000000000000000000000000000000000000000000000000000 DUP2 MSTORE PUSH1 0x4 ADD PUSH2 0xFA6 SWAP1 PUSH2 0x217C JUMP JUMPDEST PUSH1 0x40 MLOAD DUP1 SWAP2 SUB SWAP1 REVERT JUMPDEST DUP2 PUSH1 0x3 PUSH0 DUP6 DUP2 MSTORE PUSH1 0x20 ADD SWAP1 DUP2 MSTORE PUSH1 0x20 ADD PUSH0 KECCAK256 PUSH1 0x8 ADD PUSH0 PUSH2 0x100 EXP DUP2 SLOAD DUP2 PUSH1 0xFF MUL NOT AND SWAP1 DUP4 PUSH1 0x3 DUP2 GT ISZERO PUSH2 0xFE5 JUMPI PUSH2 0xFE4 PUSH2 0x177D JUMP JUMPDEST JUMPDEST MUL OR SWAP1 SSTORE POP PUSH32 0xB8A3401ADFC11253C3AFF18E4B48103CEC45C852B9AFC487C23F32E26746242C DUP4 DUP4 PUSH1 0x40 MLOAD PUSH2 0x101B SWAP3 SWAP2 SWAP1 PUSH2 0x21C1 JUMP JUMPDEST PUSH1 0x40 MLOAD DUP1 SWAP2 SUB SWAP1 LOG1 POP POP POP JUMP JUMPDEST PUSH0 PUSH1 0x1 SLOAD SWAP1 POP SWAP1 JUMP JUMPDEST PUSH0 PUSH1 0x3 PUSH0 DUP4 DUP2 MSTORE PUSH1 0x20 ADD SWAP1 DUP2 MSTORE PUSH1 0x20 ADD PUSH0 KECCAK256 PUSH1 0x8 ADD PUSH0 SWAP1 SLOAD SWAP1 PUSH2 0x100 EXP SWAP1 DIV PUSH1 0xFF AND SWAP1 POP SWAP2 SWAP1 POP JUMP JUMPDEST PUSH2 0x1062 PUSH2 0x137A JUMP JUMPDEST PUSH1 0x4 PUSH0 DUP4 DUP2 MSTORE PUSH1 0x20 ADD SWAP1 DUP2 MSTORE PUSH1 0x20 ADD PUSH0 KECCAK256 PUSH1 0x40 MLOAD DUP1 PUSH1 0xE0 ADD PUSH1 0x40 MSTORE SWAP1 DUP2 PUSH0 DUP3 ADD SLOAD DUP2 MSTORE PUSH1 0x20 ADD PUSH1 0x1 DUP3 ADD DUP1 SLOAD PUSH2 0x1097 SWAP1 PUSH2 0x1E5A JUMP JUMPDEST DUP1 PUSH1 0x1F ADD PUSH1 0x20 DUP1 SWAP2 DIV MUL PUSH1 0x20 ADD PUSH1 0x40 MLOAD SWAP1 DUP2 ADD PUSH1 0x40 MSTORE DUP1 SWAP3 SWAP2 SWAP1 DUP2 DUP2 MSTORE PUSH1 0x20 ADD DUP3 DUP1 SLOAD PUSH2 0x10C3 SWAP1 PUSH2 0x1E5A JUMP JUMPDEST DUP1 ISZERO PUSH2 0x110E JUMPI DUP1 PUSH1 0x1F LT PUSH2 0x10E5 JUMPI PUSH2 0x100 DUP1 DUP4 SLOAD DIV MUL DUP4 MSTORE SWAP2 PUSH1 0x20 ADD SWAP2 PUSH2 0x110E JUMP JUMPDEST DUP3 ADD SWAP2 SWAP1 PUSH0 MSTORE PUSH1 0x20 PUSH0 KECCAK256 SWAP1 JUMPDEST DUP2 SLOAD DUP2 MSTORE SWAP1 PUSH1 0x1 ADD SWAP1 PUSH1 0x20 ADD DUP1 DUP4 GT PUSH2 0x10F1 JUMPI DUP3 SWAP1 SUB PUSH1 0x1F AND DUP3 ADD SWAP2 JUMPDEST POP POP POP POP POP DUP2 MSTORE PUSH1 0x20 ADD PUSH1 0x2 DUP3 ADD PUSH0 SWAP1 SLOAD SWAP1 PUSH2 0x100 EXP SWAP1 DIV PUSH20 0xFFFFFFFFFFFFFFFFFFFFFFFFFFFFFFFFFFFFFFFF AND PUSH20 0xFFFFFFFFFFFFFFFFFFFFFFFFFFFFFFFFFFFFFFFF AND PUSH20 0xFFFFFFFFFFFFFFFFFFFFFFFFFFFFFFFFFFFFFFFF AND DUP2 MSTORE PUSH1 0x20 ADD PUSH1 0x3 DUP3 ADD DUP1 SLOAD PUSH2 0x117C SWAP1 PUSH2 0x1E5A JUMP JUMPDEST DUP1 PUSH1 0x1F ADD PUSH1 0x20 DUP1 SWAP2 DIV MUL PUSH1 0x20 ADD PUSH1 0x40 MLOAD SWAP1 DUP2 ADD PUSH1 0x40 MSTORE DUP1 SWAP3 SWAP2 SWAP1 DUP2 DUP2 MSTORE PUSH1 0x20 ADD DUP3 DUP1 SLOAD PUSH2 0x11A8 SWAP1 PUSH2 0x1E5A JUMP JUMPDEST DUP1 ISZERO PUSH2 0x11F3 JUMPI DUP1 PUSH1 0x1F LT PUSH2 0x11CA JUMPI PUSH2 0x100 DUP1 DUP4 SLOAD DIV MUL DUP4 MSTORE SWAP2 PUSH1 0x20 ADD SWAP2 PUSH2 0x11F3 JUMP JUMPDEST DUP3 ADD SWAP2 SWAP1 PUSH0 MSTORE PUSH1 0x20 PUSH0 KECCAK256 SWAP1 JUMPDEST DUP2 SLOAD DUP2 MSTORE SWAP1 PUSH1 0x1 ADD SWAP1 PUSH1 0x20 ADD DUP1 DUP4 GT PUSH2 0x11D6 JUMPI DUP3 SWAP1 SUB PUSH1 0x1F AND DUP3 ADD SWAP2 JUMPDEST POP POP POP POP POP DUP2 MSTORE PUSH1 0x20 ADD PUSH1 0x4 DUP3 ADD DUP1 SLOAD PUSH2 0x120C SWAP1 PUSH2 0x1E5A JUMP JUMPDEST DUP1 PUSH1 0x1F ADD PUSH1 0x20 DUP1 SWAP2 DIV MUL PUSH1 0x20 ADD PUSH1 0x40 MLOAD SWAP1 DUP2 ADD PUSH1 0x40 MSTORE DUP1 SWAP3 SWAP2 SWAP1 DUP2 DUP2 MSTORE PUSH1 0x20 ADD DUP3 DUP1 SLOAD PUSH2 0x1238 SWAP1 PUSH2 0x1E5A JUMP JUMPDEST DUP1 ISZERO PUSH2 0x1283 JUMPI DUP1 PUSH1 0x1F LT PUSH2 0x125A JUMPI PUSH2 0x100 DUP1 DUP4 SLOAD DIV MUL DUP4 MSTORE SWAP2 PUSH1 0x20 ADD SWAP2 PUSH2 0x1283 JUMP JUMPDEST DUP3 ADD SWAP2 SWAP1 PUSH0 MSTORE PUSH1 0x20 PUSH0 KECCAK256 SWAP1 JUMPDEST DUP2 SLOAD DUP2 MSTORE SWAP1 PUSH1 0x1 ADD SWAP1 PUSH1 0x20 ADD DUP1 DUP4 GT PUSH2 0x1266 JUMPI DUP3 SWAP1 SUB PUSH1 0x1F AND DUP3 ADD SWAP2 JUMPDEST POP POP POP POP POP DUP2 MSTORE PUSH1 0x20 ADD PUSH1 0x5 DUP3 ADD SLOAD DUP2 MSTORE PUSH1 0x20 ADD PUSH1 0x6 DUP3 ADD PUSH0 SWAP1 SLOAD SWAP1 PUSH2 0x100 EXP SWAP1 DIV PUSH1 0xFF AND PUSH1 0x3 DUP2 GT ISZERO PUSH2 0x12BA JUMPI PUSH2 0x12B9 PUSH2 0x177D JUMP JUMPDEST JUMPDEST PUSH1 0x3 DUP2 GT ISZERO PUSH2 0x12CC JUMPI PUSH2 0x12CB PUSH2 0x177D JUMP JUMPDEST JUMPDEST DUP2 MSTORE POP POP SWAP1 POP SWAP2 SWAP1 POP JUMP JUMPDEST PUSH0 SLOAD DUP2 JUMP JUMPDEST PUSH1 0x2 PUSH0 SWAP1 SLOAD SWAP1 PUSH2 0x100 EXP SWAP1 DIV PUSH20 0xFFFFFFFFFFFFFFFFFFFFFFFFFFFFFFFFFFFFFFFF AND DUP2 JUMP JUMPDEST PUSH1 0x40 MLOAD DUP1 PUSH2 0x140 ADD PUSH1 0x40 MSTORE DUP1 PUSH0 DUP2 MSTORE PUSH1 0x20 ADD PUSH1 0x60 DUP2 MSTORE PUSH1 0x20 ADD PUSH0 PUSH20 0xFFFFFFFFFFFFFFFFFFFFFFFFFFFFFFFFFFFFFFFF AND DUP2 MSTORE PUSH1 0x20 ADD PUSH0 PUSH2 0xFFFF AND DUP2 MSTORE PUSH1 0x20 ADD PUSH0 DUP2 MSTORE PUSH1 0x20 ADD PUSH1 0x60 DUP2 MSTORE PUSH1 0x20 ADD PUSH1 0x60 DUP2 MSTORE PUSH1 0x20 ADD PUSH1 0x60 DUP2 MSTORE PUSH1 0x20 ADD PUSH0 DUP2 MSTORE PUSH1 0x20 ADD PUSH0 PUSH1 0x3 DUP2 GT ISZERO PUSH2 0x1374 JUMPI PUSH2 0x1373 PUSH2 0x177D JUMP JUMPDEST JUMPDEST DUP2 MSTORE POP SWAP1 JUMP JUMPDEST PUSH1 0x40 MLOAD DUP1 PUSH1 0xE0 ADD PUSH1 0x40 MSTORE DUP1 PUSH0 DUP2 MSTORE PUSH1 0x20 ADD PUSH1 0x60 DUP2 MSTORE PUSH1 0x20 ADD PUSH0 PUSH20 0xFFFFFFFFFFFFFFFFFFFFFFFFFFFFFFFFFFFFFFFF AND DUP2 MSTORE PUSH1 0x20 ADD PUSH1 0x60 DUP2 MSTORE PUSH1 0x20 ADD PUSH1 0x60 DUP2 MSTORE PUSH1 0x20 ADD PUSH0 DUP2 MSTORE PUSH1 0x20 ADD PUSH0 PUSH1 0x3 DUP2 GT ISZERO PUSH2 0x13D5 JUMPI PUSH2 0x13D4 PUSH2 0x177D JUMP JUMPDEST JUMPDEST DUP2 MSTORE POP SWAP1 JUMP JUMPDEST PUSH0 DUP2 SWAP1 POP SWAP2 SWAP1 POP JUMP JUMPDEST PUSH2 0x13ED DUP2 PUSH2 0x13DB JUMP JUMPDEST DUP3 MSTORE POP POP JUMP JUMPDEST PUSH0 PUSH1 0x20 DUP3 ADD SWAP1 POP PUSH2 0x1406 PUSH0 DUP4 ADD DUP5 PUSH2 0x13E4 JUMP JUMPDEST SWAP3 SWAP2 POP POP JUMP JUMPDEST PUSH0 PUSH1 0x40 MLOAD SWAP1 POP SWAP1 JUMP JUMPDEST PUSH0 DUP1 REVERT JUMPDEST PUSH0 DUP1 REVERT JUMPDEST PUSH0 DUP1 REVERT JUMPDEST PUSH0 DUP1 REVERT JUMPDEST PUSH0 PUSH1 0x1F NOT PUSH1 0x1F DUP4 ADD AND SWAP1 POP SWAP2 SWAP1 POP JUMP JUMPDEST PUSH32 0x4E487B7100000000000000000000000000000000000000000000000000000000 PUSH0 MSTORE PUSH1 0x41 PUSH1 0x4 MSTORE PUSH1 0x24 PUSH0 REVERT JUMPDEST PUSH2 0x146B DUP3 PUSH2 0x1425 JUMP JUMPDEST DUP2 ADD DUP2 DUP2 LT PUSH8 0xFFFFFFFFFFFFFFFF DUP3 GT OR ISZERO PUSH2 0x148A JUMPI PUSH2 0x1489 PUSH2 0x1435 JUMP JUMPDEST JUMPDEST DUP1 PUSH1 0x40 MSTORE POP POP POP JUMP JUMPDEST PUSH0 PUSH2 0x149C PUSH2 0x140C JUMP JUMPDEST SWAP1 POP PUSH2 0x14A8 DUP3 DUP3 PUSH2 0x1462 JUMP JUMPDEST SWAP2 SWAP1 POP JUMP JUMPDEST PUSH0 PUSH8 0xFFFFFFFFFFFFFFFF DUP3 GT ISZERO PUSH2 0x14C7 JUMPI PUSH2 0x14C6 PUSH2 0x1435 JUMP JUMPDEST JUMPDEST PUSH2 0x14D0 DUP3 PUSH2 0x1425 JUMP JUMPDEST SWAP1 POP PUSH1 0x20 DUP2 ADD SWAP1 POP SWAP2 SWAP1 POP JUMP JUMPDEST DUP3 DUP2 DUP4 CALLDATACOPY PUSH0 DUP4 DUP4 ADD MSTORE POP POP POP JUMP JUMPDEST PUSH0 PUSH2 0x14FD PUSH2 0x14F8 DUP5 PUSH2 0x14AD JUMP JUMPDEST PUSH2 0x1493 JUMP JUMPDEST SWAP1 POP DUP3 DUP2 MSTORE PUSH1 0x20 DUP2 ADD DUP5 DUP5 DUP5 ADD GT ISZERO PUSH2 0x1519 JUMPI PUSH2 0x1518 PUSH2 0x1421 JUMP JUMPDEST JUMPDEST PUSH2 0x1524 DUP5 DUP3 DUP6 PUSH2 0x14DD JUMP JUMPDEST POP SWAP4 SWAP3 POP POP POP JUMP JUMPDEST PUSH0 DUP3 PUSH1 0x1F DUP4 ADD SLT PUSH2 0x1540 JUMPI PUSH2 0x153F PUSH2 0x141D JUMP JUMPDEST JUMPDEST DUP2 CALLDATALOAD PUSH2 0x1550 DUP5 DUP3 PUSH1 0x20 DUP7 ADD PUSH2 0x14EB JUMP JUMPDEST SWAP2 POP POP SWAP3 SWAP2 POP POP JUMP JUMPDEST PUSH0 PUSH2 0xFFFF DUP3 AND SWAP1 POP SWAP2 SWAP1 POP JUMP JUMPDEST PUSH2 0x156F DUP2 PUSH2 0x1559 JUMP JUMPDEST DUP2 EQ PUSH2 0x1579 JUMPI PUSH0 DUP1 REVERT JUMPDEST POP JUMP JUMPDEST PUSH0 DUP2 CALLDATALOAD SWAP1 POP PUSH2 0x158A DUP2 PUSH2 0x1566 JUMP JUMPDEST SWAP3 SWAP2 POP POP JUMP JUMPDEST PUSH2 0x1599 DUP2 PUSH2 0x13DB JUMP JUMPDEST DUP2 EQ PUSH2 0x15A3 JUMPI PUSH0 DUP1 REVERT JUMPDEST POP JUMP JUMPDEST PUSH0 DUP2 CALLDATALOAD SWAP1 POP PUSH2 0x15B4 DUP2 PUSH2 0x1590 JUMP JUMPDEST SWAP3 SWAP2 POP POP JUMP JUMPDEST PUSH0 DUP1 PUSH0 DUP1 PUSH0 DUP1 PUSH1 0xC0 DUP8 DUP10 SUB SLT ISZERO PUSH2 0x15D4 JUMPI PUSH2 0x15D3 PUSH2 0x1415 JUMP JUMPDEST JUMPDEST PUSH0 DUP8 ADD CALLDATALOAD PUSH8 0xFFFFFFFFFFFFFFFF DUP2 GT ISZERO PUSH2 0x15F1 JUMPI PUSH2 0x15F0 PUSH2 0x1419 JUMP JUMPDEST JUMPDEST PUSH2 0x15FD DUP10 DUP3 DUP11 ADD PUSH2 0x152C JUMP JUMPDEST SWAP7 POP POP PUSH1 0x20 PUSH2 0x160E DUP10 DUP3 DUP11 ADD PUSH2 0x157C JUMP JUMPDEST SWAP6 POP POP PUSH1 0x40 PUSH2 0x161F DUP10 DUP3 DUP11 ADD PUSH2 0x15A6 JUMP JUMPDEST SWAP5 POP POP PUSH1 0x60 DUP8 ADD CALLDATALOAD PUSH8 0xFFFFFFFFFFFFFFFF DUP2 GT ISZERO PUSH2 0x1640 JUMPI PUSH2 0x163F PUSH2 0x1419 JUMP JUMPDEST JUMPDEST PUSH2 0x164C DUP10 DUP3 DUP11 ADD PUSH2 0x152C JUMP JUMPDEST SWAP4 POP POP PUSH1 0x80 DUP8 ADD CALLDATALOAD PUSH8 0xFFFFFFFFFFFFFFFF DUP2 GT ISZERO PUSH2 0x166D JUMPI PUSH2 0x166C PUSH2 0x1419 JUMP JUMPDEST JUMPDEST PUSH2 0x1679 DUP10 DUP3 DUP11 ADD PUSH2 0x152C JUMP JUMPDEST SWAP3 POP POP PUSH1 0xA0 DUP8 ADD CALLDATALOAD PUSH8 0xFFFFFFFFFFFFFFFF DUP2 GT ISZERO PUSH2 0x169A JUMPI PUSH2 0x1699 PUSH2 0x1419 JUMP JUMPDEST JUMPDEST PUSH2 0x16A6 DUP10 DUP3 DUP11 ADD PUSH2 0x152C JUMP JUMPDEST SWAP2 POP POP SWAP3 SWAP6 POP SWAP3 SWAP6 POP SWAP3 SWAP6 JUMP JUMPDEST PUSH0 PUSH1 0x20 DUP3 DUP5 SUB SLT ISZERO PUSH2 0x16C8 JUMPI PUSH2 0x16C7 PUSH2 0x1415 JUMP JUMPDEST JUMPDEST PUSH0 PUSH2 0x16D5 DUP5 DUP3 DUP6 ADD PUSH2 0x15A6 JUMP JUMPDEST SWAP2 POP POP SWAP3 SWAP2 POP POP JUMP JUMPDEST PUSH0 DUP2 MLOAD SWAP1 POP SWAP2 SWAP1 POP JUMP JUMPDEST PUSH0 DUP3 DUP3 MSTORE PUSH1 0x20 DUP3 ADD SWAP1 POP SWAP3 SWAP2 POP POP JUMP JUMPDEST DUP3 DUP2 DUP4 MCOPY PUSH0 DUP4 DUP4 ADD MSTORE POP POP POP JUMP JUMPDEST PUSH0 PUSH2 0x1710 DUP3 PUSH2 0x16DE JUMP JUMPDEST PUSH2 0x171A DUP2 DUP6 PUSH2 0x16E8 JUMP JUMPDEST SWAP4 POP PUSH2 0x172A DUP2 DUP6 PUSH1 0x20 DUP7 ADD PUSH2 0x16F8 JUMP JUMPDEST PUSH2 0x1733 DUP2 PUSH2 0x1425 JUMP JUMPDEST DUP5 ADD SWAP2 POP POP SWAP3 SWAP2 POP POP JUMP JUMPDEST PUSH0 PUSH20 0xFFFFFFFFFFFFFFFFFFFFFFFFFFFFFFFFFFFFFFFF DUP3 AND SWAP1 POP SWAP2 SWAP1 POP JUMP JUMPDEST PUSH0 PUSH2 0x1767 DUP3 PUSH2 0x173E JUMP JUMPDEST SWAP1 POP SWAP2 SWAP1 POP JUMP JUMPDEST PUSH2 0x1777 DUP2 PUSH2 0x175D JUMP JUMPDEST DUP3 MSTORE POP POP JUMP JUMPDEST PUSH32 0x4E487B7100000000000000000000000000000000000000000000000000000000 PUSH0 MSTORE PUSH1 0x21 PUSH1 0x4 MSTORE PUSH1 0x24 PUSH0 REVERT JUMPDEST PUSH1 0x4 DUP2 LT PUSH2 0x17BB JUMPI PUSH2 0x17BA PUSH2 0x177D JUMP JUMPDEST JUMPDEST POP JUMP JUMPDEST PUSH0 DUP2 SWAP1 POP PUSH2 0x17CB DUP3 PUSH2 0x17AA JUMP JUMPDEST SWAP2 SWAP1 POP JUMP JUMPDEST PUSH0 PUSH2 0x17DA DUP3 PUSH2 0x17BE JUMP JUMPDEST SWAP1 POP SWAP2 SWAP1 POP JUMP JUMPDEST PUSH2 0x17EA DUP2 PUSH2 0x17D0 JUMP JUMPDEST DUP3 MSTORE POP POP JUMP JUMPDEST PUSH0 PUSH1 0xE0 DUP3 ADD SWAP1 POP PUSH2 0x1803 PUSH0 DUP4 ADD DUP11 PUSH2 0x13E4 JUMP JUMPDEST DUP2 DUP2 SUB PUSH1 0x20 DUP4 ADD MSTORE PUSH2 0x1815 DUP2 DUP10 PUSH2 0x1706 JUMP JUMPDEST SWAP1 POP PUSH2 0x1824 PUSH1 0x40 DUP4 ADD DUP9 PUSH2 0x176E JUMP JUMPDEST DUP2 DUP2 SUB PUSH1 0x60 DUP4 ADD MSTORE PUSH2 0x1836 DUP2 DUP8 PUSH2 0x1706 JUMP JUMPDEST SWAP1 POP DUP2 DUP2 SUB PUSH1 0x80 DUP4 ADD MSTORE PUSH2 0x184A DUP2 DUP7 PUSH2 0x1706 JUMP JUMPDEST SWAP1 POP PUSH2 0x1859 PUSH1 0xA0 DUP4 ADD DUP6 PUSH2 0x13E4 JUMP JUMPDEST PUSH2 0x1866 PUSH1 0xC0 DUP4 ADD DUP5 PUSH2 0x17E1 JUMP JUMPDEST SWAP9 SWAP8 POP POP POP POP POP POP POP POP JUMP JUMPDEST PUSH2 0x187B DUP2 PUSH2 0x13DB JUMP JUMPDEST DUP3 MSTORE POP POP JUMP JUMPDEST PUSH0 DUP3 DUP3 MSTORE PUSH1 0x20 DUP3 ADD SWAP1 POP SWAP3 SWAP2 POP POP JUMP JUMPDEST PUSH0 PUSH2 0x189B DUP3 PUSH2 0x16DE JUMP JUMPDEST PUSH2 0x18A5 DUP2 DUP6 PUSH2 0x1881 JUMP JUMPDEST SWAP4 POP PUSH2 0x18B5 DUP2 DUP6 PUSH1 0x20 DUP7 ADD PUSH2 0x16F8 JUMP JUMPDEST PUSH2 0x18BE DUP2 PUSH2 0x1425 JUMP JUMPDEST DUP5 ADD SWAP2 POP POP SWAP3 SWAP2 POP POP JUMP JUMPDEST PUSH2 0x18D2 DUP2 PUSH2 0x175D JUMP JUMPDEST DUP3 MSTORE POP POP JUMP JUMPDEST PUSH2 0x18E1 DUP2 PUSH2 0x1559 JUMP JUMPDEST DUP3 MSTORE POP POP JUMP JUMPDEST PUSH1 0x4 DUP2 LT PUSH2 0x18F8 JUMPI PUSH2 0x18F7 PUSH2 0x177D JUMP JUMPDEST JUMPDEST POP JUMP JUMPDEST PUSH0 DUP2 SWAP1 POP PUSH2 0x1908 DUP3 PUSH2 0x18E7 JUMP JUMPDEST SWAP2 SWAP1 POP JUMP JUMPDEST PUSH0 PUSH2 0x1917 DUP3 PUSH2 0x18FB JUMP JUMPDEST SWAP1 POP SWAP2 SWAP1 POP JUMP JUMPDEST PUSH2 0x1927 DUP2 PUSH2 0x190D JUMP JUMPDEST DUP3 MSTORE POP POP JUMP JUMPDEST PUSH0 PUSH2 0x140 DUP4 ADD PUSH0 DUP4 ADD MLOAD PUSH2 0x1943 PUSH0 DUP7 ADD DUP3 PUSH2 0x1872 JUMP JUMPDEST POP PUSH1 0x20 DUP4 ADD MLOAD DUP5 DUP3 SUB PUSH1 0x20 DUP7 ADD MSTORE PUSH2 0x195B DUP3 DUP3 PUSH2 0x1891 JUMP JUMPDEST SWAP2 POP POP PUSH1 0x40 DUP4 ADD MLOAD PUSH2 0x1970 PUSH1 0x40 DUP7 ADD DUP3 PUSH2 0x18C9 JUMP JUMPDEST POP PUSH1 0x60 DUP4 ADD MLOAD PUSH2 0x1983 PUSH1 0x60 DUP7 ADD DUP3 PUSH2 0x18D8 JUMP JUMPDEST POP PUSH1 0x80 DUP4 ADD MLOAD PUSH2 0x1996 PUSH1 0x80 DUP7 ADD DUP3 PUSH2 0x1872 JUMP JUMPDEST POP PUSH1 0xA0 DUP4 ADD MLOAD DUP5 DUP3 SUB PUSH1 0xA0 DUP7 ADD MSTORE PUSH2 0x19AE DUP3 DUP3 PUSH2 0x1891 JUMP JUMPDEST SWAP2 POP POP PUSH1 0xC0 DUP4 ADD MLOAD DUP5 DUP3 SUB PUSH1 0xC0 DUP7 ADD MSTORE PUSH2 0x19C8 DUP3 DUP3 PUSH2 0x1891 JUMP JUMPDEST SWAP2 POP POP PUSH1 0xE0 DUP4 ADD MLOAD DUP5 DUP3 SUB PUSH1 0xE0 DUP7 ADD MSTORE PUSH2 0x19E2 DUP3 DUP3 PUSH2 0x1891 JUMP JUMPDEST SWAP2 POP POP PUSH2 0x100 DUP4 ADD MLOAD PUSH2 0x19F9 PUSH2 0x100 DUP7 ADD DUP3 PUSH2 0x1872 JUMP JUMPDEST POP PUSH2 0x120 DUP4 ADD MLOAD PUSH2 0x1A0E PUSH2 0x120 DUP7 ADD DUP3 PUSH2 0x191E JUMP JUMPDEST POP DUP1 SWAP2 POP POP SWAP3 SWAP2 POP POP JUMP JUMPDEST PUSH0 PUSH1 0x20 DUP3 ADD SWAP1 POP DUP2 DUP2 SUB PUSH0 DUP4 ADD MSTORE PUSH2 0x1A31 DUP2 DUP5 PUSH2 0x192D JUMP JUMPDEST SWAP1 POP SWAP3 SWAP2 POP POP JUMP JUMPDEST PUSH1 0x4 DUP2 LT PUSH2 0x1A45 JUMPI PUSH0 DUP1 REVERT JUMPDEST POP JUMP JUMPDEST PUSH0 DUP2 CALLDATALOAD SWAP1 POP PUSH2 0x1A56 DUP2 PUSH2 0x1A39 JUMP JUMPDEST SWAP3 SWAP2 POP POP JUMP JUMPDEST PUSH0 DUP1 PUSH0 DUP1 PUSH1 0x80 DUP6 DUP8 SUB SLT ISZERO PUSH2 0x1A74 JUMPI PUSH2 0x1A73 PUSH2 0x1415 JUMP JUMPDEST JUMPDEST PUSH0 DUP6 ADD CALLDATALOAD PUSH8 0xFFFFFFFFFFFFFFFF DUP2 GT ISZERO PUSH2 0x1A91 JUMPI PUSH2 0x1A90 PUSH2 0x1419 JUMP JUMPDEST JUMPDEST PUSH2 0x1A9D DUP8 DUP3 DUP9 ADD PUSH2 0x152C JUMP JUMPDEST SWAP5 POP POP PUSH1 0x20 DUP6 ADD CALLDATALOAD PUSH8 0xFFFFFFFFFFFFFFFF DUP2 GT ISZERO PUSH2 0x1ABE JUMPI PUSH2 0x1ABD PUSH2 0x1419 JUMP JUMPDEST JUMPDEST PUSH2 0x1ACA DUP8 DUP3 DUP9 ADD PUSH2 0x152C JUMP JUMPDEST SWAP4 POP POP PUSH1 0x40 DUP6 ADD CALLDATALOAD PUSH8 0xFFFFFFFFFFFFFFFF DUP2 GT ISZERO PUSH2 0x1AEB JUMPI PUSH2 0x1AEA PUSH2 0x1419 JUMP JUMPDEST JUMPDEST PUSH2 0x1AF7 DUP8 DUP3 DUP9 ADD PUSH2 0x152C JUMP JUMPDEST SWAP3 POP POP PUSH1 0x60 PUSH2 0x1B08 DUP8 DUP3 DUP9 ADD PUSH2 0x1A48 JUMP JUMPDEST SWAP2 POP POP SWAP3 SWAP6 SWAP2 SWAP5 POP SWAP3 POP JUMP JUMPDEST PUSH2 0x1B1D DUP2 PUSH2 0x1559 JUMP JUMPDEST DUP3 MSTORE POP POP JUMP JUMPDEST PUSH2 0x1B2C DUP2 PUSH2 0x190D JUMP JUMPDEST DUP3 MSTORE POP POP JUMP JUMPDEST PUSH0 PUSH2 0x140 DUP3 ADD SWAP1 POP PUSH2 0x1B46 PUSH0 DUP4 ADD DUP14 PUSH2 0x13E4 JUMP JUMPDEST DUP2 DUP2 SUB PUSH1 0x20 DUP4 ADD MSTORE PUSH2 0x1B58 DUP2 DUP13 PUSH2 0x1706 JUMP JUMPDEST SWAP1 POP PUSH2 0x1B67 PUSH1 0x40 DUP4 ADD DUP12 PUSH2 0x176E JUMP JUMPDEST PUSH2 0x1B74 PUSH1 0x60 DUP4 ADD DUP11 PUSH2 0x1B14 JUMP JUMPDEST PUSH2 0x1B81 PUSH1 0x80 DUP4 ADD DUP10 PUSH2 0x13E4 JUMP JUMPDEST DUP2 DUP2 SUB PUSH1 0xA0 DUP4 ADD MSTORE PUSH2 0x1B93 DUP2 DUP9 PUSH2 0x1706 JUMP JUMPDEST SWAP1 POP DUP2 DUP2 SUB PUSH1 0xC0 DUP4 ADD MSTORE PUSH2 0x1BA7 DUP2 DUP8 PUSH2 0x1706 JUMP JUMPDEST SWAP1 POP DUP2 DUP2 SUB PUSH1 0xE0 DUP4 ADD MSTORE PUSH2 0x1BBB DUP2 DUP7 PUSH2 0x1706 JUMP JUMPDEST SWAP1 POP PUSH2 0x1BCB PUSH2 0x100 DUP4 ADD DUP6 PUSH2 0x13E4 JUMP JUMPDEST PUSH2 0x1BD9 PUSH2 0x120 DUP4 ADD DUP5 PUSH2 0x1B23 JUMP JUMPDEST SWAP12 SWAP11 POP POP POP POP POP POP POP POP POP POP POP JUMP JUMPDEST PUSH2 0x1BF1 DUP2 PUSH2 0x175D JUMP JUMPDEST DUP2 EQ PUSH2 0x1BFB JUMPI PUSH0 DUP1 REVERT JUMPDEST POP JUMP JUMPDEST PUSH0 DUP2 CALLDATALOAD SWAP1 POP PUSH2 0x1C0C DUP2 PUSH2 0x1BE8 JUMP JUMPDEST SWAP3 SWAP2 POP POP JUMP JUMPDEST PUSH0 DUP1 PUSH1 0x40 DUP4 DUP6 SUB SLT ISZERO PUSH2 0x1C28 JUMPI PUSH2 0x1C27 PUSH2 0x1415 JUMP JUMPDEST JUMPDEST PUSH0 PUSH2 0x1C35 DUP6 DUP3 DUP7 ADD PUSH2 0x15A6 JUMP JUMPDEST SWAP3 POP POP PUSH1 0x20 PUSH2 0x1C46 DUP6 DUP3 DUP7 ADD PUSH2 0x1BFE JUMP JUMPDEST SWAP2 POP POP SWAP3 POP SWAP3 SWAP1 POP JUMP JUMPDEST PUSH1 0x4 DUP2 LT PUSH2 0x1C5C JUMPI PUSH0 DUP1 REVERT JUMPDEST POP JUMP JUMPDEST PUSH0 DUP2 CALLDATALOAD SWAP1 POP PUSH2 0x1C6D DUP2 PUSH2 0x1C50 JUMP JUMPDEST SWAP3 SWAP2 POP POP JUMP JUMPDEST PUSH0 DUP1 PUSH1 0x40 DUP4 DUP6 SUB SLT ISZERO PUSH2 0x1C89 JUMPI PUSH2 0x1C88 PUSH2 0x1415 JUMP JUMPDEST JUMPDEST PUSH0 PUSH2 0x1C96 DUP6 DUP3 DUP7 ADD PUSH2 0x15A6 JUMP JUMPDEST SWAP3 POP POP PUSH1 0x20 PUSH2 0x1CA7 DUP6 DUP3 DUP7 ADD PUSH2 0x1C5F JUMP JUMPDEST SWAP2 POP POP SWAP3 POP SWAP3 SWAP1 POP JUMP JUMPDEST PUSH0 PUSH1 0x20 DUP3 ADD SWAP1 POP PUSH2 0x1CC4 PUSH0 DUP4 ADD DUP5 PUSH2 0x1B23 JUMP JUMPDEST SWAP3 SWAP2 POP POP JUMP JUMPDEST PUSH2 0x1CD3 DUP2 PUSH2 0x17D0 JUMP JUMPDEST DUP3 MSTORE POP POP JUMP JUMPDEST PUSH0 PUSH1 0xE0 DUP4 ADD PUSH0 DUP4 ADD MLOAD PUSH2 0x1CEE PUSH0 DUP7 ADD DUP3 PUSH2 0x1872 JUMP JUMPDEST POP PUSH1 0x20 DUP4 ADD MLOAD DUP5 DUP3 SUB PUSH1 0x20 DUP7 ADD MSTORE PUSH2 0x1D06 DUP3 DUP3 PUSH2 0x1891 JUMP JUMPDEST SWAP2 POP POP PUSH1 0x40 DUP4 ADD MLOAD PUSH2 0x1D1B PUSH1 0x40 DUP7 ADD DUP3 PUSH2 0x18C9 JUMP JUMPDEST POP PUSH1 0x60 DUP4 ADD MLOAD DUP5 DUP3 SUB PUSH1 0x60 DUP7 ADD MSTORE PUSH2 0x1D33 DUP3 DUP3 PUSH2 0x1891 JUMP JUMPDEST SWAP2 POP POP PUSH1 0x80 DUP4 ADD MLOAD DUP5 DUP3 SUB PUSH1 0x80 DUP7 ADD MSTORE PUSH2 0x1D4D DUP3 DUP3 PUSH2 0x1891 JUMP JUMPDEST SWAP2 POP POP PUSH1 0xA0 DUP4 ADD MLOAD PUSH2 0x1D62 PUSH1 0xA0 DUP7 ADD DUP3 PUSH2 0x1872 JUMP JUMPDEST POP PUSH1 0xC0 DUP4 ADD MLOAD PUSH2 0x1D75 PUSH1 0xC0 DUP7 ADD DUP3 PUSH2 0x1CCA JUMP JUMPDEST POP DUP1 SWAP2 POP POP SWAP3 SWAP2 POP POP JUMP JUMPDEST PUSH0 PUSH1 0x20 DUP3 ADD SWAP1 POP DUP2 DUP2 SUB PUSH0 DUP4 ADD MSTORE PUSH2 0x1D98 DUP2 DUP5 PUSH2 0x1CD9 JUMP JUMPDEST SWAP1 POP SWAP3 SWAP2 POP POP JUMP JUMPDEST PUSH0 PUSH1 0x20 DUP3 ADD SWAP1 POP PUSH2 0x1DB3 PUSH0 DUP4 ADD DUP5 PUSH2 0x176E JUMP JUMPDEST SWAP3 SWAP2 POP POP JUMP JUMPDEST PUSH32 0x4E487B7100000000000000000000000000000000000000000000000000000000 PUSH0 MSTORE PUSH1 0x11 PUSH1 0x4 MSTORE PUSH1 0x24 PUSH0 REVERT JUMPDEST PUSH0 PUSH2 0x1DF0 DUP3 PUSH2 0x13DB JUMP JUMPDEST SWAP2 POP PUSH32 0xFFFFFFFFFFFFFFFFFFFFFFFFFFFFFFFFFFFFFFFFFFFFFFFFFFFFFFFFFFFFFFFF DUP3 SUB PUSH2 0x1E22 JUMPI PUSH2 0x1E21 PUSH2 0x1DB9 JUMP JUMPDEST JUMPDEST PUSH1 0x1 DUP3 ADD SWAP1 POP SWAP2 SWAP1 POP JUMP JUMPDEST PUSH32 0x4E487B7100000000000000000000000000000000000000000000000000000000 PUSH0 MSTORE PUSH1 0x22 PUSH1 0x4 MSTORE PUSH1 0x24 PUSH0 REVERT JUMPDEST PUSH0 PUSH1 0x2 DUP3 DIV SWAP1 POP PUSH1 0x1 DUP3 AND DUP1 PUSH2 0x1E71 JUMPI PUSH1 0x7F DUP3 AND SWAP2 POP JUMPDEST PUSH1 0x20 DUP3 LT DUP2 SUB PUSH2 0x1E84 JUMPI PUSH2 0x1E83 PUSH2 0x1E2D JUMP JUMPDEST JUMPDEST POP SWAP2 SWAP1 POP JUMP JUMPDEST PUSH0 DUP2 SWAP1 POP DUP2 PUSH0 MSTORE PUSH1 0x20 PUSH0 KECCAK256 SWAP1 POP SWAP2 SWAP1 POP JUMP JUMPDEST PUSH0 PUSH1 0x20 PUSH1 0x1F DUP4 ADD DIV SWAP1 POP SWAP2 SWAP1 POP JUMP JUMPDEST PUSH0 DUP3 DUP3 SHL SWAP1 POP SWAP3 SWAP2 POP POP JUMP JUMPDEST PUSH0 PUSH1 0x8 DUP4 MUL PUSH2 0x1EE6 PUSH32 0xFFFFFFFFFFFFFFFFFFFFFFFFFFFFFFFFFFFFFFFFFFFFFFFFFFFFFFFFFFFFFFFF DUP3 PUSH2 0x1EAB JUMP JUMPDEST PUSH2 0x1EF0 DUP7 DUP4 PUSH2 0x1EAB JUMP JUMPDEST SWAP6 POP DUP1 NOT DUP5 AND SWAP4 POP DUP1 DUP7 AND DUP5 OR SWAP3 POP POP POP SWAP4 SWAP3 POP POP POP JUMP JUMPDEST PUSH0 DUP2 SWAP1 POP SWAP2 SWAP1 POP JUMP JUMPDEST PUSH0 PUSH2 0x1F2B PUSH2 0x1F26 PUSH2 0x1F21 DUP5 PUSH2 0x13DB JUMP JUMPDEST PUSH2 0x1F08 JUMP JUMPDEST PUSH2 0x13DB JUMP JUMPDEST SWAP1 POP SWAP2 SWAP1 POP JUMP JUMPDEST PUSH0 DUP2 SWAP1 POP SWAP2 SWAP1 POP JUMP JUMPDEST PUSH2 0x1F44 DUP4 PUSH2 0x1F11 JUMP JUMPDEST PUSH2 0x1F58 PUSH2 0x1F50 DUP3 PUSH2 0x1F32 JUMP JUMPDEST DUP5 DUP5 SLOAD PUSH2 0x1EB7 JUMP JUMPDEST DUP3 SSTORE POP POP POP POP JUMP JUMPDEST PUSH0 SWAP1 JUMP JUMPDEST PUSH2 0x1F6C PUSH2 0x1F60 JUMP JUMPDEST PUSH2 0x1F77 DUP2 DUP5 DUP5 PUSH2 0x1F3B JUMP JUMPDEST POP POP POP JUMP JUMPDEST JUMPDEST DUP2 DUP2 LT ISZERO PUSH2 0x1F9A JUMPI PUSH2 0x1F8F PUSH0 DUP3 PUSH2 0x1F64 JUMP JUMPDEST PUSH1 0x1 DUP2 ADD SWAP1 POP PUSH2 0x1F7D JUMP JUMPDEST POP POP JUMP JUMPDEST PUSH1 0x1F DUP3 GT ISZERO PUSH2 0x1FDF JUMPI PUSH2 0x1FB0 DUP2 PUSH2 0x1E8A JUMP JUMPDEST PUSH2 0x1FB9 DUP5 PUSH2 0x1E9C JUMP JUMPDEST DUP2 ADD PUSH1 0x20 DUP6 LT ISZERO PUSH2 0x1FC8 JUMPI DUP2 SWAP1 POP JUMPDEST PUSH2 0x1FDC PUSH2 0x1FD4 DUP6 PUSH2 0x1E9C JUMP JUMPDEST DUP4 ADD DUP3 PUSH2 0x1F7C JUMP JUMPDEST POP POP JUMPDEST POP POP POP JUMP JUMPDEST PUSH0 DUP3 DUP3 SHR SWAP1 POP SWAP3 SWAP2 POP POP JUMP JUMPDEST PUSH0 PUSH2 0x1FFF PUSH0 NOT DUP5 PUSH1 0x8 MUL PUSH2 0x1FE4 JUMP JUMPDEST NOT DUP1 DUP4 AND SWAP2 POP POP SWAP3 SWAP2 POP POP JUMP JUMPDEST PUSH0 PUSH2 0x2017 DUP4 DUP4 PUSH2 0x1FF0 JUMP JUMPDEST SWAP2 POP DUP3 PUSH1 0x2 MUL DUP3 OR SWAP1 POP SWAP3 SWAP2 POP POP JUMP JUMPDEST PUSH2 0x2030 DUP3 PUSH2 0x16DE JUMP JUMPDEST PUSH8 0xFFFFFFFFFFFFFFFF DUP2 GT ISZERO PUSH2 0x2049 JUMPI PUSH2 0x2048 PUSH2 0x1435 JUMP JUMPDEST JUMPDEST PUSH2 0x2053 DUP3 SLOAD PUSH2 0x1E5A JUMP JUMPDEST PUSH2 0x205E DUP3 DUP3 DUP6 PUSH2 0x1F9E JUMP JUMPDEST PUSH0 PUSH1 0x20 SWAP1 POP PUSH1 0x1F DUP4 GT PUSH1 0x1 DUP2 EQ PUSH2 0x208F JUMPI PUSH0 DUP5 ISZERO PUSH2 0x207D JUMPI DUP3 DUP8 ADD MLOAD SWAP1 POP JUMPDEST PUSH2 0x2087 DUP6 DUP3 PUSH2 0x200C JUMP JUMPDEST DUP7 SSTORE POP PUSH2 0x20EE JUMP JUMPDEST PUSH1 0x1F NOT DUP5 AND PUSH2 0x209D DUP7 PUSH2 0x1E8A JUMP JUMPDEST PUSH0 JUMPDEST DUP3 DUP2 LT ISZERO PUSH2 0x20C4 JUMPI DUP5 DUP10 ADD MLOAD DUP3 SSTORE PUSH1 0x1 DUP3 ADD SWAP2 POP PUSH1 0x20 DUP6 ADD SWAP5 POP PUSH1 0x20 DUP2 ADD SWAP1 POP PUSH2 0x209F JUMP JUMPDEST DUP7 DUP4 LT ISZERO PUSH2 0x20E1 JUMPI DUP5 DUP10 ADD MLOAD PUSH2 0x20DD PUSH1 0x1F DUP10 AND DUP3 PUSH2 0x1FF0 JUMP JUMPDEST DUP4 SSTORE POP JUMPDEST PUSH1 0x1 PUSH1 0x2 DUP9 MUL ADD DUP9 SSTORE POP POP POP JUMPDEST POP POP POP POP POP POP JUMP JUMPDEST PUSH0 PUSH1 0x60 DUP3 ADD SWAP1 POP PUSH2 0x2109 PUSH0 DUP4 ADD DUP7 PUSH2 0x13E4 JUMP JUMPDEST DUP2 DUP2 SUB PUSH1 0x20 DUP4 ADD MSTORE PUSH2 0x211B DUP2 DUP6 PUSH2 0x1706 JUMP JUMPDEST SWAP1 POP PUSH2 0x212A PUSH1 0x40 DUP4 ADD DUP5 PUSH2 0x176E JUMP JUMPDEST SWAP5 SWAP4 POP POP POP POP JUMP JUMPDEST PUSH32 0x4E6F74204F776E65720000000000000000000000000000000000000000000000 PUSH0 DUP3 ADD MSTORE POP JUMP JUMPDEST PUSH0 PUSH2 0x2166 PUSH1 0x9 DUP4 PUSH2 0x16E8 JUMP JUMPDEST SWAP2 POP PUSH2 0x2171 DUP3 PUSH2 0x2132 JUMP JUMPDEST PUSH1 0x20 DUP3 ADD SWAP1 POP SWAP2 SWAP1 POP JUMP JUMPDEST PUSH0 PUSH1 0x20 DUP3 ADD SWAP1 POP DUP2 DUP2 SUB PUSH0 DUP4 ADD MSTORE PUSH2 0x2193 DUP2 PUSH2 0x215A JUMP JUMPDEST SWAP1 POP SWAP2 SWAP1 POP JUMP JUMPDEST PUSH0 PUSH1 0x40 DUP3 ADD SWAP1 POP PUSH2 0x21AD PUSH0 DUP4 ADD DUP6 PUSH2 0x13E4 JUMP JUMPDEST PUSH2 0x21BA PUSH1 0x20 DUP4 ADD DUP5 PUSH2 0x176E JUMP JUMPDEST SWAP4 SWAP3 POP POP POP JUMP JUMPDEST PUSH0 PUSH1 0x40 DUP3 ADD SWAP1 POP PUSH2 0x21D4 PUSH0 DUP4 ADD DUP6 PUSH2 0x13E4 JUMP JUMPDEST PUSH2 0x21E1 PUSH1 0x20 DUP4 ADD DUP5 PUSH2 0x1B23 JUMP JUMPDEST SWAP4 SWAP3 POP POP POP JUMP INVALID LOG2 PUSH5 0x6970667358 0x22 SLT KECCAK256 0xAD SELFBALANCE 0xD3 MUL 0xE9 SWAP7 0xE2 STATICCALL 0xAA 0xE1 SWAP1 CALL 0xA8 SWAP2 BALANCE GT 0xE3 SGT 0x4F SWAP16 CALLDATALOAD PUSH9 0x60B0393597A03F525E GASLIMIT PUSH5 0x736F6C6343 STOP ADDMOD BYTE STOP CALLER "
				},
				"gasEstimates": {
					"creation": {
						"codeDepositCost": "1746800",
						"executionCost": "11842",
						"totalCost": "1758642"
					},
					"external": {
						"ProductOwner()": "2596",
						"changeOwnership(uint256,address)": "infinite",
						"createCustomer(string,string,string,uint8)": "infinite",
						"createProduct(string,uint16,uint256,string,string,string)": "infinite",
						"getTotalUsers()": "2499",
						"getUser(uint256)": "infinite",
						"productCount()": "2490",
						"productDetails(uint256)": "infinite",
						"products(uint256)": "infinite",
						"updateProductStatus(uint256,uint8)": "infinite",
						"userCount()": "2426",
						"users(uint256)": "infinite",
						"viewStatus(uint256)": "2926"
					}
				},
				"methodIdentifiers": {
					"ProductOwner()": "f46296be",
					"changeOwnership(uint256,address)": "89b3887e",
					"createCustomer(string,string,string,uint8)": "52312cea",
					"createProduct(string,uint16,uint256,string,string,string)": "084289f8",
					"getTotalUsers()": "9be572f6",
					"getUser(uint256)": "b0467deb",
					"productCount()": "e0f6ef87",
					"productDetails(uint256)": "48f7eb30",
					"products(uint256)": "7acc0b20",
					"updateProductStatus(uint256,uint8)": "920e2621",
					"userCount()": "07973ccf",
					"users(uint256)": "365b98b2",
					"viewStatus(uint256)": "ac4640e1"
				}
			},
			"storageLayout": {
				"storage": [
					{
						"astId": 73,
						"contract": "contracts/LiskSupplyChain.sol:LiskSupplyChain",
						"label": "productCount",
						"offset": 0,
						"slot": "0",
						"type": "t_uint256"
					},
					{
						"astId": 76,
						"contract": "contracts/LiskSupplyChain.sol:LiskSupplyChain",
						"label": "userCount",
						"offset": 0,
						"slot": "1",
						"type": "t_uint256"
					},
					{
						"astId": 78,
						"contract": "contracts/LiskSupplyChain.sol:LiskSupplyChain",
						"label": "ProductOwner",
						"offset": 0,
						"slot": "2",
						"type": "t_address"
					},
					{
						"astId": 83,
						"contract": "contracts/LiskSupplyChain.sol:LiskSupplyChain",
						"label": "products",
						"offset": 0,
						"slot": "3",
						"type": "t_mapping(t_uint256,t_struct(Product)54_storage)"
					},
					{
						"astId": 88,
						"contract": "contracts/LiskSupplyChain.sol:LiskSupplyChain",
						"label": "users",
						"offset": 0,
						"slot": "4",
						"type": "t_mapping(t_uint256,t_struct(User)70_storage)"
					}
				],
				"types": {
					"t_address": {
						"encoding": "inplace",
						"label": "address",
						"numberOfBytes": "20"
					},
					"t_enum(Roles)6": {
						"encoding": "inplace",
						"label": "enum LiskSupplyChain.Roles",
						"numberOfBytes": "1"
					},
					"t_enum(Status)11": {
						"encoding": "inplace",
						"label": "enum LiskSupplyChain.Status",
						"numberOfBytes": "1"
					},
					"t_mapping(t_uint256,t_struct(Product)54_storage)": {
						"encoding": "mapping",
						"key": "t_uint256",
						"label": "mapping(uint256 => struct LiskSupplyChain.Product)",
						"numberOfBytes": "32",
						"value": "t_struct(Product)54_storage"
					},
					"t_mapping(t_uint256,t_struct(User)70_storage)": {
						"encoding": "mapping",
						"key": "t_uint256",
						"label": "mapping(uint256 => struct LiskSupplyChain.User)",
						"numberOfBytes": "32",
						"value": "t_struct(User)70_storage"
					},
					"t_string_storage": {
						"encoding": "bytes",
						"label": "string",
						"numberOfBytes": "32"
					},
					"t_struct(Product)54_storage": {
						"encoding": "inplace",
						"label": "struct LiskSupplyChain.Product",
						"members": [
							{
								"astId": 34,
								"contract": "contracts/LiskSupplyChain.sol:LiskSupplyChain",
								"label": "id",
								"offset": 0,
								"slot": "0",
								"type": "t_uint256"
							},
							{
								"astId": 36,
								"contract": "contracts/LiskSupplyChain.sol:LiskSupplyChain",
								"label": "name",
								"offset": 0,
								"slot": "1",
								"type": "t_string_storage"
							},
							{
								"astId": 38,
								"contract": "contracts/LiskSupplyChain.sol:LiskSupplyChain",
								"label": "owner",
								"offset": 0,
								"slot": "2",
								"type": "t_address"
							},
							{
								"astId": 40,
								"contract": "contracts/LiskSupplyChain.sol:LiskSupplyChain",
								"label": "price",
								"offset": 20,
								"slot": "2",
								"type": "t_uint16"
							},
							{
								"astId": 42,
								"contract": "contracts/LiskSupplyChain.sol:LiskSupplyChain",
								"label": "quantity",
								"offset": 0,
								"slot": "3",
								"type": "t_uint256"
							},
							{
								"astId": 44,
								"contract": "contracts/LiskSupplyChain.sol:LiskSupplyChain",
								"label": "description",
								"offset": 0,
								"slot": "4",
								"type": "t_string_storage"
							},
							{
								"astId": 46,
								"contract": "contracts/LiskSupplyChain.sol:LiskSupplyChain",
								"label": "from",
								"offset": 0,
								"slot": "5",
								"type": "t_string_storage"
							},
							{
								"astId": 48,
								"contract": "contracts/LiskSupplyChain.sol:LiskSupplyChain",
								"label": "to",
								"offset": 0,
								"slot": "6",
								"type": "t_string_storage"
							},
							{
								"astId": 50,
								"contract": "contracts/LiskSupplyChain.sol:LiskSupplyChain",
								"label": "date",
								"offset": 0,
								"slot": "7",
								"type": "t_uint256"
							},
							{
								"astId": 53,
								"contract": "contracts/LiskSupplyChain.sol:LiskSupplyChain",
								"label": "status",
								"offset": 0,
								"slot": "8",
								"type": "t_enum(Status)11"
							}
						],
						"numberOfBytes": "288"
					},
					"t_struct(User)70_storage": {
						"encoding": "inplace",
						"label": "struct LiskSupplyChain.User",
						"members": [
							{
								"astId": 56,
								"contract": "contracts/LiskSupplyChain.sol:LiskSupplyChain",
								"label": "id",
								"offset": 0,
								"slot": "0",
								"type": "t_uint256"
							},
							{
								"astId": 58,
								"contract": "contracts/LiskSupplyChain.sol:LiskSupplyChain",
								"label": "name",
								"offset": 0,
								"slot": "1",
								"type": "t_string_storage"
							},
							{
								"astId": 60,
								"contract": "contracts/LiskSupplyChain.sol:LiskSupplyChain",
								"label": "userAddress",
								"offset": 0,
								"slot": "2",
								"type": "t_address"
							},
							{
								"astId": 62,
								"contract": "contracts/LiskSupplyChain.sol:LiskSupplyChain",
								"label": "location",
								"offset": 0,
								"slot": "3",
								"type": "t_string_storage"
							},
							{
								"astId": 64,
								"contract": "contracts/LiskSupplyChain.sol:LiskSupplyChain",
								"label": "description",
								"offset": 0,
								"slot": "4",
								"type": "t_string_storage"
							},
							{
								"astId": 66,
								"contract": "contracts/LiskSupplyChain.sol:LiskSupplyChain",
								"label": "date",
								"offset": 0,
								"slot": "5",
								"type": "t_uint256"
							},
							{
								"astId": 69,
								"contract": "contracts/LiskSupplyChain.sol:LiskSupplyChain",
								"label": "role",
								"offset": 0,
								"slot": "6",
								"type": "t_enum(Roles)6"
							}
						],
						"numberOfBytes": "224"
					},
					"t_uint16": {
						"encoding": "inplace",
						"label": "uint16",
						"numberOfBytes": "2"
					},
					"t_uint256": {
						"encoding": "inplace",
						"label": "uint256",
						"numberOfBytes": "32"
					}
				}
			},
			"userdoc": {
				"kind": "user",
				"methods": {},
				"version": 1
			}
		}
	}
}