{
	"contracts/LiskSupplyChain.sol": {
		"LiskSupplyChain": {
			"abi": [
				{
					"anonymous": false,
					"inputs": [
						{
							"indexed": false,
							"internalType": "uint256",
							"name": "productId",
							"type": "uint256"
						},
						{
							"indexed": false,
							"internalType": "address",
							"name": "newOwner",
							"type": "address"
						}
					],
					"name": "OwnershipTransferred",
					"type": "event"
				},
				{
					"anonymous": false,
					"inputs": [
						{
							"indexed": false,
							"internalType": "uint256",
							"name": "productId",
							"type": "uint256"
						},
						{
							"indexed": false,
							"internalType": "string",
							"name": "name",
							"type": "string"
						},
						{
							"indexed": false,
							"internalType": "address",
							"name": "owner",
							"type": "address"
						}
					],
					"name": "ProductCreated",
					"type": "event"
				},
				{
					"anonymous": false,
					"inputs": [
						{
							"indexed": false,
							"internalType": "uint256",
							"name": "productId",
							"type": "uint256"
						},
						{
							"indexed": false,
							"internalType": "enum LiskSupplyChain.Status",
							"name": "status",
							"type": "uint8"
						}
					],
					"name": "ProductStatusUpdated",
					"type": "event"
				},
				{
					"inputs": [],
					"name": "ProductOwner",
					"outputs": [
						{
							"internalType": "address",
							"name": "",
							"type": "address"
						}
					],
					"stateMutability": "view",
					"type": "function"
				},
				{
					"inputs": [
						{
							"internalType": "uint256",
							"name": "productId",
							"type": "uint256"
						},
						{
							"internalType": "address",
							"name": "newOwner",
							"type": "address"
						}
					],
					"name": "changeOwnership",
					"outputs": [],
					"stateMutability": "nonpayable",
					"type": "function"
				},
				{
					"inputs": [
						{
							"internalType": "enum LiskSupplyChain.Status",
							"name": "_status",
							"type": "uint8"
						}
					],
					"name": "checkStatus",
					"outputs": [
						{
							"internalType": "string",
							"name": "",
							"type": "string"
						}
					],
					"stateMutability": "pure",
					"type": "function"
				},
				{
					"inputs": [
						{
							"internalType": "string",
							"name": "name",
							"type": "string"
						},
						{
							"internalType": "string",
							"name": "location",
							"type": "string"
						},
						{
							"internalType": "string",
							"name": "desc",
							"type": "string"
						},
						{
							"internalType": "enum LiskSupplyChain.Roles",
							"name": "_role",
							"type": "uint8"
						}
					],
					"name": "createCustomer",
					"outputs": [],
					"stateMutability": "nonpayable",
					"type": "function"
				},
				{
					"inputs": [
						{
							"internalType": "string",
							"name": "_name",
							"type": "string"
						},
						{
							"internalType": "uint16",
							"name": "_price",
							"type": "uint16"
						},
						{
							"internalType": "uint256",
							"name": "_quantity",
							"type": "uint256"
						},
						{
							"internalType": "string",
							"name": "desc",
							"type": "string"
						},
						{
							"internalType": "string",
							"name": "_from",
							"type": "string"
						},
						{
							"internalType": "string",
							"name": "_to",
							"type": "string"
						}
					],
					"name": "createProduct",
					"outputs": [],
					"stateMutability": "nonpayable",
					"type": "function"
				},
				{
					"inputs": [],
					"name": "getTotalUsers",
					"outputs": [
						{
							"internalType": "uint256",
							"name": "",
							"type": "uint256"
						}
					],
					"stateMutability": "view",
					"type": "function"
				},
				{
					"inputs": [
						{
							"internalType": "uint256",
							"name": "userId",
							"type": "uint256"
						}
					],
					"name": "getUser",
					"outputs": [
						{
							"components": [
								{
									"internalType": "uint256",
									"name": "id",
									"type": "uint256"
								},
								{
									"internalType": "string",
									"name": "name",
									"type": "string"
								},
								{
									"internalType": "address",
									"name": "userAddress",
									"type": "address"
								},
								{
									"internalType": "string",
									"name": "location",
									"type": "string"
								},
								{
									"internalType": "string",
									"name": "description",
									"type": "string"
								},
								{
									"internalType": "uint256",
									"name": "date",
									"type": "uint256"
								},
								{
									"internalType": "enum LiskSupplyChain.Roles",
									"name": "role",
									"type": "uint8"
								}
							],
							"internalType": "struct LiskSupplyChain.User",
							"name": "",
							"type": "tuple"
						}
					],
					"stateMutability": "view",
					"type": "function"
				},
				{
					"inputs": [],
					"name": "productCount",
					"outputs": [
						{
							"internalType": "uint256",
							"name": "",
							"type": "uint256"
						}
					],
					"stateMutability": "view",
					"type": "function"
				},
				{
					"inputs": [
						{
							"internalType": "uint256",
							"name": "_productId",
							"type": "uint256"
						}
					],
					"name": "productDetails",
					"outputs": [
						{
							"components": [
								{
									"internalType": "uint256",
									"name": "id",
									"type": "uint256"
								},
								{
									"internalType": "string",
									"name": "name",
									"type": "string"
								},
								{
									"internalType": "address",
									"name": "owner",
									"type": "address"
								},
								{
									"internalType": "uint16",
									"name": "price",
									"type": "uint16"
								},
								{
									"internalType": "uint256",
									"name": "quantity",
									"type": "uint256"
								},
								{
									"internalType": "string",
									"name": "description",
									"type": "string"
								},
								{
									"internalType": "string",
									"name": "from",
									"type": "string"
								},
								{
									"internalType": "string",
									"name": "to",
									"type": "string"
								},
								{
									"internalType": "uint256",
									"name": "date",
									"type": "uint256"
								},
								{
									"internalType": "enum LiskSupplyChain.Status",
									"name": "status",
									"type": "uint8"
								}
							],
							"internalType": "struct LiskSupplyChain.Product",
							"name": "",
							"type": "tuple"
						}
					],
					"stateMutability": "view",
					"type": "function"
				},
				{
					"inputs": [
						{
							"internalType": "uint256",
							"name": "productId",
							"type": "uint256"
						}
					],
					"name": "productStatus",
					"outputs": [
						{
							"internalType": "string",
							"name": "",
							"type": "string"
						}
					],
					"stateMutability": "view",
					"type": "function"
				},
				{
					"inputs": [
						{
							"internalType": "uint256",
							"name": "",
							"type": "uint256"
						}
					],
					"name": "products",
					"outputs": [
						{
							"internalType": "uint256",
							"name": "id",
							"type": "uint256"
						},
						{
							"internalType": "string",
							"name": "name",
							"type": "string"
						},
						{
							"internalType": "address",
							"name": "owner",
							"type": "address"
						},
						{
							"internalType": "uint16",
							"name": "price",
							"type": "uint16"
						},
						{
							"internalType": "uint256",
							"name": "quantity",
							"type": "uint256"
						},
						{
							"internalType": "string",
							"name": "description",
							"type": "string"
						},
						{
							"internalType": "string",
							"name": "from",
							"type": "string"
						},
						{
							"internalType": "string",
							"name": "to",
							"type": "string"
						},
						{
							"internalType": "uint256",
							"name": "date",
							"type": "uint256"
						},
						{
							"internalType": "enum LiskSupplyChain.Status",
							"name": "status",
							"type": "uint8"
						}
					],
					"stateMutability": "view",
					"type": "function"
				},
				{
					"inputs": [
						{
							"internalType": "uint256",
							"name": "productId",
							"type": "uint256"
						},
						{
							"internalType": "enum LiskSupplyChain.Status",
							"name": "status",
							"type": "uint8"
						}
					],
					"name": "updateProductStatus",
					"outputs": [],
					"stateMutability": "nonpayable",
					"type": "function"
				},
				{
					"inputs": [],
					"name": "userCount",
					"outputs": [
						{
							"internalType": "uint256",
							"name": "",
							"type": "uint256"
						}
					],
					"stateMutability": "view",
					"type": "function"
				},
				{
					"inputs": [
						{
							"internalType": "uint256",
							"name": "",
							"type": "uint256"
						}
					],
					"name": "users",
					"outputs": [
						{
							"internalType": "uint256",
							"name": "id",
							"type": "uint256"
						},
						{
							"internalType": "string",
							"name": "name",
							"type": "string"
						},
						{
							"internalType": "address",
							"name": "userAddress",
							"type": "address"
						},
						{
							"internalType": "string",
							"name": "location",
							"type": "string"
						},
						{
							"internalType": "string",
							"name": "description",
							"type": "string"
						},
						{
							"internalType": "uint256",
							"name": "date",
							"type": "uint256"
						},
						{
							"internalType": "enum LiskSupplyChain.Roles",
							"name": "role",
							"type": "uint8"
						}
					],
					"stateMutability": "view",
					"type": "function"
				},
				{
					"inputs": [
						{
							"internalType": "uint256",
							"name": "productId",
							"type": "uint256"
						}
					],
					"name": "viewStatus",
					"outputs": [
						{
							"internalType": "enum LiskSupplyChain.Status",
							"name": "status",
							"type": "uint8"
						}
					],
					"stateMutability": "view",
					"type": "function"
				}
			],
			"devdoc": {
				"kind": "dev",
				"methods": {},
				"version": 1
			},
			"evm": {
				"assembly": "    /* \"contracts/LiskSupplyChain.sol\":74:5201  contract LiskSupplyChain{... */\n  mstore(0x40, 0x80)\n    /* \"contracts/LiskSupplyChain.sol\":1097:1098  0 */\n  0x00\n    /* \"contracts/LiskSupplyChain.sol\":1066:1098  uint256 public  productCount = 0 */\n  dup1\n  sstore\n    /* \"contracts/LiskSupplyChain.sol\":1132:1133  0 */\n  0x00\n    /* \"contracts/LiskSupplyChain.sol\":1105:1133  uint256 public userCount = 0 */\n  0x01\n  sstore\n    /* \"contracts/LiskSupplyChain.sol\":1171:1181  msg.sender */\n  caller\n    /* \"contracts/LiskSupplyChain.sol\":1140:1181  address public  ProductOwner = msg.sender */\n  0x02\n  exp(0x0100, 0x00)\n  dup2\n  sload\n  dup2\n  0xffffffffffffffffffffffffffffffffffffffff\n  mul\n  not\n  and\n  swap1\n  dup4\n  0xffffffffffffffffffffffffffffffffffffffff\n  and\n  mul\n  or\n  swap1\n  sstore\n  pop\n    /* \"contracts/LiskSupplyChain.sol\":74:5201  contract LiskSupplyChain{... */\n  callvalue\n  dup1\n  iszero\n  tag_1\n  jumpi\n  0x00\n  dup1\n  revert\ntag_1:\n  pop\n  dataSize(sub_0)\n  dup1\n  dataOffset(sub_0)\n  0x00\n  codecopy\n  0x00\n  return\nstop\n\nsub_0: assembly {\n        /* \"contracts/LiskSupplyChain.sol\":74:5201  contract LiskSupplyChain{... */\n      mstore(0x40, 0x80)\n      callvalue\n      dup1\n      iszero\n      tag_1\n      jumpi\n      0x00\n      dup1\n      revert\n    tag_1:\n      pop\n      jumpi(tag_2, lt(calldatasize, 0x04))\n      shr(0xe0, calldataload(0x00))\n      dup1\n      0x89b3887e\n      gt\n      tag_18\n      jumpi\n      dup1\n      0xb0467deb\n      gt\n      tag_19\n      jumpi\n      dup1\n      0xb0467deb\n      eq\n      tag_14\n      jumpi\n      dup1\n      0xd6d9a024\n      eq\n      tag_15\n      jumpi\n      dup1\n      0xe0f6ef87\n      eq\n      tag_16\n      jumpi\n      dup1\n      0xf46296be\n      eq\n      tag_17\n      jumpi\n      jump(tag_2)\n    tag_19:\n      dup1\n      0x89b3887e\n      eq\n      tag_10\n      jumpi\n      dup1\n      0x920e2621\n      eq\n      tag_11\n      jumpi\n      dup1\n      0x9be572f6\n      eq\n      tag_12\n      jumpi\n      dup1\n      0xac4640e1\n      eq\n      tag_13\n      jumpi\n      jump(tag_2)\n    tag_18:\n      dup1\n      0x365b98b2\n      gt\n      tag_20\n      jumpi\n      dup1\n      0x365b98b2\n      eq\n      tag_6\n      jumpi\n      dup1\n      0x48f7eb30\n      eq\n      tag_7\n      jumpi\n      dup1\n      0x52312cea\n      eq\n      tag_8\n      jumpi\n      dup1\n      0x7acc0b20\n      eq\n      tag_9\n      jumpi\n      jump(tag_2)\n    tag_20:\n      dup1\n      0x07973ccf\n      eq\n      tag_3\n      jumpi\n      dup1\n      0x084289f8\n      eq\n      tag_4\n      jumpi\n      dup1\n      0x0ea3d3ee\n      eq\n      tag_5\n      jumpi\n    tag_2:\n      0x00\n      dup1\n      revert\n        /* \"contracts/LiskSupplyChain.sol\":1105:1133  uint256 public userCount = 0 */\n    tag_3:\n      tag_21\n      tag_22\n      jump\t// in\n    tag_21:\n      mload(0x40)\n      tag_23\n      swap2\n      swap1\n      tag_24\n      jump\t// in\n    tag_23:\n      mload(0x40)\n      dup1\n      swap2\n      sub\n      swap1\n      return\n        /* \"contracts/LiskSupplyChain.sol\":1887:2488  function createProduct(string memory _name, uint16 _price, uint256 _quantity, string memory desc, string memory _from, string memory  _to) public{... */\n    tag_4:\n      tag_25\n      0x04\n      dup1\n      calldatasize\n      sub\n      dup2\n      add\n      swap1\n      tag_26\n      swap2\n      swap1\n      tag_27\n      jump\t// in\n    tag_26:\n      tag_28\n      jump\t// in\n    tag_25:\n      stop\n        /* \"contracts/LiskSupplyChain.sol\":4826:5198  function productStatus(uint256 productId) isProductIdValid(productId) public view returns(string memory){... */\n    tag_5:\n      tag_29\n      0x04\n      dup1\n      calldatasize\n      sub\n      dup2\n      add\n      swap1\n      tag_30\n      swap2\n      swap1\n      tag_31\n      jump\t// in\n    tag_30:\n      tag_32\n      jump\t// in\n    tag_29:\n      mload(0x40)\n      tag_33\n      swap2\n      swap1\n      tag_34\n      jump\t// in\n    tag_33:\n      mload(0x40)\n      dup1\n      swap2\n      sub\n      swap1\n      return\n        /* \"contracts/LiskSupplyChain.sol\":1240:1278  mapping (uint256 => User) public users */\n    tag_6:\n      tag_35\n      0x04\n      dup1\n      calldatasize\n      sub\n      dup2\n      add\n      swap1\n      tag_36\n      swap2\n      swap1\n      tag_31\n      jump\t// in\n    tag_36:\n      tag_37\n      jump\t// in\n    tag_35:\n      mload(0x40)\n      tag_38\n      swap8\n      swap7\n      swap6\n      swap5\n      swap4\n      swap3\n      swap2\n      swap1\n      tag_39\n      jump\t// in\n    tag_38:\n      mload(0x40)\n      dup1\n      swap2\n      sub\n      swap1\n      return\n        /* \"contracts/LiskSupplyChain.sol\":2787:2939  function productDetails(uint _productId) isProductIdValid(_productId) public view returns (Product memory){... */\n    tag_7:\n      tag_40\n      0x04\n      dup1\n      calldatasize\n      sub\n      dup2\n      add\n      swap1\n      tag_41\n      swap2\n      swap1\n      tag_31\n      jump\t// in\n    tag_41:\n      tag_42\n      jump\t// in\n    tag_40:\n      mload(0x40)\n      tag_43\n      swap2\n      swap1\n      tag_44\n      jump\t// in\n    tag_43:\n      mload(0x40)\n      dup1\n      swap2\n      sub\n      swap1\n      return\n        /* \"contracts/LiskSupplyChain.sol\":3526:3929  function createCustomer(string memory name, string memory location, string memory desc, Roles _role) public {... */\n    tag_8:\n      tag_45\n      0x04\n      dup1\n      calldatasize\n      sub\n      dup2\n      add\n      swap1\n      tag_46\n      swap2\n      swap1\n      tag_47\n      jump\t// in\n    tag_46:\n      tag_48\n      jump\t// in\n    tag_45:\n      stop\n        /* \"contracts/LiskSupplyChain.sol\":1188:1233  mapping (uint256 => Product) public  products */\n    tag_9:\n      tag_49\n      0x04\n      dup1\n      calldatasize\n      sub\n      dup2\n      add\n      swap1\n      tag_50\n      swap2\n      swap1\n      tag_31\n      jump\t// in\n    tag_50:\n      tag_51\n      jump\t// in\n    tag_49:\n      mload(0x40)\n      tag_52\n      swap11\n      swap10\n      swap9\n      swap8\n      swap7\n      swap6\n      swap5\n      swap4\n      swap3\n      swap2\n      swap1\n      tag_53\n      jump\t// in\n    tag_52:\n      mload(0x40)\n      dup1\n      swap2\n      sub\n      swap1\n      return\n        /* \"contracts/LiskSupplyChain.sol\":2986:3299  function changeOwnership(uint productId, address newOwner) public onlyOwner(productId)  isProductIdValid(productId){... */\n    tag_10:\n      tag_54\n      0x04\n      dup1\n      calldatasize\n      sub\n      dup2\n      add\n      swap1\n      tag_55\n      swap2\n      swap1\n      tag_56\n      jump\t// in\n    tag_55:\n      tag_57\n      jump\t// in\n    tag_54:\n      stop\n        /* \"contracts/LiskSupplyChain.sol\":2527:2752  function updateProductStatus(uint productId, Status status) public onlyOwner(productId) isProductIdValid(productId) {... */\n    tag_11:\n      tag_58\n      0x04\n      dup1\n      calldatasize\n      sub\n      dup2\n      add\n      swap1\n      tag_59\n      swap2\n      swap1\n      tag_60\n      jump\t// in\n    tag_59:\n      tag_61\n      jump\t// in\n    tag_58:\n      stop\n        /* \"contracts/LiskSupplyChain.sol\":4131:4221  function getTotalUsers() public view returns (uint256 ){... */\n    tag_12:\n      tag_62\n      tag_63\n      jump\t// in\n    tag_62:\n      mload(0x40)\n      tag_64\n      swap2\n      swap1\n      tag_24\n      jump\t// in\n    tag_64:\n      mload(0x40)\n      dup1\n      swap2\n      sub\n      swap1\n      return\n        /* \"contracts/LiskSupplyChain.sol\":3337:3492  function viewStatus(uint256 productId)  isProductIdValid(productId) public view returns (Status status){... */\n    tag_13:\n      tag_65\n      0x04\n      dup1\n      calldatasize\n      sub\n      dup2\n      add\n      swap1\n      tag_66\n      swap2\n      swap1\n      tag_31\n      jump\t// in\n    tag_66:\n      tag_67\n      jump\t// in\n    tag_65:\n      mload(0x40)\n      tag_68\n      swap2\n      swap1\n      tag_69\n      jump\t// in\n    tag_68:\n      mload(0x40)\n      dup1\n      swap2\n      sub\n      swap1\n      return\n        /* \"contracts/LiskSupplyChain.sol\":3968:4095  function getUser(uint256 userId) isUserIdvalid(userId) public view returns (User memory){... */\n    tag_14:\n      tag_70\n      0x04\n      dup1\n      calldatasize\n      sub\n      dup2\n      add\n      swap1\n      tag_71\n      swap2\n      swap1\n      tag_31\n      jump\t// in\n    tag_71:\n      tag_72\n      jump\t// in\n    tag_70:\n      mload(0x40)\n      tag_73\n      swap2\n      swap1\n      tag_74\n      jump\t// in\n    tag_73:\n      mload(0x40)\n      dup1\n      swap2\n      sub\n      swap1\n      return\n        /* \"contracts/LiskSupplyChain.sol\":4484:4818  function checkStatus(Status _status) public pure returns(string memory){... */\n    tag_15:\n      tag_75\n      0x04\n      dup1\n      calldatasize\n      sub\n      dup2\n      add\n      swap1\n      tag_76\n      swap2\n      swap1\n      tag_77\n      jump\t// in\n    tag_76:\n      tag_78\n      jump\t// in\n    tag_75:\n      mload(0x40)\n      tag_79\n      swap2\n      swap1\n      tag_34\n      jump\t// in\n    tag_79:\n      mload(0x40)\n      dup1\n      swap2\n      sub\n      swap1\n      return\n        /* \"contracts/LiskSupplyChain.sol\":1066:1098  uint256 public  productCount = 0 */\n    tag_16:\n      tag_80\n      tag_81\n      jump\t// in\n    tag_80:\n      mload(0x40)\n      tag_82\n      swap2\n      swap1\n      tag_24\n      jump\t// in\n    tag_82:\n      mload(0x40)\n      dup1\n      swap2\n      sub\n      swap1\n      return\n        /* \"contracts/LiskSupplyChain.sol\":1140:1181  address public  ProductOwner = msg.sender */\n    tag_17:\n      tag_83\n      tag_84\n      jump\t// in\n    tag_83:\n      mload(0x40)\n      tag_85\n      swap2\n      swap1\n      tag_86\n      jump\t// in\n    tag_85:\n      mload(0x40)\n      dup1\n      swap2\n      sub\n      swap1\n      return\n        /* \"contracts/LiskSupplyChain.sol\":1105:1133  uint256 public userCount = 0 */\n    tag_22:\n      sload(0x01)\n      dup2\n      jump\t// out\n        /* \"contracts/LiskSupplyChain.sol\":1887:2488  function createProduct(string memory _name, uint16 _price, uint256 _quantity, string memory desc, string memory _from, string memory  _to) public{... */\n    tag_28:\n        /* \"contracts/LiskSupplyChain.sol\":2043:2055  productCount */\n      0x00\n      dup1\n        /* \"contracts/LiskSupplyChain.sol\":2043:2057  productCount++ */\n      dup2\n      sload\n      dup1\n      swap3\n      swap2\n      swap1\n      tag_88\n      swap1\n      tag_89\n      jump\t// in\n    tag_88:\n      swap2\n      swap1\n      pop\n      sstore\n      pop\n        /* \"contracts/LiskSupplyChain.sol\":2093:2417  Product({... */\n      mload(0x40)\n      dup1\n      0x0140\n      add\n      0x40\n      mstore\n      dup1\n        /* \"contracts/LiskSupplyChain.sol\":2120:2132  productCount */\n      sload(0x00)\n        /* \"contracts/LiskSupplyChain.sol\":2093:2417  Product({... */\n      dup2\n      mstore\n      0x20\n      add\n        /* \"contracts/LiskSupplyChain.sol\":2153:2158  _name */\n      dup8\n        /* \"contracts/LiskSupplyChain.sol\":2093:2417  Product({... */\n      dup2\n      mstore\n      0x20\n      add\n        /* \"contracts/LiskSupplyChain.sol\":2180:2190  msg.sender */\n      caller\n        /* \"contracts/LiskSupplyChain.sol\":2093:2417  Product({... */\n      0xffffffffffffffffffffffffffffffffffffffff\n      and\n      dup2\n      mstore\n      0x20\n      add\n        /* \"contracts/LiskSupplyChain.sol\":2212:2218  _price */\n      dup7\n        /* \"contracts/LiskSupplyChain.sol\":2093:2417  Product({... */\n      0xffff\n      and\n      dup2\n      mstore\n      0x20\n      add\n        /* \"contracts/LiskSupplyChain.sol\":2243:2252  _quantity */\n      dup6\n        /* \"contracts/LiskSupplyChain.sol\":2093:2417  Product({... */\n      dup2\n      mstore\n      0x20\n      add\n        /* \"contracts/LiskSupplyChain.sol\":2280:2284  desc */\n      dup5\n        /* \"contracts/LiskSupplyChain.sol\":2093:2417  Product({... */\n      dup2\n      mstore\n      0x20\n      add\n        /* \"contracts/LiskSupplyChain.sol\":2305:2310  _from */\n      dup4\n        /* \"contracts/LiskSupplyChain.sol\":2093:2417  Product({... */\n      dup2\n      mstore\n      0x20\n      add\n        /* \"contracts/LiskSupplyChain.sol\":2329:2332  _to */\n      dup3\n        /* \"contracts/LiskSupplyChain.sol\":2093:2417  Product({... */\n      dup2\n      mstore\n      0x20\n      add\n        /* \"contracts/LiskSupplyChain.sol\":2390:2405  block.timestamp */\n      timestamp\n        /* \"contracts/LiskSupplyChain.sol\":2093:2417  Product({... */\n      dup2\n      mstore\n      0x20\n      add\n        /* \"contracts/LiskSupplyChain.sol\":2355:2369  Status.Created */\n      0x00\n        /* \"contracts/LiskSupplyChain.sol\":2093:2417  Product({... */\n      0x03\n      dup2\n      gt\n      iszero\n      tag_90\n      jumpi\n      tag_91\n      tag_92\n      jump\t// in\n    tag_91:\n    tag_90:\n      dup2\n      mstore\n      pop\n        /* \"contracts/LiskSupplyChain.sol\":2068:2076  products */\n      0x03\n        /* \"contracts/LiskSupplyChain.sol\":2068:2090  products[productCount] */\n      0x00\n        /* \"contracts/LiskSupplyChain.sol\":2077:2089  productCount */\n      dup1\n      sload\n        /* \"contracts/LiskSupplyChain.sol\":2068:2090  products[productCount] */\n      dup2\n      mstore\n      0x20\n      add\n      swap1\n      dup2\n      mstore\n      0x20\n      add\n      0x00\n      keccak256\n        /* \"contracts/LiskSupplyChain.sol\":2068:2417  products[productCount] = Product({... */\n      0x00\n      dup3\n      add\n      mload\n      dup2\n      0x00\n      add\n      sstore\n      0x20\n      dup3\n      add\n      mload\n      dup2\n      0x01\n      add\n      swap1\n      dup2\n      tag_93\n      swap2\n      swap1\n      tag_94\n      jump\t// in\n    tag_93:\n      pop\n      0x40\n      dup3\n      add\n      mload\n      dup2\n      0x02\n      add\n      exp(0x0100, 0x00)\n      dup2\n      sload\n      dup2\n      0xffffffffffffffffffffffffffffffffffffffff\n      mul\n      not\n      and\n      swap1\n      dup4\n      0xffffffffffffffffffffffffffffffffffffffff\n      and\n      mul\n      or\n      swap1\n      sstore\n      pop\n      0x60\n      dup3\n      add\n      mload\n      dup2\n      0x02\n      add\n      exp(0x0100, 0x14)\n      dup2\n      sload\n      dup2\n      0xffff\n      mul\n      not\n      and\n      swap1\n      dup4\n      0xffff\n      and\n      mul\n      or\n      swap1\n      sstore\n      pop\n      0x80\n      dup3\n      add\n      mload\n      dup2\n      0x03\n      add\n      sstore\n      0xa0\n      dup3\n      add\n      mload\n      dup2\n      0x04\n      add\n      swap1\n      dup2\n      tag_95\n      swap2\n      swap1\n      tag_94\n      jump\t// in\n    tag_95:\n      pop\n      0xc0\n      dup3\n      add\n      mload\n      dup2\n      0x05\n      add\n      swap1\n      dup2\n      tag_96\n      swap2\n      swap1\n      tag_94\n      jump\t// in\n    tag_96:\n      pop\n      0xe0\n      dup3\n      add\n      mload\n      dup2\n      0x06\n      add\n      swap1\n      dup2\n      tag_97\n      swap2\n      swap1\n      tag_94\n      jump\t// in\n    tag_97:\n      pop\n      0x0100\n      dup3\n      add\n      mload\n      dup2\n      0x07\n      add\n      sstore\n      0x0120\n      dup3\n      add\n      mload\n      dup2\n      0x08\n      add\n      exp(0x0100, 0x00)\n      dup2\n      sload\n      dup2\n      0xff\n      mul\n      not\n      and\n      swap1\n      dup4\n      0x03\n      dup2\n      gt\n      iszero\n      tag_98\n      jumpi\n      tag_99\n      tag_92\n      jump\t// in\n    tag_99:\n    tag_98:\n      mul\n      or\n      swap1\n      sstore\n      pop\n      swap1\n      pop\n      pop\n        /* \"contracts/LiskSupplyChain.sol\":2433:2480  ProductCreated(productCount, _name, msg.sender) */\n      0xaf6ffb6277511513e7d579327cc1fc57f0266df2fb11a60b13487b8c9cd2c388\n        /* \"contracts/LiskSupplyChain.sol\":2448:2460  productCount */\n      sload(0x00)\n        /* \"contracts/LiskSupplyChain.sol\":2462:2467  _name */\n      dup8\n        /* \"contracts/LiskSupplyChain.sol\":2469:2479  msg.sender */\n      caller\n        /* \"contracts/LiskSupplyChain.sol\":2433:2480  ProductCreated(productCount, _name, msg.sender) */\n      mload(0x40)\n      tag_100\n      swap4\n      swap3\n      swap2\n      swap1\n      tag_101\n      jump\t// in\n    tag_100:\n      mload(0x40)\n      dup1\n      swap2\n      sub\n      swap1\n      log1\n        /* \"contracts/LiskSupplyChain.sol\":1887:2488  function createProduct(string memory _name, uint16 _price, uint256 _quantity, string memory desc, string memory _from, string memory  _to) public{... */\n      pop\n      pop\n      pop\n      pop\n      pop\n      pop\n      jump\t// out\n        /* \"contracts/LiskSupplyChain.sol\":4826:5198  function productStatus(uint256 productId) isProductIdValid(productId) public view returns(string memory){... */\n    tag_32:\n        /* \"contracts/LiskSupplyChain.sol\":4916:4929  string memory */\n      0x60\n        /* \"contracts/LiskSupplyChain.sol\":4885:4894  productId */\n      dup2\n        /* \"contracts/LiskSupplyChain.sol\":1581:1582  0 */\n      0x00\n        /* \"contracts/LiskSupplyChain.sol\":1569:1578  productId */\n      dup2\n        /* \"contracts/LiskSupplyChain.sol\":1569:1582  productId > 0 */\n      gt\n        /* \"contracts/LiskSupplyChain.sol\":1569:1611  productId > 0 && productId <= productCount */\n      dup1\n      iszero\n      tag_103\n      jumpi\n      pop\n        /* \"contracts/LiskSupplyChain.sol\":1599:1611  productCount */\n      sload(0x00)\n        /* \"contracts/LiskSupplyChain.sol\":1586:1595  productId */\n      dup2\n        /* \"contracts/LiskSupplyChain.sol\":1586:1611  productId <= productCount */\n      gt\n      iszero\n        /* \"contracts/LiskSupplyChain.sol\":1569:1611  productId > 0 && productId <= productCount */\n    tag_103:\n        /* \"contracts/LiskSupplyChain.sol\":1561:1641  require(productId > 0 && productId <= productCount, \"Product ID does not exist\") */\n      tag_104\n      jumpi\n      mload(0x40)\n      0x08c379a000000000000000000000000000000000000000000000000000000000\n      dup2\n      mstore\n      0x04\n      add\n      tag_105\n      swap1\n      tag_106\n      jump\t// in\n    tag_105:\n      mload(0x40)\n      dup1\n      swap2\n      sub\n      swap1\n      revert\n    tag_104:\n        /* \"contracts/LiskSupplyChain.sol\":4975:4989  Status.Created */\n      0x00\n        /* \"contracts/LiskSupplyChain.sol\":4945:4989  products[productId].status == Status.Created */\n      0x03\n      dup2\n      gt\n      iszero\n      tag_108\n      jumpi\n      tag_109\n      tag_92\n      jump\t// in\n    tag_109:\n    tag_108:\n        /* \"contracts/LiskSupplyChain.sol\":4945:4953  products */\n      0x03\n        /* \"contracts/LiskSupplyChain.sol\":4945:4964  products[productId] */\n      0x00\n        /* \"contracts/LiskSupplyChain.sol\":4954:4963  productId */\n      dup6\n        /* \"contracts/LiskSupplyChain.sol\":4945:4964  products[productId] */\n      dup2\n      mstore\n      0x20\n      add\n      swap1\n      dup2\n      mstore\n      0x20\n      add\n      0x00\n      keccak256\n        /* \"contracts/LiskSupplyChain.sol\":4945:4971  products[productId].status */\n      0x08\n      add\n      0x00\n      swap1\n      sload\n      swap1\n      0x0100\n      exp\n      swap1\n      div\n      0xff\n      and\n        /* \"contracts/LiskSupplyChain.sol\":4945:4989  products[productId].status == Status.Created */\n      0x03\n      dup2\n      gt\n      iszero\n      tag_110\n      jumpi\n      tag_111\n      tag_92\n      jump\t// in\n    tag_111:\n    tag_110:\n      sub\n        /* \"contracts/LiskSupplyChain.sol\":4941:5007  if (products[productId].status == Status.Created) return \"Created\" */\n      tag_112\n      jumpi\n        /* \"contracts/LiskSupplyChain.sol\":4991:5007  return \"Created\" */\n      mload(0x40)\n      dup1\n      0x40\n      add\n      0x40\n      mstore\n      dup1\n      0x07\n      dup2\n      mstore\n      0x20\n      add\n      0x4372656174656400000000000000000000000000000000000000000000000000\n      dup2\n      mstore\n      pop\n      swap2\n      pop\n      jump(tag_107)\n        /* \"contracts/LiskSupplyChain.sol\":4941:5007  if (products[productId].status == Status.Created) return \"Created\" */\n    tag_112:\n        /* \"contracts/LiskSupplyChain.sol\":5052:5066  Status.Shipped */\n      0x01\n        /* \"contracts/LiskSupplyChain.sol\":5022:5066  products[productId].status == Status.Shipped */\n      0x03\n      dup2\n      gt\n      iszero\n      tag_113\n      jumpi\n      tag_114\n      tag_92\n      jump\t// in\n    tag_114:\n    tag_113:\n        /* \"contracts/LiskSupplyChain.sol\":5022:5030  products */\n      0x03\n        /* \"contracts/LiskSupplyChain.sol\":5022:5041  products[productId] */\n      0x00\n        /* \"contracts/LiskSupplyChain.sol\":5031:5040  productId */\n      dup6\n        /* \"contracts/LiskSupplyChain.sol\":5022:5041  products[productId] */\n      dup2\n      mstore\n      0x20\n      add\n      swap1\n      dup2\n      mstore\n      0x20\n      add\n      0x00\n      keccak256\n        /* \"contracts/LiskSupplyChain.sol\":5022:5048  products[productId].status */\n      0x08\n      add\n      0x00\n      swap1\n      sload\n      swap1\n      0x0100\n      exp\n      swap1\n      div\n      0xff\n      and\n        /* \"contracts/LiskSupplyChain.sol\":5022:5066  products[productId].status == Status.Shipped */\n      0x03\n      dup2\n      gt\n      iszero\n      tag_115\n      jumpi\n      tag_116\n      tag_92\n      jump\t// in\n    tag_116:\n    tag_115:\n      sub\n        /* \"contracts/LiskSupplyChain.sol\":5018:5084  if (products[productId].status == Status.Shipped) return \"Shipped\" */\n      tag_117\n      jumpi\n        /* \"contracts/LiskSupplyChain.sol\":5068:5084  return \"Shipped\" */\n      mload(0x40)\n      dup1\n      0x40\n      add\n      0x40\n      mstore\n      dup1\n      0x07\n      dup2\n      mstore\n      0x20\n      add\n      0x5368697070656400000000000000000000000000000000000000000000000000\n      dup2\n      mstore\n      pop\n      swap2\n      pop\n      jump(tag_107)\n        /* \"contracts/LiskSupplyChain.sol\":5018:5084  if (products[productId].status == Status.Shipped) return \"Shipped\" */\n    tag_117:\n        /* \"contracts/LiskSupplyChain.sol\":5129:5144  Status.Received */\n      0x02\n        /* \"contracts/LiskSupplyChain.sol\":5099:5144  products[productId].status == Status.Received */\n      0x03\n      dup2\n      gt\n      iszero\n      tag_118\n      jumpi\n      tag_119\n      tag_92\n      jump\t// in\n    tag_119:\n    tag_118:\n        /* \"contracts/LiskSupplyChain.sol\":5099:5107  products */\n      0x03\n        /* \"contracts/LiskSupplyChain.sol\":5099:5118  products[productId] */\n      0x00\n        /* \"contracts/LiskSupplyChain.sol\":5108:5117  productId */\n      dup6\n        /* \"contracts/LiskSupplyChain.sol\":5099:5118  products[productId] */\n      dup2\n      mstore\n      0x20\n      add\n      swap1\n      dup2\n      mstore\n      0x20\n      add\n      0x00\n      keccak256\n        /* \"contracts/LiskSupplyChain.sol\":5099:5125  products[productId].status */\n      0x08\n      add\n      0x00\n      swap1\n      sload\n      swap1\n      0x0100\n      exp\n      swap1\n      div\n      0xff\n      and\n        /* \"contracts/LiskSupplyChain.sol\":5099:5144  products[productId].status == Status.Received */\n      0x03\n      dup2\n      gt\n      iszero\n      tag_120\n      jumpi\n      tag_121\n      tag_92\n      jump\t// in\n    tag_121:\n    tag_120:\n      sub\n        /* \"contracts/LiskSupplyChain.sol\":5095:5163  if (products[productId].status == Status.Received) return \"Received\" */\n      tag_122\n      jumpi\n        /* \"contracts/LiskSupplyChain.sol\":5146:5163  return \"Received\" */\n      mload(0x40)\n      dup1\n      0x40\n      add\n      0x40\n      mstore\n      dup1\n      0x08\n      dup2\n      mstore\n      0x20\n      add\n      0x5265636569766564000000000000000000000000000000000000000000000000\n      dup2\n      mstore\n      pop\n      swap2\n      pop\n      jump(tag_107)\n        /* \"contracts/LiskSupplyChain.sol\":5095:5163  if (products[productId].status == Status.Received) return \"Received\" */\n    tag_122:\n        /* \"contracts/LiskSupplyChain.sol\":5174:5190  return \"Unknown\" */\n      mload(0x40)\n      dup1\n      0x40\n      add\n      0x40\n      mstore\n      dup1\n      0x07\n      dup2\n      mstore\n      0x20\n      add\n      0x556e6b6e6f776e00000000000000000000000000000000000000000000000000\n      dup2\n      mstore\n      pop\n      swap2\n      pop\n        /* \"contracts/LiskSupplyChain.sol\":1652:1653  _ */\n    tag_107:\n        /* \"contracts/LiskSupplyChain.sol\":4826:5198  function productStatus(uint256 productId) isProductIdValid(productId) public view returns(string memory){... */\n      pop\n      swap2\n      swap1\n      pop\n      jump\t// out\n        /* \"contracts/LiskSupplyChain.sol\":1240:1278  mapping (uint256 => User) public users */\n    tag_37:\n      mstore(0x20, 0x04)\n      dup1\n      0x00\n      mstore\n      keccak256(0x00, 0x40)\n      0x00\n      swap2\n      pop\n      swap1\n      pop\n      dup1\n      0x00\n      add\n      sload\n      swap1\n      dup1\n      0x01\n      add\n      dup1\n      sload\n      tag_123\n      swap1\n      tag_124\n      jump\t// in\n    tag_123:\n      dup1\n      0x1f\n      add\n      0x20\n      dup1\n      swap2\n      div\n      mul\n      0x20\n      add\n      mload(0x40)\n      swap1\n      dup2\n      add\n      0x40\n      mstore\n      dup1\n      swap3\n      swap2\n      swap1\n      dup2\n      dup2\n      mstore\n      0x20\n      add\n      dup3\n      dup1\n      sload\n      tag_125\n      swap1\n      tag_124\n      jump\t// in\n    tag_125:\n      dup1\n      iszero\n      tag_126\n      jumpi\n      dup1\n      0x1f\n      lt\n      tag_127\n      jumpi\n      0x0100\n      dup1\n      dup4\n      sload\n      div\n      mul\n      dup4\n      mstore\n      swap2\n      0x20\n      add\n      swap2\n      jump(tag_126)\n    tag_127:\n      dup3\n      add\n      swap2\n      swap1\n      0x00\n      mstore\n      keccak256(0x00, 0x20)\n      swap1\n    tag_128:\n      dup2\n      sload\n      dup2\n      mstore\n      swap1\n      0x01\n      add\n      swap1\n      0x20\n      add\n      dup1\n      dup4\n      gt\n      tag_128\n      jumpi\n      dup3\n      swap1\n      sub\n      0x1f\n      and\n      dup3\n      add\n      swap2\n    tag_126:\n      pop\n      pop\n      pop\n      pop\n      pop\n      swap1\n      dup1\n      0x02\n      add\n      0x00\n      swap1\n      sload\n      swap1\n      0x0100\n      exp\n      swap1\n      div\n      0xffffffffffffffffffffffffffffffffffffffff\n      and\n      swap1\n      dup1\n      0x03\n      add\n      dup1\n      sload\n      tag_129\n      swap1\n      tag_124\n      jump\t// in\n    tag_129:\n      dup1\n      0x1f\n      add\n      0x20\n      dup1\n      swap2\n      div\n      mul\n      0x20\n      add\n      mload(0x40)\n      swap1\n      dup2\n      add\n      0x40\n      mstore\n      dup1\n      swap3\n      swap2\n      swap1\n      dup2\n      dup2\n      mstore\n      0x20\n      add\n      dup3\n      dup1\n      sload\n      tag_130\n      swap1\n      tag_124\n      jump\t// in\n    tag_130:\n      dup1\n      iszero\n      tag_131\n      jumpi\n      dup1\n      0x1f\n      lt\n      tag_132\n      jumpi\n      0x0100\n      dup1\n      dup4\n      sload\n      div\n      mul\n      dup4\n      mstore\n      swap2\n      0x20\n      add\n      swap2\n      jump(tag_131)\n    tag_132:\n      dup3\n      add\n      swap2\n      swap1\n      0x00\n      mstore\n      keccak256(0x00, 0x20)\n      swap1\n    tag_133:\n      dup2\n      sload\n      dup2\n      mstore\n      swap1\n      0x01\n      add\n      swap1\n      0x20\n      add\n      dup1\n      dup4\n      gt\n      tag_133\n      jumpi\n      dup3\n      swap1\n      sub\n      0x1f\n      and\n      dup3\n      add\n      swap2\n    tag_131:\n      pop\n      pop\n      pop\n      pop\n      pop\n      swap1\n      dup1\n      0x04\n      add\n      dup1\n      sload\n      tag_134\n      swap1\n      tag_124\n      jump\t// in\n    tag_134:\n      dup1\n      0x1f\n      add\n      0x20\n      dup1\n      swap2\n      div\n      mul\n      0x20\n      add\n      mload(0x40)\n      swap1\n      dup2\n      add\n      0x40\n      mstore\n      dup1\n      swap3\n      swap2\n      swap1\n      dup2\n      dup2\n      mstore\n      0x20\n      add\n      dup3\n      dup1\n      sload\n      tag_135\n      swap1\n      tag_124\n      jump\t// in\n    tag_135:\n      dup1\n      iszero\n      tag_136\n      jumpi\n      dup1\n      0x1f\n      lt\n      tag_137\n      jumpi\n      0x0100\n      dup1\n      dup4\n      sload\n      div\n      mul\n      dup4\n      mstore\n      swap2\n      0x20\n      add\n      swap2\n      jump(tag_136)\n    tag_137:\n      dup3\n      add\n      swap2\n      swap1\n      0x00\n      mstore\n      keccak256(0x00, 0x20)\n      swap1\n    tag_138:\n      dup2\n      sload\n      dup2\n      mstore\n      swap1\n      0x01\n      add\n      swap1\n      0x20\n      add\n      dup1\n      dup4\n      gt\n      tag_138\n      jumpi\n      dup3\n      swap1\n      sub\n      0x1f\n      and\n      dup3\n      add\n      swap2\n    tag_136:\n      pop\n      pop\n      pop\n      pop\n      pop\n      swap1\n      dup1\n      0x05\n      add\n      sload\n      swap1\n      dup1\n      0x06\n      add\n      0x00\n      swap1\n      sload\n      swap1\n      0x0100\n      exp\n      swap1\n      div\n      0xff\n      and\n      swap1\n      pop\n      dup8\n      jump\t// out\n        /* \"contracts/LiskSupplyChain.sol\":2787:2939  function productDetails(uint _productId) isProductIdValid(_productId) public view returns (Product memory){... */\n    tag_42:\n        /* \"contracts/LiskSupplyChain.sol\":2878:2892  Product memory */\n      tag_139\n      tag_140\n      jump\t// in\n    tag_139:\n        /* \"contracts/LiskSupplyChain.sol\":2845:2855  _productId */\n      dup2\n        /* \"contracts/LiskSupplyChain.sol\":1581:1582  0 */\n      0x00\n        /* \"contracts/LiskSupplyChain.sol\":1569:1578  productId */\n      dup2\n        /* \"contracts/LiskSupplyChain.sol\":1569:1582  productId > 0 */\n      gt\n        /* \"contracts/LiskSupplyChain.sol\":1569:1611  productId > 0 && productId <= productCount */\n      dup1\n      iszero\n      tag_142\n      jumpi\n      pop\n        /* \"contracts/LiskSupplyChain.sol\":1599:1611  productCount */\n      sload(0x00)\n        /* \"contracts/LiskSupplyChain.sol\":1586:1595  productId */\n      dup2\n        /* \"contracts/LiskSupplyChain.sol\":1586:1611  productId <= productCount */\n      gt\n      iszero\n        /* \"contracts/LiskSupplyChain.sol\":1569:1611  productId > 0 && productId <= productCount */\n    tag_142:\n        /* \"contracts/LiskSupplyChain.sol\":1561:1641  require(productId > 0 && productId <= productCount, \"Product ID does not exist\") */\n      tag_143\n      jumpi\n      mload(0x40)\n      0x08c379a000000000000000000000000000000000000000000000000000000000\n      dup2\n      mstore\n      0x04\n      add\n      tag_144\n      swap1\n      tag_106\n      jump\t// in\n    tag_144:\n      mload(0x40)\n      dup1\n      swap2\n      sub\n      swap1\n      revert\n    tag_143:\n        /* \"contracts/LiskSupplyChain.sol\":2911:2919  products */\n      0x03\n        /* \"contracts/LiskSupplyChain.sol\":2911:2931  products[_productId] */\n      0x00\n        /* \"contracts/LiskSupplyChain.sol\":2920:2930  _productId */\n      dup5\n        /* \"contracts/LiskSupplyChain.sol\":2911:2931  products[_productId] */\n      dup2\n      mstore\n      0x20\n      add\n      swap1\n      dup2\n      mstore\n      0x20\n      add\n      0x00\n      keccak256\n        /* \"contracts/LiskSupplyChain.sol\":2904:2931  return products[_productId] */\n      mload(0x40)\n      dup1\n      0x0140\n      add\n      0x40\n      mstore\n      swap1\n      dup2\n      0x00\n      dup3\n      add\n      sload\n      dup2\n      mstore\n      0x20\n      add\n      0x01\n      dup3\n      add\n      dup1\n      sload\n      tag_146\n      swap1\n      tag_124\n      jump\t// in\n    tag_146:\n      dup1\n      0x1f\n      add\n      0x20\n      dup1\n      swap2\n      div\n      mul\n      0x20\n      add\n      mload(0x40)\n      swap1\n      dup2\n      add\n      0x40\n      mstore\n      dup1\n      swap3\n      swap2\n      swap1\n      dup2\n      dup2\n      mstore\n      0x20\n      add\n      dup3\n      dup1\n      sload\n      tag_147\n      swap1\n      tag_124\n      jump\t// in\n    tag_147:\n      dup1\n      iszero\n      tag_148\n      jumpi\n      dup1\n      0x1f\n      lt\n      tag_149\n      jumpi\n      0x0100\n      dup1\n      dup4\n      sload\n      div\n      mul\n      dup4\n      mstore\n      swap2\n      0x20\n      add\n      swap2\n      jump(tag_148)\n    tag_149:\n      dup3\n      add\n      swap2\n      swap1\n      0x00\n      mstore\n      keccak256(0x00, 0x20)\n      swap1\n    tag_150:\n      dup2\n      sload\n      dup2\n      mstore\n      swap1\n      0x01\n      add\n      swap1\n      0x20\n      add\n      dup1\n      dup4\n      gt\n      tag_150\n      jumpi\n      dup3\n      swap1\n      sub\n      0x1f\n      and\n      dup3\n      add\n      swap2\n    tag_148:\n      pop\n      pop\n      pop\n      pop\n      pop\n      dup2\n      mstore\n      0x20\n      add\n      0x02\n      dup3\n      add\n      0x00\n      swap1\n      sload\n      swap1\n      0x0100\n      exp\n      swap1\n      div\n      0xffffffffffffffffffffffffffffffffffffffff\n      and\n      0xffffffffffffffffffffffffffffffffffffffff\n      and\n      0xffffffffffffffffffffffffffffffffffffffff\n      and\n      dup2\n      mstore\n      0x20\n      add\n      0x02\n      dup3\n      add\n      0x14\n      swap1\n      sload\n      swap1\n      0x0100\n      exp\n      swap1\n      div\n      0xffff\n      and\n      0xffff\n      and\n      0xffff\n      and\n      dup2\n      mstore\n      0x20\n      add\n      0x03\n      dup3\n      add\n      sload\n      dup2\n      mstore\n      0x20\n      add\n      0x04\n      dup3\n      add\n      dup1\n      sload\n      tag_151\n      swap1\n      tag_124\n      jump\t// in\n    tag_151:\n      dup1\n      0x1f\n      add\n      0x20\n      dup1\n      swap2\n      div\n      mul\n      0x20\n      add\n      mload(0x40)\n      swap1\n      dup2\n      add\n      0x40\n      mstore\n      dup1\n      swap3\n      swap2\n      swap1\n      dup2\n      dup2\n      mstore\n      0x20\n      add\n      dup3\n      dup1\n      sload\n      tag_152\n      swap1\n      tag_124\n      jump\t// in\n    tag_152:\n      dup1\n      iszero\n      tag_153\n      jumpi\n      dup1\n      0x1f\n      lt\n      tag_154\n      jumpi\n      0x0100\n      dup1\n      dup4\n      sload\n      div\n      mul\n      dup4\n      mstore\n      swap2\n      0x20\n      add\n      swap2\n      jump(tag_153)\n    tag_154:\n      dup3\n      add\n      swap2\n      swap1\n      0x00\n      mstore\n      keccak256(0x00, 0x20)\n      swap1\n    tag_155:\n      dup2\n      sload\n      dup2\n      mstore\n      swap1\n      0x01\n      add\n      swap1\n      0x20\n      add\n      dup1\n      dup4\n      gt\n      tag_155\n      jumpi\n      dup3\n      swap1\n      sub\n      0x1f\n      and\n      dup3\n      add\n      swap2\n    tag_153:\n      pop\n      pop\n      pop\n      pop\n      pop\n      dup2\n      mstore\n      0x20\n      add\n      0x05\n      dup3\n      add\n      dup1\n      sload\n      tag_156\n      swap1\n      tag_124\n      jump\t// in\n    tag_156:\n      dup1\n      0x1f\n      add\n      0x20\n      dup1\n      swap2\n      div\n      mul\n      0x20\n      add\n      mload(0x40)\n      swap1\n      dup2\n      add\n      0x40\n      mstore\n      dup1\n      swap3\n      swap2\n      swap1\n      dup2\n      dup2\n      mstore\n      0x20\n      add\n      dup3\n      dup1\n      sload\n      tag_157\n      swap1\n      tag_124\n      jump\t// in\n    tag_157:\n      dup1\n      iszero\n      tag_158\n      jumpi\n      dup1\n      0x1f\n      lt\n      tag_159\n      jumpi\n      0x0100\n      dup1\n      dup4\n      sload\n      div\n      mul\n      dup4\n      mstore\n      swap2\n      0x20\n      add\n      swap2\n      jump(tag_158)\n    tag_159:\n      dup3\n      add\n      swap2\n      swap1\n      0x00\n      mstore\n      keccak256(0x00, 0x20)\n      swap1\n    tag_160:\n      dup2\n      sload\n      dup2\n      mstore\n      swap1\n      0x01\n      add\n      swap1\n      0x20\n      add\n      dup1\n      dup4\n      gt\n      tag_160\n      jumpi\n      dup3\n      swap1\n      sub\n      0x1f\n      and\n      dup3\n      add\n      swap2\n    tag_158:\n      pop\n      pop\n      pop\n      pop\n      pop\n      dup2\n      mstore\n      0x20\n      add\n      0x06\n      dup3\n      add\n      dup1\n      sload\n      tag_161\n      swap1\n      tag_124\n      jump\t// in\n    tag_161:\n      dup1\n      0x1f\n      add\n      0x20\n      dup1\n      swap2\n      div\n      mul\n      0x20\n      add\n      mload(0x40)\n      swap1\n      dup2\n      add\n      0x40\n      mstore\n      dup1\n      swap3\n      swap2\n      swap1\n      dup2\n      dup2\n      mstore\n      0x20\n      add\n      dup3\n      dup1\n      sload\n      tag_162\n      swap1\n      tag_124\n      jump\t// in\n    tag_162:\n      dup1\n      iszero\n      tag_163\n      jumpi\n      dup1\n      0x1f\n      lt\n      tag_164\n      jumpi\n      0x0100\n      dup1\n      dup4\n      sload\n      div\n      mul\n      dup4\n      mstore\n      swap2\n      0x20\n      add\n      swap2\n      jump(tag_163)\n    tag_164:\n      dup3\n      add\n      swap2\n      swap1\n      0x00\n      mstore\n      keccak256(0x00, 0x20)\n      swap1\n    tag_165:\n      dup2\n      sload\n      dup2\n      mstore\n      swap1\n      0x01\n      add\n      swap1\n      0x20\n      add\n      dup1\n      dup4\n      gt\n      tag_165\n      jumpi\n      dup3\n      swap1\n      sub\n      0x1f\n      and\n      dup3\n      add\n      swap2\n    tag_163:\n      pop\n      pop\n      pop\n      pop\n      pop\n      dup2\n      mstore\n      0x20\n      add\n      0x07\n      dup3\n      add\n      sload\n      dup2\n      mstore\n      0x20\n      add\n      0x08\n      dup3\n      add\n      0x00\n      swap1\n      sload\n      swap1\n      0x0100\n      exp\n      swap1\n      div\n      0xff\n      and\n      0x03\n      dup2\n      gt\n      iszero\n      tag_166\n      jumpi\n      tag_167\n      tag_92\n      jump\t// in\n    tag_167:\n    tag_166:\n      0x03\n      dup2\n      gt\n      iszero\n      tag_168\n      jumpi\n      tag_169\n      tag_92\n      jump\t// in\n    tag_169:\n    tag_168:\n      dup2\n      mstore\n      pop\n      pop\n      swap2\n      pop\n        /* \"contracts/LiskSupplyChain.sol\":2787:2939  function productDetails(uint _productId) isProductIdValid(_productId) public view returns (Product memory){... */\n      pop\n      swap2\n      swap1\n      pop\n      jump\t// out\n        /* \"contracts/LiskSupplyChain.sol\":3526:3929  function createCustomer(string memory name, string memory location, string memory desc, Roles _role) public {... */\n    tag_48:\n        /* \"contracts/LiskSupplyChain.sol\":3645:3654  userCount */\n      0x01\n      0x00\n        /* \"contracts/LiskSupplyChain.sol\":3645:3656  userCount++ */\n      dup2\n      sload\n      dup1\n      swap3\n      swap2\n      swap1\n      tag_171\n      swap1\n      tag_89\n      jump\t// in\n    tag_171:\n      swap2\n      swap1\n      pop\n      sstore\n      pop\n        /* \"contracts/LiskSupplyChain.sol\":3686:3921  User({... */\n      mload(0x40)\n      dup1\n      0xe0\n      add\n      0x40\n      mstore\n      dup1\n        /* \"contracts/LiskSupplyChain.sol\":3710:3719  userCount */\n      sload(0x01)\n        /* \"contracts/LiskSupplyChain.sol\":3686:3921  User({... */\n      dup2\n      mstore\n      0x20\n      add\n        /* \"contracts/LiskSupplyChain.sol\":3740:3744  name */\n      dup6\n        /* \"contracts/LiskSupplyChain.sol\":3686:3921  User({... */\n      dup2\n      mstore\n      0x20\n      add\n        /* \"contracts/LiskSupplyChain.sol\":3772:3782  msg.sender */\n      caller\n        /* \"contracts/LiskSupplyChain.sol\":3686:3921  User({... */\n      0xffffffffffffffffffffffffffffffffffffffff\n      and\n      dup2\n      mstore\n      0x20\n      add\n        /* \"contracts/LiskSupplyChain.sol\":3807:3815  location */\n      dup5\n        /* \"contracts/LiskSupplyChain.sol\":3686:3921  User({... */\n      dup2\n      mstore\n      0x20\n      add\n        /* \"contracts/LiskSupplyChain.sol\":3843:3847  desc */\n      dup4\n        /* \"contracts/LiskSupplyChain.sol\":3686:3921  User({... */\n      dup2\n      mstore\n      0x20\n      add\n        /* \"contracts/LiskSupplyChain.sol\":3868:3883  block.timestamp */\n      timestamp\n        /* \"contracts/LiskSupplyChain.sol\":3686:3921  User({... */\n      dup2\n      mstore\n      0x20\n      add\n        /* \"contracts/LiskSupplyChain.sol\":3904:3909  _role */\n      dup3\n        /* \"contracts/LiskSupplyChain.sol\":3686:3921  User({... */\n      0x03\n      dup2\n      gt\n      iszero\n      tag_172\n      jumpi\n      tag_173\n      tag_92\n      jump\t// in\n    tag_173:\n    tag_172:\n      dup2\n      mstore\n      pop\n        /* \"contracts/LiskSupplyChain.sol\":3667:3672  users */\n      0x04\n        /* \"contracts/LiskSupplyChain.sol\":3667:3683  users[userCount] */\n      0x00\n        /* \"contracts/LiskSupplyChain.sol\":3673:3682  userCount */\n      sload(0x01)\n        /* \"contracts/LiskSupplyChain.sol\":3667:3683  users[userCount] */\n      dup2\n      mstore\n      0x20\n      add\n      swap1\n      dup2\n      mstore\n      0x20\n      add\n      0x00\n      keccak256\n        /* \"contracts/LiskSupplyChain.sol\":3667:3921  users[userCount] = User({... */\n      0x00\n      dup3\n      add\n      mload\n      dup2\n      0x00\n      add\n      sstore\n      0x20\n      dup3\n      add\n      mload\n      dup2\n      0x01\n      add\n      swap1\n      dup2\n      tag_174\n      swap2\n      swap1\n      tag_94\n      jump\t// in\n    tag_174:\n      pop\n      0x40\n      dup3\n      add\n      mload\n      dup2\n      0x02\n      add\n      exp(0x0100, 0x00)\n      dup2\n      sload\n      dup2\n      0xffffffffffffffffffffffffffffffffffffffff\n      mul\n      not\n      and\n      swap1\n      dup4\n      0xffffffffffffffffffffffffffffffffffffffff\n      and\n      mul\n      or\n      swap1\n      sstore\n      pop\n      0x60\n      dup3\n      add\n      mload\n      dup2\n      0x03\n      add\n      swap1\n      dup2\n      tag_175\n      swap2\n      swap1\n      tag_94\n      jump\t// in\n    tag_175:\n      pop\n      0x80\n      dup3\n      add\n      mload\n      dup2\n      0x04\n      add\n      swap1\n      dup2\n      tag_176\n      swap2\n      swap1\n      tag_94\n      jump\t// in\n    tag_176:\n      pop\n      0xa0\n      dup3\n      add\n      mload\n      dup2\n      0x05\n      add\n      sstore\n      0xc0\n      dup3\n      add\n      mload\n      dup2\n      0x06\n      add\n      exp(0x0100, 0x00)\n      dup2\n      sload\n      dup2\n      0xff\n      mul\n      not\n      and\n      swap1\n      dup4\n      0x03\n      dup2\n      gt\n      iszero\n      tag_177\n      jumpi\n      tag_178\n      tag_92\n      jump\t// in\n    tag_178:\n    tag_177:\n      mul\n      or\n      swap1\n      sstore\n      pop\n      swap1\n      pop\n      pop\n        /* \"contracts/LiskSupplyChain.sol\":3526:3929  function createCustomer(string memory name, string memory location, string memory desc, Roles _role) public {... */\n      pop\n      pop\n      pop\n      pop\n      jump\t// out\n        /* \"contracts/LiskSupplyChain.sol\":1188:1233  mapping (uint256 => Product) public  products */\n    tag_51:\n      mstore(0x20, 0x03)\n      dup1\n      0x00\n      mstore\n      keccak256(0x00, 0x40)\n      0x00\n      swap2\n      pop\n      swap1\n      pop\n      dup1\n      0x00\n      add\n      sload\n      swap1\n      dup1\n      0x01\n      add\n      dup1\n      sload\n      tag_179\n      swap1\n      tag_124\n      jump\t// in\n    tag_179:\n      dup1\n      0x1f\n      add\n      0x20\n      dup1\n      swap2\n      div\n      mul\n      0x20\n      add\n      mload(0x40)\n      swap1\n      dup2\n      add\n      0x40\n      mstore\n      dup1\n      swap3\n      swap2\n      swap1\n      dup2\n      dup2\n      mstore\n      0x20\n      add\n      dup3\n      dup1\n      sload\n      tag_180\n      swap1\n      tag_124\n      jump\t// in\n    tag_180:\n      dup1\n      iszero\n      tag_181\n      jumpi\n      dup1\n      0x1f\n      lt\n      tag_182\n      jumpi\n      0x0100\n      dup1\n      dup4\n      sload\n      div\n      mul\n      dup4\n      mstore\n      swap2\n      0x20\n      add\n      swap2\n      jump(tag_181)\n    tag_182:\n      dup3\n      add\n      swap2\n      swap1\n      0x00\n      mstore\n      keccak256(0x00, 0x20)\n      swap1\n    tag_183:\n      dup2\n      sload\n      dup2\n      mstore\n      swap1\n      0x01\n      add\n      swap1\n      0x20\n      add\n      dup1\n      dup4\n      gt\n      tag_183\n      jumpi\n      dup3\n      swap1\n      sub\n      0x1f\n      and\n      dup3\n      add\n      swap2\n    tag_181:\n      pop\n      pop\n      pop\n      pop\n      pop\n      swap1\n      dup1\n      0x02\n      add\n      0x00\n      swap1\n      sload\n      swap1\n      0x0100\n      exp\n      swap1\n      div\n      0xffffffffffffffffffffffffffffffffffffffff\n      and\n      swap1\n      dup1\n      0x02\n      add\n      0x14\n      swap1\n      sload\n      swap1\n      0x0100\n      exp\n      swap1\n      div\n      0xffff\n      and\n      swap1\n      dup1\n      0x03\n      add\n      sload\n      swap1\n      dup1\n      0x04\n      add\n      dup1\n      sload\n      tag_184\n      swap1\n      tag_124\n      jump\t// in\n    tag_184:\n      dup1\n      0x1f\n      add\n      0x20\n      dup1\n      swap2\n      div\n      mul\n      0x20\n      add\n      mload(0x40)\n      swap1\n      dup2\n      add\n      0x40\n      mstore\n      dup1\n      swap3\n      swap2\n      swap1\n      dup2\n      dup2\n      mstore\n      0x20\n      add\n      dup3\n      dup1\n      sload\n      tag_185\n      swap1\n      tag_124\n      jump\t// in\n    tag_185:\n      dup1\n      iszero\n      tag_186\n      jumpi\n      dup1\n      0x1f\n      lt\n      tag_187\n      jumpi\n      0x0100\n      dup1\n      dup4\n      sload\n      div\n      mul\n      dup4\n      mstore\n      swap2\n      0x20\n      add\n      swap2\n      jump(tag_186)\n    tag_187:\n      dup3\n      add\n      swap2\n      swap1\n      0x00\n      mstore\n      keccak256(0x00, 0x20)\n      swap1\n    tag_188:\n      dup2\n      sload\n      dup2\n      mstore\n      swap1\n      0x01\n      add\n      swap1\n      0x20\n      add\n      dup1\n      dup4\n      gt\n      tag_188\n      jumpi\n      dup3\n      swap1\n      sub\n      0x1f\n      and\n      dup3\n      add\n      swap2\n    tag_186:\n      pop\n      pop\n      pop\n      pop\n      pop\n      swap1\n      dup1\n      0x05\n      add\n      dup1\n      sload\n      tag_189\n      swap1\n      tag_124\n      jump\t// in\n    tag_189:\n      dup1\n      0x1f\n      add\n      0x20\n      dup1\n      swap2\n      div\n      mul\n      0x20\n      add\n      mload(0x40)\n      swap1\n      dup2\n      add\n      0x40\n      mstore\n      dup1\n      swap3\n      swap2\n      swap1\n      dup2\n      dup2\n      mstore\n      0x20\n      add\n      dup3\n      dup1\n      sload\n      tag_190\n      swap1\n      tag_124\n      jump\t// in\n    tag_190:\n      dup1\n      iszero\n      tag_191\n      jumpi\n      dup1\n      0x1f\n      lt\n      tag_192\n      jumpi\n      0x0100\n      dup1\n      dup4\n      sload\n      div\n      mul\n      dup4\n      mstore\n      swap2\n      0x20\n      add\n      swap2\n      jump(tag_191)\n    tag_192:\n      dup3\n      add\n      swap2\n      swap1\n      0x00\n      mstore\n      keccak256(0x00, 0x20)\n      swap1\n    tag_193:\n      dup2\n      sload\n      dup2\n      mstore\n      swap1\n      0x01\n      add\n      swap1\n      0x20\n      add\n      dup1\n      dup4\n      gt\n      tag_193\n      jumpi\n      dup3\n      swap1\n      sub\n      0x1f\n      and\n      dup3\n      add\n      swap2\n    tag_191:\n      pop\n      pop\n      pop\n      pop\n      pop\n      swap1\n      dup1\n      0x06\n      add\n      dup1\n      sload\n      tag_194\n      swap1\n      tag_124\n      jump\t// in\n    tag_194:\n      dup1\n      0x1f\n      add\n      0x20\n      dup1\n      swap2\n      div\n      mul\n      0x20\n      add\n      mload(0x40)\n      swap1\n      dup2\n      add\n      0x40\n      mstore\n      dup1\n      swap3\n      swap2\n      swap1\n      dup2\n      dup2\n      mstore\n      0x20\n      add\n      dup3\n      dup1\n      sload\n      tag_195\n      swap1\n      tag_124\n      jump\t// in\n    tag_195:\n      dup1\n      iszero\n      tag_196\n      jumpi\n      dup1\n      0x1f\n      lt\n      tag_197\n      jumpi\n      0x0100\n      dup1\n      dup4\n      sload\n      div\n      mul\n      dup4\n      mstore\n      swap2\n      0x20\n      add\n      swap2\n      jump(tag_196)\n    tag_197:\n      dup3\n      add\n      swap2\n      swap1\n      0x00\n      mstore\n      keccak256(0x00, 0x20)\n      swap1\n    tag_198:\n      dup2\n      sload\n      dup2\n      mstore\n      swap1\n      0x01\n      add\n      swap1\n      0x20\n      add\n      dup1\n      dup4\n      gt\n      tag_198\n      jumpi\n      dup3\n      swap1\n      sub\n      0x1f\n      and\n      dup3\n      add\n      swap2\n    tag_196:\n      pop\n      pop\n      pop\n      pop\n      pop\n      swap1\n      dup1\n      0x07\n      add\n      sload\n      swap1\n      dup1\n      0x08\n      add\n      0x00\n      swap1\n      sload\n      swap1\n      0x0100\n      exp\n      swap1\n      div\n      0xff\n      and\n      swap1\n      pop\n      dup11\n      jump\t// out\n        /* \"contracts/LiskSupplyChain.sol\":2986:3299  function changeOwnership(uint productId, address newOwner) public onlyOwner(productId)  isProductIdValid(productId){... */\n    tag_57:\n        /* \"contracts/LiskSupplyChain.sol\":3062:3071  productId */\n      dup2\n        /* \"contracts/LiskSupplyChain.sol\":1409:1419  msg.sender */\n      caller\n        /* \"contracts/LiskSupplyChain.sol\":1379:1419  products[_productId].owner == msg.sender */\n      0xffffffffffffffffffffffffffffffffffffffff\n      and\n        /* \"contracts/LiskSupplyChain.sol\":1379:1387  products */\n      0x03\n        /* \"contracts/LiskSupplyChain.sol\":1379:1399  products[_productId] */\n      0x00\n        /* \"contracts/LiskSupplyChain.sol\":1388:1398  _productId */\n      dup4\n        /* \"contracts/LiskSupplyChain.sol\":1379:1399  products[_productId] */\n      dup2\n      mstore\n      0x20\n      add\n      swap1\n      dup2\n      mstore\n      0x20\n      add\n      0x00\n      keccak256\n        /* \"contracts/LiskSupplyChain.sol\":1379:1405  products[_productId].owner */\n      0x02\n      add\n      0x00\n      swap1\n      sload\n      swap1\n      0x0100\n      exp\n      swap1\n      div\n      0xffffffffffffffffffffffffffffffffffffffff\n      and\n        /* \"contracts/LiskSupplyChain.sol\":1379:1419  products[_productId].owner == msg.sender */\n      0xffffffffffffffffffffffffffffffffffffffff\n      and\n      eq\n        /* \"contracts/LiskSupplyChain.sol\":1371:1433  require(products[_productId].owner == msg.sender, \"Not Owner\") */\n      tag_200\n      jumpi\n      mload(0x40)\n      0x08c379a000000000000000000000000000000000000000000000000000000000\n      dup2\n      mstore\n      0x04\n      add\n      tag_201\n      swap1\n      tag_202\n      jump\t// in\n    tag_201:\n      mload(0x40)\n      dup1\n      swap2\n      sub\n      swap1\n      revert\n    tag_200:\n        /* \"contracts/LiskSupplyChain.sol\":3091:3100  productId */\n      dup3\n        /* \"contracts/LiskSupplyChain.sol\":1581:1582  0 */\n      0x00\n        /* \"contracts/LiskSupplyChain.sol\":1569:1578  productId */\n      dup2\n        /* \"contracts/LiskSupplyChain.sol\":1569:1582  productId > 0 */\n      gt\n        /* \"contracts/LiskSupplyChain.sol\":1569:1611  productId > 0 && productId <= productCount */\n      dup1\n      iszero\n      tag_204\n      jumpi\n      pop\n        /* \"contracts/LiskSupplyChain.sol\":1599:1611  productCount */\n      sload(0x00)\n        /* \"contracts/LiskSupplyChain.sol\":1586:1595  productId */\n      dup2\n        /* \"contracts/LiskSupplyChain.sol\":1586:1611  productId <= productCount */\n      gt\n      iszero\n        /* \"contracts/LiskSupplyChain.sol\":1569:1611  productId > 0 && productId <= productCount */\n    tag_204:\n        /* \"contracts/LiskSupplyChain.sol\":1561:1641  require(productId > 0 && productId <= productCount, \"Product ID does not exist\") */\n      tag_205\n      jumpi\n      mload(0x40)\n      0x08c379a000000000000000000000000000000000000000000000000000000000\n      dup2\n      mstore\n      0x04\n      add\n      tag_206\n      swap1\n      tag_106\n      jump\t// in\n    tag_206:\n      mload(0x40)\n      dup1\n      swap2\n      sub\n      swap1\n      revert\n    tag_205:\n        /* \"contracts/LiskSupplyChain.sol\":3132:3142  msg.sender */\n      caller\n        /* \"contracts/LiskSupplyChain.sol\":3120:3142  newOwner == msg.sender */\n      0xffffffffffffffffffffffffffffffffffffffff\n      and\n        /* \"contracts/LiskSupplyChain.sol\":3120:3128  newOwner */\n      dup4\n        /* \"contracts/LiskSupplyChain.sol\":3120:3142  newOwner == msg.sender */\n      0xffffffffffffffffffffffffffffffffffffffff\n      and\n      eq\n        /* \"contracts/LiskSupplyChain.sol\":3112:3185  require(newOwner == msg.sender, \"New Owner can not be the current owner\") */\n      tag_208\n      jumpi\n      mload(0x40)\n      0x08c379a000000000000000000000000000000000000000000000000000000000\n      dup2\n      mstore\n      0x04\n      add\n      tag_209\n      swap1\n      tag_210\n      jump\t// in\n    tag_209:\n      mload(0x40)\n      dup1\n      swap2\n      sub\n      swap1\n      revert\n    tag_208:\n        /* \"contracts/LiskSupplyChain.sol\":3224:3232  newOwner */\n      dup3\n        /* \"contracts/LiskSupplyChain.sol\":3196:3204  products */\n      0x03\n        /* \"contracts/LiskSupplyChain.sol\":3196:3215  products[productId] */\n      0x00\n        /* \"contracts/LiskSupplyChain.sol\":3205:3214  productId */\n      dup7\n        /* \"contracts/LiskSupplyChain.sol\":3196:3215  products[productId] */\n      dup2\n      mstore\n      0x20\n      add\n      swap1\n      dup2\n      mstore\n      0x20\n      add\n      0x00\n      keccak256\n        /* \"contracts/LiskSupplyChain.sol\":3196:3221  products[productId].owner */\n      0x02\n      add\n      0x00\n        /* \"contracts/LiskSupplyChain.sol\":3196:3232  products[productId].owner = newOwner */\n      0x0100\n      exp\n      dup2\n      sload\n      dup2\n      0xffffffffffffffffffffffffffffffffffffffff\n      mul\n      not\n      and\n      swap1\n      dup4\n      0xffffffffffffffffffffffffffffffffffffffff\n      and\n      mul\n      or\n      swap1\n      sstore\n      pop\n        /* \"contracts/LiskSupplyChain.sol\":3250:3291  OwnershipTransferred(productId, newOwner) */\n      0xba8cc72bdfdb4f3e2281c3f17f6be90c470f76dd1106321a2928859835874bc2\n        /* \"contracts/LiskSupplyChain.sol\":3271:3280  productId */\n      dup5\n        /* \"contracts/LiskSupplyChain.sol\":3282:3290  newOwner */\n      dup5\n        /* \"contracts/LiskSupplyChain.sol\":3250:3291  OwnershipTransferred(productId, newOwner) */\n      mload(0x40)\n      tag_211\n      swap3\n      swap2\n      swap1\n      tag_212\n      jump\t// in\n    tag_211:\n      mload(0x40)\n      dup1\n      swap2\n      sub\n      swap1\n      log1\n        /* \"contracts/LiskSupplyChain.sol\":1444:1445  _ */\n      pop\n        /* \"contracts/LiskSupplyChain.sol\":2986:3299  function changeOwnership(uint productId, address newOwner) public onlyOwner(productId)  isProductIdValid(productId){... */\n      pop\n      pop\n      pop\n      jump\t// out\n        /* \"contracts/LiskSupplyChain.sol\":2527:2752  function updateProductStatus(uint productId, Status status) public onlyOwner(productId) isProductIdValid(productId) {... */\n    tag_61:\n        /* \"contracts/LiskSupplyChain.sol\":2604:2613  productId */\n      dup2\n        /* \"contracts/LiskSupplyChain.sol\":1409:1419  msg.sender */\n      caller\n        /* \"contracts/LiskSupplyChain.sol\":1379:1419  products[_productId].owner == msg.sender */\n      0xffffffffffffffffffffffffffffffffffffffff\n      and\n        /* \"contracts/LiskSupplyChain.sol\":1379:1387  products */\n      0x03\n        /* \"contracts/LiskSupplyChain.sol\":1379:1399  products[_productId] */\n      0x00\n        /* \"contracts/LiskSupplyChain.sol\":1388:1398  _productId */\n      dup4\n        /* \"contracts/LiskSupplyChain.sol\":1379:1399  products[_productId] */\n      dup2\n      mstore\n      0x20\n      add\n      swap1\n      dup2\n      mstore\n      0x20\n      add\n      0x00\n      keccak256\n        /* \"contracts/LiskSupplyChain.sol\":1379:1405  products[_productId].owner */\n      0x02\n      add\n      0x00\n      swap1\n      sload\n      swap1\n      0x0100\n      exp\n      swap1\n      div\n      0xffffffffffffffffffffffffffffffffffffffff\n      and\n        /* \"contracts/LiskSupplyChain.sol\":1379:1419  products[_productId].owner == msg.sender */\n      0xffffffffffffffffffffffffffffffffffffffff\n      and\n      eq\n        /* \"contracts/LiskSupplyChain.sol\":1371:1433  require(products[_productId].owner == msg.sender, \"Not Owner\") */\n      tag_214\n      jumpi\n      mload(0x40)\n      0x08c379a000000000000000000000000000000000000000000000000000000000\n      dup2\n      mstore\n      0x04\n      add\n      tag_215\n      swap1\n      tag_202\n      jump\t// in\n    tag_215:\n      mload(0x40)\n      dup1\n      swap2\n      sub\n      swap1\n      revert\n    tag_214:\n        /* \"contracts/LiskSupplyChain.sol\":2632:2641  productId */\n      dup3\n        /* \"contracts/LiskSupplyChain.sol\":1581:1582  0 */\n      0x00\n        /* \"contracts/LiskSupplyChain.sol\":1569:1578  productId */\n      dup2\n        /* \"contracts/LiskSupplyChain.sol\":1569:1582  productId > 0 */\n      gt\n        /* \"contracts/LiskSupplyChain.sol\":1569:1611  productId > 0 && productId <= productCount */\n      dup1\n      iszero\n      tag_217\n      jumpi\n      pop\n        /* \"contracts/LiskSupplyChain.sol\":1599:1611  productCount */\n      sload(0x00)\n        /* \"contracts/LiskSupplyChain.sol\":1586:1595  productId */\n      dup2\n        /* \"contracts/LiskSupplyChain.sol\":1586:1611  productId <= productCount */\n      gt\n      iszero\n        /* \"contracts/LiskSupplyChain.sol\":1569:1611  productId > 0 && productId <= productCount */\n    tag_217:\n        /* \"contracts/LiskSupplyChain.sol\":1561:1641  require(productId > 0 && productId <= productCount, \"Product ID does not exist\") */\n      tag_218\n      jumpi\n      mload(0x40)\n      0x08c379a000000000000000000000000000000000000000000000000000000000\n      dup2\n      mstore\n      0x04\n      add\n      tag_219\n      swap1\n      tag_106\n      jump\t// in\n    tag_219:\n      mload(0x40)\n      dup1\n      swap2\n      sub\n      swap1\n      revert\n    tag_218:\n        /* \"contracts/LiskSupplyChain.sol\":2683:2689  status */\n      dup3\n        /* \"contracts/LiskSupplyChain.sol\":2654:2662  products */\n      0x03\n        /* \"contracts/LiskSupplyChain.sol\":2654:2673  products[productId] */\n      0x00\n        /* \"contracts/LiskSupplyChain.sol\":2663:2672  productId */\n      dup7\n        /* \"contracts/LiskSupplyChain.sol\":2654:2673  products[productId] */\n      dup2\n      mstore\n      0x20\n      add\n      swap1\n      dup2\n      mstore\n      0x20\n      add\n      0x00\n      keccak256\n        /* \"contracts/LiskSupplyChain.sol\":2654:2680  products[productId].status */\n      0x08\n      add\n      0x00\n        /* \"contracts/LiskSupplyChain.sol\":2654:2689  products[productId].status = status */\n      0x0100\n      exp\n      dup2\n      sload\n      dup2\n      0xff\n      mul\n      not\n      and\n      swap1\n      dup4\n      0x03\n      dup2\n      gt\n      iszero\n      tag_221\n      jumpi\n      tag_222\n      tag_92\n      jump\t// in\n    tag_222:\n    tag_221:\n      mul\n      or\n      swap1\n      sstore\n      pop\n        /* \"contracts/LiskSupplyChain.sol\":2705:2744  ProductStatusUpdated(productId, status) */\n      0xb8a3401adfc11253c3aff18e4b48103cec45c852b9afc487c23f32e26746242c\n        /* \"contracts/LiskSupplyChain.sol\":2726:2735  productId */\n      dup5\n        /* \"contracts/LiskSupplyChain.sol\":2737:2743  status */\n      dup5\n        /* \"contracts/LiskSupplyChain.sol\":2705:2744  ProductStatusUpdated(productId, status) */\n      mload(0x40)\n      tag_223\n      swap3\n      swap2\n      swap1\n      tag_224\n      jump\t// in\n    tag_223:\n      mload(0x40)\n      dup1\n      swap2\n      sub\n      swap1\n      log1\n        /* \"contracts/LiskSupplyChain.sol\":1444:1445  _ */\n      pop\n        /* \"contracts/LiskSupplyChain.sol\":2527:2752  function updateProductStatus(uint productId, Status status) public onlyOwner(productId) isProductIdValid(productId) {... */\n      pop\n      pop\n      pop\n      jump\t// out\n        /* \"contracts/LiskSupplyChain.sol\":4131:4221  function getTotalUsers() public view returns (uint256 ){... */\n    tag_63:\n        /* \"contracts/LiskSupplyChain.sol\":4177:4184  uint256 */\n      0x00\n        /* \"contracts/LiskSupplyChain.sol\":4204:4213  userCount */\n      sload(0x01)\n        /* \"contracts/LiskSupplyChain.sol\":4197:4213  return userCount */\n      swap1\n      pop\n        /* \"contracts/LiskSupplyChain.sol\":4131:4221  function getTotalUsers() public view returns (uint256 ){... */\n      swap1\n      jump\t// out\n        /* \"contracts/LiskSupplyChain.sol\":3337:3492  function viewStatus(uint256 productId)  isProductIdValid(productId) public view returns (Status status){... */\n    tag_67:\n        /* \"contracts/LiskSupplyChain.sol\":3426:3439  Status status */\n      0x00\n        /* \"contracts/LiskSupplyChain.sol\":3394:3403  productId */\n      dup2\n        /* \"contracts/LiskSupplyChain.sol\":1581:1582  0 */\n      0x00\n        /* \"contracts/LiskSupplyChain.sol\":1569:1578  productId */\n      dup2\n        /* \"contracts/LiskSupplyChain.sol\":1569:1582  productId > 0 */\n      gt\n        /* \"contracts/LiskSupplyChain.sol\":1569:1611  productId > 0 && productId <= productCount */\n      dup1\n      iszero\n      tag_227\n      jumpi\n      pop\n        /* \"contracts/LiskSupplyChain.sol\":1599:1611  productCount */\n      sload(0x00)\n        /* \"contracts/LiskSupplyChain.sol\":1586:1595  productId */\n      dup2\n        /* \"contracts/LiskSupplyChain.sol\":1586:1611  productId <= productCount */\n      gt\n      iszero\n        /* \"contracts/LiskSupplyChain.sol\":1569:1611  productId > 0 && productId <= productCount */\n    tag_227:\n        /* \"contracts/LiskSupplyChain.sol\":1561:1641  require(productId > 0 && productId <= productCount, \"Product ID does not exist\") */\n      tag_228\n      jumpi\n      mload(0x40)\n      0x08c379a000000000000000000000000000000000000000000000000000000000\n      dup2\n      mstore\n      0x04\n      add\n      tag_229\n      swap1\n      tag_106\n      jump\t// in\n    tag_229:\n      mload(0x40)\n      dup1\n      swap2\n      sub\n      swap1\n      revert\n    tag_228:\n        /* \"contracts/LiskSupplyChain.sol\":3458:3466  products */\n      0x03\n        /* \"contracts/LiskSupplyChain.sol\":3458:3477  products[productId] */\n      0x00\n        /* \"contracts/LiskSupplyChain.sol\":3467:3476  productId */\n      dup5\n        /* \"contracts/LiskSupplyChain.sol\":3458:3477  products[productId] */\n      dup2\n      mstore\n      0x20\n      add\n      swap1\n      dup2\n      mstore\n      0x20\n      add\n      0x00\n      keccak256\n        /* \"contracts/LiskSupplyChain.sol\":3458:3484  products[productId].status */\n      0x08\n      add\n      0x00\n      swap1\n      sload\n      swap1\n      0x0100\n      exp\n      swap1\n      div\n      0xff\n      and\n        /* \"contracts/LiskSupplyChain.sol\":3451:3484  return products[productId].status */\n      swap2\n      pop\n        /* \"contracts/LiskSupplyChain.sol\":3337:3492  function viewStatus(uint256 productId)  isProductIdValid(productId) public view returns (Status status){... */\n      pop\n      swap2\n      swap1\n      pop\n      jump\t// out\n        /* \"contracts/LiskSupplyChain.sol\":3968:4095  function getUser(uint256 userId) isUserIdvalid(userId) public view returns (User memory){... */\n    tag_72:\n        /* \"contracts/LiskSupplyChain.sol\":4044:4055  User memory */\n      tag_231\n      tag_232\n      jump\t// in\n    tag_231:\n        /* \"contracts/LiskSupplyChain.sol\":4015:4021  userId */\n      dup2\n        /* \"contracts/LiskSupplyChain.sol\":1784:1785  0 */\n      0x00\n        /* \"contracts/LiskSupplyChain.sol\":1775:1781  userId */\n      dup2\n        /* \"contracts/LiskSupplyChain.sol\":1775:1785  userId > 0 */\n      gt\n        /* \"contracts/LiskSupplyChain.sol\":1775:1808  userId > 0 && userId <= userCount */\n      dup1\n      iszero\n      tag_234\n      jumpi\n      pop\n        /* \"contracts/LiskSupplyChain.sol\":1799:1808  userCount */\n      sload(0x01)\n        /* \"contracts/LiskSupplyChain.sol\":1789:1795  userId */\n      dup2\n        /* \"contracts/LiskSupplyChain.sol\":1789:1808  userId <= userCount */\n      gt\n      iszero\n        /* \"contracts/LiskSupplyChain.sol\":1775:1808  userId > 0 && userId <= userCount */\n    tag_234:\n        /* \"contracts/LiskSupplyChain.sol\":1767:1835  require(userId > 0 && userId <= userCount, \"User ID does not exist\") */\n      tag_235\n      jumpi\n      mload(0x40)\n      0x08c379a000000000000000000000000000000000000000000000000000000000\n      dup2\n      mstore\n      0x04\n      add\n      tag_236\n      swap1\n      tag_237\n      jump\t// in\n    tag_236:\n      mload(0x40)\n      dup1\n      swap2\n      sub\n      swap1\n      revert\n    tag_235:\n        /* \"contracts/LiskSupplyChain.sol\":4074:4079  users */\n      0x04\n        /* \"contracts/LiskSupplyChain.sol\":4074:4087  users[userId] */\n      0x00\n        /* \"contracts/LiskSupplyChain.sol\":4080:4086  userId */\n      dup5\n        /* \"contracts/LiskSupplyChain.sol\":4074:4087  users[userId] */\n      dup2\n      mstore\n      0x20\n      add\n      swap1\n      dup2\n      mstore\n      0x20\n      add\n      0x00\n      keccak256\n        /* \"contracts/LiskSupplyChain.sol\":4067:4087  return users[userId] */\n      mload(0x40)\n      dup1\n      0xe0\n      add\n      0x40\n      mstore\n      swap1\n      dup2\n      0x00\n      dup3\n      add\n      sload\n      dup2\n      mstore\n      0x20\n      add\n      0x01\n      dup3\n      add\n      dup1\n      sload\n      tag_239\n      swap1\n      tag_124\n      jump\t// in\n    tag_239:\n      dup1\n      0x1f\n      add\n      0x20\n      dup1\n      swap2\n      div\n      mul\n      0x20\n      add\n      mload(0x40)\n      swap1\n      dup2\n      add\n      0x40\n      mstore\n      dup1\n      swap3\n      swap2\n      swap1\n      dup2\n      dup2\n      mstore\n      0x20\n      add\n      dup3\n      dup1\n      sload\n      tag_240\n      swap1\n      tag_124\n      jump\t// in\n    tag_240:\n      dup1\n      iszero\n      tag_241\n      jumpi\n      dup1\n      0x1f\n      lt\n      tag_242\n      jumpi\n      0x0100\n      dup1\n      dup4\n      sload\n      div\n      mul\n      dup4\n      mstore\n      swap2\n      0x20\n      add\n      swap2\n      jump(tag_241)\n    tag_242:\n      dup3\n      add\n      swap2\n      swap1\n      0x00\n      mstore\n      keccak256(0x00, 0x20)\n      swap1\n    tag_243:\n      dup2\n      sload\n      dup2\n      mstore\n      swap1\n      0x01\n      add\n      swap1\n      0x20\n      add\n      dup1\n      dup4\n      gt\n      tag_243\n      jumpi\n      dup3\n      swap1\n      sub\n      0x1f\n      and\n      dup3\n      add\n      swap2\n    tag_241:\n      pop\n      pop\n      pop\n      pop\n      pop\n      dup2\n      mstore\n      0x20\n      add\n      0x02\n      dup3\n      add\n      0x00\n      swap1\n      sload\n      swap1\n      0x0100\n      exp\n      swap1\n      div\n      0xffffffffffffffffffffffffffffffffffffffff\n      and\n      0xffffffffffffffffffffffffffffffffffffffff\n      and\n      0xffffffffffffffffffffffffffffffffffffffff\n      and\n      dup2\n      mstore\n      0x20\n      add\n      0x03\n      dup3\n      add\n      dup1\n      sload\n      tag_244\n      swap1\n      tag_124\n      jump\t// in\n    tag_244:\n      dup1\n      0x1f\n      add\n      0x20\n      dup1\n      swap2\n      div\n      mul\n      0x20\n      add\n      mload(0x40)\n      swap1\n      dup2\n      add\n      0x40\n      mstore\n      dup1\n      swap3\n      swap2\n      swap1\n      dup2\n      dup2\n      mstore\n      0x20\n      add\n      dup3\n      dup1\n      sload\n      tag_245\n      swap1\n      tag_124\n      jump\t// in\n    tag_245:\n      dup1\n      iszero\n      tag_246\n      jumpi\n      dup1\n      0x1f\n      lt\n      tag_247\n      jumpi\n      0x0100\n      dup1\n      dup4\n      sload\n      div\n      mul\n      dup4\n      mstore\n      swap2\n      0x20\n      add\n      swap2\n      jump(tag_246)\n    tag_247:\n      dup3\n      add\n      swap2\n      swap1\n      0x00\n      mstore\n      keccak256(0x00, 0x20)\n      swap1\n    tag_248:\n      dup2\n      sload\n      dup2\n      mstore\n      swap1\n      0x01\n      add\n      swap1\n      0x20\n      add\n      dup1\n      dup4\n      gt\n      tag_248\n      jumpi\n      dup3\n      swap1\n      sub\n      0x1f\n      and\n      dup3\n      add\n      swap2\n    tag_246:\n      pop\n      pop\n      pop\n      pop\n      pop\n      dup2\n      mstore\n      0x20\n      add\n      0x04\n      dup3\n      add\n      dup1\n      sload\n      tag_249\n      swap1\n      tag_124\n      jump\t// in\n    tag_249:\n      dup1\n      0x1f\n      add\n      0x20\n      dup1\n      swap2\n      div\n      mul\n      0x20\n      add\n      mload(0x40)\n      swap1\n      dup2\n      add\n      0x40\n      mstore\n      dup1\n      swap3\n      swap2\n      swap1\n      dup2\n      dup2\n      mstore\n      0x20\n      add\n      dup3\n      dup1\n      sload\n      tag_250\n      swap1\n      tag_124\n      jump\t// in\n    tag_250:\n      dup1\n      iszero\n      tag_251\n      jumpi\n      dup1\n      0x1f\n      lt\n      tag_252\n      jumpi\n      0x0100\n      dup1\n      dup4\n      sload\n      div\n      mul\n      dup4\n      mstore\n      swap2\n      0x20\n      add\n      swap2\n      jump(tag_251)\n    tag_252:\n      dup3\n      add\n      swap2\n      swap1\n      0x00\n      mstore\n      keccak256(0x00, 0x20)\n      swap1\n    tag_253:\n      dup2\n      sload\n      dup2\n      mstore\n      swap1\n      0x01\n      add\n      swap1\n      0x20\n      add\n      dup1\n      dup4\n      gt\n      tag_253\n      jumpi\n      dup3\n      swap1\n      sub\n      0x1f\n      and\n      dup3\n      add\n      swap2\n    tag_251:\n      pop\n      pop\n      pop\n      pop\n      pop\n      dup2\n      mstore\n      0x20\n      add\n      0x05\n      dup3\n      add\n      sload\n      dup2\n      mstore\n      0x20\n      add\n      0x06\n      dup3\n      add\n      0x00\n      swap1\n      sload\n      swap1\n      0x0100\n      exp\n      swap1\n      div\n      0xff\n      and\n      0x03\n      dup2\n      gt\n      iszero\n      tag_254\n      jumpi\n      tag_255\n      tag_92\n      jump\t// in\n    tag_255:\n    tag_254:\n      0x03\n      dup2\n      gt\n      iszero\n      tag_256\n      jumpi\n      tag_257\n      tag_92\n      jump\t// in\n    tag_257:\n    tag_256:\n      dup2\n      mstore\n      pop\n      pop\n      swap2\n      pop\n        /* \"contracts/LiskSupplyChain.sol\":3968:4095  function getUser(uint256 userId) isUserIdvalid(userId) public view returns (User memory){... */\n      pop\n      swap2\n      swap1\n      pop\n      jump\t// out\n        /* \"contracts/LiskSupplyChain.sol\":4484:4818  function checkStatus(Status _status) public pure returns(string memory){... */\n    tag_78:\n        /* \"contracts/LiskSupplyChain.sol\":4541:4554  string memory */\n      0x60\n        /* \"contracts/LiskSupplyChain.sol\":4581:4595  Status.Created */\n      0x00\n        /* \"contracts/LiskSupplyChain.sol\":4570:4595  _status == Status.Created */\n      0x03\n      dup2\n      gt\n      iszero\n      tag_259\n      jumpi\n      tag_260\n      tag_92\n      jump\t// in\n    tag_260:\n    tag_259:\n        /* \"contracts/LiskSupplyChain.sol\":4570:4577  _status */\n      dup3\n        /* \"contracts/LiskSupplyChain.sol\":4570:4595  _status == Status.Created */\n      0x03\n      dup2\n      gt\n      iszero\n      tag_261\n      jumpi\n      tag_262\n      tag_92\n      jump\t// in\n    tag_262:\n    tag_261:\n      sub\n        /* \"contracts/LiskSupplyChain.sol\":4566:4613  if (_status == Status.Created) return \"Created\" */\n      tag_263\n      jumpi\n        /* \"contracts/LiskSupplyChain.sol\":4597:4613  return \"Created\" */\n      mload(0x40)\n      dup1\n      0x40\n      add\n      0x40\n      mstore\n      dup1\n      0x07\n      dup2\n      mstore\n      0x20\n      add\n      0x4372656174656400000000000000000000000000000000000000000000000000\n      dup2\n      mstore\n      pop\n      swap1\n      pop\n      jump(tag_258)\n        /* \"contracts/LiskSupplyChain.sol\":4566:4613  if (_status == Status.Created) return \"Created\" */\n    tag_263:\n        /* \"contracts/LiskSupplyChain.sol\":4639:4653  Status.Shipped */\n      0x01\n        /* \"contracts/LiskSupplyChain.sol\":4628:4653  _status == Status.Shipped */\n      0x03\n      dup2\n      gt\n      iszero\n      tag_264\n      jumpi\n      tag_265\n      tag_92\n      jump\t// in\n    tag_265:\n    tag_264:\n        /* \"contracts/LiskSupplyChain.sol\":4628:4635  _status */\n      dup3\n        /* \"contracts/LiskSupplyChain.sol\":4628:4653  _status == Status.Shipped */\n      0x03\n      dup2\n      gt\n      iszero\n      tag_266\n      jumpi\n      tag_267\n      tag_92\n      jump\t// in\n    tag_267:\n    tag_266:\n      sub\n        /* \"contracts/LiskSupplyChain.sol\":4624:4671  if (_status == Status.Shipped) return \"Shipped\" */\n      tag_268\n      jumpi\n        /* \"contracts/LiskSupplyChain.sol\":4655:4671  return \"Shipped\" */\n      mload(0x40)\n      dup1\n      0x40\n      add\n      0x40\n      mstore\n      dup1\n      0x07\n      dup2\n      mstore\n      0x20\n      add\n      0x5368697070656400000000000000000000000000000000000000000000000000\n      dup2\n      mstore\n      pop\n      swap1\n      pop\n      jump(tag_258)\n        /* \"contracts/LiskSupplyChain.sol\":4624:4671  if (_status == Status.Shipped) return \"Shipped\" */\n    tag_268:\n        /* \"contracts/LiskSupplyChain.sol\":4697:4712  Status.Received */\n      0x02\n        /* \"contracts/LiskSupplyChain.sol\":4686:4712  _status == Status.Received */\n      0x03\n      dup2\n      gt\n      iszero\n      tag_269\n      jumpi\n      tag_270\n      tag_92\n      jump\t// in\n    tag_270:\n    tag_269:\n        /* \"contracts/LiskSupplyChain.sol\":4686:4693  _status */\n      dup3\n        /* \"contracts/LiskSupplyChain.sol\":4686:4712  _status == Status.Received */\n      0x03\n      dup2\n      gt\n      iszero\n      tag_271\n      jumpi\n      tag_272\n      tag_92\n      jump\t// in\n    tag_272:\n    tag_271:\n      sub\n        /* \"contracts/LiskSupplyChain.sol\":4682:4731  if (_status == Status.Received) return \"Received\" */\n      tag_273\n      jumpi\n        /* \"contracts/LiskSupplyChain.sol\":4714:4731  return \"Received\" */\n      mload(0x40)\n      dup1\n      0x40\n      add\n      0x40\n      mstore\n      dup1\n      0x08\n      dup2\n      mstore\n      0x20\n      add\n      0x5265636569766564000000000000000000000000000000000000000000000000\n      dup2\n      mstore\n      pop\n      swap1\n      pop\n      jump(tag_258)\n        /* \"contracts/LiskSupplyChain.sol\":4682:4731  if (_status == Status.Received) return \"Received\" */\n    tag_273:\n        /* \"contracts/LiskSupplyChain.sol\":4757:4768  Status.Sold */\n      0x03\n        /* \"contracts/LiskSupplyChain.sol\":4746:4768  _status == Status.Sold */\n      dup1\n      dup2\n      gt\n      iszero\n      tag_274\n      jumpi\n      tag_275\n      tag_92\n      jump\t// in\n    tag_275:\n    tag_274:\n        /* \"contracts/LiskSupplyChain.sol\":4746:4753  _status */\n      dup3\n        /* \"contracts/LiskSupplyChain.sol\":4746:4768  _status == Status.Sold */\n      0x03\n      dup2\n      gt\n      iszero\n      tag_276\n      jumpi\n      tag_277\n      tag_92\n      jump\t// in\n    tag_277:\n    tag_276:\n      sub\n        /* \"contracts/LiskSupplyChain.sol\":4742:4783  if (_status == Status.Sold) return \"Sold\" */\n      tag_278\n      jumpi\n        /* \"contracts/LiskSupplyChain.sol\":4770:4783  return \"Sold\" */\n      mload(0x40)\n      dup1\n      0x40\n      add\n      0x40\n      mstore\n      dup1\n      0x04\n      dup2\n      mstore\n      0x20\n      add\n      0x536f6c6400000000000000000000000000000000000000000000000000000000\n      dup2\n      mstore\n      pop\n      swap1\n      pop\n      jump(tag_258)\n        /* \"contracts/LiskSupplyChain.sol\":4742:4783  if (_status == Status.Sold) return \"Sold\" */\n    tag_278:\n        /* \"contracts/LiskSupplyChain.sol\":4794:4810  return \"Unknown\" */\n      mload(0x40)\n      dup1\n      0x40\n      add\n      0x40\n      mstore\n      dup1\n      0x07\n      dup2\n      mstore\n      0x20\n      add\n      0x556e6b6e6f776e00000000000000000000000000000000000000000000000000\n      dup2\n      mstore\n      pop\n      swap1\n      pop\n        /* \"contracts/LiskSupplyChain.sol\":4484:4818  function checkStatus(Status _status) public pure returns(string memory){... */\n    tag_258:\n      swap2\n      swap1\n      pop\n      jump\t// out\n        /* \"contracts/LiskSupplyChain.sol\":1066:1098  uint256 public  productCount = 0 */\n    tag_81:\n      sload(0x00)\n      dup2\n      jump\t// out\n        /* \"contracts/LiskSupplyChain.sol\":1140:1181  address public  ProductOwner = msg.sender */\n    tag_84:\n      0x02\n      0x00\n      swap1\n      sload\n      swap1\n      0x0100\n      exp\n      swap1\n      div\n      0xffffffffffffffffffffffffffffffffffffffff\n      and\n      dup2\n      jump\t// out\n    tag_140:\n      mload(0x40)\n      dup1\n      0x0140\n      add\n      0x40\n      mstore\n      dup1\n      0x00\n      dup2\n      mstore\n      0x20\n      add\n      0x60\n      dup2\n      mstore\n      0x20\n      add\n      and(0xffffffffffffffffffffffffffffffffffffffff, 0x00)\n      dup2\n      mstore\n      0x20\n      add\n      and(0xffff, 0x00)\n      dup2\n      mstore\n      0x20\n      add\n      0x00\n      dup2\n      mstore\n      0x20\n      add\n      0x60\n      dup2\n      mstore\n      0x20\n      add\n      0x60\n      dup2\n      mstore\n      0x20\n      add\n      0x60\n      dup2\n      mstore\n      0x20\n      add\n      0x00\n      dup2\n      mstore\n      0x20\n      add\n      0x00\n      0x03\n      dup2\n      gt\n      iszero\n      tag_279\n      jumpi\n      tag_280\n      tag_92\n      jump\t// in\n    tag_280:\n    tag_279:\n      dup2\n      mstore\n      pop\n      swap1\n      jump\t// out\n    tag_232:\n      mload(0x40)\n      dup1\n      0xe0\n      add\n      0x40\n      mstore\n      dup1\n      0x00\n      dup2\n      mstore\n      0x20\n      add\n      0x60\n      dup2\n      mstore\n      0x20\n      add\n      and(0xffffffffffffffffffffffffffffffffffffffff, 0x00)\n      dup2\n      mstore\n      0x20\n      add\n      0x60\n      dup2\n      mstore\n      0x20\n      add\n      0x60\n      dup2\n      mstore\n      0x20\n      add\n      0x00\n      dup2\n      mstore\n      0x20\n      add\n      0x00\n      0x03\n      dup2\n      gt\n      iszero\n      tag_281\n      jumpi\n      tag_282\n      tag_92\n      jump\t// in\n    tag_282:\n    tag_281:\n      dup2\n      mstore\n      pop\n      swap1\n      jump\t// out\n        /* \"#utility.yul\":7:84   */\n    tag_283:\n        /* \"#utility.yul\":44:51   */\n      0x00\n        /* \"#utility.yul\":73:78   */\n      dup2\n        /* \"#utility.yul\":62:78   */\n      swap1\n      pop\n        /* \"#utility.yul\":7:84   */\n      swap2\n      swap1\n      pop\n      jump\t// out\n        /* \"#utility.yul\":90:208   */\n    tag_284:\n        /* \"#utility.yul\":177:201   */\n      tag_362\n        /* \"#utility.yul\":195:200   */\n      dup2\n        /* \"#utility.yul\":177:201   */\n      tag_283\n      jump\t// in\n    tag_362:\n        /* \"#utility.yul\":172:175   */\n      dup3\n        /* \"#utility.yul\":165:202   */\n      mstore\n        /* \"#utility.yul\":90:208   */\n      pop\n      pop\n      jump\t// out\n        /* \"#utility.yul\":214:436   */\n    tag_24:\n        /* \"#utility.yul\":307:311   */\n      0x00\n        /* \"#utility.yul\":345:347   */\n      0x20\n        /* \"#utility.yul\":334:343   */\n      dup3\n        /* \"#utility.yul\":330:348   */\n      add\n        /* \"#utility.yul\":322:348   */\n      swap1\n      pop\n        /* \"#utility.yul\":358:429   */\n      tag_364\n        /* \"#utility.yul\":426:427   */\n      0x00\n        /* \"#utility.yul\":415:424   */\n      dup4\n        /* \"#utility.yul\":411:428   */\n      add\n        /* \"#utility.yul\":402:408   */\n      dup5\n        /* \"#utility.yul\":358:429   */\n      tag_284\n      jump\t// in\n    tag_364:\n        /* \"#utility.yul\":214:436   */\n      swap3\n      swap2\n      pop\n      pop\n      jump\t// out\n        /* \"#utility.yul\":442:517   */\n    tag_285:\n        /* \"#utility.yul\":475:481   */\n      0x00\n        /* \"#utility.yul\":508:510   */\n      0x40\n        /* \"#utility.yul\":502:511   */\n      mload\n        /* \"#utility.yul\":492:511   */\n      swap1\n      pop\n        /* \"#utility.yul\":442:517   */\n      swap1\n      jump\t// out\n        /* \"#utility.yul\":523:640   */\n    tag_286:\n        /* \"#utility.yul\":632:633   */\n      0x00\n        /* \"#utility.yul\":629:630   */\n      dup1\n        /* \"#utility.yul\":622:634   */\n      revert\n        /* \"#utility.yul\":646:763   */\n    tag_287:\n        /* \"#utility.yul\":755:756   */\n      0x00\n        /* \"#utility.yul\":752:753   */\n      dup1\n        /* \"#utility.yul\":745:757   */\n      revert\n        /* \"#utility.yul\":769:886   */\n    tag_288:\n        /* \"#utility.yul\":878:879   */\n      0x00\n        /* \"#utility.yul\":875:876   */\n      dup1\n        /* \"#utility.yul\":868:880   */\n      revert\n        /* \"#utility.yul\":892:1009   */\n    tag_289:\n        /* \"#utility.yul\":1001:1002   */\n      0x00\n        /* \"#utility.yul\":998:999   */\n      dup1\n        /* \"#utility.yul\":991:1003   */\n      revert\n        /* \"#utility.yul\":1015:1117   */\n    tag_290:\n        /* \"#utility.yul\":1056:1062   */\n      0x00\n        /* \"#utility.yul\":1107:1109   */\n      0x1f\n        /* \"#utility.yul\":1103:1110   */\n      not\n        /* \"#utility.yul\":1098:1100   */\n      0x1f\n        /* \"#utility.yul\":1091:1096   */\n      dup4\n        /* \"#utility.yul\":1087:1101   */\n      add\n        /* \"#utility.yul\":1083:1111   */\n      and\n        /* \"#utility.yul\":1073:1111   */\n      swap1\n      pop\n        /* \"#utility.yul\":1015:1117   */\n      swap2\n      swap1\n      pop\n      jump\t// out\n        /* \"#utility.yul\":1123:1303   */\n    tag_291:\n        /* \"#utility.yul\":1171:1248   */\n      0x4e487b7100000000000000000000000000000000000000000000000000000000\n        /* \"#utility.yul\":1168:1169   */\n      0x00\n        /* \"#utility.yul\":1161:1249   */\n      mstore\n        /* \"#utility.yul\":1268:1272   */\n      0x41\n        /* \"#utility.yul\":1265:1266   */\n      0x04\n        /* \"#utility.yul\":1258:1273   */\n      mstore\n        /* \"#utility.yul\":1292:1296   */\n      0x24\n        /* \"#utility.yul\":1289:1290   */\n      0x00\n        /* \"#utility.yul\":1282:1297   */\n      revert\n        /* \"#utility.yul\":1309:1590   */\n    tag_292:\n        /* \"#utility.yul\":1392:1419   */\n      tag_373\n        /* \"#utility.yul\":1414:1418   */\n      dup3\n        /* \"#utility.yul\":1392:1419   */\n      tag_290\n      jump\t// in\n    tag_373:\n        /* \"#utility.yul\":1384:1390   */\n      dup2\n        /* \"#utility.yul\":1380:1420   */\n      add\n        /* \"#utility.yul\":1522:1528   */\n      dup2\n        /* \"#utility.yul\":1510:1520   */\n      dup2\n        /* \"#utility.yul\":1507:1529   */\n      lt\n        /* \"#utility.yul\":1486:1504   */\n      0xffffffffffffffff\n        /* \"#utility.yul\":1474:1484   */\n      dup3\n        /* \"#utility.yul\":1471:1505   */\n      gt\n        /* \"#utility.yul\":1468:1530   */\n      or\n        /* \"#utility.yul\":1465:1553   */\n      iszero\n      tag_374\n      jumpi\n        /* \"#utility.yul\":1533:1551   */\n      tag_375\n      tag_291\n      jump\t// in\n    tag_375:\n        /* \"#utility.yul\":1465:1553   */\n    tag_374:\n        /* \"#utility.yul\":1573:1583   */\n      dup1\n        /* \"#utility.yul\":1569:1571   */\n      0x40\n        /* \"#utility.yul\":1562:1584   */\n      mstore\n        /* \"#utility.yul\":1352:1590   */\n      pop\n        /* \"#utility.yul\":1309:1590   */\n      pop\n      pop\n      jump\t// out\n        /* \"#utility.yul\":1596:1725   */\n    tag_293:\n        /* \"#utility.yul\":1630:1636   */\n      0x00\n        /* \"#utility.yul\":1657:1677   */\n      tag_377\n      tag_285\n      jump\t// in\n    tag_377:\n        /* \"#utility.yul\":1647:1677   */\n      swap1\n      pop\n        /* \"#utility.yul\":1686:1719   */\n      tag_378\n        /* \"#utility.yul\":1714:1718   */\n      dup3\n        /* \"#utility.yul\":1706:1712   */\n      dup3\n        /* \"#utility.yul\":1686:1719   */\n      tag_292\n      jump\t// in\n    tag_378:\n        /* \"#utility.yul\":1596:1725   */\n      swap2\n      swap1\n      pop\n      jump\t// out\n        /* \"#utility.yul\":1731:2039   */\n    tag_294:\n        /* \"#utility.yul\":1793:1797   */\n      0x00\n        /* \"#utility.yul\":1883:1901   */\n      0xffffffffffffffff\n        /* \"#utility.yul\":1875:1881   */\n      dup3\n        /* \"#utility.yul\":1872:1902   */\n      gt\n        /* \"#utility.yul\":1869:1925   */\n      iszero\n      tag_380\n      jumpi\n        /* \"#utility.yul\":1905:1923   */\n      tag_381\n      tag_291\n      jump\t// in\n    tag_381:\n        /* \"#utility.yul\":1869:1925   */\n    tag_380:\n        /* \"#utility.yul\":1943:1972   */\n      tag_382\n        /* \"#utility.yul\":1965:1971   */\n      dup3\n        /* \"#utility.yul\":1943:1972   */\n      tag_290\n      jump\t// in\n    tag_382:\n        /* \"#utility.yul\":1935:1972   */\n      swap1\n      pop\n        /* \"#utility.yul\":2027:2031   */\n      0x20\n        /* \"#utility.yul\":2021:2025   */\n      dup2\n        /* \"#utility.yul\":2017:2032   */\n      add\n        /* \"#utility.yul\":2009:2032   */\n      swap1\n      pop\n        /* \"#utility.yul\":1731:2039   */\n      swap2\n      swap1\n      pop\n      jump\t// out\n        /* \"#utility.yul\":2045:2193   */\n    tag_295:\n        /* \"#utility.yul\":2143:2149   */\n      dup3\n        /* \"#utility.yul\":2138:2141   */\n      dup2\n        /* \"#utility.yul\":2133:2136   */\n      dup4\n        /* \"#utility.yul\":2120:2150   */\n      calldatacopy\n        /* \"#utility.yul\":2184:2185   */\n      0x00\n        /* \"#utility.yul\":2175:2181   */\n      dup4\n        /* \"#utility.yul\":2170:2173   */\n      dup4\n        /* \"#utility.yul\":2166:2182   */\n      add\n        /* \"#utility.yul\":2159:2186   */\n      mstore\n        /* \"#utility.yul\":2045:2193   */\n      pop\n      pop\n      pop\n      jump\t// out\n        /* \"#utility.yul\":2199:2624   */\n    tag_296:\n        /* \"#utility.yul\":2277:2282   */\n      0x00\n        /* \"#utility.yul\":2302:2368   */\n      tag_385\n        /* \"#utility.yul\":2318:2367   */\n      tag_386\n        /* \"#utility.yul\":2360:2366   */\n      dup5\n        /* \"#utility.yul\":2318:2367   */\n      tag_294\n      jump\t// in\n    tag_386:\n        /* \"#utility.yul\":2302:2368   */\n      tag_293\n      jump\t// in\n    tag_385:\n        /* \"#utility.yul\":2293:2368   */\n      swap1\n      pop\n        /* \"#utility.yul\":2391:2397   */\n      dup3\n        /* \"#utility.yul\":2384:2389   */\n      dup2\n        /* \"#utility.yul\":2377:2398   */\n      mstore\n        /* \"#utility.yul\":2429:2433   */\n      0x20\n        /* \"#utility.yul\":2422:2427   */\n      dup2\n        /* \"#utility.yul\":2418:2434   */\n      add\n        /* \"#utility.yul\":2467:2470   */\n      dup5\n        /* \"#utility.yul\":2458:2464   */\n      dup5\n        /* \"#utility.yul\":2453:2456   */\n      dup5\n        /* \"#utility.yul\":2449:2465   */\n      add\n        /* \"#utility.yul\":2446:2471   */\n      gt\n        /* \"#utility.yul\":2443:2555   */\n      iszero\n      tag_387\n      jumpi\n        /* \"#utility.yul\":2474:2553   */\n      tag_388\n      tag_289\n      jump\t// in\n    tag_388:\n        /* \"#utility.yul\":2443:2555   */\n    tag_387:\n        /* \"#utility.yul\":2564:2618   */\n      tag_389\n        /* \"#utility.yul\":2611:2617   */\n      dup5\n        /* \"#utility.yul\":2606:2609   */\n      dup3\n        /* \"#utility.yul\":2601:2604   */\n      dup6\n        /* \"#utility.yul\":2564:2618   */\n      tag_295\n      jump\t// in\n    tag_389:\n        /* \"#utility.yul\":2283:2624   */\n      pop\n        /* \"#utility.yul\":2199:2624   */\n      swap4\n      swap3\n      pop\n      pop\n      pop\n      jump\t// out\n        /* \"#utility.yul\":2644:2984   */\n    tag_297:\n        /* \"#utility.yul\":2700:2705   */\n      0x00\n        /* \"#utility.yul\":2749:2752   */\n      dup3\n        /* \"#utility.yul\":2742:2746   */\n      0x1f\n        /* \"#utility.yul\":2734:2740   */\n      dup4\n        /* \"#utility.yul\":2730:2747   */\n      add\n        /* \"#utility.yul\":2726:2753   */\n      slt\n        /* \"#utility.yul\":2716:2838   */\n      tag_391\n      jumpi\n        /* \"#utility.yul\":2757:2836   */\n      tag_392\n      tag_288\n      jump\t// in\n    tag_392:\n        /* \"#utility.yul\":2716:2838   */\n    tag_391:\n        /* \"#utility.yul\":2874:2880   */\n      dup2\n        /* \"#utility.yul\":2861:2881   */\n      calldataload\n        /* \"#utility.yul\":2899:2978   */\n      tag_393\n        /* \"#utility.yul\":2974:2977   */\n      dup5\n        /* \"#utility.yul\":2966:2972   */\n      dup3\n        /* \"#utility.yul\":2959:2963   */\n      0x20\n        /* \"#utility.yul\":2951:2957   */\n      dup7\n        /* \"#utility.yul\":2947:2964   */\n      add\n        /* \"#utility.yul\":2899:2978   */\n      tag_296\n      jump\t// in\n    tag_393:\n        /* \"#utility.yul\":2890:2978   */\n      swap2\n      pop\n        /* \"#utility.yul\":2706:2984   */\n      pop\n        /* \"#utility.yul\":2644:2984   */\n      swap3\n      swap2\n      pop\n      pop\n      jump\t// out\n        /* \"#utility.yul\":2990:3079   */\n    tag_298:\n        /* \"#utility.yul\":3026:3033   */\n      0x00\n        /* \"#utility.yul\":3066:3072   */\n      0xffff\n        /* \"#utility.yul\":3059:3064   */\n      dup3\n        /* \"#utility.yul\":3055:3073   */\n      and\n        /* \"#utility.yul\":3044:3073   */\n      swap1\n      pop\n        /* \"#utility.yul\":2990:3079   */\n      swap2\n      swap1\n      pop\n      jump\t// out\n        /* \"#utility.yul\":3085:3205   */\n    tag_299:\n        /* \"#utility.yul\":3157:3180   */\n      tag_396\n        /* \"#utility.yul\":3174:3179   */\n      dup2\n        /* \"#utility.yul\":3157:3180   */\n      tag_298\n      jump\t// in\n    tag_396:\n        /* \"#utility.yul\":3150:3155   */\n      dup2\n        /* \"#utility.yul\":3147:3181   */\n      eq\n        /* \"#utility.yul\":3137:3199   */\n      tag_397\n      jumpi\n        /* \"#utility.yul\":3195:3196   */\n      0x00\n        /* \"#utility.yul\":3192:3193   */\n      dup1\n        /* \"#utility.yul\":3185:3197   */\n      revert\n        /* \"#utility.yul\":3137:3199   */\n    tag_397:\n        /* \"#utility.yul\":3085:3205   */\n      pop\n      jump\t// out\n        /* \"#utility.yul\":3211:3348   */\n    tag_300:\n        /* \"#utility.yul\":3256:3261   */\n      0x00\n        /* \"#utility.yul\":3294:3300   */\n      dup2\n        /* \"#utility.yul\":3281:3301   */\n      calldataload\n        /* \"#utility.yul\":3272:3301   */\n      swap1\n      pop\n        /* \"#utility.yul\":3310:3342   */\n      tag_399\n        /* \"#utility.yul\":3336:3341   */\n      dup2\n        /* \"#utility.yul\":3310:3342   */\n      tag_299\n      jump\t// in\n    tag_399:\n        /* \"#utility.yul\":3211:3348   */\n      swap3\n      swap2\n      pop\n      pop\n      jump\t// out\n        /* \"#utility.yul\":3354:3476   */\n    tag_301:\n        /* \"#utility.yul\":3427:3451   */\n      tag_401\n        /* \"#utility.yul\":3445:3450   */\n      dup2\n        /* \"#utility.yul\":3427:3451   */\n      tag_283\n      jump\t// in\n    tag_401:\n        /* \"#utility.yul\":3420:3425   */\n      dup2\n        /* \"#utility.yul\":3417:3452   */\n      eq\n        /* \"#utility.yul\":3407:3470   */\n      tag_402\n      jumpi\n        /* \"#utility.yul\":3466:3467   */\n      0x00\n        /* \"#utility.yul\":3463:3464   */\n      dup1\n        /* \"#utility.yul\":3456:3468   */\n      revert\n        /* \"#utility.yul\":3407:3470   */\n    tag_402:\n        /* \"#utility.yul\":3354:3476   */\n      pop\n      jump\t// out\n        /* \"#utility.yul\":3482:3621   */\n    tag_302:\n        /* \"#utility.yul\":3528:3533   */\n      0x00\n        /* \"#utility.yul\":3566:3572   */\n      dup2\n        /* \"#utility.yul\":3553:3573   */\n      calldataload\n        /* \"#utility.yul\":3544:3573   */\n      swap1\n      pop\n        /* \"#utility.yul\":3582:3615   */\n      tag_404\n        /* \"#utility.yul\":3609:3614   */\n      dup2\n        /* \"#utility.yul\":3582:3615   */\n      tag_301\n      jump\t// in\n    tag_404:\n        /* \"#utility.yul\":3482:3621   */\n      swap3\n      swap2\n      pop\n      pop\n      jump\t// out\n        /* \"#utility.yul\":3627:5402   */\n    tag_27:\n        /* \"#utility.yul\":3770:3776   */\n      0x00\n        /* \"#utility.yul\":3778:3784   */\n      dup1\n        /* \"#utility.yul\":3786:3792   */\n      0x00\n        /* \"#utility.yul\":3794:3800   */\n      dup1\n        /* \"#utility.yul\":3802:3808   */\n      0x00\n        /* \"#utility.yul\":3810:3816   */\n      dup1\n        /* \"#utility.yul\":3859:3862   */\n      0xc0\n        /* \"#utility.yul\":3847:3856   */\n      dup8\n        /* \"#utility.yul\":3838:3845   */\n      dup10\n        /* \"#utility.yul\":3834:3857   */\n      sub\n        /* \"#utility.yul\":3830:3863   */\n      slt\n        /* \"#utility.yul\":3827:3947   */\n      iszero\n      tag_406\n      jumpi\n        /* \"#utility.yul\":3866:3945   */\n      tag_407\n      tag_286\n      jump\t// in\n    tag_407:\n        /* \"#utility.yul\":3827:3947   */\n    tag_406:\n        /* \"#utility.yul\":4014:4015   */\n      0x00\n        /* \"#utility.yul\":4003:4012   */\n      dup8\n        /* \"#utility.yul\":3999:4016   */\n      add\n        /* \"#utility.yul\":3986:4017   */\n      calldataload\n        /* \"#utility.yul\":4044:4062   */\n      0xffffffffffffffff\n        /* \"#utility.yul\":4036:4042   */\n      dup2\n        /* \"#utility.yul\":4033:4063   */\n      gt\n        /* \"#utility.yul\":4030:4147   */\n      iszero\n      tag_408\n      jumpi\n        /* \"#utility.yul\":4066:4145   */\n      tag_409\n      tag_287\n      jump\t// in\n    tag_409:\n        /* \"#utility.yul\":4030:4147   */\n    tag_408:\n        /* \"#utility.yul\":4171:4234   */\n      tag_410\n        /* \"#utility.yul\":4226:4233   */\n      dup10\n        /* \"#utility.yul\":4217:4223   */\n      dup3\n        /* \"#utility.yul\":4206:4215   */\n      dup11\n        /* \"#utility.yul\":4202:4224   */\n      add\n        /* \"#utility.yul\":4171:4234   */\n      tag_297\n      jump\t// in\n    tag_410:\n        /* \"#utility.yul\":4161:4234   */\n      swap7\n      pop\n        /* \"#utility.yul\":3957:4244   */\n      pop\n        /* \"#utility.yul\":4283:4285   */\n      0x20\n        /* \"#utility.yul\":4309:4361   */\n      tag_411\n        /* \"#utility.yul\":4353:4360   */\n      dup10\n        /* \"#utility.yul\":4344:4350   */\n      dup3\n        /* \"#utility.yul\":4333:4342   */\n      dup11\n        /* \"#utility.yul\":4329:4351   */\n      add\n        /* \"#utility.yul\":4309:4361   */\n      tag_300\n      jump\t// in\n    tag_411:\n        /* \"#utility.yul\":4299:4361   */\n      swap6\n      pop\n        /* \"#utility.yul\":4254:4371   */\n      pop\n        /* \"#utility.yul\":4410:4412   */\n      0x40\n        /* \"#utility.yul\":4436:4489   */\n      tag_412\n        /* \"#utility.yul\":4481:4488   */\n      dup10\n        /* \"#utility.yul\":4472:4478   */\n      dup3\n        /* \"#utility.yul\":4461:4470   */\n      dup11\n        /* \"#utility.yul\":4457:4479   */\n      add\n        /* \"#utility.yul\":4436:4489   */\n      tag_302\n      jump\t// in\n    tag_412:\n        /* \"#utility.yul\":4426:4489   */\n      swap5\n      pop\n        /* \"#utility.yul\":4381:4499   */\n      pop\n        /* \"#utility.yul\":4566:4568   */\n      0x60\n        /* \"#utility.yul\":4555:4564   */\n      dup8\n        /* \"#utility.yul\":4551:4569   */\n      add\n        /* \"#utility.yul\":4538:4570   */\n      calldataload\n        /* \"#utility.yul\":4597:4615   */\n      0xffffffffffffffff\n        /* \"#utility.yul\":4589:4595   */\n      dup2\n        /* \"#utility.yul\":4586:4616   */\n      gt\n        /* \"#utility.yul\":4583:4700   */\n      iszero\n      tag_413\n      jumpi\n        /* \"#utility.yul\":4619:4698   */\n      tag_414\n      tag_287\n      jump\t// in\n    tag_414:\n        /* \"#utility.yul\":4583:4700   */\n    tag_413:\n        /* \"#utility.yul\":4724:4787   */\n      tag_415\n        /* \"#utility.yul\":4779:4786   */\n      dup10\n        /* \"#utility.yul\":4770:4776   */\n      dup3\n        /* \"#utility.yul\":4759:4768   */\n      dup11\n        /* \"#utility.yul\":4755:4777   */\n      add\n        /* \"#utility.yul\":4724:4787   */\n      tag_297\n      jump\t// in\n    tag_415:\n        /* \"#utility.yul\":4714:4787   */\n      swap4\n      pop\n        /* \"#utility.yul\":4509:4797   */\n      pop\n        /* \"#utility.yul\":4864:4867   */\n      0x80\n        /* \"#utility.yul\":4853:4862   */\n      dup8\n        /* \"#utility.yul\":4849:4868   */\n      add\n        /* \"#utility.yul\":4836:4869   */\n      calldataload\n        /* \"#utility.yul\":4896:4914   */\n      0xffffffffffffffff\n        /* \"#utility.yul\":4888:4894   */\n      dup2\n        /* \"#utility.yul\":4885:4915   */\n      gt\n        /* \"#utility.yul\":4882:4999   */\n      iszero\n      tag_416\n      jumpi\n        /* \"#utility.yul\":4918:4997   */\n      tag_417\n      tag_287\n      jump\t// in\n    tag_417:\n        /* \"#utility.yul\":4882:4999   */\n    tag_416:\n        /* \"#utility.yul\":5023:5086   */\n      tag_418\n        /* \"#utility.yul\":5078:5085   */\n      dup10\n        /* \"#utility.yul\":5069:5075   */\n      dup3\n        /* \"#utility.yul\":5058:5067   */\n      dup11\n        /* \"#utility.yul\":5054:5076   */\n      add\n        /* \"#utility.yul\":5023:5086   */\n      tag_297\n      jump\t// in\n    tag_418:\n        /* \"#utility.yul\":5013:5086   */\n      swap3\n      pop\n        /* \"#utility.yul\":4807:5096   */\n      pop\n        /* \"#utility.yul\":5163:5166   */\n      0xa0\n        /* \"#utility.yul\":5152:5161   */\n      dup8\n        /* \"#utility.yul\":5148:5167   */\n      add\n        /* \"#utility.yul\":5135:5168   */\n      calldataload\n        /* \"#utility.yul\":5195:5213   */\n      0xffffffffffffffff\n        /* \"#utility.yul\":5187:5193   */\n      dup2\n        /* \"#utility.yul\":5184:5214   */\n      gt\n        /* \"#utility.yul\":5181:5298   */\n      iszero\n      tag_419\n      jumpi\n        /* \"#utility.yul\":5217:5296   */\n      tag_420\n      tag_287\n      jump\t// in\n    tag_420:\n        /* \"#utility.yul\":5181:5298   */\n    tag_419:\n        /* \"#utility.yul\":5322:5385   */\n      tag_421\n        /* \"#utility.yul\":5377:5384   */\n      dup10\n        /* \"#utility.yul\":5368:5374   */\n      dup3\n        /* \"#utility.yul\":5357:5366   */\n      dup11\n        /* \"#utility.yul\":5353:5375   */\n      add\n        /* \"#utility.yul\":5322:5385   */\n      tag_297\n      jump\t// in\n    tag_421:\n        /* \"#utility.yul\":5312:5385   */\n      swap2\n      pop\n        /* \"#utility.yul\":5106:5395   */\n      pop\n        /* \"#utility.yul\":3627:5402   */\n      swap3\n      swap6\n      pop\n      swap3\n      swap6\n      pop\n      swap3\n      swap6\n      jump\t// out\n        /* \"#utility.yul\":5408:5737   */\n    tag_31:\n        /* \"#utility.yul\":5467:5473   */\n      0x00\n        /* \"#utility.yul\":5516:5518   */\n      0x20\n        /* \"#utility.yul\":5504:5513   */\n      dup3\n        /* \"#utility.yul\":5495:5502   */\n      dup5\n        /* \"#utility.yul\":5491:5514   */\n      sub\n        /* \"#utility.yul\":5487:5519   */\n      slt\n        /* \"#utility.yul\":5484:5603   */\n      iszero\n      tag_423\n      jumpi\n        /* \"#utility.yul\":5522:5601   */\n      tag_424\n      tag_286\n      jump\t// in\n    tag_424:\n        /* \"#utility.yul\":5484:5603   */\n    tag_423:\n        /* \"#utility.yul\":5642:5643   */\n      0x00\n        /* \"#utility.yul\":5667:5720   */\n      tag_425\n        /* \"#utility.yul\":5712:5719   */\n      dup5\n        /* \"#utility.yul\":5703:5709   */\n      dup3\n        /* \"#utility.yul\":5692:5701   */\n      dup6\n        /* \"#utility.yul\":5688:5710   */\n      add\n        /* \"#utility.yul\":5667:5720   */\n      tag_302\n      jump\t// in\n    tag_425:\n        /* \"#utility.yul\":5657:5720   */\n      swap2\n      pop\n        /* \"#utility.yul\":5613:5730   */\n      pop\n        /* \"#utility.yul\":5408:5737   */\n      swap3\n      swap2\n      pop\n      pop\n      jump\t// out\n        /* \"#utility.yul\":5743:5842   */\n    tag_303:\n        /* \"#utility.yul\":5795:5801   */\n      0x00\n        /* \"#utility.yul\":5829:5834   */\n      dup2\n        /* \"#utility.yul\":5823:5835   */\n      mload\n        /* \"#utility.yul\":5813:5835   */\n      swap1\n      pop\n        /* \"#utility.yul\":5743:5842   */\n      swap2\n      swap1\n      pop\n      jump\t// out\n        /* \"#utility.yul\":5848:6017   */\n    tag_304:\n        /* \"#utility.yul\":5932:5943   */\n      0x00\n        /* \"#utility.yul\":5966:5972   */\n      dup3\n        /* \"#utility.yul\":5961:5964   */\n      dup3\n        /* \"#utility.yul\":5954:5973   */\n      mstore\n        /* \"#utility.yul\":6006:6010   */\n      0x20\n        /* \"#utility.yul\":6001:6004   */\n      dup3\n        /* \"#utility.yul\":5997:6011   */\n      add\n        /* \"#utility.yul\":5982:6011   */\n      swap1\n      pop\n        /* \"#utility.yul\":5848:6017   */\n      swap3\n      swap2\n      pop\n      pop\n      jump\t// out\n        /* \"#utility.yul\":6023:6162   */\n    tag_305:\n        /* \"#utility.yul\":6112:6118   */\n      dup3\n        /* \"#utility.yul\":6107:6110   */\n      dup2\n        /* \"#utility.yul\":6102:6105   */\n      dup4\n        /* \"#utility.yul\":6096:6119   */\n      mcopy\n        /* \"#utility.yul\":6153:6154   */\n      0x00\n        /* \"#utility.yul\":6144:6150   */\n      dup4\n        /* \"#utility.yul\":6139:6142   */\n      dup4\n        /* \"#utility.yul\":6135:6151   */\n      add\n        /* \"#utility.yul\":6128:6155   */\n      mstore\n        /* \"#utility.yul\":6023:6162   */\n      pop\n      pop\n      pop\n      jump\t// out\n        /* \"#utility.yul\":6168:6545   */\n    tag_306:\n        /* \"#utility.yul\":6256:6259   */\n      0x00\n        /* \"#utility.yul\":6284:6323   */\n      tag_430\n        /* \"#utility.yul\":6317:6322   */\n      dup3\n        /* \"#utility.yul\":6284:6323   */\n      tag_303\n      jump\t// in\n    tag_430:\n        /* \"#utility.yul\":6339:6410   */\n      tag_431\n        /* \"#utility.yul\":6403:6409   */\n      dup2\n        /* \"#utility.yul\":6398:6401   */\n      dup6\n        /* \"#utility.yul\":6339:6410   */\n      tag_304\n      jump\t// in\n    tag_431:\n        /* \"#utility.yul\":6332:6410   */\n      swap4\n      pop\n        /* \"#utility.yul\":6419:6484   */\n      tag_432\n        /* \"#utility.yul\":6477:6483   */\n      dup2\n        /* \"#utility.yul\":6472:6475   */\n      dup6\n        /* \"#utility.yul\":6465:6469   */\n      0x20\n        /* \"#utility.yul\":6458:6463   */\n      dup7\n        /* \"#utility.yul\":6454:6470   */\n      add\n        /* \"#utility.yul\":6419:6484   */\n      tag_305\n      jump\t// in\n    tag_432:\n        /* \"#utility.yul\":6509:6538   */\n      tag_433\n        /* \"#utility.yul\":6531:6537   */\n      dup2\n        /* \"#utility.yul\":6509:6538   */\n      tag_290\n      jump\t// in\n    tag_433:\n        /* \"#utility.yul\":6504:6507   */\n      dup5\n        /* \"#utility.yul\":6500:6539   */\n      add\n        /* \"#utility.yul\":6493:6539   */\n      swap2\n      pop\n        /* \"#utility.yul\":6260:6545   */\n      pop\n        /* \"#utility.yul\":6168:6545   */\n      swap3\n      swap2\n      pop\n      pop\n      jump\t// out\n        /* \"#utility.yul\":6551:6864   */\n    tag_34:\n        /* \"#utility.yul\":6664:6668   */\n      0x00\n        /* \"#utility.yul\":6702:6704   */\n      0x20\n        /* \"#utility.yul\":6691:6700   */\n      dup3\n        /* \"#utility.yul\":6687:6705   */\n      add\n        /* \"#utility.yul\":6679:6705   */\n      swap1\n      pop\n        /* \"#utility.yul\":6751:6760   */\n      dup2\n        /* \"#utility.yul\":6745:6749   */\n      dup2\n        /* \"#utility.yul\":6741:6761   */\n      sub\n        /* \"#utility.yul\":6737:6738   */\n      0x00\n        /* \"#utility.yul\":6726:6735   */\n      dup4\n        /* \"#utility.yul\":6722:6739   */\n      add\n        /* \"#utility.yul\":6715:6762   */\n      mstore\n        /* \"#utility.yul\":6779:6857   */\n      tag_435\n        /* \"#utility.yul\":6852:6856   */\n      dup2\n        /* \"#utility.yul\":6843:6849   */\n      dup5\n        /* \"#utility.yul\":6779:6857   */\n      tag_306\n      jump\t// in\n    tag_435:\n        /* \"#utility.yul\":6771:6857   */\n      swap1\n      pop\n        /* \"#utility.yul\":6551:6864   */\n      swap3\n      swap2\n      pop\n      pop\n      jump\t// out\n        /* \"#utility.yul\":6870:6996   */\n    tag_307:\n        /* \"#utility.yul\":6907:6914   */\n      0x00\n        /* \"#utility.yul\":6947:6989   */\n      0xffffffffffffffffffffffffffffffffffffffff\n        /* \"#utility.yul\":6940:6945   */\n      dup3\n        /* \"#utility.yul\":6936:6990   */\n      and\n        /* \"#utility.yul\":6925:6990   */\n      swap1\n      pop\n        /* \"#utility.yul\":6870:6996   */\n      swap2\n      swap1\n      pop\n      jump\t// out\n        /* \"#utility.yul\":7002:7098   */\n    tag_308:\n        /* \"#utility.yul\":7039:7046   */\n      0x00\n        /* \"#utility.yul\":7068:7092   */\n      tag_438\n        /* \"#utility.yul\":7086:7091   */\n      dup3\n        /* \"#utility.yul\":7068:7092   */\n      tag_307\n      jump\t// in\n    tag_438:\n        /* \"#utility.yul\":7057:7092   */\n      swap1\n      pop\n        /* \"#utility.yul\":7002:7098   */\n      swap2\n      swap1\n      pop\n      jump\t// out\n        /* \"#utility.yul\":7104:7222   */\n    tag_309:\n        /* \"#utility.yul\":7191:7215   */\n      tag_440\n        /* \"#utility.yul\":7209:7214   */\n      dup2\n        /* \"#utility.yul\":7191:7215   */\n      tag_308\n      jump\t// in\n    tag_440:\n        /* \"#utility.yul\":7186:7189   */\n      dup3\n        /* \"#utility.yul\":7179:7216   */\n      mstore\n        /* \"#utility.yul\":7104:7222   */\n      pop\n      pop\n      jump\t// out\n        /* \"#utility.yul\":7228:7408   */\n    tag_92:\n        /* \"#utility.yul\":7276:7353   */\n      0x4e487b7100000000000000000000000000000000000000000000000000000000\n        /* \"#utility.yul\":7273:7274   */\n      0x00\n        /* \"#utility.yul\":7266:7354   */\n      mstore\n        /* \"#utility.yul\":7373:7377   */\n      0x21\n        /* \"#utility.yul\":7370:7371   */\n      0x04\n        /* \"#utility.yul\":7363:7378   */\n      mstore\n        /* \"#utility.yul\":7397:7401   */\n      0x24\n        /* \"#utility.yul\":7394:7395   */\n      0x00\n        /* \"#utility.yul\":7387:7402   */\n      revert\n        /* \"#utility.yul\":7414:7526   */\n    tag_310:\n        /* \"#utility.yul\":7494:7495   */\n      0x04\n        /* \"#utility.yul\":7487:7492   */\n      dup2\n        /* \"#utility.yul\":7484:7496   */\n      lt\n        /* \"#utility.yul\":7474:7520   */\n      tag_443\n      jumpi\n        /* \"#utility.yul\":7500:7518   */\n      tag_444\n      tag_92\n      jump\t// in\n    tag_444:\n        /* \"#utility.yul\":7474:7520   */\n    tag_443:\n        /* \"#utility.yul\":7414:7526   */\n      pop\n      jump\t// out\n        /* \"#utility.yul\":7532:7657   */\n    tag_311:\n        /* \"#utility.yul\":7576:7583   */\n      0x00\n        /* \"#utility.yul\":7605:7610   */\n      dup2\n        /* \"#utility.yul\":7594:7610   */\n      swap1\n      pop\n        /* \"#utility.yul\":7611:7651   */\n      tag_446\n        /* \"#utility.yul\":7645:7650   */\n      dup3\n        /* \"#utility.yul\":7611:7651   */\n      tag_310\n      jump\t// in\n    tag_446:\n        /* \"#utility.yul\":7532:7657   */\n      swap2\n      swap1\n      pop\n      jump\t// out\n        /* \"#utility.yul\":7663:7788   */\n    tag_312:\n        /* \"#utility.yul\":7718:7727   */\n      0x00\n        /* \"#utility.yul\":7751:7782   */\n      tag_448\n        /* \"#utility.yul\":7776:7781   */\n      dup3\n        /* \"#utility.yul\":7751:7782   */\n      tag_311\n      jump\t// in\n    tag_448:\n        /* \"#utility.yul\":7738:7782   */\n      swap1\n      pop\n        /* \"#utility.yul\":7663:7788   */\n      swap2\n      swap1\n      pop\n      jump\t// out\n        /* \"#utility.yul\":7794:7935   */\n    tag_313:\n        /* \"#utility.yul\":7886:7928   */\n      tag_450\n        /* \"#utility.yul\":7922:7927   */\n      dup2\n        /* \"#utility.yul\":7886:7928   */\n      tag_312\n      jump\t// in\n    tag_450:\n        /* \"#utility.yul\":7881:7884   */\n      dup3\n        /* \"#utility.yul\":7874:7929   */\n      mstore\n        /* \"#utility.yul\":7794:7935   */\n      pop\n      pop\n      jump\t// out\n        /* \"#utility.yul\":7941:9110   */\n    tag_39:\n        /* \"#utility.yul\":8267:8271   */\n      0x00\n        /* \"#utility.yul\":8305:8308   */\n      0xe0\n        /* \"#utility.yul\":8294:8303   */\n      dup3\n        /* \"#utility.yul\":8290:8309   */\n      add\n        /* \"#utility.yul\":8282:8309   */\n      swap1\n      pop\n        /* \"#utility.yul\":8319:8390   */\n      tag_452\n        /* \"#utility.yul\":8387:8388   */\n      0x00\n        /* \"#utility.yul\":8376:8385   */\n      dup4\n        /* \"#utility.yul\":8372:8389   */\n      add\n        /* \"#utility.yul\":8363:8369   */\n      dup11\n        /* \"#utility.yul\":8319:8390   */\n      tag_284\n      jump\t// in\n    tag_452:\n        /* \"#utility.yul\":8437:8446   */\n      dup2\n        /* \"#utility.yul\":8431:8435   */\n      dup2\n        /* \"#utility.yul\":8427:8447   */\n      sub\n        /* \"#utility.yul\":8422:8424   */\n      0x20\n        /* \"#utility.yul\":8411:8420   */\n      dup4\n        /* \"#utility.yul\":8407:8425   */\n      add\n        /* \"#utility.yul\":8400:8448   */\n      mstore\n        /* \"#utility.yul\":8465:8543   */\n      tag_453\n        /* \"#utility.yul\":8538:8542   */\n      dup2\n        /* \"#utility.yul\":8529:8535   */\n      dup10\n        /* \"#utility.yul\":8465:8543   */\n      tag_306\n      jump\t// in\n    tag_453:\n        /* \"#utility.yul\":8457:8543   */\n      swap1\n      pop\n        /* \"#utility.yul\":8553:8625   */\n      tag_454\n        /* \"#utility.yul\":8621:8623   */\n      0x40\n        /* \"#utility.yul\":8610:8619   */\n      dup4\n        /* \"#utility.yul\":8606:8624   */\n      add\n        /* \"#utility.yul\":8597:8603   */\n      dup9\n        /* \"#utility.yul\":8553:8625   */\n      tag_309\n      jump\t// in\n    tag_454:\n        /* \"#utility.yul\":8672:8681   */\n      dup2\n        /* \"#utility.yul\":8666:8670   */\n      dup2\n        /* \"#utility.yul\":8662:8682   */\n      sub\n        /* \"#utility.yul\":8657:8659   */\n      0x60\n        /* \"#utility.yul\":8646:8655   */\n      dup4\n        /* \"#utility.yul\":8642:8660   */\n      add\n        /* \"#utility.yul\":8635:8683   */\n      mstore\n        /* \"#utility.yul\":8700:8778   */\n      tag_455\n        /* \"#utility.yul\":8773:8777   */\n      dup2\n        /* \"#utility.yul\":8764:8770   */\n      dup8\n        /* \"#utility.yul\":8700:8778   */\n      tag_306\n      jump\t// in\n    tag_455:\n        /* \"#utility.yul\":8692:8778   */\n      swap1\n      pop\n        /* \"#utility.yul\":8826:8835   */\n      dup2\n        /* \"#utility.yul\":8820:8824   */\n      dup2\n        /* \"#utility.yul\":8816:8836   */\n      sub\n        /* \"#utility.yul\":8810:8813   */\n      0x80\n        /* \"#utility.yul\":8799:8808   */\n      dup4\n        /* \"#utility.yul\":8795:8814   */\n      add\n        /* \"#utility.yul\":8788:8837   */\n      mstore\n        /* \"#utility.yul\":8854:8932   */\n      tag_456\n        /* \"#utility.yul\":8927:8931   */\n      dup2\n        /* \"#utility.yul\":8918:8924   */\n      dup7\n        /* \"#utility.yul\":8854:8932   */\n      tag_306\n      jump\t// in\n    tag_456:\n        /* \"#utility.yul\":8846:8932   */\n      swap1\n      pop\n        /* \"#utility.yul\":8942:9015   */\n      tag_457\n        /* \"#utility.yul\":9010:9013   */\n      0xa0\n        /* \"#utility.yul\":8999:9008   */\n      dup4\n        /* \"#utility.yul\":8995:9014   */\n      add\n        /* \"#utility.yul\":8986:8992   */\n      dup6\n        /* \"#utility.yul\":8942:9015   */\n      tag_284\n      jump\t// in\n    tag_457:\n        /* \"#utility.yul\":9025:9103   */\n      tag_458\n        /* \"#utility.yul\":9098:9101   */\n      0xc0\n        /* \"#utility.yul\":9087:9096   */\n      dup4\n        /* \"#utility.yul\":9083:9102   */\n      add\n        /* \"#utility.yul\":9074:9080   */\n      dup5\n        /* \"#utility.yul\":9025:9103   */\n      tag_313\n      jump\t// in\n    tag_458:\n        /* \"#utility.yul\":7941:9110   */\n      swap9\n      swap8\n      pop\n      pop\n      pop\n      pop\n      pop\n      pop\n      pop\n      pop\n      jump\t// out\n        /* \"#utility.yul\":9116:9224   */\n    tag_314:\n        /* \"#utility.yul\":9193:9217   */\n      tag_460\n        /* \"#utility.yul\":9211:9216   */\n      dup2\n        /* \"#utility.yul\":9193:9217   */\n      tag_283\n      jump\t// in\n    tag_460:\n        /* \"#utility.yul\":9188:9191   */\n      dup3\n        /* \"#utility.yul\":9181:9218   */\n      mstore\n        /* \"#utility.yul\":9116:9224   */\n      pop\n      pop\n      jump\t// out\n        /* \"#utility.yul\":9230:9389   */\n    tag_315:\n        /* \"#utility.yul\":9304:9315   */\n      0x00\n        /* \"#utility.yul\":9338:9344   */\n      dup3\n        /* \"#utility.yul\":9333:9336   */\n      dup3\n        /* \"#utility.yul\":9326:9345   */\n      mstore\n        /* \"#utility.yul\":9378:9382   */\n      0x20\n        /* \"#utility.yul\":9373:9376   */\n      dup3\n        /* \"#utility.yul\":9369:9383   */\n      add\n        /* \"#utility.yul\":9354:9383   */\n      swap1\n      pop\n        /* \"#utility.yul\":9230:9389   */\n      swap3\n      swap2\n      pop\n      pop\n      jump\t// out\n        /* \"#utility.yul\":9395:9752   */\n    tag_316:\n        /* \"#utility.yul\":9473:9476   */\n      0x00\n        /* \"#utility.yul\":9501:9540   */\n      tag_463\n        /* \"#utility.yul\":9534:9539   */\n      dup3\n        /* \"#utility.yul\":9501:9540   */\n      tag_303\n      jump\t// in\n    tag_463:\n        /* \"#utility.yul\":9556:9617   */\n      tag_464\n        /* \"#utility.yul\":9610:9616   */\n      dup2\n        /* \"#utility.yul\":9605:9608   */\n      dup6\n        /* \"#utility.yul\":9556:9617   */\n      tag_315\n      jump\t// in\n    tag_464:\n        /* \"#utility.yul\":9549:9617   */\n      swap4\n      pop\n        /* \"#utility.yul\":9626:9691   */\n      tag_465\n        /* \"#utility.yul\":9684:9690   */\n      dup2\n        /* \"#utility.yul\":9679:9682   */\n      dup6\n        /* \"#utility.yul\":9672:9676   */\n      0x20\n        /* \"#utility.yul\":9665:9670   */\n      dup7\n        /* \"#utility.yul\":9661:9677   */\n      add\n        /* \"#utility.yul\":9626:9691   */\n      tag_305\n      jump\t// in\n    tag_465:\n        /* \"#utility.yul\":9716:9745   */\n      tag_466\n        /* \"#utility.yul\":9738:9744   */\n      dup2\n        /* \"#utility.yul\":9716:9745   */\n      tag_290\n      jump\t// in\n    tag_466:\n        /* \"#utility.yul\":9711:9714   */\n      dup5\n        /* \"#utility.yul\":9707:9746   */\n      add\n        /* \"#utility.yul\":9700:9746   */\n      swap2\n      pop\n        /* \"#utility.yul\":9477:9752   */\n      pop\n        /* \"#utility.yul\":9395:9752   */\n      swap3\n      swap2\n      pop\n      pop\n      jump\t// out\n        /* \"#utility.yul\":9758:9866   */\n    tag_317:\n        /* \"#utility.yul\":9835:9859   */\n      tag_468\n        /* \"#utility.yul\":9853:9858   */\n      dup2\n        /* \"#utility.yul\":9835:9859   */\n      tag_308\n      jump\t// in\n    tag_468:\n        /* \"#utility.yul\":9830:9833   */\n      dup3\n        /* \"#utility.yul\":9823:9860   */\n      mstore\n        /* \"#utility.yul\":9758:9866   */\n      pop\n      pop\n      jump\t// out\n        /* \"#utility.yul\":9872:9977   */\n    tag_318:\n        /* \"#utility.yul\":9947:9970   */\n      tag_470\n        /* \"#utility.yul\":9964:9969   */\n      dup2\n        /* \"#utility.yul\":9947:9970   */\n      tag_298\n      jump\t// in\n    tag_470:\n        /* \"#utility.yul\":9942:9945   */\n      dup3\n        /* \"#utility.yul\":9935:9971   */\n      mstore\n        /* \"#utility.yul\":9872:9977   */\n      pop\n      pop\n      jump\t// out\n        /* \"#utility.yul\":9983:10097   */\n    tag_319:\n        /* \"#utility.yul\":10065:10066   */\n      0x04\n        /* \"#utility.yul\":10058:10063   */\n      dup2\n        /* \"#utility.yul\":10055:10067   */\n      lt\n        /* \"#utility.yul\":10045:10091   */\n      tag_472\n      jumpi\n        /* \"#utility.yul\":10071:10089   */\n      tag_473\n      tag_92\n      jump\t// in\n    tag_473:\n        /* \"#utility.yul\":10045:10091   */\n    tag_472:\n        /* \"#utility.yul\":9983:10097   */\n      pop\n      jump\t// out\n        /* \"#utility.yul\":10103:10232   */\n    tag_320:\n        /* \"#utility.yul\":10149:10156   */\n      0x00\n        /* \"#utility.yul\":10178:10183   */\n      dup2\n        /* \"#utility.yul\":10167:10183   */\n      swap1\n      pop\n        /* \"#utility.yul\":10184:10226   */\n      tag_475\n        /* \"#utility.yul\":10220:10225   */\n      dup3\n        /* \"#utility.yul\":10184:10226   */\n      tag_319\n      jump\t// in\n    tag_475:\n        /* \"#utility.yul\":10103:10232   */\n      swap2\n      swap1\n      pop\n      jump\t// out\n        /* \"#utility.yul\":10238:10367   */\n    tag_321:\n        /* \"#utility.yul\":10295:10304   */\n      0x00\n        /* \"#utility.yul\":10328:10361   */\n      tag_477\n        /* \"#utility.yul\":10355:10360   */\n      dup3\n        /* \"#utility.yul\":10328:10361   */\n      tag_320\n      jump\t// in\n    tag_477:\n        /* \"#utility.yul\":10315:10361   */\n      swap1\n      pop\n        /* \"#utility.yul\":10238:10367   */\n      swap2\n      swap1\n      pop\n      jump\t// out\n        /* \"#utility.yul\":10373:10508   */\n    tag_322:\n        /* \"#utility.yul\":10457:10501   */\n      tag_479\n        /* \"#utility.yul\":10495:10500   */\n      dup2\n        /* \"#utility.yul\":10457:10501   */\n      tag_321\n      jump\t// in\n    tag_479:\n        /* \"#utility.yul\":10452:10455   */\n      dup3\n        /* \"#utility.yul\":10445:10502   */\n      mstore\n        /* \"#utility.yul\":10373:10508   */\n      pop\n      pop\n      jump\t// out\n        /* \"#utility.yul\":10586:12819   */\n    tag_323:\n        /* \"#utility.yul\":10701:10704   */\n      0x00\n        /* \"#utility.yul\":10737:10743   */\n      0x0140\n        /* \"#utility.yul\":10732:10735   */\n      dup4\n        /* \"#utility.yul\":10728:10744   */\n      add\n        /* \"#utility.yul\":10824:10828   */\n      0x00\n        /* \"#utility.yul\":10817:10822   */\n      dup4\n        /* \"#utility.yul\":10813:10829   */\n      add\n        /* \"#utility.yul\":10807:10830   */\n      mload\n        /* \"#utility.yul\":10843:10906   */\n      tag_481\n        /* \"#utility.yul\":10900:10904   */\n      0x00\n        /* \"#utility.yul\":10895:10898   */\n      dup7\n        /* \"#utility.yul\":10891:10905   */\n      add\n        /* \"#utility.yul\":10877:10889   */\n      dup3\n        /* \"#utility.yul\":10843:10906   */\n      tag_314\n      jump\t// in\n    tag_481:\n        /* \"#utility.yul\":10754:10916   */\n      pop\n        /* \"#utility.yul\":10998:11002   */\n      0x20\n        /* \"#utility.yul\":10991:10996   */\n      dup4\n        /* \"#utility.yul\":10987:11003   */\n      add\n        /* \"#utility.yul\":10981:11004   */\n      mload\n        /* \"#utility.yul\":11051:11054   */\n      dup5\n        /* \"#utility.yul\":11045:11049   */\n      dup3\n        /* \"#utility.yul\":11041:11055   */\n      sub\n        /* \"#utility.yul\":11034:11038   */\n      0x20\n        /* \"#utility.yul\":11029:11032   */\n      dup7\n        /* \"#utility.yul\":11025:11039   */\n      add\n        /* \"#utility.yul\":11018:11056   */\n      mstore\n        /* \"#utility.yul\":11077:11150   */\n      tag_482\n        /* \"#utility.yul\":11145:11149   */\n      dup3\n        /* \"#utility.yul\":11131:11143   */\n      dup3\n        /* \"#utility.yul\":11077:11150   */\n      tag_316\n      jump\t// in\n    tag_482:\n        /* \"#utility.yul\":11069:11150   */\n      swap2\n      pop\n        /* \"#utility.yul\":10926:11161   */\n      pop\n        /* \"#utility.yul\":11244:11248   */\n      0x40\n        /* \"#utility.yul\":11237:11242   */\n      dup4\n        /* \"#utility.yul\":11233:11249   */\n      add\n        /* \"#utility.yul\":11227:11250   */\n      mload\n        /* \"#utility.yul\":11263:11326   */\n      tag_483\n        /* \"#utility.yul\":11320:11324   */\n      0x40\n        /* \"#utility.yul\":11315:11318   */\n      dup7\n        /* \"#utility.yul\":11311:11325   */\n      add\n        /* \"#utility.yul\":11297:11309   */\n      dup3\n        /* \"#utility.yul\":11263:11326   */\n      tag_317\n      jump\t// in\n    tag_483:\n        /* \"#utility.yul\":11171:11336   */\n      pop\n        /* \"#utility.yul\":11419:11423   */\n      0x60\n        /* \"#utility.yul\":11412:11417   */\n      dup4\n        /* \"#utility.yul\":11408:11424   */\n      add\n        /* \"#utility.yul\":11402:11425   */\n      mload\n        /* \"#utility.yul\":11438:11499   */\n      tag_484\n        /* \"#utility.yul\":11493:11497   */\n      0x60\n        /* \"#utility.yul\":11488:11491   */\n      dup7\n        /* \"#utility.yul\":11484:11498   */\n      add\n        /* \"#utility.yul\":11470:11482   */\n      dup3\n        /* \"#utility.yul\":11438:11499   */\n      tag_318\n      jump\t// in\n    tag_484:\n        /* \"#utility.yul\":11346:11509   */\n      pop\n        /* \"#utility.yul\":11595:11599   */\n      0x80\n        /* \"#utility.yul\":11588:11593   */\n      dup4\n        /* \"#utility.yul\":11584:11600   */\n      add\n        /* \"#utility.yul\":11578:11601   */\n      mload\n        /* \"#utility.yul\":11614:11677   */\n      tag_485\n        /* \"#utility.yul\":11671:11675   */\n      0x80\n        /* \"#utility.yul\":11666:11669   */\n      dup7\n        /* \"#utility.yul\":11662:11676   */\n      add\n        /* \"#utility.yul\":11648:11660   */\n      dup3\n        /* \"#utility.yul\":11614:11677   */\n      tag_314\n      jump\t// in\n    tag_485:\n        /* \"#utility.yul\":11519:11687   */\n      pop\n        /* \"#utility.yul\":11776:11780   */\n      0xa0\n        /* \"#utility.yul\":11769:11774   */\n      dup4\n        /* \"#utility.yul\":11765:11781   */\n      add\n        /* \"#utility.yul\":11759:11782   */\n      mload\n        /* \"#utility.yul\":11829:11832   */\n      dup5\n        /* \"#utility.yul\":11823:11827   */\n      dup3\n        /* \"#utility.yul\":11819:11833   */\n      sub\n        /* \"#utility.yul\":11812:11816   */\n      0xa0\n        /* \"#utility.yul\":11807:11810   */\n      dup7\n        /* \"#utility.yul\":11803:11817   */\n      add\n        /* \"#utility.yul\":11796:11834   */\n      mstore\n        /* \"#utility.yul\":11855:11928   */\n      tag_486\n        /* \"#utility.yul\":11923:11927   */\n      dup3\n        /* \"#utility.yul\":11909:11921   */\n      dup3\n        /* \"#utility.yul\":11855:11928   */\n      tag_316\n      jump\t// in\n    tag_486:\n        /* \"#utility.yul\":11847:11928   */\n      swap2\n      pop\n        /* \"#utility.yul\":11697:11939   */\n      pop\n        /* \"#utility.yul\":12021:12025   */\n      0xc0\n        /* \"#utility.yul\":12014:12019   */\n      dup4\n        /* \"#utility.yul\":12010:12026   */\n      add\n        /* \"#utility.yul\":12004:12027   */\n      mload\n        /* \"#utility.yul\":12074:12077   */\n      dup5\n        /* \"#utility.yul\":12068:12072   */\n      dup3\n        /* \"#utility.yul\":12064:12078   */\n      sub\n        /* \"#utility.yul\":12057:12061   */\n      0xc0\n        /* \"#utility.yul\":12052:12055   */\n      dup7\n        /* \"#utility.yul\":12048:12062   */\n      add\n        /* \"#utility.yul\":12041:12079   */\n      mstore\n        /* \"#utility.yul\":12100:12173   */\n      tag_487\n        /* \"#utility.yul\":12168:12172   */\n      dup3\n        /* \"#utility.yul\":12154:12166   */\n      dup3\n        /* \"#utility.yul\":12100:12173   */\n      tag_316\n      jump\t// in\n    tag_487:\n        /* \"#utility.yul\":12092:12173   */\n      swap2\n      pop\n        /* \"#utility.yul\":11949:12184   */\n      pop\n        /* \"#utility.yul\":12264:12268   */\n      0xe0\n        /* \"#utility.yul\":12257:12262   */\n      dup4\n        /* \"#utility.yul\":12253:12269   */\n      add\n        /* \"#utility.yul\":12247:12270   */\n      mload\n        /* \"#utility.yul\":12317:12320   */\n      dup5\n        /* \"#utility.yul\":12311:12315   */\n      dup3\n        /* \"#utility.yul\":12307:12321   */\n      sub\n        /* \"#utility.yul\":12300:12304   */\n      0xe0\n        /* \"#utility.yul\":12295:12298   */\n      dup7\n        /* \"#utility.yul\":12291:12305   */\n      add\n        /* \"#utility.yul\":12284:12322   */\n      mstore\n        /* \"#utility.yul\":12343:12416   */\n      tag_488\n        /* \"#utility.yul\":12411:12415   */\n      dup3\n        /* \"#utility.yul\":12397:12409   */\n      dup3\n        /* \"#utility.yul\":12343:12416   */\n      tag_316\n      jump\t// in\n    tag_488:\n        /* \"#utility.yul\":12335:12416   */\n      swap2\n      pop\n        /* \"#utility.yul\":12194:12427   */\n      pop\n        /* \"#utility.yul\":12509:12515   */\n      0x0100\n        /* \"#utility.yul\":12502:12507   */\n      dup4\n        /* \"#utility.yul\":12498:12516   */\n      add\n        /* \"#utility.yul\":12492:12517   */\n      mload\n        /* \"#utility.yul\":12530:12595   */\n      tag_489\n        /* \"#utility.yul\":12587:12593   */\n      0x0100\n        /* \"#utility.yul\":12582:12585   */\n      dup7\n        /* \"#utility.yul\":12578:12594   */\n      add\n        /* \"#utility.yul\":12564:12576   */\n      dup3\n        /* \"#utility.yul\":12530:12595   */\n      tag_314\n      jump\t// in\n    tag_489:\n        /* \"#utility.yul\":12437:12605   */\n      pop\n        /* \"#utility.yul\":12689:12695   */\n      0x0120\n        /* \"#utility.yul\":12682:12687   */\n      dup4\n        /* \"#utility.yul\":12678:12696   */\n      add\n        /* \"#utility.yul\":12672:12697   */\n      mload\n        /* \"#utility.yul\":12710:12782   */\n      tag_490\n        /* \"#utility.yul\":12774:12780   */\n      0x0120\n        /* \"#utility.yul\":12769:12772   */\n      dup7\n        /* \"#utility.yul\":12765:12781   */\n      add\n        /* \"#utility.yul\":12751:12763   */\n      dup3\n        /* \"#utility.yul\":12710:12782   */\n      tag_322\n      jump\t// in\n    tag_490:\n        /* \"#utility.yul\":12615:12792   */\n      pop\n        /* \"#utility.yul\":12809:12813   */\n      dup1\n        /* \"#utility.yul\":12802:12813   */\n      swap2\n      pop\n        /* \"#utility.yul\":10706:12819   */\n      pop\n        /* \"#utility.yul\":10586:12819   */\n      swap3\n      swap2\n      pop\n      pop\n      jump\t// out\n        /* \"#utility.yul\":12825:13190   */\n    tag_44:\n        /* \"#utility.yul\":12964:12968   */\n      0x00\n        /* \"#utility.yul\":13002:13004   */\n      0x20\n        /* \"#utility.yul\":12991:13000   */\n      dup3\n        /* \"#utility.yul\":12987:13005   */\n      add\n        /* \"#utility.yul\":12979:13005   */\n      swap1\n      pop\n        /* \"#utility.yul\":13051:13060   */\n      dup2\n        /* \"#utility.yul\":13045:13049   */\n      dup2\n        /* \"#utility.yul\":13041:13061   */\n      sub\n        /* \"#utility.yul\":13037:13038   */\n      0x00\n        /* \"#utility.yul\":13026:13035   */\n      dup4\n        /* \"#utility.yul\":13022:13039   */\n      add\n        /* \"#utility.yul\":13015:13062   */\n      mstore\n        /* \"#utility.yul\":13079:13183   */\n      tag_492\n        /* \"#utility.yul\":13178:13182   */\n      dup2\n        /* \"#utility.yul\":13169:13175   */\n      dup5\n        /* \"#utility.yul\":13079:13183   */\n      tag_323\n      jump\t// in\n    tag_492:\n        /* \"#utility.yul\":13071:13183   */\n      swap1\n      pop\n        /* \"#utility.yul\":12825:13190   */\n      swap3\n      swap2\n      pop\n      pop\n      jump\t// out\n        /* \"#utility.yul\":13196:13302   */\n    tag_324:\n        /* \"#utility.yul\":13276:13277   */\n      0x04\n        /* \"#utility.yul\":13269:13274   */\n      dup2\n        /* \"#utility.yul\":13266:13278   */\n      lt\n        /* \"#utility.yul\":13256:13296   */\n      tag_494\n      jumpi\n        /* \"#utility.yul\":13292:13293   */\n      0x00\n        /* \"#utility.yul\":13289:13290   */\n      dup1\n        /* \"#utility.yul\":13282:13294   */\n      revert\n        /* \"#utility.yul\":13256:13296   */\n    tag_494:\n        /* \"#utility.yul\":13196:13302   */\n      pop\n      jump\t// out\n        /* \"#utility.yul\":13308:13461   */\n    tag_325:\n        /* \"#utility.yul\":13361:13366   */\n      0x00\n        /* \"#utility.yul\":13399:13405   */\n      dup2\n        /* \"#utility.yul\":13386:13406   */\n      calldataload\n        /* \"#utility.yul\":13377:13406   */\n      swap1\n      pop\n        /* \"#utility.yul\":13415:13455   */\n      tag_496\n        /* \"#utility.yul\":13449:13454   */\n      dup2\n        /* \"#utility.yul\":13415:13455   */\n      tag_324\n      jump\t// in\n    tag_496:\n        /* \"#utility.yul\":13308:13461   */\n      swap3\n      swap2\n      pop\n      pop\n      jump\t// out\n        /* \"#utility.yul\":13467:14786   */\n    tag_47:\n        /* \"#utility.yul\":13590:13596   */\n      0x00\n        /* \"#utility.yul\":13598:13604   */\n      dup1\n        /* \"#utility.yul\":13606:13612   */\n      0x00\n        /* \"#utility.yul\":13614:13620   */\n      dup1\n        /* \"#utility.yul\":13663:13666   */\n      0x80\n        /* \"#utility.yul\":13651:13660   */\n      dup6\n        /* \"#utility.yul\":13642:13649   */\n      dup8\n        /* \"#utility.yul\":13638:13661   */\n      sub\n        /* \"#utility.yul\":13634:13667   */\n      slt\n        /* \"#utility.yul\":13631:13751   */\n      iszero\n      tag_498\n      jumpi\n        /* \"#utility.yul\":13670:13749   */\n      tag_499\n      tag_286\n      jump\t// in\n    tag_499:\n        /* \"#utility.yul\":13631:13751   */\n    tag_498:\n        /* \"#utility.yul\":13818:13819   */\n      0x00\n        /* \"#utility.yul\":13807:13816   */\n      dup6\n        /* \"#utility.yul\":13803:13820   */\n      add\n        /* \"#utility.yul\":13790:13821   */\n      calldataload\n        /* \"#utility.yul\":13848:13866   */\n      0xffffffffffffffff\n        /* \"#utility.yul\":13840:13846   */\n      dup2\n        /* \"#utility.yul\":13837:13867   */\n      gt\n        /* \"#utility.yul\":13834:13951   */\n      iszero\n      tag_500\n      jumpi\n        /* \"#utility.yul\":13870:13949   */\n      tag_501\n      tag_287\n      jump\t// in\n    tag_501:\n        /* \"#utility.yul\":13834:13951   */\n    tag_500:\n        /* \"#utility.yul\":13975:14038   */\n      tag_502\n        /* \"#utility.yul\":14030:14037   */\n      dup8\n        /* \"#utility.yul\":14021:14027   */\n      dup3\n        /* \"#utility.yul\":14010:14019   */\n      dup9\n        /* \"#utility.yul\":14006:14028   */\n      add\n        /* \"#utility.yul\":13975:14038   */\n      tag_297\n      jump\t// in\n    tag_502:\n        /* \"#utility.yul\":13965:14038   */\n      swap5\n      pop\n        /* \"#utility.yul\":13761:14048   */\n      pop\n        /* \"#utility.yul\":14115:14117   */\n      0x20\n        /* \"#utility.yul\":14104:14113   */\n      dup6\n        /* \"#utility.yul\":14100:14118   */\n      add\n        /* \"#utility.yul\":14087:14119   */\n      calldataload\n        /* \"#utility.yul\":14146:14164   */\n      0xffffffffffffffff\n        /* \"#utility.yul\":14138:14144   */\n      dup2\n        /* \"#utility.yul\":14135:14165   */\n      gt\n        /* \"#utility.yul\":14132:14249   */\n      iszero\n      tag_503\n      jumpi\n        /* \"#utility.yul\":14168:14247   */\n      tag_504\n      tag_287\n      jump\t// in\n    tag_504:\n        /* \"#utility.yul\":14132:14249   */\n    tag_503:\n        /* \"#utility.yul\":14273:14336   */\n      tag_505\n        /* \"#utility.yul\":14328:14335   */\n      dup8\n        /* \"#utility.yul\":14319:14325   */\n      dup3\n        /* \"#utility.yul\":14308:14317   */\n      dup9\n        /* \"#utility.yul\":14304:14326   */\n      add\n        /* \"#utility.yul\":14273:14336   */\n      tag_297\n      jump\t// in\n    tag_505:\n        /* \"#utility.yul\":14263:14336   */\n      swap4\n      pop\n        /* \"#utility.yul\":14058:14346   */\n      pop\n        /* \"#utility.yul\":14413:14415   */\n      0x40\n        /* \"#utility.yul\":14402:14411   */\n      dup6\n        /* \"#utility.yul\":14398:14416   */\n      add\n        /* \"#utility.yul\":14385:14417   */\n      calldataload\n        /* \"#utility.yul\":14444:14462   */\n      0xffffffffffffffff\n        /* \"#utility.yul\":14436:14442   */\n      dup2\n        /* \"#utility.yul\":14433:14463   */\n      gt\n        /* \"#utility.yul\":14430:14547   */\n      iszero\n      tag_506\n      jumpi\n        /* \"#utility.yul\":14466:14545   */\n      tag_507\n      tag_287\n      jump\t// in\n    tag_507:\n        /* \"#utility.yul\":14430:14547   */\n    tag_506:\n        /* \"#utility.yul\":14571:14634   */\n      tag_508\n        /* \"#utility.yul\":14626:14633   */\n      dup8\n        /* \"#utility.yul\":14617:14623   */\n      dup3\n        /* \"#utility.yul\":14606:14615   */\n      dup9\n        /* \"#utility.yul\":14602:14624   */\n      add\n        /* \"#utility.yul\":14571:14634   */\n      tag_297\n      jump\t// in\n    tag_508:\n        /* \"#utility.yul\":14561:14634   */\n      swap3\n      pop\n        /* \"#utility.yul\":14356:14644   */\n      pop\n        /* \"#utility.yul\":14683:14685   */\n      0x60\n        /* \"#utility.yul\":14709:14769   */\n      tag_509\n        /* \"#utility.yul\":14761:14768   */\n      dup8\n        /* \"#utility.yul\":14752:14758   */\n      dup3\n        /* \"#utility.yul\":14741:14750   */\n      dup9\n        /* \"#utility.yul\":14737:14759   */\n      add\n        /* \"#utility.yul\":14709:14769   */\n      tag_325\n      jump\t// in\n    tag_509:\n        /* \"#utility.yul\":14699:14769   */\n      swap2\n      pop\n        /* \"#utility.yul\":14654:14779   */\n      pop\n        /* \"#utility.yul\":13467:14786   */\n      swap3\n      swap6\n      swap2\n      swap5\n      pop\n      swap3\n      pop\n      jump\t// out\n        /* \"#utility.yul\":14792:14907   */\n    tag_326:\n        /* \"#utility.yul\":14877:14900   */\n      tag_511\n        /* \"#utility.yul\":14894:14899   */\n      dup2\n        /* \"#utility.yul\":14877:14900   */\n      tag_298\n      jump\t// in\n    tag_511:\n        /* \"#utility.yul\":14872:14875   */\n      dup3\n        /* \"#utility.yul\":14865:14901   */\n      mstore\n        /* \"#utility.yul\":14792:14907   */\n      pop\n      pop\n      jump\t// out\n        /* \"#utility.yul\":14913:15058   */\n    tag_327:\n        /* \"#utility.yul\":15007:15051   */\n      tag_513\n        /* \"#utility.yul\":15045:15050   */\n      dup2\n        /* \"#utility.yul\":15007:15051   */\n      tag_321\n      jump\t// in\n    tag_513:\n        /* \"#utility.yul\":15002:15005   */\n      dup3\n        /* \"#utility.yul\":14995:15052   */\n      mstore\n        /* \"#utility.yul\":14913:15058   */\n      pop\n      pop\n      jump\t// out\n        /* \"#utility.yul\":15064:16657   */\n    tag_53:\n        /* \"#utility.yul\":15494:15498   */\n      0x00\n        /* \"#utility.yul\":15532:15535   */\n      0x0140\n        /* \"#utility.yul\":15521:15530   */\n      dup3\n        /* \"#utility.yul\":15517:15536   */\n      add\n        /* \"#utility.yul\":15509:15536   */\n      swap1\n      pop\n        /* \"#utility.yul\":15546:15617   */\n      tag_515\n        /* \"#utility.yul\":15614:15615   */\n      0x00\n        /* \"#utility.yul\":15603:15612   */\n      dup4\n        /* \"#utility.yul\":15599:15616   */\n      add\n        /* \"#utility.yul\":15590:15596   */\n      dup14\n        /* \"#utility.yul\":15546:15617   */\n      tag_284\n      jump\t// in\n    tag_515:\n        /* \"#utility.yul\":15664:15673   */\n      dup2\n        /* \"#utility.yul\":15658:15662   */\n      dup2\n        /* \"#utility.yul\":15654:15674   */\n      sub\n        /* \"#utility.yul\":15649:15651   */\n      0x20\n        /* \"#utility.yul\":15638:15647   */\n      dup4\n        /* \"#utility.yul\":15634:15652   */\n      add\n        /* \"#utility.yul\":15627:15675   */\n      mstore\n        /* \"#utility.yul\":15692:15770   */\n      tag_516\n        /* \"#utility.yul\":15765:15769   */\n      dup2\n        /* \"#utility.yul\":15756:15762   */\n      dup13\n        /* \"#utility.yul\":15692:15770   */\n      tag_306\n      jump\t// in\n    tag_516:\n        /* \"#utility.yul\":15684:15770   */\n      swap1\n      pop\n        /* \"#utility.yul\":15780:15852   */\n      tag_517\n        /* \"#utility.yul\":15848:15850   */\n      0x40\n        /* \"#utility.yul\":15837:15846   */\n      dup4\n        /* \"#utility.yul\":15833:15851   */\n      add\n        /* \"#utility.yul\":15824:15830   */\n      dup12\n        /* \"#utility.yul\":15780:15852   */\n      tag_309\n      jump\t// in\n    tag_517:\n        /* \"#utility.yul\":15862:15932   */\n      tag_518\n        /* \"#utility.yul\":15928:15930   */\n      0x60\n        /* \"#utility.yul\":15917:15926   */\n      dup4\n        /* \"#utility.yul\":15913:15931   */\n      add\n        /* \"#utility.yul\":15904:15910   */\n      dup11\n        /* \"#utility.yul\":15862:15932   */\n      tag_326\n      jump\t// in\n    tag_518:\n        /* \"#utility.yul\":15942:16015   */\n      tag_519\n        /* \"#utility.yul\":16010:16013   */\n      0x80\n        /* \"#utility.yul\":15999:16008   */\n      dup4\n        /* \"#utility.yul\":15995:16014   */\n      add\n        /* \"#utility.yul\":15986:15992   */\n      dup10\n        /* \"#utility.yul\":15942:16015   */\n      tag_284\n      jump\t// in\n    tag_519:\n        /* \"#utility.yul\":16063:16072   */\n      dup2\n        /* \"#utility.yul\":16057:16061   */\n      dup2\n        /* \"#utility.yul\":16053:16073   */\n      sub\n        /* \"#utility.yul\":16047:16050   */\n      0xa0\n        /* \"#utility.yul\":16036:16045   */\n      dup4\n        /* \"#utility.yul\":16032:16051   */\n      add\n        /* \"#utility.yul\":16025:16074   */\n      mstore\n        /* \"#utility.yul\":16091:16169   */\n      tag_520\n        /* \"#utility.yul\":16164:16168   */\n      dup2\n        /* \"#utility.yul\":16155:16161   */\n      dup9\n        /* \"#utility.yul\":16091:16169   */\n      tag_306\n      jump\t// in\n    tag_520:\n        /* \"#utility.yul\":16083:16169   */\n      swap1\n      pop\n        /* \"#utility.yul\":16217:16226   */\n      dup2\n        /* \"#utility.yul\":16211:16215   */\n      dup2\n        /* \"#utility.yul\":16207:16227   */\n      sub\n        /* \"#utility.yul\":16201:16204   */\n      0xc0\n        /* \"#utility.yul\":16190:16199   */\n      dup4\n        /* \"#utility.yul\":16186:16205   */\n      add\n        /* \"#utility.yul\":16179:16228   */\n      mstore\n        /* \"#utility.yul\":16245:16323   */\n      tag_521\n        /* \"#utility.yul\":16318:16322   */\n      dup2\n        /* \"#utility.yul\":16309:16315   */\n      dup8\n        /* \"#utility.yul\":16245:16323   */\n      tag_306\n      jump\t// in\n    tag_521:\n        /* \"#utility.yul\":16237:16323   */\n      swap1\n      pop\n        /* \"#utility.yul\":16371:16380   */\n      dup2\n        /* \"#utility.yul\":16365:16369   */\n      dup2\n        /* \"#utility.yul\":16361:16381   */\n      sub\n        /* \"#utility.yul\":16355:16358   */\n      0xe0\n        /* \"#utility.yul\":16344:16353   */\n      dup4\n        /* \"#utility.yul\":16340:16359   */\n      add\n        /* \"#utility.yul\":16333:16382   */\n      mstore\n        /* \"#utility.yul\":16399:16477   */\n      tag_522\n        /* \"#utility.yul\":16472:16476   */\n      dup2\n        /* \"#utility.yul\":16463:16469   */\n      dup7\n        /* \"#utility.yul\":16399:16477   */\n      tag_306\n      jump\t// in\n    tag_522:\n        /* \"#utility.yul\":16391:16477   */\n      swap1\n      pop\n        /* \"#utility.yul\":16487:16560   */\n      tag_523\n        /* \"#utility.yul\":16555:16558   */\n      0x0100\n        /* \"#utility.yul\":16544:16553   */\n      dup4\n        /* \"#utility.yul\":16540:16559   */\n      add\n        /* \"#utility.yul\":16531:16537   */\n      dup6\n        /* \"#utility.yul\":16487:16560   */\n      tag_284\n      jump\t// in\n    tag_523:\n        /* \"#utility.yul\":16570:16650   */\n      tag_524\n        /* \"#utility.yul\":16645:16648   */\n      0x0120\n        /* \"#utility.yul\":16634:16643   */\n      dup4\n        /* \"#utility.yul\":16630:16649   */\n      add\n        /* \"#utility.yul\":16621:16627   */\n      dup5\n        /* \"#utility.yul\":16570:16650   */\n      tag_327\n      jump\t// in\n    tag_524:\n        /* \"#utility.yul\":15064:16657   */\n      swap12\n      swap11\n      pop\n      pop\n      pop\n      pop\n      pop\n      pop\n      pop\n      pop\n      pop\n      pop\n      pop\n      jump\t// out\n        /* \"#utility.yul\":16663:16785   */\n    tag_328:\n        /* \"#utility.yul\":16736:16760   */\n      tag_526\n        /* \"#utility.yul\":16754:16759   */\n      dup2\n        /* \"#utility.yul\":16736:16760   */\n      tag_308\n      jump\t// in\n    tag_526:\n        /* \"#utility.yul\":16729:16734   */\n      dup2\n        /* \"#utility.yul\":16726:16761   */\n      eq\n        /* \"#utility.yul\":16716:16779   */\n      tag_527\n      jumpi\n        /* \"#utility.yul\":16775:16776   */\n      0x00\n        /* \"#utility.yul\":16772:16773   */\n      dup1\n        /* \"#utility.yul\":16765:16777   */\n      revert\n        /* \"#utility.yul\":16716:16779   */\n    tag_527:\n        /* \"#utility.yul\":16663:16785   */\n      pop\n      jump\t// out\n        /* \"#utility.yul\":16791:16930   */\n    tag_329:\n        /* \"#utility.yul\":16837:16842   */\n      0x00\n        /* \"#utility.yul\":16875:16881   */\n      dup2\n        /* \"#utility.yul\":16862:16882   */\n      calldataload\n        /* \"#utility.yul\":16853:16882   */\n      swap1\n      pop\n        /* \"#utility.yul\":16891:16924   */\n      tag_529\n        /* \"#utility.yul\":16918:16923   */\n      dup2\n        /* \"#utility.yul\":16891:16924   */\n      tag_328\n      jump\t// in\n    tag_529:\n        /* \"#utility.yul\":16791:16930   */\n      swap3\n      swap2\n      pop\n      pop\n      jump\t// out\n        /* \"#utility.yul\":16936:17410   */\n    tag_56:\n        /* \"#utility.yul\":17004:17010   */\n      0x00\n        /* \"#utility.yul\":17012:17018   */\n      dup1\n        /* \"#utility.yul\":17061:17063   */\n      0x40\n        /* \"#utility.yul\":17049:17058   */\n      dup4\n        /* \"#utility.yul\":17040:17047   */\n      dup6\n        /* \"#utility.yul\":17036:17059   */\n      sub\n        /* \"#utility.yul\":17032:17064   */\n      slt\n        /* \"#utility.yul\":17029:17148   */\n      iszero\n      tag_531\n      jumpi\n        /* \"#utility.yul\":17067:17146   */\n      tag_532\n      tag_286\n      jump\t// in\n    tag_532:\n        /* \"#utility.yul\":17029:17148   */\n    tag_531:\n        /* \"#utility.yul\":17187:17188   */\n      0x00\n        /* \"#utility.yul\":17212:17265   */\n      tag_533\n        /* \"#utility.yul\":17257:17264   */\n      dup6\n        /* \"#utility.yul\":17248:17254   */\n      dup3\n        /* \"#utility.yul\":17237:17246   */\n      dup7\n        /* \"#utility.yul\":17233:17255   */\n      add\n        /* \"#utility.yul\":17212:17265   */\n      tag_302\n      jump\t// in\n    tag_533:\n        /* \"#utility.yul\":17202:17265   */\n      swap3\n      pop\n        /* \"#utility.yul\":17158:17275   */\n      pop\n        /* \"#utility.yul\":17314:17316   */\n      0x20\n        /* \"#utility.yul\":17340:17393   */\n      tag_534\n        /* \"#utility.yul\":17385:17392   */\n      dup6\n        /* \"#utility.yul\":17376:17382   */\n      dup3\n        /* \"#utility.yul\":17365:17374   */\n      dup7\n        /* \"#utility.yul\":17361:17383   */\n      add\n        /* \"#utility.yul\":17340:17393   */\n      tag_329\n      jump\t// in\n    tag_534:\n        /* \"#utility.yul\":17330:17393   */\n      swap2\n      pop\n        /* \"#utility.yul\":17285:17403   */\n      pop\n        /* \"#utility.yul\":16936:17410   */\n      swap3\n      pop\n      swap3\n      swap1\n      pop\n      jump\t// out\n        /* \"#utility.yul\":17416:17524   */\n    tag_330:\n        /* \"#utility.yul\":17498:17499   */\n      0x04\n        /* \"#utility.yul\":17491:17496   */\n      dup2\n        /* \"#utility.yul\":17488:17500   */\n      lt\n        /* \"#utility.yul\":17478:17518   */\n      tag_536\n      jumpi\n        /* \"#utility.yul\":17514:17515   */\n      0x00\n        /* \"#utility.yul\":17511:17512   */\n      dup1\n        /* \"#utility.yul\":17504:17516   */\n      revert\n        /* \"#utility.yul\":17478:17518   */\n    tag_536:\n        /* \"#utility.yul\":17416:17524   */\n      pop\n      jump\t// out\n        /* \"#utility.yul\":17530:17687   */\n    tag_331:\n        /* \"#utility.yul\":17585:17590   */\n      0x00\n        /* \"#utility.yul\":17623:17629   */\n      dup2\n        /* \"#utility.yul\":17610:17630   */\n      calldataload\n        /* \"#utility.yul\":17601:17630   */\n      swap1\n      pop\n        /* \"#utility.yul\":17639:17681   */\n      tag_538\n        /* \"#utility.yul\":17675:17680   */\n      dup2\n        /* \"#utility.yul\":17639:17681   */\n      tag_330\n      jump\t// in\n    tag_538:\n        /* \"#utility.yul\":17530:17687   */\n      swap3\n      swap2\n      pop\n      pop\n      jump\t// out\n        /* \"#utility.yul\":17693:18185   */\n    tag_60:\n        /* \"#utility.yul\":17770:17776   */\n      0x00\n        /* \"#utility.yul\":17778:17784   */\n      dup1\n        /* \"#utility.yul\":17827:17829   */\n      0x40\n        /* \"#utility.yul\":17815:17824   */\n      dup4\n        /* \"#utility.yul\":17806:17813   */\n      dup6\n        /* \"#utility.yul\":17802:17825   */\n      sub\n        /* \"#utility.yul\":17798:17830   */\n      slt\n        /* \"#utility.yul\":17795:17914   */\n      iszero\n      tag_540\n      jumpi\n        /* \"#utility.yul\":17833:17912   */\n      tag_541\n      tag_286\n      jump\t// in\n    tag_541:\n        /* \"#utility.yul\":17795:17914   */\n    tag_540:\n        /* \"#utility.yul\":17953:17954   */\n      0x00\n        /* \"#utility.yul\":17978:18031   */\n      tag_542\n        /* \"#utility.yul\":18023:18030   */\n      dup6\n        /* \"#utility.yul\":18014:18020   */\n      dup3\n        /* \"#utility.yul\":18003:18012   */\n      dup7\n        /* \"#utility.yul\":17999:18021   */\n      add\n        /* \"#utility.yul\":17978:18031   */\n      tag_302\n      jump\t// in\n    tag_542:\n        /* \"#utility.yul\":17968:18031   */\n      swap3\n      pop\n        /* \"#utility.yul\":17924:18041   */\n      pop\n        /* \"#utility.yul\":18080:18082   */\n      0x20\n        /* \"#utility.yul\":18106:18168   */\n      tag_543\n        /* \"#utility.yul\":18160:18167   */\n      dup6\n        /* \"#utility.yul\":18151:18157   */\n      dup3\n        /* \"#utility.yul\":18140:18149   */\n      dup7\n        /* \"#utility.yul\":18136:18158   */\n      add\n        /* \"#utility.yul\":18106:18168   */\n      tag_331\n      jump\t// in\n    tag_543:\n        /* \"#utility.yul\":18096:18168   */\n      swap2\n      pop\n        /* \"#utility.yul\":18051:18178   */\n      pop\n        /* \"#utility.yul\":17693:18185   */\n      swap3\n      pop\n      swap3\n      swap1\n      pop\n      jump\t// out\n        /* \"#utility.yul\":18191:18427   */\n    tag_69:\n        /* \"#utility.yul\":18291:18295   */\n      0x00\n        /* \"#utility.yul\":18329:18331   */\n      0x20\n        /* \"#utility.yul\":18318:18327   */\n      dup3\n        /* \"#utility.yul\":18314:18332   */\n      add\n        /* \"#utility.yul\":18306:18332   */\n      swap1\n      pop\n        /* \"#utility.yul\":18342:18420   */\n      tag_545\n        /* \"#utility.yul\":18417:18418   */\n      0x00\n        /* \"#utility.yul\":18406:18415   */\n      dup4\n        /* \"#utility.yul\":18402:18419   */\n      add\n        /* \"#utility.yul\":18393:18399   */\n      dup5\n        /* \"#utility.yul\":18342:18420   */\n      tag_327\n      jump\t// in\n    tag_545:\n        /* \"#utility.yul\":18191:18427   */\n      swap3\n      swap2\n      pop\n      pop\n      jump\t// out\n        /* \"#utility.yul\":18433:18564   */\n    tag_332:\n        /* \"#utility.yul\":18515:18557   */\n      tag_547\n        /* \"#utility.yul\":18551:18556   */\n      dup2\n        /* \"#utility.yul\":18515:18557   */\n      tag_312\n      jump\t// in\n    tag_547:\n        /* \"#utility.yul\":18510:18513   */\n      dup3\n        /* \"#utility.yul\":18503:18558   */\n      mstore\n        /* \"#utility.yul\":18433:18564   */\n      pop\n      pop\n      jump\t// out\n        /* \"#utility.yul\":18636:20265   */\n    tag_333:\n        /* \"#utility.yul\":18745:18748   */\n      0x00\n        /* \"#utility.yul\":18781:18785   */\n      0xe0\n        /* \"#utility.yul\":18776:18779   */\n      dup4\n        /* \"#utility.yul\":18772:18786   */\n      add\n        /* \"#utility.yul\":18866:18870   */\n      0x00\n        /* \"#utility.yul\":18859:18864   */\n      dup4\n        /* \"#utility.yul\":18855:18871   */\n      add\n        /* \"#utility.yul\":18849:18872   */\n      mload\n        /* \"#utility.yul\":18885:18948   */\n      tag_549\n        /* \"#utility.yul\":18942:18946   */\n      0x00\n        /* \"#utility.yul\":18937:18940   */\n      dup7\n        /* \"#utility.yul\":18933:18947   */\n      add\n        /* \"#utility.yul\":18919:18931   */\n      dup3\n        /* \"#utility.yul\":18885:18948   */\n      tag_314\n      jump\t// in\n    tag_549:\n        /* \"#utility.yul\":18796:18958   */\n      pop\n        /* \"#utility.yul\":19040:19044   */\n      0x20\n        /* \"#utility.yul\":19033:19038   */\n      dup4\n        /* \"#utility.yul\":19029:19045   */\n      add\n        /* \"#utility.yul\":19023:19046   */\n      mload\n        /* \"#utility.yul\":19093:19096   */\n      dup5\n        /* \"#utility.yul\":19087:19091   */\n      dup3\n        /* \"#utility.yul\":19083:19097   */\n      sub\n        /* \"#utility.yul\":19076:19080   */\n      0x20\n        /* \"#utility.yul\":19071:19074   */\n      dup7\n        /* \"#utility.yul\":19067:19081   */\n      add\n        /* \"#utility.yul\":19060:19098   */\n      mstore\n        /* \"#utility.yul\":19119:19192   */\n      tag_550\n        /* \"#utility.yul\":19187:19191   */\n      dup3\n        /* \"#utility.yul\":19173:19185   */\n      dup3\n        /* \"#utility.yul\":19119:19192   */\n      tag_316\n      jump\t// in\n    tag_550:\n        /* \"#utility.yul\":19111:19192   */\n      swap2\n      pop\n        /* \"#utility.yul\":18968:19203   */\n      pop\n        /* \"#utility.yul\":19292:19296   */\n      0x40\n        /* \"#utility.yul\":19285:19290   */\n      dup4\n        /* \"#utility.yul\":19281:19297   */\n      add\n        /* \"#utility.yul\":19275:19298   */\n      mload\n        /* \"#utility.yul\":19311:19374   */\n      tag_551\n        /* \"#utility.yul\":19368:19372   */\n      0x40\n        /* \"#utility.yul\":19363:19366   */\n      dup7\n        /* \"#utility.yul\":19359:19373   */\n      add\n        /* \"#utility.yul\":19345:19357   */\n      dup3\n        /* \"#utility.yul\":19311:19374   */\n      tag_317\n      jump\t// in\n    tag_551:\n        /* \"#utility.yul\":19213:19384   */\n      pop\n        /* \"#utility.yul\":19470:19474   */\n      0x60\n        /* \"#utility.yul\":19463:19468   */\n      dup4\n        /* \"#utility.yul\":19459:19475   */\n      add\n        /* \"#utility.yul\":19453:19476   */\n      mload\n        /* \"#utility.yul\":19523:19526   */\n      dup5\n        /* \"#utility.yul\":19517:19521   */\n      dup3\n        /* \"#utility.yul\":19513:19527   */\n      sub\n        /* \"#utility.yul\":19506:19510   */\n      0x60\n        /* \"#utility.yul\":19501:19504   */\n      dup7\n        /* \"#utility.yul\":19497:19511   */\n      add\n        /* \"#utility.yul\":19490:19528   */\n      mstore\n        /* \"#utility.yul\":19549:19622   */\n      tag_552\n        /* \"#utility.yul\":19617:19621   */\n      dup3\n        /* \"#utility.yul\":19603:19615   */\n      dup3\n        /* \"#utility.yul\":19549:19622   */\n      tag_316\n      jump\t// in\n    tag_552:\n        /* \"#utility.yul\":19541:19622   */\n      swap2\n      pop\n        /* \"#utility.yul\":19394:19633   */\n      pop\n        /* \"#utility.yul\":19722:19726   */\n      0x80\n        /* \"#utility.yul\":19715:19720   */\n      dup4\n        /* \"#utility.yul\":19711:19727   */\n      add\n        /* \"#utility.yul\":19705:19728   */\n      mload\n        /* \"#utility.yul\":19775:19778   */\n      dup5\n        /* \"#utility.yul\":19769:19773   */\n      dup3\n        /* \"#utility.yul\":19765:19779   */\n      sub\n        /* \"#utility.yul\":19758:19762   */\n      0x80\n        /* \"#utility.yul\":19753:19756   */\n      dup7\n        /* \"#utility.yul\":19749:19763   */\n      add\n        /* \"#utility.yul\":19742:19780   */\n      mstore\n        /* \"#utility.yul\":19801:19874   */\n      tag_553\n        /* \"#utility.yul\":19869:19873   */\n      dup3\n        /* \"#utility.yul\":19855:19867   */\n      dup3\n        /* \"#utility.yul\":19801:19874   */\n      tag_316\n      jump\t// in\n    tag_553:\n        /* \"#utility.yul\":19793:19874   */\n      swap2\n      pop\n        /* \"#utility.yul\":19643:19885   */\n      pop\n        /* \"#utility.yul\":19967:19971   */\n      0xa0\n        /* \"#utility.yul\":19960:19965   */\n      dup4\n        /* \"#utility.yul\":19956:19972   */\n      add\n        /* \"#utility.yul\":19950:19973   */\n      mload\n        /* \"#utility.yul\":19986:20049   */\n      tag_554\n        /* \"#utility.yul\":20043:20047   */\n      0xa0\n        /* \"#utility.yul\":20038:20041   */\n      dup7\n        /* \"#utility.yul\":20034:20048   */\n      add\n        /* \"#utility.yul\":20020:20032   */\n      dup3\n        /* \"#utility.yul\":19986:20049   */\n      tag_314\n      jump\t// in\n    tag_554:\n        /* \"#utility.yul\":19895:20059   */\n      pop\n        /* \"#utility.yul\":20141:20145   */\n      0xc0\n        /* \"#utility.yul\":20134:20139   */\n      dup4\n        /* \"#utility.yul\":20130:20146   */\n      add\n        /* \"#utility.yul\":20124:20147   */\n      mload\n        /* \"#utility.yul\":20160:20228   */\n      tag_555\n        /* \"#utility.yul\":20222:20226   */\n      0xc0\n        /* \"#utility.yul\":20217:20220   */\n      dup7\n        /* \"#utility.yul\":20213:20227   */\n      add\n        /* \"#utility.yul\":20199:20211   */\n      dup3\n        /* \"#utility.yul\":20160:20228   */\n      tag_332\n      jump\t// in\n    tag_555:\n        /* \"#utility.yul\":20069:20238   */\n      pop\n        /* \"#utility.yul\":20255:20259   */\n      dup1\n        /* \"#utility.yul\":20248:20259   */\n      swap2\n      pop\n        /* \"#utility.yul\":18750:20265   */\n      pop\n        /* \"#utility.yul\":18636:20265   */\n      swap3\n      swap2\n      pop\n      pop\n      jump\t// out\n        /* \"#utility.yul\":20271:20624   */\n    tag_74:\n        /* \"#utility.yul\":20404:20408   */\n      0x00\n        /* \"#utility.yul\":20442:20444   */\n      0x20\n        /* \"#utility.yul\":20431:20440   */\n      dup3\n        /* \"#utility.yul\":20427:20445   */\n      add\n        /* \"#utility.yul\":20419:20445   */\n      swap1\n      pop\n        /* \"#utility.yul\":20491:20500   */\n      dup2\n        /* \"#utility.yul\":20485:20489   */\n      dup2\n        /* \"#utility.yul\":20481:20501   */\n      sub\n        /* \"#utility.yul\":20477:20478   */\n      0x00\n        /* \"#utility.yul\":20466:20475   */\n      dup4\n        /* \"#utility.yul\":20462:20479   */\n      add\n        /* \"#utility.yul\":20455:20502   */\n      mstore\n        /* \"#utility.yul\":20519:20617   */\n      tag_557\n        /* \"#utility.yul\":20612:20616   */\n      dup2\n        /* \"#utility.yul\":20603:20609   */\n      dup5\n        /* \"#utility.yul\":20519:20617   */\n      tag_333\n      jump\t// in\n    tag_557:\n        /* \"#utility.yul\":20511:20617   */\n      swap1\n      pop\n        /* \"#utility.yul\":20271:20624   */\n      swap3\n      swap2\n      pop\n      pop\n      jump\t// out\n        /* \"#utility.yul\":20630:20977   */\n    tag_77:\n        /* \"#utility.yul\":20698:20704   */\n      0x00\n        /* \"#utility.yul\":20747:20749   */\n      0x20\n        /* \"#utility.yul\":20735:20744   */\n      dup3\n        /* \"#utility.yul\":20726:20733   */\n      dup5\n        /* \"#utility.yul\":20722:20745   */\n      sub\n        /* \"#utility.yul\":20718:20750   */\n      slt\n        /* \"#utility.yul\":20715:20834   */\n      iszero\n      tag_559\n      jumpi\n        /* \"#utility.yul\":20753:20832   */\n      tag_560\n      tag_286\n      jump\t// in\n    tag_560:\n        /* \"#utility.yul\":20715:20834   */\n    tag_559:\n        /* \"#utility.yul\":20873:20874   */\n      0x00\n        /* \"#utility.yul\":20898:20960   */\n      tag_561\n        /* \"#utility.yul\":20952:20959   */\n      dup5\n        /* \"#utility.yul\":20943:20949   */\n      dup3\n        /* \"#utility.yul\":20932:20941   */\n      dup6\n        /* \"#utility.yul\":20928:20950   */\n      add\n        /* \"#utility.yul\":20898:20960   */\n      tag_331\n      jump\t// in\n    tag_561:\n        /* \"#utility.yul\":20888:20960   */\n      swap2\n      pop\n        /* \"#utility.yul\":20844:20970   */\n      pop\n        /* \"#utility.yul\":20630:20977   */\n      swap3\n      swap2\n      pop\n      pop\n      jump\t// out\n        /* \"#utility.yul\":20983:21205   */\n    tag_86:\n        /* \"#utility.yul\":21076:21080   */\n      0x00\n        /* \"#utility.yul\":21114:21116   */\n      0x20\n        /* \"#utility.yul\":21103:21112   */\n      dup3\n        /* \"#utility.yul\":21099:21117   */\n      add\n        /* \"#utility.yul\":21091:21117   */\n      swap1\n      pop\n        /* \"#utility.yul\":21127:21198   */\n      tag_563\n        /* \"#utility.yul\":21195:21196   */\n      0x00\n        /* \"#utility.yul\":21184:21193   */\n      dup4\n        /* \"#utility.yul\":21180:21197   */\n      add\n        /* \"#utility.yul\":21171:21177   */\n      dup5\n        /* \"#utility.yul\":21127:21198   */\n      tag_309\n      jump\t// in\n    tag_563:\n        /* \"#utility.yul\":20983:21205   */\n      swap3\n      swap2\n      pop\n      pop\n      jump\t// out\n        /* \"#utility.yul\":21211:21391   */\n    tag_334:\n        /* \"#utility.yul\":21259:21336   */\n      0x4e487b7100000000000000000000000000000000000000000000000000000000\n        /* \"#utility.yul\":21256:21257   */\n      0x00\n        /* \"#utility.yul\":21249:21337   */\n      mstore\n        /* \"#utility.yul\":21356:21360   */\n      0x11\n        /* \"#utility.yul\":21353:21354   */\n      0x04\n        /* \"#utility.yul\":21346:21361   */\n      mstore\n        /* \"#utility.yul\":21380:21384   */\n      0x24\n        /* \"#utility.yul\":21377:21378   */\n      0x00\n        /* \"#utility.yul\":21370:21385   */\n      revert\n        /* \"#utility.yul\":21397:21630   */\n    tag_89:\n        /* \"#utility.yul\":21436:21439   */\n      0x00\n        /* \"#utility.yul\":21459:21483   */\n      tag_566\n        /* \"#utility.yul\":21477:21482   */\n      dup3\n        /* \"#utility.yul\":21459:21483   */\n      tag_283\n      jump\t// in\n    tag_566:\n        /* \"#utility.yul\":21450:21483   */\n      swap2\n      pop\n        /* \"#utility.yul\":21505:21571   */\n      0xffffffffffffffffffffffffffffffffffffffffffffffffffffffffffffffff\n        /* \"#utility.yul\":21498:21503   */\n      dup3\n        /* \"#utility.yul\":21495:21572   */\n      sub\n        /* \"#utility.yul\":21492:21595   */\n      tag_567\n      jumpi\n        /* \"#utility.yul\":21575:21593   */\n      tag_568\n      tag_334\n      jump\t// in\n    tag_568:\n        /* \"#utility.yul\":21492:21595   */\n    tag_567:\n        /* \"#utility.yul\":21622:21623   */\n      0x01\n        /* \"#utility.yul\":21615:21620   */\n      dup3\n        /* \"#utility.yul\":21611:21624   */\n      add\n        /* \"#utility.yul\":21604:21624   */\n      swap1\n      pop\n        /* \"#utility.yul\":21397:21630   */\n      swap2\n      swap1\n      pop\n      jump\t// out\n        /* \"#utility.yul\":21636:21816   */\n    tag_335:\n        /* \"#utility.yul\":21684:21761   */\n      0x4e487b7100000000000000000000000000000000000000000000000000000000\n        /* \"#utility.yul\":21681:21682   */\n      0x00\n        /* \"#utility.yul\":21674:21762   */\n      mstore\n        /* \"#utility.yul\":21781:21785   */\n      0x22\n        /* \"#utility.yul\":21778:21779   */\n      0x04\n        /* \"#utility.yul\":21771:21786   */\n      mstore\n        /* \"#utility.yul\":21805:21809   */\n      0x24\n        /* \"#utility.yul\":21802:21803   */\n      0x00\n        /* \"#utility.yul\":21795:21810   */\n      revert\n        /* \"#utility.yul\":21822:22142   */\n    tag_124:\n        /* \"#utility.yul\":21866:21872   */\n      0x00\n        /* \"#utility.yul\":21903:21904   */\n      0x02\n        /* \"#utility.yul\":21897:21901   */\n      dup3\n        /* \"#utility.yul\":21893:21905   */\n      div\n        /* \"#utility.yul\":21883:21905   */\n      swap1\n      pop\n        /* \"#utility.yul\":21950:21951   */\n      0x01\n        /* \"#utility.yul\":21944:21948   */\n      dup3\n        /* \"#utility.yul\":21940:21952   */\n      and\n        /* \"#utility.yul\":21971:21989   */\n      dup1\n        /* \"#utility.yul\":21961:22042   */\n      tag_571\n      jumpi\n        /* \"#utility.yul\":22027:22031   */\n      0x7f\n        /* \"#utility.yul\":22019:22025   */\n      dup3\n        /* \"#utility.yul\":22015:22032   */\n      and\n        /* \"#utility.yul\":22005:22032   */\n      swap2\n      pop\n        /* \"#utility.yul\":21961:22042   */\n    tag_571:\n        /* \"#utility.yul\":22089:22091   */\n      0x20\n        /* \"#utility.yul\":22081:22087   */\n      dup3\n        /* \"#utility.yul\":22078:22092   */\n      lt\n        /* \"#utility.yul\":22058:22076   */\n      dup2\n        /* \"#utility.yul\":22055:22093   */\n      sub\n        /* \"#utility.yul\":22052:22136   */\n      tag_572\n      jumpi\n        /* \"#utility.yul\":22108:22126   */\n      tag_573\n      tag_335\n      jump\t// in\n    tag_573:\n        /* \"#utility.yul\":22052:22136   */\n    tag_572:\n        /* \"#utility.yul\":21873:22142   */\n      pop\n        /* \"#utility.yul\":21822:22142   */\n      swap2\n      swap1\n      pop\n      jump\t// out\n        /* \"#utility.yul\":22148:22289   */\n    tag_336:\n        /* \"#utility.yul\":22197:22201   */\n      0x00\n        /* \"#utility.yul\":22220:22223   */\n      dup2\n        /* \"#utility.yul\":22212:22223   */\n      swap1\n      pop\n        /* \"#utility.yul\":22243:22246   */\n      dup2\n        /* \"#utility.yul\":22240:22241   */\n      0x00\n        /* \"#utility.yul\":22233:22247   */\n      mstore\n        /* \"#utility.yul\":22277:22281   */\n      0x20\n        /* \"#utility.yul\":22274:22275   */\n      0x00\n        /* \"#utility.yul\":22264:22282   */\n      keccak256\n        /* \"#utility.yul\":22256:22282   */\n      swap1\n      pop\n        /* \"#utility.yul\":22148:22289   */\n      swap2\n      swap1\n      pop\n      jump\t// out\n        /* \"#utility.yul\":22295:22388   */\n    tag_337:\n        /* \"#utility.yul\":22332:22338   */\n      0x00\n        /* \"#utility.yul\":22379:22381   */\n      0x20\n        /* \"#utility.yul\":22374:22376   */\n      0x1f\n        /* \"#utility.yul\":22367:22372   */\n      dup4\n        /* \"#utility.yul\":22363:22377   */\n      add\n        /* \"#utility.yul\":22359:22382   */\n      div\n        /* \"#utility.yul\":22349:22382   */\n      swap1\n      pop\n        /* \"#utility.yul\":22295:22388   */\n      swap2\n      swap1\n      pop\n      jump\t// out\n        /* \"#utility.yul\":22394:22501   */\n    tag_338:\n        /* \"#utility.yul\":22438:22446   */\n      0x00\n        /* \"#utility.yul\":22488:22493   */\n      dup3\n        /* \"#utility.yul\":22482:22486   */\n      dup3\n        /* \"#utility.yul\":22478:22494   */\n      shl\n        /* \"#utility.yul\":22457:22494   */\n      swap1\n      pop\n        /* \"#utility.yul\":22394:22501   */\n      swap3\n      swap2\n      pop\n      pop\n      jump\t// out\n        /* \"#utility.yul\":22507:22900   */\n    tag_339:\n        /* \"#utility.yul\":22576:22582   */\n      0x00\n        /* \"#utility.yul\":22626:22627   */\n      0x08\n        /* \"#utility.yul\":22614:22624   */\n      dup4\n        /* \"#utility.yul\":22610:22628   */\n      mul\n        /* \"#utility.yul\":22649:22746   */\n      tag_578\n        /* \"#utility.yul\":22679:22745   */\n      0xffffffffffffffffffffffffffffffffffffffffffffffffffffffffffffffff\n        /* \"#utility.yul\":22668:22677   */\n      dup3\n        /* \"#utility.yul\":22649:22746   */\n      tag_338\n      jump\t// in\n    tag_578:\n        /* \"#utility.yul\":22767:22806   */\n      tag_579\n        /* \"#utility.yul\":22797:22805   */\n      dup7\n        /* \"#utility.yul\":22786:22795   */\n      dup4\n        /* \"#utility.yul\":22767:22806   */\n      tag_338\n      jump\t// in\n    tag_579:\n        /* \"#utility.yul\":22755:22806   */\n      swap6\n      pop\n        /* \"#utility.yul\":22839:22843   */\n      dup1\n        /* \"#utility.yul\":22835:22844   */\n      not\n        /* \"#utility.yul\":22828:22833   */\n      dup5\n        /* \"#utility.yul\":22824:22845   */\n      and\n        /* \"#utility.yul\":22815:22845   */\n      swap4\n      pop\n        /* \"#utility.yul\":22888:22892   */\n      dup1\n        /* \"#utility.yul\":22878:22886   */\n      dup7\n        /* \"#utility.yul\":22874:22893   */\n      and\n        /* \"#utility.yul\":22867:22872   */\n      dup5\n        /* \"#utility.yul\":22864:22894   */\n      or\n        /* \"#utility.yul\":22854:22894   */\n      swap3\n      pop\n        /* \"#utility.yul\":22583:22900   */\n      pop\n      pop\n        /* \"#utility.yul\":22507:22900   */\n      swap4\n      swap3\n      pop\n      pop\n      pop\n      jump\t// out\n        /* \"#utility.yul\":22906:22966   */\n    tag_340:\n        /* \"#utility.yul\":22934:22937   */\n      0x00\n        /* \"#utility.yul\":22955:22960   */\n      dup2\n        /* \"#utility.yul\":22948:22960   */\n      swap1\n      pop\n        /* \"#utility.yul\":22906:22966   */\n      swap2\n      swap1\n      pop\n      jump\t// out\n        /* \"#utility.yul\":22972:23114   */\n    tag_341:\n        /* \"#utility.yul\":23022:23031   */\n      0x00\n        /* \"#utility.yul\":23055:23108   */\n      tag_582\n        /* \"#utility.yul\":23073:23107   */\n      tag_583\n        /* \"#utility.yul\":23082:23106   */\n      tag_584\n        /* \"#utility.yul\":23100:23105   */\n      dup5\n        /* \"#utility.yul\":23082:23106   */\n      tag_283\n      jump\t// in\n    tag_584:\n        /* \"#utility.yul\":23073:23107   */\n      tag_340\n      jump\t// in\n    tag_583:\n        /* \"#utility.yul\":23055:23108   */\n      tag_283\n      jump\t// in\n    tag_582:\n        /* \"#utility.yul\":23042:23108   */\n      swap1\n      pop\n        /* \"#utility.yul\":22972:23114   */\n      swap2\n      swap1\n      pop\n      jump\t// out\n        /* \"#utility.yul\":23120:23195   */\n    tag_342:\n        /* \"#utility.yul\":23163:23166   */\n      0x00\n        /* \"#utility.yul\":23184:23189   */\n      dup2\n        /* \"#utility.yul\":23177:23189   */\n      swap1\n      pop\n        /* \"#utility.yul\":23120:23195   */\n      swap2\n      swap1\n      pop\n      jump\t// out\n        /* \"#utility.yul\":23201:23470   */\n    tag_343:\n        /* \"#utility.yul\":23311:23350   */\n      tag_587\n        /* \"#utility.yul\":23342:23349   */\n      dup4\n        /* \"#utility.yul\":23311:23350   */\n      tag_341\n      jump\t// in\n    tag_587:\n        /* \"#utility.yul\":23372:23463   */\n      tag_588\n        /* \"#utility.yul\":23421:23462   */\n      tag_589\n        /* \"#utility.yul\":23445:23461   */\n      dup3\n        /* \"#utility.yul\":23421:23462   */\n      tag_342\n      jump\t// in\n    tag_589:\n        /* \"#utility.yul\":23413:23419   */\n      dup5\n        /* \"#utility.yul\":23406:23410   */\n      dup5\n        /* \"#utility.yul\":23400:23411   */\n      sload\n        /* \"#utility.yul\":23372:23463   */\n      tag_339\n      jump\t// in\n    tag_588:\n        /* \"#utility.yul\":23366:23370   */\n      dup3\n        /* \"#utility.yul\":23359:23464   */\n      sstore\n        /* \"#utility.yul\":23277:23470   */\n      pop\n        /* \"#utility.yul\":23201:23470   */\n      pop\n      pop\n      pop\n      jump\t// out\n        /* \"#utility.yul\":23476:23549   */\n    tag_344:\n        /* \"#utility.yul\":23521:23524   */\n      0x00\n        /* \"#utility.yul\":23476:23549   */\n      swap1\n      jump\t// out\n        /* \"#utility.yul\":23555:23744   */\n    tag_345:\n        /* \"#utility.yul\":23632:23664   */\n      tag_592\n      tag_344\n      jump\t// in\n    tag_592:\n        /* \"#utility.yul\":23673:23738   */\n      tag_593\n        /* \"#utility.yul\":23731:23737   */\n      dup2\n        /* \"#utility.yul\":23723:23729   */\n      dup5\n        /* \"#utility.yul\":23717:23721   */\n      dup5\n        /* \"#utility.yul\":23673:23738   */\n      tag_343\n      jump\t// in\n    tag_593:\n        /* \"#utility.yul\":23608:23744   */\n      pop\n        /* \"#utility.yul\":23555:23744   */\n      pop\n      pop\n      jump\t// out\n        /* \"#utility.yul\":23750:23936   */\n    tag_346:\n        /* \"#utility.yul\":23810:23930   */\n    tag_595:\n        /* \"#utility.yul\":23827:23830   */\n      dup2\n        /* \"#utility.yul\":23820:23825   */\n      dup2\n        /* \"#utility.yul\":23817:23831   */\n      lt\n        /* \"#utility.yul\":23810:23930   */\n      iszero\n      tag_597\n      jumpi\n        /* \"#utility.yul\":23881:23920   */\n      tag_598\n        /* \"#utility.yul\":23918:23919   */\n      0x00\n        /* \"#utility.yul\":23911:23916   */\n      dup3\n        /* \"#utility.yul\":23881:23920   */\n      tag_345\n      jump\t// in\n    tag_598:\n        /* \"#utility.yul\":23854:23855   */\n      0x01\n        /* \"#utility.yul\":23847:23852   */\n      dup2\n        /* \"#utility.yul\":23843:23856   */\n      add\n        /* \"#utility.yul\":23834:23856   */\n      swap1\n      pop\n        /* \"#utility.yul\":23810:23930   */\n      jump(tag_595)\n    tag_597:\n        /* \"#utility.yul\":23750:23936   */\n      pop\n      pop\n      jump\t// out\n        /* \"#utility.yul\":23942:24485   */\n    tag_347:\n        /* \"#utility.yul\":24043:24045   */\n      0x1f\n        /* \"#utility.yul\":24038:24041   */\n      dup3\n        /* \"#utility.yul\":24035:24046   */\n      gt\n        /* \"#utility.yul\":24032:24478   */\n      iszero\n      tag_600\n      jumpi\n        /* \"#utility.yul\":24077:24115   */\n      tag_601\n        /* \"#utility.yul\":24109:24114   */\n      dup2\n        /* \"#utility.yul\":24077:24115   */\n      tag_336\n      jump\t// in\n    tag_601:\n        /* \"#utility.yul\":24161:24190   */\n      tag_602\n        /* \"#utility.yul\":24179:24189   */\n      dup5\n        /* \"#utility.yul\":24161:24190   */\n      tag_337\n      jump\t// in\n    tag_602:\n        /* \"#utility.yul\":24151:24159   */\n      dup2\n        /* \"#utility.yul\":24147:24191   */\n      add\n        /* \"#utility.yul\":24344:24346   */\n      0x20\n        /* \"#utility.yul\":24332:24342   */\n      dup6\n        /* \"#utility.yul\":24329:24347   */\n      lt\n        /* \"#utility.yul\":24326:24375   */\n      iszero\n      tag_603\n      jumpi\n        /* \"#utility.yul\":24365:24373   */\n      dup2\n        /* \"#utility.yul\":24350:24373   */\n      swap1\n      pop\n        /* \"#utility.yul\":24326:24375   */\n    tag_603:\n        /* \"#utility.yul\":24388:24468   */\n      tag_604\n        /* \"#utility.yul\":24444:24466   */\n      tag_605\n        /* \"#utility.yul\":24462:24465   */\n      dup6\n        /* \"#utility.yul\":24444:24466   */\n      tag_337\n      jump\t// in\n    tag_605:\n        /* \"#utility.yul\":24434:24442   */\n      dup4\n        /* \"#utility.yul\":24430:24467   */\n      add\n        /* \"#utility.yul\":24417:24428   */\n      dup3\n        /* \"#utility.yul\":24388:24468   */\n      tag_346\n      jump\t// in\n    tag_604:\n        /* \"#utility.yul\":24047:24478   */\n      pop\n      pop\n        /* \"#utility.yul\":24032:24478   */\n    tag_600:\n        /* \"#utility.yul\":23942:24485   */\n      pop\n      pop\n      pop\n      jump\t// out\n        /* \"#utility.yul\":24491:24608   */\n    tag_348:\n        /* \"#utility.yul\":24545:24553   */\n      0x00\n        /* \"#utility.yul\":24595:24600   */\n      dup3\n        /* \"#utility.yul\":24589:24593   */\n      dup3\n        /* \"#utility.yul\":24585:24601   */\n      shr\n        /* \"#utility.yul\":24564:24601   */\n      swap1\n      pop\n        /* \"#utility.yul\":24491:24608   */\n      swap3\n      swap2\n      pop\n      pop\n      jump\t// out\n        /* \"#utility.yul\":24614:24783   */\n    tag_349:\n        /* \"#utility.yul\":24658:24664   */\n      0x00\n        /* \"#utility.yul\":24691:24742   */\n      tag_608\n        /* \"#utility.yul\":24739:24740   */\n      0x00\n        /* \"#utility.yul\":24735:24741   */\n      not\n        /* \"#utility.yul\":24727:24732   */\n      dup5\n        /* \"#utility.yul\":24724:24725   */\n      0x08\n        /* \"#utility.yul\":24720:24733   */\n      mul\n        /* \"#utility.yul\":24691:24742   */\n      tag_348\n      jump\t// in\n    tag_608:\n        /* \"#utility.yul\":24687:24743   */\n      not\n        /* \"#utility.yul\":24772:24776   */\n      dup1\n        /* \"#utility.yul\":24766:24770   */\n      dup4\n        /* \"#utility.yul\":24762:24777   */\n      and\n        /* \"#utility.yul\":24752:24777   */\n      swap2\n      pop\n        /* \"#utility.yul\":24665:24783   */\n      pop\n        /* \"#utility.yul\":24614:24783   */\n      swap3\n      swap2\n      pop\n      pop\n      jump\t// out\n        /* \"#utility.yul\":24788:25083   */\n    tag_350:\n        /* \"#utility.yul\":24864:24868   */\n      0x00\n        /* \"#utility.yul\":25010:25039   */\n      tag_610\n        /* \"#utility.yul\":25035:25038   */\n      dup4\n        /* \"#utility.yul\":25029:25033   */\n      dup4\n        /* \"#utility.yul\":25010:25039   */\n      tag_349\n      jump\t// in\n    tag_610:\n        /* \"#utility.yul\":25002:25039   */\n      swap2\n      pop\n        /* \"#utility.yul\":25072:25075   */\n      dup3\n        /* \"#utility.yul\":25069:25070   */\n      0x02\n        /* \"#utility.yul\":25065:25076   */\n      mul\n        /* \"#utility.yul\":25059:25063   */\n      dup3\n        /* \"#utility.yul\":25056:25077   */\n      or\n        /* \"#utility.yul\":25048:25077   */\n      swap1\n      pop\n        /* \"#utility.yul\":24788:25083   */\n      swap3\n      swap2\n      pop\n      pop\n      jump\t// out\n        /* \"#utility.yul\":25088:26483   */\n    tag_94:\n        /* \"#utility.yul\":25205:25242   */\n      tag_612\n        /* \"#utility.yul\":25238:25241   */\n      dup3\n        /* \"#utility.yul\":25205:25242   */\n      tag_303\n      jump\t// in\n    tag_612:\n        /* \"#utility.yul\":25307:25325   */\n      0xffffffffffffffff\n        /* \"#utility.yul\":25299:25305   */\n      dup2\n        /* \"#utility.yul\":25296:25326   */\n      gt\n        /* \"#utility.yul\":25293:25349   */\n      iszero\n      tag_613\n      jumpi\n        /* \"#utility.yul\":25329:25347   */\n      tag_614\n      tag_291\n      jump\t// in\n    tag_614:\n        /* \"#utility.yul\":25293:25349   */\n    tag_613:\n        /* \"#utility.yul\":25373:25411   */\n      tag_615\n        /* \"#utility.yul\":25405:25409   */\n      dup3\n        /* \"#utility.yul\":25399:25410   */\n      sload\n        /* \"#utility.yul\":25373:25411   */\n      tag_124\n      jump\t// in\n    tag_615:\n        /* \"#utility.yul\":25458:25525   */\n      tag_616\n        /* \"#utility.yul\":25518:25524   */\n      dup3\n        /* \"#utility.yul\":25510:25516   */\n      dup3\n        /* \"#utility.yul\":25504:25508   */\n      dup6\n        /* \"#utility.yul\":25458:25525   */\n      tag_347\n      jump\t// in\n    tag_616:\n        /* \"#utility.yul\":25552:25553   */\n      0x00\n        /* \"#utility.yul\":25576:25580   */\n      0x20\n        /* \"#utility.yul\":25563:25580   */\n      swap1\n      pop\n        /* \"#utility.yul\":25608:25610   */\n      0x1f\n        /* \"#utility.yul\":25600:25606   */\n      dup4\n        /* \"#utility.yul\":25597:25611   */\n      gt\n        /* \"#utility.yul\":25625:25626   */\n      0x01\n        /* \"#utility.yul\":25620:26238   */\n      dup2\n      eq\n      tag_618\n      jumpi\n        /* \"#utility.yul\":26282:26283   */\n      0x00\n        /* \"#utility.yul\":26299:26305   */\n      dup5\n        /* \"#utility.yul\":26296:26373   */\n      iszero\n      tag_619\n      jumpi\n        /* \"#utility.yul\":26348:26357   */\n      dup3\n        /* \"#utility.yul\":26343:26346   */\n      dup8\n        /* \"#utility.yul\":26339:26358   */\n      add\n        /* \"#utility.yul\":26333:26359   */\n      mload\n        /* \"#utility.yul\":26324:26359   */\n      swap1\n      pop\n        /* \"#utility.yul\":26296:26373   */\n    tag_619:\n        /* \"#utility.yul\":26399:26466   */\n      tag_620\n        /* \"#utility.yul\":26459:26465   */\n      dup6\n        /* \"#utility.yul\":26452:26457   */\n      dup3\n        /* \"#utility.yul\":26399:26466   */\n      tag_350\n      jump\t// in\n    tag_620:\n        /* \"#utility.yul\":26393:26397   */\n      dup7\n        /* \"#utility.yul\":26386:26467   */\n      sstore\n        /* \"#utility.yul\":26255:26477   */\n      pop\n        /* \"#utility.yul\":25590:26477   */\n      jump(tag_617)\n        /* \"#utility.yul\":25620:26238   */\n    tag_618:\n        /* \"#utility.yul\":25672:25676   */\n      0x1f\n        /* \"#utility.yul\":25668:25677   */\n      not\n        /* \"#utility.yul\":25660:25666   */\n      dup5\n        /* \"#utility.yul\":25656:25678   */\n      and\n        /* \"#utility.yul\":25706:25743   */\n      tag_621\n        /* \"#utility.yul\":25738:25742   */\n      dup7\n        /* \"#utility.yul\":25706:25743   */\n      tag_336\n      jump\t// in\n    tag_621:\n        /* \"#utility.yul\":25765:25766   */\n      0x00\n        /* \"#utility.yul\":25779:25987   */\n    tag_622:\n        /* \"#utility.yul\":25793:25800   */\n      dup3\n        /* \"#utility.yul\":25790:25791   */\n      dup2\n        /* \"#utility.yul\":25787:25801   */\n      lt\n        /* \"#utility.yul\":25779:25987   */\n      iszero\n      tag_624\n      jumpi\n        /* \"#utility.yul\":25872:25881   */\n      dup5\n        /* \"#utility.yul\":25867:25870   */\n      dup10\n        /* \"#utility.yul\":25863:25882   */\n      add\n        /* \"#utility.yul\":25857:25883   */\n      mload\n        /* \"#utility.yul\":25849:25855   */\n      dup3\n        /* \"#utility.yul\":25842:25884   */\n      sstore\n        /* \"#utility.yul\":25923:25924   */\n      0x01\n        /* \"#utility.yul\":25915:25921   */\n      dup3\n        /* \"#utility.yul\":25911:25925   */\n      add\n        /* \"#utility.yul\":25901:25925   */\n      swap2\n      pop\n        /* \"#utility.yul\":25970:25972   */\n      0x20\n        /* \"#utility.yul\":25959:25968   */\n      dup6\n        /* \"#utility.yul\":25955:25973   */\n      add\n        /* \"#utility.yul\":25942:25973   */\n      swap5\n      pop\n        /* \"#utility.yul\":25816:25820   */\n      0x20\n        /* \"#utility.yul\":25813:25814   */\n      dup2\n        /* \"#utility.yul\":25809:25821   */\n      add\n        /* \"#utility.yul\":25804:25821   */\n      swap1\n      pop\n        /* \"#utility.yul\":25779:25987   */\n      jump(tag_622)\n    tag_624:\n        /* \"#utility.yul\":26015:26021   */\n      dup7\n        /* \"#utility.yul\":26006:26013   */\n      dup4\n        /* \"#utility.yul\":26003:26022   */\n      lt\n        /* \"#utility.yul\":26000:26179   */\n      iszero\n      tag_625\n      jumpi\n        /* \"#utility.yul\":26073:26082   */\n      dup5\n        /* \"#utility.yul\":26068:26071   */\n      dup10\n        /* \"#utility.yul\":26064:26083   */\n      add\n        /* \"#utility.yul\":26058:26084   */\n      mload\n        /* \"#utility.yul\":26116:26164   */\n      tag_626\n        /* \"#utility.yul\":26158:26162   */\n      0x1f\n        /* \"#utility.yul\":26150:26156   */\n      dup10\n        /* \"#utility.yul\":26146:26163   */\n      and\n        /* \"#utility.yul\":26135:26144   */\n      dup3\n        /* \"#utility.yul\":26116:26164   */\n      tag_349\n      jump\t// in\n    tag_626:\n        /* \"#utility.yul\":26108:26114   */\n      dup4\n        /* \"#utility.yul\":26101:26165   */\n      sstore\n        /* \"#utility.yul\":26023:26179   */\n      pop\n        /* \"#utility.yul\":26000:26179   */\n    tag_625:\n        /* \"#utility.yul\":26225:26226   */\n      0x01\n        /* \"#utility.yul\":26221:26222   */\n      0x02\n        /* \"#utility.yul\":26213:26219   */\n      dup9\n        /* \"#utility.yul\":26209:26223   */\n      mul\n        /* \"#utility.yul\":26205:26227   */\n      add\n        /* \"#utility.yul\":26199:26203   */\n      dup9\n        /* \"#utility.yul\":26192:26228   */\n      sstore\n        /* \"#utility.yul\":25627:26238   */\n      pop\n      pop\n      pop\n        /* \"#utility.yul\":25590:26477   */\n    tag_617:\n      pop\n        /* \"#utility.yul\":25180:26483   */\n      pop\n      pop\n      pop\n        /* \"#utility.yul\":25088:26483   */\n      pop\n      pop\n      jump\t// out\n        /* \"#utility.yul\":26489:27022   */\n    tag_101:\n        /* \"#utility.yul\":26658:26662   */\n      0x00\n        /* \"#utility.yul\":26696:26698   */\n      0x60\n        /* \"#utility.yul\":26685:26694   */\n      dup3\n        /* \"#utility.yul\":26681:26699   */\n      add\n        /* \"#utility.yul\":26673:26699   */\n      swap1\n      pop\n        /* \"#utility.yul\":26709:26780   */\n      tag_628\n        /* \"#utility.yul\":26777:26778   */\n      0x00\n        /* \"#utility.yul\":26766:26775   */\n      dup4\n        /* \"#utility.yul\":26762:26779   */\n      add\n        /* \"#utility.yul\":26753:26759   */\n      dup7\n        /* \"#utility.yul\":26709:26780   */\n      tag_284\n      jump\t// in\n    tag_628:\n        /* \"#utility.yul\":26827:26836   */\n      dup2\n        /* \"#utility.yul\":26821:26825   */\n      dup2\n        /* \"#utility.yul\":26817:26837   */\n      sub\n        /* \"#utility.yul\":26812:26814   */\n      0x20\n        /* \"#utility.yul\":26801:26810   */\n      dup4\n        /* \"#utility.yul\":26797:26815   */\n      add\n        /* \"#utility.yul\":26790:26838   */\n      mstore\n        /* \"#utility.yul\":26855:26933   */\n      tag_629\n        /* \"#utility.yul\":26928:26932   */\n      dup2\n        /* \"#utility.yul\":26919:26925   */\n      dup6\n        /* \"#utility.yul\":26855:26933   */\n      tag_306\n      jump\t// in\n    tag_629:\n        /* \"#utility.yul\":26847:26933   */\n      swap1\n      pop\n        /* \"#utility.yul\":26943:27015   */\n      tag_630\n        /* \"#utility.yul\":27011:27013   */\n      0x40\n        /* \"#utility.yul\":27000:27009   */\n      dup4\n        /* \"#utility.yul\":26996:27014   */\n      add\n        /* \"#utility.yul\":26987:26993   */\n      dup5\n        /* \"#utility.yul\":26943:27015   */\n      tag_309\n      jump\t// in\n    tag_630:\n        /* \"#utility.yul\":26489:27022   */\n      swap5\n      swap4\n      pop\n      pop\n      pop\n      pop\n      jump\t// out\n        /* \"#utility.yul\":27028:27203   */\n    tag_351:\n        /* \"#utility.yul\":27168:27195   */\n      0x50726f6475637420494420646f6573206e6f7420657869737400000000000000\n        /* \"#utility.yul\":27164:27165   */\n      0x00\n        /* \"#utility.yul\":27156:27162   */\n      dup3\n        /* \"#utility.yul\":27152:27166   */\n      add\n        /* \"#utility.yul\":27145:27196   */\n      mstore\n        /* \"#utility.yul\":27028:27203   */\n      pop\n      jump\t// out\n        /* \"#utility.yul\":27209:27575   */\n    tag_352:\n        /* \"#utility.yul\":27351:27354   */\n      0x00\n        /* \"#utility.yul\":27372:27439   */\n      tag_633\n        /* \"#utility.yul\":27436:27438   */\n      0x19\n        /* \"#utility.yul\":27431:27434   */\n      dup4\n        /* \"#utility.yul\":27372:27439   */\n      tag_304\n      jump\t// in\n    tag_633:\n        /* \"#utility.yul\":27365:27439   */\n      swap2\n      pop\n        /* \"#utility.yul\":27448:27541   */\n      tag_634\n        /* \"#utility.yul\":27537:27540   */\n      dup3\n        /* \"#utility.yul\":27448:27541   */\n      tag_351\n      jump\t// in\n    tag_634:\n        /* \"#utility.yul\":27566:27568   */\n      0x20\n        /* \"#utility.yul\":27561:27564   */\n      dup3\n        /* \"#utility.yul\":27557:27569   */\n      add\n        /* \"#utility.yul\":27550:27569   */\n      swap1\n      pop\n        /* \"#utility.yul\":27209:27575   */\n      swap2\n      swap1\n      pop\n      jump\t// out\n        /* \"#utility.yul\":27581:28000   */\n    tag_106:\n        /* \"#utility.yul\":27747:27751   */\n      0x00\n        /* \"#utility.yul\":27785:27787   */\n      0x20\n        /* \"#utility.yul\":27774:27783   */\n      dup3\n        /* \"#utility.yul\":27770:27788   */\n      add\n        /* \"#utility.yul\":27762:27788   */\n      swap1\n      pop\n        /* \"#utility.yul\":27834:27843   */\n      dup2\n        /* \"#utility.yul\":27828:27832   */\n      dup2\n        /* \"#utility.yul\":27824:27844   */\n      sub\n        /* \"#utility.yul\":27820:27821   */\n      0x00\n        /* \"#utility.yul\":27809:27818   */\n      dup4\n        /* \"#utility.yul\":27805:27822   */\n      add\n        /* \"#utility.yul\":27798:27845   */\n      mstore\n        /* \"#utility.yul\":27862:27993   */\n      tag_636\n        /* \"#utility.yul\":27988:27992   */\n      dup2\n        /* \"#utility.yul\":27862:27993   */\n      tag_352\n      jump\t// in\n    tag_636:\n        /* \"#utility.yul\":27854:27993   */\n      swap1\n      pop\n        /* \"#utility.yul\":27581:28000   */\n      swap2\n      swap1\n      pop\n      jump\t// out\n        /* \"#utility.yul\":28006:28165   */\n    tag_353:\n        /* \"#utility.yul\":28146:28157   */\n      0x4e6f74204f776e65720000000000000000000000000000000000000000000000\n        /* \"#utility.yul\":28142:28143   */\n      0x00\n        /* \"#utility.yul\":28134:28140   */\n      dup3\n        /* \"#utility.yul\":28130:28144   */\n      add\n        /* \"#utility.yul\":28123:28158   */\n      mstore\n        /* \"#utility.yul\":28006:28165   */\n      pop\n      jump\t// out\n        /* \"#utility.yul\":28171:28536   */\n    tag_354:\n        /* \"#utility.yul\":28313:28316   */\n      0x00\n        /* \"#utility.yul\":28334:28400   */\n      tag_639\n        /* \"#utility.yul\":28398:28399   */\n      0x09\n        /* \"#utility.yul\":28393:28396   */\n      dup4\n        /* \"#utility.yul\":28334:28400   */\n      tag_304\n      jump\t// in\n    tag_639:\n        /* \"#utility.yul\":28327:28400   */\n      swap2\n      pop\n        /* \"#utility.yul\":28409:28502   */\n      tag_640\n        /* \"#utility.yul\":28498:28501   */\n      dup3\n        /* \"#utility.yul\":28409:28502   */\n      tag_353\n      jump\t// in\n    tag_640:\n        /* \"#utility.yul\":28527:28529   */\n      0x20\n        /* \"#utility.yul\":28522:28525   */\n      dup3\n        /* \"#utility.yul\":28518:28530   */\n      add\n        /* \"#utility.yul\":28511:28530   */\n      swap1\n      pop\n        /* \"#utility.yul\":28171:28536   */\n      swap2\n      swap1\n      pop\n      jump\t// out\n        /* \"#utility.yul\":28542:28961   */\n    tag_202:\n        /* \"#utility.yul\":28708:28712   */\n      0x00\n        /* \"#utility.yul\":28746:28748   */\n      0x20\n        /* \"#utility.yul\":28735:28744   */\n      dup3\n        /* \"#utility.yul\":28731:28749   */\n      add\n        /* \"#utility.yul\":28723:28749   */\n      swap1\n      pop\n        /* \"#utility.yul\":28795:28804   */\n      dup2\n        /* \"#utility.yul\":28789:28793   */\n      dup2\n        /* \"#utility.yul\":28785:28805   */\n      sub\n        /* \"#utility.yul\":28781:28782   */\n      0x00\n        /* \"#utility.yul\":28770:28779   */\n      dup4\n        /* \"#utility.yul\":28766:28783   */\n      add\n        /* \"#utility.yul\":28759:28806   */\n      mstore\n        /* \"#utility.yul\":28823:28954   */\n      tag_642\n        /* \"#utility.yul\":28949:28953   */\n      dup2\n        /* \"#utility.yul\":28823:28954   */\n      tag_354\n      jump\t// in\n    tag_642:\n        /* \"#utility.yul\":28815:28954   */\n      swap1\n      pop\n        /* \"#utility.yul\":28542:28961   */\n      swap2\n      swap1\n      pop\n      jump\t// out\n        /* \"#utility.yul\":28967:29192   */\n    tag_355:\n        /* \"#utility.yul\":29107:29141   */\n      0x4e6577204f776e65722063616e206e6f74206265207468652063757272656e74\n        /* \"#utility.yul\":29103:29104   */\n      0x00\n        /* \"#utility.yul\":29095:29101   */\n      dup3\n        /* \"#utility.yul\":29091:29105   */\n      add\n        /* \"#utility.yul\":29084:29142   */\n      mstore\n        /* \"#utility.yul\":29176:29184   */\n      0x206f776e65720000000000000000000000000000000000000000000000000000\n        /* \"#utility.yul\":29171:29173   */\n      0x20\n        /* \"#utility.yul\":29163:29169   */\n      dup3\n        /* \"#utility.yul\":29159:29174   */\n      add\n        /* \"#utility.yul\":29152:29185   */\n      mstore\n        /* \"#utility.yul\":28967:29192   */\n      pop\n      jump\t// out\n        /* \"#utility.yul\":29198:29564   */\n    tag_356:\n        /* \"#utility.yul\":29340:29343   */\n      0x00\n        /* \"#utility.yul\":29361:29428   */\n      tag_645\n        /* \"#utility.yul\":29425:29427   */\n      0x26\n        /* \"#utility.yul\":29420:29423   */\n      dup4\n        /* \"#utility.yul\":29361:29428   */\n      tag_304\n      jump\t// in\n    tag_645:\n        /* \"#utility.yul\":29354:29428   */\n      swap2\n      pop\n        /* \"#utility.yul\":29437:29530   */\n      tag_646\n        /* \"#utility.yul\":29526:29529   */\n      dup3\n        /* \"#utility.yul\":29437:29530   */\n      tag_355\n      jump\t// in\n    tag_646:\n        /* \"#utility.yul\":29555:29557   */\n      0x40\n        /* \"#utility.yul\":29550:29553   */\n      dup3\n        /* \"#utility.yul\":29546:29558   */\n      add\n        /* \"#utility.yul\":29539:29558   */\n      swap1\n      pop\n        /* \"#utility.yul\":29198:29564   */\n      swap2\n      swap1\n      pop\n      jump\t// out\n        /* \"#utility.yul\":29570:29989   */\n    tag_210:\n        /* \"#utility.yul\":29736:29740   */\n      0x00\n        /* \"#utility.yul\":29774:29776   */\n      0x20\n        /* \"#utility.yul\":29763:29772   */\n      dup3\n        /* \"#utility.yul\":29759:29777   */\n      add\n        /* \"#utility.yul\":29751:29777   */\n      swap1\n      pop\n        /* \"#utility.yul\":29823:29832   */\n      dup2\n        /* \"#utility.yul\":29817:29821   */\n      dup2\n        /* \"#utility.yul\":29813:29833   */\n      sub\n        /* \"#utility.yul\":29809:29810   */\n      0x00\n        /* \"#utility.yul\":29798:29807   */\n      dup4\n        /* \"#utility.yul\":29794:29811   */\n      add\n        /* \"#utility.yul\":29787:29834   */\n      mstore\n        /* \"#utility.yul\":29851:29982   */\n      tag_648\n        /* \"#utility.yul\":29977:29981   */\n      dup2\n        /* \"#utility.yul\":29851:29982   */\n      tag_356\n      jump\t// in\n    tag_648:\n        /* \"#utility.yul\":29843:29982   */\n      swap1\n      pop\n        /* \"#utility.yul\":29570:29989   */\n      swap2\n      swap1\n      pop\n      jump\t// out\n        /* \"#utility.yul\":29995:30327   */\n    tag_212:\n        /* \"#utility.yul\":30116:30120   */\n      0x00\n        /* \"#utility.yul\":30154:30156   */\n      0x40\n        /* \"#utility.yul\":30143:30152   */\n      dup3\n        /* \"#utility.yul\":30139:30157   */\n      add\n        /* \"#utility.yul\":30131:30157   */\n      swap1\n      pop\n        /* \"#utility.yul\":30167:30238   */\n      tag_650\n        /* \"#utility.yul\":30235:30236   */\n      0x00\n        /* \"#utility.yul\":30224:30233   */\n      dup4\n        /* \"#utility.yul\":30220:30237   */\n      add\n        /* \"#utility.yul\":30211:30217   */\n      dup6\n        /* \"#utility.yul\":30167:30238   */\n      tag_284\n      jump\t// in\n    tag_650:\n        /* \"#utility.yul\":30248:30320   */\n      tag_651\n        /* \"#utility.yul\":30316:30318   */\n      0x20\n        /* \"#utility.yul\":30305:30314   */\n      dup4\n        /* \"#utility.yul\":30301:30319   */\n      add\n        /* \"#utility.yul\":30292:30298   */\n      dup5\n        /* \"#utility.yul\":30248:30320   */\n      tag_309\n      jump\t// in\n    tag_651:\n        /* \"#utility.yul\":29995:30327   */\n      swap4\n      swap3\n      pop\n      pop\n      pop\n      jump\t// out\n        /* \"#utility.yul\":30333:30679   */\n    tag_224:\n        /* \"#utility.yul\":30461:30465   */\n      0x00\n        /* \"#utility.yul\":30499:30501   */\n      0x40\n        /* \"#utility.yul\":30488:30497   */\n      dup3\n        /* \"#utility.yul\":30484:30502   */\n      add\n        /* \"#utility.yul\":30476:30502   */\n      swap1\n      pop\n        /* \"#utility.yul\":30512:30583   */\n      tag_653\n        /* \"#utility.yul\":30580:30581   */\n      0x00\n        /* \"#utility.yul\":30569:30578   */\n      dup4\n        /* \"#utility.yul\":30565:30582   */\n      add\n        /* \"#utility.yul\":30556:30562   */\n      dup6\n        /* \"#utility.yul\":30512:30583   */\n      tag_284\n      jump\t// in\n    tag_653:\n        /* \"#utility.yul\":30593:30672   */\n      tag_654\n        /* \"#utility.yul\":30668:30670   */\n      0x20\n        /* \"#utility.yul\":30657:30666   */\n      dup4\n        /* \"#utility.yul\":30653:30671   */\n      add\n        /* \"#utility.yul\":30644:30650   */\n      dup5\n        /* \"#utility.yul\":30593:30672   */\n      tag_327\n      jump\t// in\n    tag_654:\n        /* \"#utility.yul\":30333:30679   */\n      swap4\n      swap3\n      pop\n      pop\n      pop\n      jump\t// out\n        /* \"#utility.yul\":30685:30857   */\n    tag_357:\n        /* \"#utility.yul\":30825:30849   */\n      0x5573657220494420646f6573206e6f7420657869737400000000000000000000\n        /* \"#utility.yul\":30821:30822   */\n      0x00\n        /* \"#utility.yul\":30813:30819   */\n      dup3\n        /* \"#utility.yul\":30809:30823   */\n      add\n        /* \"#utility.yul\":30802:30850   */\n      mstore\n        /* \"#utility.yul\":30685:30857   */\n      pop\n      jump\t// out\n        /* \"#utility.yul\":30863:31229   */\n    tag_358:\n        /* \"#utility.yul\":31005:31008   */\n      0x00\n        /* \"#utility.yul\":31026:31093   */\n      tag_657\n        /* \"#utility.yul\":31090:31092   */\n      0x16\n        /* \"#utility.yul\":31085:31088   */\n      dup4\n        /* \"#utility.yul\":31026:31093   */\n      tag_304\n      jump\t// in\n    tag_657:\n        /* \"#utility.yul\":31019:31093   */\n      swap2\n      pop\n        /* \"#utility.yul\":31102:31195   */\n      tag_658\n        /* \"#utility.yul\":31191:31194   */\n      dup3\n        /* \"#utility.yul\":31102:31195   */\n      tag_357\n      jump\t// in\n    tag_658:\n        /* \"#utility.yul\":31220:31222   */\n      0x20\n        /* \"#utility.yul\":31215:31218   */\n      dup3\n        /* \"#utility.yul\":31211:31223   */\n      add\n        /* \"#utility.yul\":31204:31223   */\n      swap1\n      pop\n        /* \"#utility.yul\":30863:31229   */\n      swap2\n      swap1\n      pop\n      jump\t// out\n        /* \"#utility.yul\":31235:31654   */\n    tag_237:\n        /* \"#utility.yul\":31401:31405   */\n      0x00\n        /* \"#utility.yul\":31439:31441   */\n      0x20\n        /* \"#utility.yul\":31428:31437   */\n      dup3\n        /* \"#utility.yul\":31424:31442   */\n      add\n        /* \"#utility.yul\":31416:31442   */\n      swap1\n      pop\n        /* \"#utility.yul\":31488:31497   */\n      dup2\n        /* \"#utility.yul\":31482:31486   */\n      dup2\n        /* \"#utility.yul\":31478:31498   */\n      sub\n        /* \"#utility.yul\":31474:31475   */\n      0x00\n        /* \"#utility.yul\":31463:31472   */\n      dup4\n        /* \"#utility.yul\":31459:31476   */\n      add\n        /* \"#utility.yul\":31452:31499   */\n      mstore\n        /* \"#utility.yul\":31516:31647   */\n      tag_660\n        /* \"#utility.yul\":31642:31646   */\n      dup2\n        /* \"#utility.yul\":31516:31647   */\n      tag_358\n      jump\t// in\n    tag_660:\n        /* \"#utility.yul\":31508:31647   */\n      swap1\n      pop\n        /* \"#utility.yul\":31235:31654   */\n      swap2\n      swap1\n      pop\n      jump\t// out\n\n    auxdata: 0xa264697066735822122058f65d2ea556eb93841387532972a2f22e4bca782932b255921addf53b7bc70864736f6c634300081a0033\n}\n",
				"bytecode": {
					"linkReferences": {},
					"object": "60806040525f80555f6001553360025f6101000a81548173ffffffffffffffffffffffffffffffffffffffff021916908373ffffffffffffffffffffffffffffffffffffffff1602179055503480156055575f80fd5b50612a5e806100635f395ff3fe608060405234801561000f575f80fd5b50600436106100f3575f3560e01c806389b3887e11610095578063b0467deb11610064578063b0467deb146102a2578063d6d9a024146102d2578063e0f6ef8714610302578063f46296be14610320576100f3565b806389b3887e1461021c578063920e2621146102385780639be572f614610254578063ac4640e114610272576100f3565b8063365b98b2116100d1578063365b98b21461016157806348f7eb301461019757806352312cea146101c75780637acc0b20146101e3576100f3565b806307973ccf146100f7578063084289f8146101155780630ea3d3ee14610131575b5f80fd5b6100ff61033e565b60405161010c9190611a8a565b60405180910390f35b61012f600480360381019061012a9190611c51565b610344565b005b61014b60048036038101906101469190611d4a565b610534565b6040516101589190611dd5565b60405180910390f35b61017b60048036038101906101769190611d4a565b61075f565b60405161018e9796959493929190611ea7565b60405180910390f35b6101b160048036038101906101ac9190611d4a565b61095a565b6040516101be91906120d0565b60405180910390f35b6101e160048036038101906101dc9190612113565b610ce3565b005b6101fd60048036038101906101f89190611d4a565b610e3c565b6040516102139a999897969594939291906121e9565b60405180910390f35b610236600480360381019061023191906122c9565b6110dd565b005b610252600480360381019061024d919061232a565b6112ce565b005b61025c61143a565b6040516102699190611a8a565b60405180910390f35b61028c60048036038101906102879190611d4a565b611443565b6040516102999190612368565b60405180910390f35b6102bc60048036038101906102b79190611d4a565b6114bd565b6040516102c99190612437565b60405180910390f35b6102ec60048036038101906102e79190612457565b61178c565b6040516102f99190611dd5565b60405180910390f35b61030a61196e565b6040516103179190611a8a565b60405180910390f35b610328611973565b6040516103359190612482565b60405180910390f35b60015481565b5f80815480929190610355906124c8565b91905055506040518061014001604052805f5481526020018781526020013373ffffffffffffffffffffffffffffffffffffffff1681526020018661ffff1681526020018581526020018481526020018381526020018281526020014281526020015f60038111156103ca576103c9611e34565b5b81525060035f805481526020019081526020015f205f820151815f015560208201518160010190816103fc9190612709565b506040820151816002015f6101000a81548173ffffffffffffffffffffffffffffffffffffffff021916908373ffffffffffffffffffffffffffffffffffffffff16021790555060608201518160020160146101000a81548161ffff021916908361ffff1602179055506080820151816003015560a08201518160040190816104859190612709565b5060c082015181600501908161049b9190612709565b5060e08201518160060190816104b19190612709565b506101008201518160070155610120820151816008015f6101000a81548160ff021916908360038111156104e8576104e7611e34565b5b02179055509050507faf6ffb6277511513e7d579327cc1fc57f0266df2fb11a60b13487b8c9cd2c3885f548733604051610524939291906127d8565b60405180910390a1505050505050565b6060815f8111801561054757505f548111155b610586576040517f08c379a000000000000000000000000000000000000000000000000000000000815260040161057d9061285e565b60405180910390fd5b5f600381111561059957610598611e34565b5b60035f8581526020019081526020015f206008015f9054906101000a900460ff1660038111156105cc576105cb611e34565b5b0361060e576040518060400160405280600781526020017f43726561746564000000000000000000000000000000000000000000000000008152509150610759565b6001600381111561062257610621611e34565b5b60035f8581526020019081526020015f206008015f9054906101000a900460ff16600381111561065557610654611e34565b5b03610697576040518060400160405280600781526020017f53686970706564000000000000000000000000000000000000000000000000008152509150610759565b600260038111156106ab576106aa611e34565b5b60035f8581526020019081526020015f206008015f9054906101000a900460ff1660038111156106de576106dd611e34565b5b03610720576040518060400160405280600881526020017f52656365697665640000000000000000000000000000000000000000000000008152509150610759565b6040518060400160405280600781526020017f556e6b6e6f776e0000000000000000000000000000000000000000000000000081525091505b50919050565b6004602052805f5260405f205f91509050805f0154908060010180546107849061253c565b80601f01602080910402602001604051908101604052809291908181526020018280546107b09061253c565b80156107fb5780601f106107d2576101008083540402835291602001916107fb565b820191905f5260205f20905b8154815290600101906020018083116107de57829003601f168201915b505050505090806002015f9054906101000a900473ffffffffffffffffffffffffffffffffffffffff16908060030180546108359061253c565b80601f01602080910402602001604051908101604052809291908181526020018280546108619061253c565b80156108ac5780601f10610883576101008083540402835291602001916108ac565b820191905f5260205f20905b81548152906001019060200180831161088f57829003601f168201915b5050505050908060040180546108c19061253c565b80601f01602080910402602001604051908101604052809291908181526020018280546108ed9061253c565b80156109385780601f1061090f57610100808354040283529160200191610938565b820191905f5260205f20905b81548152906001019060200180831161091b57829003601f168201915b505050505090806005015490806006015f9054906101000a900460ff16905087565b610962611998565b815f8111801561097357505f548111155b6109b2576040517f08c379a00000000000000000000000000000000000000000000000000000000081526004016109a99061285e565b60405180910390fd5b60035f8481526020019081526020015f20604051806101400160405290815f82015481526020016001820180546109e89061253c565b80601f0160208091040260200160405190810160405280929190818152602001828054610a149061253c565b8015610a5f5780601f10610a3657610100808354040283529160200191610a5f565b820191905f5260205f20905b815481529060010190602001808311610a4257829003601f168201915b50505050508152602001600282015f9054906101000a900473ffffffffffffffffffffffffffffffffffffffff1673ffffffffffffffffffffffffffffffffffffffff1673ffffffffffffffffffffffffffffffffffffffff1681526020016002820160149054906101000a900461ffff1661ffff1661ffff16815260200160038201548152602001600482018054610af79061253c565b80601f0160208091040260200160405190810160405280929190818152602001828054610b239061253c565b8015610b6e5780601f10610b4557610100808354040283529160200191610b6e565b820191905f5260205f20905b815481529060010190602001808311610b5157829003601f168201915b50505050508152602001600582018054610b879061253c565b80601f0160208091040260200160405190810160405280929190818152602001828054610bb39061253c565b8015610bfe5780601f10610bd557610100808354040283529160200191610bfe565b820191905f5260205f20905b815481529060010190602001808311610be157829003601f168201915b50505050508152602001600682018054610c179061253c565b80601f0160208091040260200160405190810160405280929190818152602001828054610c439061253c565b8015610c8e5780601f10610c6557610100808354040283529160200191610c8e565b820191905f5260205f20905b815481529060010190602001808311610c7157829003601f168201915b5050505050815260200160078201548152602001600882015f9054906101000a900460ff166003811115610cc557610cc4611e34565b5b6003811115610cd757610cd6611e34565b5b81525050915050919050565b60015f815480929190610cf5906124c8565b91905055506040518060e0016040528060015481526020018581526020013373ffffffffffffffffffffffffffffffffffffffff168152602001848152602001838152602001428152602001826003811115610d5457610d53611e34565b5b81525060045f60015481526020019081526020015f205f820151815f01556020820151816001019081610d879190612709565b506040820151816002015f6101000a81548173ffffffffffffffffffffffffffffffffffffffff021916908373ffffffffffffffffffffffffffffffffffffffff1602179055506060820151816003019081610de39190612709565b506080820151816004019081610df99190612709565b5060a0820151816005015560c0820151816006015f6101000a81548160ff02191690836003811115610e2e57610e2d611e34565b5b021790555090505050505050565b6003602052805f5260405f205f91509050805f015490806001018054610e619061253c565b80601f0160208091040260200160405190810160405280929190818152602001828054610e8d9061253c565b8015610ed85780601f10610eaf57610100808354040283529160200191610ed8565b820191905f5260205f20905b815481529060010190602001808311610ebb57829003601f168201915b505050505090806002015f9054906101000a900473ffffffffffffffffffffffffffffffffffffffff16908060020160149054906101000a900461ffff1690806003015490806004018054610f2c9061253c565b80601f0160208091040260200160405190810160405280929190818152602001828054610f589061253c565b8015610fa35780601f10610f7a57610100808354040283529160200191610fa3565b820191905f5260205f20905b815481529060010190602001808311610f8657829003601f168201915b505050505090806005018054610fb89061253c565b80601f0160208091040260200160405190810160405280929190818152602001828054610fe49061253c565b801561102f5780601f106110065761010080835404028352916020019161102f565b820191905f5260205f20905b81548152906001019060200180831161101257829003601f168201915b5050505050908060060180546110449061253c565b80601f01602080910402602001604051908101604052809291908181526020018280546110709061253c565b80156110bb5780601f10611092576101008083540402835291602001916110bb565b820191905f5260205f20905b81548152906001019060200180831161109e57829003601f168201915b505050505090806007015490806008015f9054906101000a900460ff1690508a565b813373ffffffffffffffffffffffffffffffffffffffff1660035f8381526020019081526020015f206002015f9054906101000a900473ffffffffffffffffffffffffffffffffffffffff1673ffffffffffffffffffffffffffffffffffffffff161461117f576040517f08c379a0000000000000000000000000000000000000000000000000000000008152600401611176906128c6565b60405180910390fd5b825f8111801561119057505f548111155b6111cf576040517f08c379a00000000000000000000000000000000000000000000000000000000081526004016111c69061285e565b60405180910390fd5b3373ffffffffffffffffffffffffffffffffffffffff168373ffffffffffffffffffffffffffffffffffffffff161461123d576040517f08c379a000000000000000000000000000000000000000000000000000000000815260040161123490612954565b60405180910390fd5b8260035f8681526020019081526020015f206002015f6101000a81548173ffffffffffffffffffffffffffffffffffffffff021916908373ffffffffffffffffffffffffffffffffffffffff1602179055507fba8cc72bdfdb4f3e2281c3f17f6be90c470f76dd1106321a2928859835874bc284846040516112c0929190612972565b60405180910390a150505050565b813373ffffffffffffffffffffffffffffffffffffffff1660035f8381526020019081526020015f206002015f9054906101000a900473ffffffffffffffffffffffffffffffffffffffff1673ffffffffffffffffffffffffffffffffffffffff1614611370576040517f08c379a0000000000000000000000000000000000000000000000000000000008152600401611367906128c6565b60405180910390fd5b825f8111801561138157505f548111155b6113c0576040517f08c379a00000000000000000000000000000000000000000000000000000000081526004016113b79061285e565b60405180910390fd5b8260035f8681526020019081526020015f206008015f6101000a81548160ff021916908360038111156113f6576113f5611e34565b5b02179055507fb8a3401adfc11253c3aff18e4b48103cec45c852b9afc487c23f32e26746242c848460405161142c929190612999565b60405180910390a150505050565b5f600154905090565b5f815f8111801561145557505f548111155b611494576040517f08c379a000000000000000000000000000000000000000000000000000000000815260040161148b9061285e565b60405180910390fd5b60035f8481526020019081526020015f206008015f9054906101000a900460ff16915050919050565b6114c5611a11565b815f811180156114d757506001548111155b611516576040517f08c379a000000000000000000000000000000000000000000000000000000000815260040161150d90612a0a565b60405180910390fd5b60045f8481526020019081526020015f206040518060e00160405290815f820154815260200160018201805461154b9061253c565b80601f01602080910402602001604051908101604052809291908181526020018280546115779061253c565b80156115c25780601f10611599576101008083540402835291602001916115c2565b820191905f5260205f20905b8154815290600101906020018083116115a557829003601f168201915b50505050508152602001600282015f9054906101000a900473ffffffffffffffffffffffffffffffffffffffff1673ffffffffffffffffffffffffffffffffffffffff1673ffffffffffffffffffffffffffffffffffffffff1681526020016003820180546116309061253c565b80601f016020809104026020016040519081016040528092919081815260200182805461165c9061253c565b80156116a75780601f1061167e576101008083540402835291602001916116a7565b820191905f5260205f20905b81548152906001019060200180831161168a57829003601f168201915b505050505081526020016004820180546116c09061253c565b80601f01602080910402602001604051908101604052809291908181526020018280546116ec9061253c565b80156117375780601f1061170e57610100808354040283529160200191611737565b820191905f5260205f20905b81548152906001019060200180831161171a57829003601f168201915b5050505050815260200160058201548152602001600682015f9054906101000a900460ff16600381111561176e5761176d611e34565b5b60038111156117805761177f611e34565b5b81525050915050919050565b60605f60038111156117a1576117a0611e34565b5b8260038111156117b4576117b3611e34565b5b036117f6576040518060400160405280600781526020017f43726561746564000000000000000000000000000000000000000000000000008152509050611969565b6001600381111561180a57611809611e34565b5b82600381111561181d5761181c611e34565b5b0361185f576040518060400160405280600781526020017f53686970706564000000000000000000000000000000000000000000000000008152509050611969565b6002600381111561187357611872611e34565b5b82600381111561188657611885611e34565b5b036118c8576040518060400160405280600881526020017f52656365697665640000000000000000000000000000000000000000000000008152509050611969565b6003808111156118db576118da611e34565b5b8260038111156118ee576118ed611e34565b5b03611930576040518060400160405280600481526020017f536f6c64000000000000000000000000000000000000000000000000000000008152509050611969565b6040518060400160405280600781526020017f556e6b6e6f776e0000000000000000000000000000000000000000000000000081525090505b919050565b5f5481565b60025f9054906101000a900473ffffffffffffffffffffffffffffffffffffffff1681565b6040518061014001604052805f8152602001606081526020015f73ffffffffffffffffffffffffffffffffffffffff1681526020015f61ffff1681526020015f81526020016060815260200160608152602001606081526020015f81526020015f6003811115611a0b57611a0a611e34565b5b81525090565b6040518060e001604052805f8152602001606081526020015f73ffffffffffffffffffffffffffffffffffffffff16815260200160608152602001606081526020015f81526020015f6003811115611a6c57611a6b611e34565b5b81525090565b5f819050919050565b611a8481611a72565b82525050565b5f602082019050611a9d5f830184611a7b565b92915050565b5f604051905090565b5f80fd5b5f80fd5b5f80fd5b5f80fd5b5f601f19601f8301169050919050565b7f4e487b71000000000000000000000000000000000000000000000000000000005f52604160045260245ffd5b611b0282611abc565b810181811067ffffffffffffffff82111715611b2157611b20611acc565b5b80604052505050565b5f611b33611aa3565b9050611b3f8282611af9565b919050565b5f67ffffffffffffffff821115611b5e57611b5d611acc565b5b611b6782611abc565b9050602081019050919050565b828183375f83830152505050565b5f611b94611b8f84611b44565b611b2a565b905082815260208101848484011115611bb057611baf611ab8565b5b611bbb848285611b74565b509392505050565b5f82601f830112611bd757611bd6611ab4565b5b8135611be7848260208601611b82565b91505092915050565b5f61ffff82169050919050565b611c0681611bf0565b8114611c10575f80fd5b50565b5f81359050611c2181611bfd565b92915050565b611c3081611a72565b8114611c3a575f80fd5b50565b5f81359050611c4b81611c27565b92915050565b5f805f805f8060c08789031215611c6b57611c6a611aac565b5b5f87013567ffffffffffffffff811115611c8857611c87611ab0565b5b611c9489828a01611bc3565b9650506020611ca589828a01611c13565b9550506040611cb689828a01611c3d565b945050606087013567ffffffffffffffff811115611cd757611cd6611ab0565b5b611ce389828a01611bc3565b935050608087013567ffffffffffffffff811115611d0457611d03611ab0565b5b611d1089828a01611bc3565b92505060a087013567ffffffffffffffff811115611d3157611d30611ab0565b5b611d3d89828a01611bc3565b9150509295509295509295565b5f60208284031215611d5f57611d5e611aac565b5b5f611d6c84828501611c3d565b91505092915050565b5f81519050919050565b5f82825260208201905092915050565b8281835e5f83830152505050565b5f611da782611d75565b611db18185611d7f565b9350611dc1818560208601611d8f565b611dca81611abc565b840191505092915050565b5f6020820190508181035f830152611ded8184611d9d565b905092915050565b5f73ffffffffffffffffffffffffffffffffffffffff82169050919050565b5f611e1e82611df5565b9050919050565b611e2e81611e14565b82525050565b7f4e487b71000000000000000000000000000000000000000000000000000000005f52602160045260245ffd5b60048110611e7257611e71611e34565b5b50565b5f819050611e8282611e61565b919050565b5f611e9182611e75565b9050919050565b611ea181611e87565b82525050565b5f60e082019050611eba5f83018a611a7b565b8181036020830152611ecc8189611d9d565b9050611edb6040830188611e25565b8181036060830152611eed8187611d9d565b90508181036080830152611f018186611d9d565b9050611f1060a0830185611a7b565b611f1d60c0830184611e98565b98975050505050505050565b611f3281611a72565b82525050565b5f82825260208201905092915050565b5f611f5282611d75565b611f5c8185611f38565b9350611f6c818560208601611d8f565b611f7581611abc565b840191505092915050565b611f8981611e14565b82525050565b611f9881611bf0565b82525050565b60048110611faf57611fae611e34565b5b50565b5f819050611fbf82611f9e565b919050565b5f611fce82611fb2565b9050919050565b611fde81611fc4565b82525050565b5f61014083015f830151611ffa5f860182611f29565b50602083015184820360208601526120128282611f48565b91505060408301516120276040860182611f80565b50606083015161203a6060860182611f8f565b50608083015161204d6080860182611f29565b5060a083015184820360a08601526120658282611f48565b91505060c083015184820360c086015261207f8282611f48565b91505060e083015184820360e08601526120998282611f48565b9150506101008301516120b0610100860182611f29565b506101208301516120c5610120860182611fd5565b508091505092915050565b5f6020820190508181035f8301526120e88184611fe4565b905092915050565b600481106120fc575f80fd5b50565b5f8135905061210d816120f0565b92915050565b5f805f806080858703121561212b5761212a611aac565b5b5f85013567ffffffffffffffff81111561214857612147611ab0565b5b61215487828801611bc3565b945050602085013567ffffffffffffffff81111561217557612174611ab0565b5b61218187828801611bc3565b935050604085013567ffffffffffffffff8111156121a2576121a1611ab0565b5b6121ae87828801611bc3565b92505060606121bf878288016120ff565b91505092959194509250565b6121d481611bf0565b82525050565b6121e381611fc4565b82525050565b5f610140820190506121fd5f83018d611a7b565b818103602083015261220f818c611d9d565b905061221e604083018b611e25565b61222b606083018a6121cb565b6122386080830189611a7b565b81810360a083015261224a8188611d9d565b905081810360c083015261225e8187611d9d565b905081810360e08301526122728186611d9d565b9050612282610100830185611a7b565b6122906101208301846121da565b9b9a5050505050505050505050565b6122a881611e14565b81146122b2575f80fd5b50565b5f813590506122c38161229f565b92915050565b5f80604083850312156122df576122de611aac565b5b5f6122ec85828601611c3d565b92505060206122fd858286016122b5565b9150509250929050565b60048110612313575f80fd5b50565b5f8135905061232481612307565b92915050565b5f80604083850312156123405761233f611aac565b5b5f61234d85828601611c3d565b925050602061235e85828601612316565b9150509250929050565b5f60208201905061237b5f8301846121da565b92915050565b61238a81611e87565b82525050565b5f60e083015f8301516123a55f860182611f29565b50602083015184820360208601526123bd8282611f48565b91505060408301516123d26040860182611f80565b50606083015184820360608601526123ea8282611f48565b915050608083015184820360808601526124048282611f48565b91505060a083015161241960a0860182611f29565b5060c083015161242c60c0860182612381565b508091505092915050565b5f6020820190508181035f83015261244f8184612390565b905092915050565b5f6020828403121561246c5761246b611aac565b5b5f61247984828501612316565b91505092915050565b5f6020820190506124955f830184611e25565b92915050565b7f4e487b71000000000000000000000000000000000000000000000000000000005f52601160045260245ffd5b5f6124d282611a72565b91507fffffffffffffffffffffffffffffffffffffffffffffffffffffffffffffffff82036125045761250361249b565b5b600182019050919050565b7f4e487b71000000000000000000000000000000000000000000000000000000005f52602260045260245ffd5b5f600282049050600182168061255357607f821691505b6020821081036125665761256561250f565b5b50919050565b5f819050815f5260205f209050919050565b5f6020601f8301049050919050565b5f82821b905092915050565b5f600883026125c87fffffffffffffffffffffffffffffffffffffffffffffffffffffffffffffffff8261258d565b6125d2868361258d565b95508019841693508086168417925050509392505050565b5f819050919050565b5f61260d61260861260384611a72565b6125ea565b611a72565b9050919050565b5f819050919050565b612626836125f3565b61263a61263282612614565b848454612599565b825550505050565b5f90565b61264e612642565b61265981848461261d565b505050565b5b8181101561267c576126715f82612646565b60018101905061265f565b5050565b601f8211156126c1576126928161256c565b61269b8461257e565b810160208510156126aa578190505b6126be6126b68561257e565b83018261265e565b50505b505050565b5f82821c905092915050565b5f6126e15f19846008026126c6565b1980831691505092915050565b5f6126f983836126d2565b9150826002028217905092915050565b61271282611d75565b67ffffffffffffffff81111561272b5761272a611acc565b5b612735825461253c565b612740828285612680565b5f60209050601f831160018114612771575f841561275f578287015190505b61276985826126ee565b8655506127d0565b601f19841661277f8661256c565b5f5b828110156127a657848901518255600182019150602085019450602081019050612781565b868310156127c357848901516127bf601f8916826126d2565b8355505b6001600288020188555050505b505050505050565b5f6060820190506127eb5f830186611a7b565b81810360208301526127fd8185611d9d565b905061280c6040830184611e25565b949350505050565b7f50726f6475637420494420646f6573206e6f74206578697374000000000000005f82015250565b5f612848601983611d7f565b915061285382612814565b602082019050919050565b5f6020820190508181035f8301526128758161283c565b9050919050565b7f4e6f74204f776e657200000000000000000000000000000000000000000000005f82015250565b5f6128b0600983611d7f565b91506128bb8261287c565b602082019050919050565b5f6020820190508181035f8301526128dd816128a4565b9050919050565b7f4e6577204f776e65722063616e206e6f74206265207468652063757272656e745f8201527f206f776e65720000000000000000000000000000000000000000000000000000602082015250565b5f61293e602683611d7f565b9150612949826128e4565b604082019050919050565b5f6020820190508181035f83015261296b81612932565b9050919050565b5f6040820190506129855f830185611a7b565b6129926020830184611e25565b9392505050565b5f6040820190506129ac5f830185611a7b565b6129b960208301846121da565b9392505050565b7f5573657220494420646f6573206e6f74206578697374000000000000000000005f82015250565b5f6129f4601683611d7f565b91506129ff826129c0565b602082019050919050565b5f6020820190508181035f830152612a21816129e8565b905091905056fea264697066735822122058f65d2ea556eb93841387532972a2f22e4bca782932b255921addf53b7bc70864736f6c634300081a0033",
					"opcodes": "PUSH1 0x80 PUSH1 0x40 MSTORE PUSH0 DUP1 SSTORE PUSH0 PUSH1 0x1 SSTORE CALLER PUSH1 0x2 PUSH0 PUSH2 0x100 EXP DUP2 SLOAD DUP2 PUSH20 0xFFFFFFFFFFFFFFFFFFFFFFFFFFFFFFFFFFFFFFFF MUL NOT AND SWAP1 DUP4 PUSH20 0xFFFFFFFFFFFFFFFFFFFFFFFFFFFFFFFFFFFFFFFF AND MUL OR SWAP1 SSTORE POP CALLVALUE DUP1 ISZERO PUSH1 0x55 JUMPI PUSH0 DUP1 REVERT JUMPDEST POP PUSH2 0x2A5E DUP1 PUSH2 0x63 PUSH0 CODECOPY PUSH0 RETURN INVALID PUSH1 0x80 PUSH1 0x40 MSTORE CALLVALUE DUP1 ISZERO PUSH2 0xF JUMPI PUSH0 DUP1 REVERT JUMPDEST POP PUSH1 0x4 CALLDATASIZE LT PUSH2 0xF3 JUMPI PUSH0 CALLDATALOAD PUSH1 0xE0 SHR DUP1 PUSH4 0x89B3887E GT PUSH2 0x95 JUMPI DUP1 PUSH4 0xB0467DEB GT PUSH2 0x64 JUMPI DUP1 PUSH4 0xB0467DEB EQ PUSH2 0x2A2 JUMPI DUP1 PUSH4 0xD6D9A024 EQ PUSH2 0x2D2 JUMPI DUP1 PUSH4 0xE0F6EF87 EQ PUSH2 0x302 JUMPI DUP1 PUSH4 0xF46296BE EQ PUSH2 0x320 JUMPI PUSH2 0xF3 JUMP JUMPDEST DUP1 PUSH4 0x89B3887E EQ PUSH2 0x21C JUMPI DUP1 PUSH4 0x920E2621 EQ PUSH2 0x238 JUMPI DUP1 PUSH4 0x9BE572F6 EQ PUSH2 0x254 JUMPI DUP1 PUSH4 0xAC4640E1 EQ PUSH2 0x272 JUMPI PUSH2 0xF3 JUMP JUMPDEST DUP1 PUSH4 0x365B98B2 GT PUSH2 0xD1 JUMPI DUP1 PUSH4 0x365B98B2 EQ PUSH2 0x161 JUMPI DUP1 PUSH4 0x48F7EB30 EQ PUSH2 0x197 JUMPI DUP1 PUSH4 0x52312CEA EQ PUSH2 0x1C7 JUMPI DUP1 PUSH4 0x7ACC0B20 EQ PUSH2 0x1E3 JUMPI PUSH2 0xF3 JUMP JUMPDEST DUP1 PUSH4 0x7973CCF EQ PUSH2 0xF7 JUMPI DUP1 PUSH4 0x84289F8 EQ PUSH2 0x115 JUMPI DUP1 PUSH4 0xEA3D3EE EQ PUSH2 0x131 JUMPI JUMPDEST PUSH0 DUP1 REVERT JUMPDEST PUSH2 0xFF PUSH2 0x33E JUMP JUMPDEST PUSH1 0x40 MLOAD PUSH2 0x10C SWAP2 SWAP1 PUSH2 0x1A8A JUMP JUMPDEST PUSH1 0x40 MLOAD DUP1 SWAP2 SUB SWAP1 RETURN JUMPDEST PUSH2 0x12F PUSH1 0x4 DUP1 CALLDATASIZE SUB DUP2 ADD SWAP1 PUSH2 0x12A SWAP2 SWAP1 PUSH2 0x1C51 JUMP JUMPDEST PUSH2 0x344 JUMP JUMPDEST STOP JUMPDEST PUSH2 0x14B PUSH1 0x4 DUP1 CALLDATASIZE SUB DUP2 ADD SWAP1 PUSH2 0x146 SWAP2 SWAP1 PUSH2 0x1D4A JUMP JUMPDEST PUSH2 0x534 JUMP JUMPDEST PUSH1 0x40 MLOAD PUSH2 0x158 SWAP2 SWAP1 PUSH2 0x1DD5 JUMP JUMPDEST PUSH1 0x40 MLOAD DUP1 SWAP2 SUB SWAP1 RETURN JUMPDEST PUSH2 0x17B PUSH1 0x4 DUP1 CALLDATASIZE SUB DUP2 ADD SWAP1 PUSH2 0x176 SWAP2 SWAP1 PUSH2 0x1D4A JUMP JUMPDEST PUSH2 0x75F JUMP JUMPDEST PUSH1 0x40 MLOAD PUSH2 0x18E SWAP8 SWAP7 SWAP6 SWAP5 SWAP4 SWAP3 SWAP2 SWAP1 PUSH2 0x1EA7 JUMP JUMPDEST PUSH1 0x40 MLOAD DUP1 SWAP2 SUB SWAP1 RETURN JUMPDEST PUSH2 0x1B1 PUSH1 0x4 DUP1 CALLDATASIZE SUB DUP2 ADD SWAP1 PUSH2 0x1AC SWAP2 SWAP1 PUSH2 0x1D4A JUMP JUMPDEST PUSH2 0x95A JUMP JUMPDEST PUSH1 0x40 MLOAD PUSH2 0x1BE SWAP2 SWAP1 PUSH2 0x20D0 JUMP JUMPDEST PUSH1 0x40 MLOAD DUP1 SWAP2 SUB SWAP1 RETURN JUMPDEST PUSH2 0x1E1 PUSH1 0x4 DUP1 CALLDATASIZE SUB DUP2 ADD SWAP1 PUSH2 0x1DC SWAP2 SWAP1 PUSH2 0x2113 JUMP JUMPDEST PUSH2 0xCE3 JUMP JUMPDEST STOP JUMPDEST PUSH2 0x1FD PUSH1 0x4 DUP1 CALLDATASIZE SUB DUP2 ADD SWAP1 PUSH2 0x1F8 SWAP2 SWAP1 PUSH2 0x1D4A JUMP JUMPDEST PUSH2 0xE3C JUMP JUMPDEST PUSH1 0x40 MLOAD PUSH2 0x213 SWAP11 SWAP10 SWAP9 SWAP8 SWAP7 SWAP6 SWAP5 SWAP4 SWAP3 SWAP2 SWAP1 PUSH2 0x21E9 JUMP JUMPDEST PUSH1 0x40 MLOAD DUP1 SWAP2 SUB SWAP1 RETURN JUMPDEST PUSH2 0x236 PUSH1 0x4 DUP1 CALLDATASIZE SUB DUP2 ADD SWAP1 PUSH2 0x231 SWAP2 SWAP1 PUSH2 0x22C9 JUMP JUMPDEST PUSH2 0x10DD JUMP JUMPDEST STOP JUMPDEST PUSH2 0x252 PUSH1 0x4 DUP1 CALLDATASIZE SUB DUP2 ADD SWAP1 PUSH2 0x24D SWAP2 SWAP1 PUSH2 0x232A JUMP JUMPDEST PUSH2 0x12CE JUMP JUMPDEST STOP JUMPDEST PUSH2 0x25C PUSH2 0x143A JUMP JUMPDEST PUSH1 0x40 MLOAD PUSH2 0x269 SWAP2 SWAP1 PUSH2 0x1A8A JUMP JUMPDEST PUSH1 0x40 MLOAD DUP1 SWAP2 SUB SWAP1 RETURN JUMPDEST PUSH2 0x28C PUSH1 0x4 DUP1 CALLDATASIZE SUB DUP2 ADD SWAP1 PUSH2 0x287 SWAP2 SWAP1 PUSH2 0x1D4A JUMP JUMPDEST PUSH2 0x1443 JUMP JUMPDEST PUSH1 0x40 MLOAD PUSH2 0x299 SWAP2 SWAP1 PUSH2 0x2368 JUMP JUMPDEST PUSH1 0x40 MLOAD DUP1 SWAP2 SUB SWAP1 RETURN JUMPDEST PUSH2 0x2BC PUSH1 0x4 DUP1 CALLDATASIZE SUB DUP2 ADD SWAP1 PUSH2 0x2B7 SWAP2 SWAP1 PUSH2 0x1D4A JUMP JUMPDEST PUSH2 0x14BD JUMP JUMPDEST PUSH1 0x40 MLOAD PUSH2 0x2C9 SWAP2 SWAP1 PUSH2 0x2437 JUMP JUMPDEST PUSH1 0x40 MLOAD DUP1 SWAP2 SUB SWAP1 RETURN JUMPDEST PUSH2 0x2EC PUSH1 0x4 DUP1 CALLDATASIZE SUB DUP2 ADD SWAP1 PUSH2 0x2E7 SWAP2 SWAP1 PUSH2 0x2457 JUMP JUMPDEST PUSH2 0x178C JUMP JUMPDEST PUSH1 0x40 MLOAD PUSH2 0x2F9 SWAP2 SWAP1 PUSH2 0x1DD5 JUMP JUMPDEST PUSH1 0x40 MLOAD DUP1 SWAP2 SUB SWAP1 RETURN JUMPDEST PUSH2 0x30A PUSH2 0x196E JUMP JUMPDEST PUSH1 0x40 MLOAD PUSH2 0x317 SWAP2 SWAP1 PUSH2 0x1A8A JUMP JUMPDEST PUSH1 0x40 MLOAD DUP1 SWAP2 SUB SWAP1 RETURN JUMPDEST PUSH2 0x328 PUSH2 0x1973 JUMP JUMPDEST PUSH1 0x40 MLOAD PUSH2 0x335 SWAP2 SWAP1 PUSH2 0x2482 JUMP JUMPDEST PUSH1 0x40 MLOAD DUP1 SWAP2 SUB SWAP1 RETURN JUMPDEST PUSH1 0x1 SLOAD DUP2 JUMP JUMPDEST PUSH0 DUP1 DUP2 SLOAD DUP1 SWAP3 SWAP2 SWAP1 PUSH2 0x355 SWAP1 PUSH2 0x24C8 JUMP JUMPDEST SWAP2 SWAP1 POP SSTORE POP PUSH1 0x40 MLOAD DUP1 PUSH2 0x140 ADD PUSH1 0x40 MSTORE DUP1 PUSH0 SLOAD DUP2 MSTORE PUSH1 0x20 ADD DUP8 DUP2 MSTORE PUSH1 0x20 ADD CALLER PUSH20 0xFFFFFFFFFFFFFFFFFFFFFFFFFFFFFFFFFFFFFFFF AND DUP2 MSTORE PUSH1 0x20 ADD DUP7 PUSH2 0xFFFF AND DUP2 MSTORE PUSH1 0x20 ADD DUP6 DUP2 MSTORE PUSH1 0x20 ADD DUP5 DUP2 MSTORE PUSH1 0x20 ADD DUP4 DUP2 MSTORE PUSH1 0x20 ADD DUP3 DUP2 MSTORE PUSH1 0x20 ADD TIMESTAMP DUP2 MSTORE PUSH1 0x20 ADD PUSH0 PUSH1 0x3 DUP2 GT ISZERO PUSH2 0x3CA JUMPI PUSH2 0x3C9 PUSH2 0x1E34 JUMP JUMPDEST JUMPDEST DUP2 MSTORE POP PUSH1 0x3 PUSH0 DUP1 SLOAD DUP2 MSTORE PUSH1 0x20 ADD SWAP1 DUP2 MSTORE PUSH1 0x20 ADD PUSH0 KECCAK256 PUSH0 DUP3 ADD MLOAD DUP2 PUSH0 ADD SSTORE PUSH1 0x20 DUP3 ADD MLOAD DUP2 PUSH1 0x1 ADD SWAP1 DUP2 PUSH2 0x3FC SWAP2 SWAP1 PUSH2 0x2709 JUMP JUMPDEST POP PUSH1 0x40 DUP3 ADD MLOAD DUP2 PUSH1 0x2 ADD PUSH0 PUSH2 0x100 EXP DUP2 SLOAD DUP2 PUSH20 0xFFFFFFFFFFFFFFFFFFFFFFFFFFFFFFFFFFFFFFFF MUL NOT AND SWAP1 DUP4 PUSH20 0xFFFFFFFFFFFFFFFFFFFFFFFFFFFFFFFFFFFFFFFF AND MUL OR SWAP1 SSTORE POP PUSH1 0x60 DUP3 ADD MLOAD DUP2 PUSH1 0x2 ADD PUSH1 0x14 PUSH2 0x100 EXP DUP2 SLOAD DUP2 PUSH2 0xFFFF MUL NOT AND SWAP1 DUP4 PUSH2 0xFFFF AND MUL OR SWAP1 SSTORE POP PUSH1 0x80 DUP3 ADD MLOAD DUP2 PUSH1 0x3 ADD SSTORE PUSH1 0xA0 DUP3 ADD MLOAD DUP2 PUSH1 0x4 ADD SWAP1 DUP2 PUSH2 0x485 SWAP2 SWAP1 PUSH2 0x2709 JUMP JUMPDEST POP PUSH1 0xC0 DUP3 ADD MLOAD DUP2 PUSH1 0x5 ADD SWAP1 DUP2 PUSH2 0x49B SWAP2 SWAP1 PUSH2 0x2709 JUMP JUMPDEST POP PUSH1 0xE0 DUP3 ADD MLOAD DUP2 PUSH1 0x6 ADD SWAP1 DUP2 PUSH2 0x4B1 SWAP2 SWAP1 PUSH2 0x2709 JUMP JUMPDEST POP PUSH2 0x100 DUP3 ADD MLOAD DUP2 PUSH1 0x7 ADD SSTORE PUSH2 0x120 DUP3 ADD MLOAD DUP2 PUSH1 0x8 ADD PUSH0 PUSH2 0x100 EXP DUP2 SLOAD DUP2 PUSH1 0xFF MUL NOT AND SWAP1 DUP4 PUSH1 0x3 DUP2 GT ISZERO PUSH2 0x4E8 JUMPI PUSH2 0x4E7 PUSH2 0x1E34 JUMP JUMPDEST JUMPDEST MUL OR SWAP1 SSTORE POP SWAP1 POP POP PUSH32 0xAF6FFB6277511513E7D579327CC1FC57F0266DF2FB11A60B13487B8C9CD2C388 PUSH0 SLOAD DUP8 CALLER PUSH1 0x40 MLOAD PUSH2 0x524 SWAP4 SWAP3 SWAP2 SWAP1 PUSH2 0x27D8 JUMP JUMPDEST PUSH1 0x40 MLOAD DUP1 SWAP2 SUB SWAP1 LOG1 POP POP POP POP POP POP JUMP JUMPDEST PUSH1 0x60 DUP2 PUSH0 DUP2 GT DUP1 ISZERO PUSH2 0x547 JUMPI POP PUSH0 SLOAD DUP2 GT ISZERO JUMPDEST PUSH2 0x586 JUMPI PUSH1 0x40 MLOAD PUSH32 0x8C379A000000000000000000000000000000000000000000000000000000000 DUP2 MSTORE PUSH1 0x4 ADD PUSH2 0x57D SWAP1 PUSH2 0x285E JUMP JUMPDEST PUSH1 0x40 MLOAD DUP1 SWAP2 SUB SWAP1 REVERT JUMPDEST PUSH0 PUSH1 0x3 DUP2 GT ISZERO PUSH2 0x599 JUMPI PUSH2 0x598 PUSH2 0x1E34 JUMP JUMPDEST JUMPDEST PUSH1 0x3 PUSH0 DUP6 DUP2 MSTORE PUSH1 0x20 ADD SWAP1 DUP2 MSTORE PUSH1 0x20 ADD PUSH0 KECCAK256 PUSH1 0x8 ADD PUSH0 SWAP1 SLOAD SWAP1 PUSH2 0x100 EXP SWAP1 DIV PUSH1 0xFF AND PUSH1 0x3 DUP2 GT ISZERO PUSH2 0x5CC JUMPI PUSH2 0x5CB PUSH2 0x1E34 JUMP JUMPDEST JUMPDEST SUB PUSH2 0x60E JUMPI PUSH1 0x40 MLOAD DUP1 PUSH1 0x40 ADD PUSH1 0x40 MSTORE DUP1 PUSH1 0x7 DUP2 MSTORE PUSH1 0x20 ADD PUSH32 0x4372656174656400000000000000000000000000000000000000000000000000 DUP2 MSTORE POP SWAP2 POP PUSH2 0x759 JUMP JUMPDEST PUSH1 0x1 PUSH1 0x3 DUP2 GT ISZERO PUSH2 0x622 JUMPI PUSH2 0x621 PUSH2 0x1E34 JUMP JUMPDEST JUMPDEST PUSH1 0x3 PUSH0 DUP6 DUP2 MSTORE PUSH1 0x20 ADD SWAP1 DUP2 MSTORE PUSH1 0x20 ADD PUSH0 KECCAK256 PUSH1 0x8 ADD PUSH0 SWAP1 SLOAD SWAP1 PUSH2 0x100 EXP SWAP1 DIV PUSH1 0xFF AND PUSH1 0x3 DUP2 GT ISZERO PUSH2 0x655 JUMPI PUSH2 0x654 PUSH2 0x1E34 JUMP JUMPDEST JUMPDEST SUB PUSH2 0x697 JUMPI PUSH1 0x40 MLOAD DUP1 PUSH1 0x40 ADD PUSH1 0x40 MSTORE DUP1 PUSH1 0x7 DUP2 MSTORE PUSH1 0x20 ADD PUSH32 0x5368697070656400000000000000000000000000000000000000000000000000 DUP2 MSTORE POP SWAP2 POP PUSH2 0x759 JUMP JUMPDEST PUSH1 0x2 PUSH1 0x3 DUP2 GT ISZERO PUSH2 0x6AB JUMPI PUSH2 0x6AA PUSH2 0x1E34 JUMP JUMPDEST JUMPDEST PUSH1 0x3 PUSH0 DUP6 DUP2 MSTORE PUSH1 0x20 ADD SWAP1 DUP2 MSTORE PUSH1 0x20 ADD PUSH0 KECCAK256 PUSH1 0x8 ADD PUSH0 SWAP1 SLOAD SWAP1 PUSH2 0x100 EXP SWAP1 DIV PUSH1 0xFF AND PUSH1 0x3 DUP2 GT ISZERO PUSH2 0x6DE JUMPI PUSH2 0x6DD PUSH2 0x1E34 JUMP JUMPDEST JUMPDEST SUB PUSH2 0x720 JUMPI PUSH1 0x40 MLOAD DUP1 PUSH1 0x40 ADD PUSH1 0x40 MSTORE DUP1 PUSH1 0x8 DUP2 MSTORE PUSH1 0x20 ADD PUSH32 0x5265636569766564000000000000000000000000000000000000000000000000 DUP2 MSTORE POP SWAP2 POP PUSH2 0x759 JUMP JUMPDEST PUSH1 0x40 MLOAD DUP1 PUSH1 0x40 ADD PUSH1 0x40 MSTORE DUP1 PUSH1 0x7 DUP2 MSTORE PUSH1 0x20 ADD PUSH32 0x556E6B6E6F776E00000000000000000000000000000000000000000000000000 DUP2 MSTORE POP SWAP2 POP JUMPDEST POP SWAP2 SWAP1 POP JUMP JUMPDEST PUSH1 0x4 PUSH1 0x20 MSTORE DUP1 PUSH0 MSTORE PUSH1 0x40 PUSH0 KECCAK256 PUSH0 SWAP2 POP SWAP1 POP DUP1 PUSH0 ADD SLOAD SWAP1 DUP1 PUSH1 0x1 ADD DUP1 SLOAD PUSH2 0x784 SWAP1 PUSH2 0x253C JUMP JUMPDEST DUP1 PUSH1 0x1F ADD PUSH1 0x20 DUP1 SWAP2 DIV MUL PUSH1 0x20 ADD PUSH1 0x40 MLOAD SWAP1 DUP2 ADD PUSH1 0x40 MSTORE DUP1 SWAP3 SWAP2 SWAP1 DUP2 DUP2 MSTORE PUSH1 0x20 ADD DUP3 DUP1 SLOAD PUSH2 0x7B0 SWAP1 PUSH2 0x253C JUMP JUMPDEST DUP1 ISZERO PUSH2 0x7FB JUMPI DUP1 PUSH1 0x1F LT PUSH2 0x7D2 JUMPI PUSH2 0x100 DUP1 DUP4 SLOAD DIV MUL DUP4 MSTORE SWAP2 PUSH1 0x20 ADD SWAP2 PUSH2 0x7FB JUMP JUMPDEST DUP3 ADD SWAP2 SWAP1 PUSH0 MSTORE PUSH1 0x20 PUSH0 KECCAK256 SWAP1 JUMPDEST DUP2 SLOAD DUP2 MSTORE SWAP1 PUSH1 0x1 ADD SWAP1 PUSH1 0x20 ADD DUP1 DUP4 GT PUSH2 0x7DE JUMPI DUP3 SWAP1 SUB PUSH1 0x1F AND DUP3 ADD SWAP2 JUMPDEST POP POP POP POP POP SWAP1 DUP1 PUSH1 0x2 ADD PUSH0 SWAP1 SLOAD SWAP1 PUSH2 0x100 EXP SWAP1 DIV PUSH20 0xFFFFFFFFFFFFFFFFFFFFFFFFFFFFFFFFFFFFFFFF AND SWAP1 DUP1 PUSH1 0x3 ADD DUP1 SLOAD PUSH2 0x835 SWAP1 PUSH2 0x253C JUMP JUMPDEST DUP1 PUSH1 0x1F ADD PUSH1 0x20 DUP1 SWAP2 DIV MUL PUSH1 0x20 ADD PUSH1 0x40 MLOAD SWAP1 DUP2 ADD PUSH1 0x40 MSTORE DUP1 SWAP3 SWAP2 SWAP1 DUP2 DUP2 MSTORE PUSH1 0x20 ADD DUP3 DUP1 SLOAD PUSH2 0x861 SWAP1 PUSH2 0x253C JUMP JUMPDEST DUP1 ISZERO PUSH2 0x8AC JUMPI DUP1 PUSH1 0x1F LT PUSH2 0x883 JUMPI PUSH2 0x100 DUP1 DUP4 SLOAD DIV MUL DUP4 MSTORE SWAP2 PUSH1 0x20 ADD SWAP2 PUSH2 0x8AC JUMP JUMPDEST DUP3 ADD SWAP2 SWAP1 PUSH0 MSTORE PUSH1 0x20 PUSH0 KECCAK256 SWAP1 JUMPDEST DUP2 SLOAD DUP2 MSTORE SWAP1 PUSH1 0x1 ADD SWAP1 PUSH1 0x20 ADD DUP1 DUP4 GT PUSH2 0x88F JUMPI DUP3 SWAP1 SUB PUSH1 0x1F AND DUP3 ADD SWAP2 JUMPDEST POP POP POP POP POP SWAP1 DUP1 PUSH1 0x4 ADD DUP1 SLOAD PUSH2 0x8C1 SWAP1 PUSH2 0x253C JUMP JUMPDEST DUP1 PUSH1 0x1F ADD PUSH1 0x20 DUP1 SWAP2 DIV MUL PUSH1 0x20 ADD PUSH1 0x40 MLOAD SWAP1 DUP2 ADD PUSH1 0x40 MSTORE DUP1 SWAP3 SWAP2 SWAP1 DUP2 DUP2 MSTORE PUSH1 0x20 ADD DUP3 DUP1 SLOAD PUSH2 0x8ED SWAP1 PUSH2 0x253C JUMP JUMPDEST DUP1 ISZERO PUSH2 0x938 JUMPI DUP1 PUSH1 0x1F LT PUSH2 0x90F JUMPI PUSH2 0x100 DUP1 DUP4 SLOAD DIV MUL DUP4 MSTORE SWAP2 PUSH1 0x20 ADD SWAP2 PUSH2 0x938 JUMP JUMPDEST DUP3 ADD SWAP2 SWAP1 PUSH0 MSTORE PUSH1 0x20 PUSH0 KECCAK256 SWAP1 JUMPDEST DUP2 SLOAD DUP2 MSTORE SWAP1 PUSH1 0x1 ADD SWAP1 PUSH1 0x20 ADD DUP1 DUP4 GT PUSH2 0x91B JUMPI DUP3 SWAP1 SUB PUSH1 0x1F AND DUP3 ADD SWAP2 JUMPDEST POP POP POP POP POP SWAP1 DUP1 PUSH1 0x5 ADD SLOAD SWAP1 DUP1 PUSH1 0x6 ADD PUSH0 SWAP1 SLOAD SWAP1 PUSH2 0x100 EXP SWAP1 DIV PUSH1 0xFF AND SWAP1 POP DUP8 JUMP JUMPDEST PUSH2 0x962 PUSH2 0x1998 JUMP JUMPDEST DUP2 PUSH0 DUP2 GT DUP1 ISZERO PUSH2 0x973 JUMPI POP PUSH0 SLOAD DUP2 GT ISZERO JUMPDEST PUSH2 0x9B2 JUMPI PUSH1 0x40 MLOAD PUSH32 0x8C379A000000000000000000000000000000000000000000000000000000000 DUP2 MSTORE PUSH1 0x4 ADD PUSH2 0x9A9 SWAP1 PUSH2 0x285E JUMP JUMPDEST PUSH1 0x40 MLOAD DUP1 SWAP2 SUB SWAP1 REVERT JUMPDEST PUSH1 0x3 PUSH0 DUP5 DUP2 MSTORE PUSH1 0x20 ADD SWAP1 DUP2 MSTORE PUSH1 0x20 ADD PUSH0 KECCAK256 PUSH1 0x40 MLOAD DUP1 PUSH2 0x140 ADD PUSH1 0x40 MSTORE SWAP1 DUP2 PUSH0 DUP3 ADD SLOAD DUP2 MSTORE PUSH1 0x20 ADD PUSH1 0x1 DUP3 ADD DUP1 SLOAD PUSH2 0x9E8 SWAP1 PUSH2 0x253C JUMP JUMPDEST DUP1 PUSH1 0x1F ADD PUSH1 0x20 DUP1 SWAP2 DIV MUL PUSH1 0x20 ADD PUSH1 0x40 MLOAD SWAP1 DUP2 ADD PUSH1 0x40 MSTORE DUP1 SWAP3 SWAP2 SWAP1 DUP2 DUP2 MSTORE PUSH1 0x20 ADD DUP3 DUP1 SLOAD PUSH2 0xA14 SWAP1 PUSH2 0x253C JUMP JUMPDEST DUP1 ISZERO PUSH2 0xA5F JUMPI DUP1 PUSH1 0x1F LT PUSH2 0xA36 JUMPI PUSH2 0x100 DUP1 DUP4 SLOAD DIV MUL DUP4 MSTORE SWAP2 PUSH1 0x20 ADD SWAP2 PUSH2 0xA5F JUMP JUMPDEST DUP3 ADD SWAP2 SWAP1 PUSH0 MSTORE PUSH1 0x20 PUSH0 KECCAK256 SWAP1 JUMPDEST DUP2 SLOAD DUP2 MSTORE SWAP1 PUSH1 0x1 ADD SWAP1 PUSH1 0x20 ADD DUP1 DUP4 GT PUSH2 0xA42 JUMPI DUP3 SWAP1 SUB PUSH1 0x1F AND DUP3 ADD SWAP2 JUMPDEST POP POP POP POP POP DUP2 MSTORE PUSH1 0x20 ADD PUSH1 0x2 DUP3 ADD PUSH0 SWAP1 SLOAD SWAP1 PUSH2 0x100 EXP SWAP1 DIV PUSH20 0xFFFFFFFFFFFFFFFFFFFFFFFFFFFFFFFFFFFFFFFF AND PUSH20 0xFFFFFFFFFFFFFFFFFFFFFFFFFFFFFFFFFFFFFFFF AND PUSH20 0xFFFFFFFFFFFFFFFFFFFFFFFFFFFFFFFFFFFFFFFF AND DUP2 MSTORE PUSH1 0x20 ADD PUSH1 0x2 DUP3 ADD PUSH1 0x14 SWAP1 SLOAD SWAP1 PUSH2 0x100 EXP SWAP1 DIV PUSH2 0xFFFF AND PUSH2 0xFFFF AND PUSH2 0xFFFF AND DUP2 MSTORE PUSH1 0x20 ADD PUSH1 0x3 DUP3 ADD SLOAD DUP2 MSTORE PUSH1 0x20 ADD PUSH1 0x4 DUP3 ADD DUP1 SLOAD PUSH2 0xAF7 SWAP1 PUSH2 0x253C JUMP JUMPDEST DUP1 PUSH1 0x1F ADD PUSH1 0x20 DUP1 SWAP2 DIV MUL PUSH1 0x20 ADD PUSH1 0x40 MLOAD SWAP1 DUP2 ADD PUSH1 0x40 MSTORE DUP1 SWAP3 SWAP2 SWAP1 DUP2 DUP2 MSTORE PUSH1 0x20 ADD DUP3 DUP1 SLOAD PUSH2 0xB23 SWAP1 PUSH2 0x253C JUMP JUMPDEST DUP1 ISZERO PUSH2 0xB6E JUMPI DUP1 PUSH1 0x1F LT PUSH2 0xB45 JUMPI PUSH2 0x100 DUP1 DUP4 SLOAD DIV MUL DUP4 MSTORE SWAP2 PUSH1 0x20 ADD SWAP2 PUSH2 0xB6E JUMP JUMPDEST DUP3 ADD SWAP2 SWAP1 PUSH0 MSTORE PUSH1 0x20 PUSH0 KECCAK256 SWAP1 JUMPDEST DUP2 SLOAD DUP2 MSTORE SWAP1 PUSH1 0x1 ADD SWAP1 PUSH1 0x20 ADD DUP1 DUP4 GT PUSH2 0xB51 JUMPI DUP3 SWAP1 SUB PUSH1 0x1F AND DUP3 ADD SWAP2 JUMPDEST POP POP POP POP POP DUP2 MSTORE PUSH1 0x20 ADD PUSH1 0x5 DUP3 ADD DUP1 SLOAD PUSH2 0xB87 SWAP1 PUSH2 0x253C JUMP JUMPDEST DUP1 PUSH1 0x1F ADD PUSH1 0x20 DUP1 SWAP2 DIV MUL PUSH1 0x20 ADD PUSH1 0x40 MLOAD SWAP1 DUP2 ADD PUSH1 0x40 MSTORE DUP1 SWAP3 SWAP2 SWAP1 DUP2 DUP2 MSTORE PUSH1 0x20 ADD DUP3 DUP1 SLOAD PUSH2 0xBB3 SWAP1 PUSH2 0x253C JUMP JUMPDEST DUP1 ISZERO PUSH2 0xBFE JUMPI DUP1 PUSH1 0x1F LT PUSH2 0xBD5 JUMPI PUSH2 0x100 DUP1 DUP4 SLOAD DIV MUL DUP4 MSTORE SWAP2 PUSH1 0x20 ADD SWAP2 PUSH2 0xBFE JUMP JUMPDEST DUP3 ADD SWAP2 SWAP1 PUSH0 MSTORE PUSH1 0x20 PUSH0 KECCAK256 SWAP1 JUMPDEST DUP2 SLOAD DUP2 MSTORE SWAP1 PUSH1 0x1 ADD SWAP1 PUSH1 0x20 ADD DUP1 DUP4 GT PUSH2 0xBE1 JUMPI DUP3 SWAP1 SUB PUSH1 0x1F AND DUP3 ADD SWAP2 JUMPDEST POP POP POP POP POP DUP2 MSTORE PUSH1 0x20 ADD PUSH1 0x6 DUP3 ADD DUP1 SLOAD PUSH2 0xC17 SWAP1 PUSH2 0x253C JUMP JUMPDEST DUP1 PUSH1 0x1F ADD PUSH1 0x20 DUP1 SWAP2 DIV MUL PUSH1 0x20 ADD PUSH1 0x40 MLOAD SWAP1 DUP2 ADD PUSH1 0x40 MSTORE DUP1 SWAP3 SWAP2 SWAP1 DUP2 DUP2 MSTORE PUSH1 0x20 ADD DUP3 DUP1 SLOAD PUSH2 0xC43 SWAP1 PUSH2 0x253C JUMP JUMPDEST DUP1 ISZERO PUSH2 0xC8E JUMPI DUP1 PUSH1 0x1F LT PUSH2 0xC65 JUMPI PUSH2 0x100 DUP1 DUP4 SLOAD DIV MUL DUP4 MSTORE SWAP2 PUSH1 0x20 ADD SWAP2 PUSH2 0xC8E JUMP JUMPDEST DUP3 ADD SWAP2 SWAP1 PUSH0 MSTORE PUSH1 0x20 PUSH0 KECCAK256 SWAP1 JUMPDEST DUP2 SLOAD DUP2 MSTORE SWAP1 PUSH1 0x1 ADD SWAP1 PUSH1 0x20 ADD DUP1 DUP4 GT PUSH2 0xC71 JUMPI DUP3 SWAP1 SUB PUSH1 0x1F AND DUP3 ADD SWAP2 JUMPDEST POP POP POP POP POP DUP2 MSTORE PUSH1 0x20 ADD PUSH1 0x7 DUP3 ADD SLOAD DUP2 MSTORE PUSH1 0x20 ADD PUSH1 0x8 DUP3 ADD PUSH0 SWAP1 SLOAD SWAP1 PUSH2 0x100 EXP SWAP1 DIV PUSH1 0xFF AND PUSH1 0x3 DUP2 GT ISZERO PUSH2 0xCC5 JUMPI PUSH2 0xCC4 PUSH2 0x1E34 JUMP JUMPDEST JUMPDEST PUSH1 0x3 DUP2 GT ISZERO PUSH2 0xCD7 JUMPI PUSH2 0xCD6 PUSH2 0x1E34 JUMP JUMPDEST JUMPDEST DUP2 MSTORE POP POP SWAP2 POP POP SWAP2 SWAP1 POP JUMP JUMPDEST PUSH1 0x1 PUSH0 DUP2 SLOAD DUP1 SWAP3 SWAP2 SWAP1 PUSH2 0xCF5 SWAP1 PUSH2 0x24C8 JUMP JUMPDEST SWAP2 SWAP1 POP SSTORE POP PUSH1 0x40 MLOAD DUP1 PUSH1 0xE0 ADD PUSH1 0x40 MSTORE DUP1 PUSH1 0x1 SLOAD DUP2 MSTORE PUSH1 0x20 ADD DUP6 DUP2 MSTORE PUSH1 0x20 ADD CALLER PUSH20 0xFFFFFFFFFFFFFFFFFFFFFFFFFFFFFFFFFFFFFFFF AND DUP2 MSTORE PUSH1 0x20 ADD DUP5 DUP2 MSTORE PUSH1 0x20 ADD DUP4 DUP2 MSTORE PUSH1 0x20 ADD TIMESTAMP DUP2 MSTORE PUSH1 0x20 ADD DUP3 PUSH1 0x3 DUP2 GT ISZERO PUSH2 0xD54 JUMPI PUSH2 0xD53 PUSH2 0x1E34 JUMP JUMPDEST JUMPDEST DUP2 MSTORE POP PUSH1 0x4 PUSH0 PUSH1 0x1 SLOAD DUP2 MSTORE PUSH1 0x20 ADD SWAP1 DUP2 MSTORE PUSH1 0x20 ADD PUSH0 KECCAK256 PUSH0 DUP3 ADD MLOAD DUP2 PUSH0 ADD SSTORE PUSH1 0x20 DUP3 ADD MLOAD DUP2 PUSH1 0x1 ADD SWAP1 DUP2 PUSH2 0xD87 SWAP2 SWAP1 PUSH2 0x2709 JUMP JUMPDEST POP PUSH1 0x40 DUP3 ADD MLOAD DUP2 PUSH1 0x2 ADD PUSH0 PUSH2 0x100 EXP DUP2 SLOAD DUP2 PUSH20 0xFFFFFFFFFFFFFFFFFFFFFFFFFFFFFFFFFFFFFFFF MUL NOT AND SWAP1 DUP4 PUSH20 0xFFFFFFFFFFFFFFFFFFFFFFFFFFFFFFFFFFFFFFFF AND MUL OR SWAP1 SSTORE POP PUSH1 0x60 DUP3 ADD MLOAD DUP2 PUSH1 0x3 ADD SWAP1 DUP2 PUSH2 0xDE3 SWAP2 SWAP1 PUSH2 0x2709 JUMP JUMPDEST POP PUSH1 0x80 DUP3 ADD MLOAD DUP2 PUSH1 0x4 ADD SWAP1 DUP2 PUSH2 0xDF9 SWAP2 SWAP1 PUSH2 0x2709 JUMP JUMPDEST POP PUSH1 0xA0 DUP3 ADD MLOAD DUP2 PUSH1 0x5 ADD SSTORE PUSH1 0xC0 DUP3 ADD MLOAD DUP2 PUSH1 0x6 ADD PUSH0 PUSH2 0x100 EXP DUP2 SLOAD DUP2 PUSH1 0xFF MUL NOT AND SWAP1 DUP4 PUSH1 0x3 DUP2 GT ISZERO PUSH2 0xE2E JUMPI PUSH2 0xE2D PUSH2 0x1E34 JUMP JUMPDEST JUMPDEST MUL OR SWAP1 SSTORE POP SWAP1 POP POP POP POP POP POP JUMP JUMPDEST PUSH1 0x3 PUSH1 0x20 MSTORE DUP1 PUSH0 MSTORE PUSH1 0x40 PUSH0 KECCAK256 PUSH0 SWAP2 POP SWAP1 POP DUP1 PUSH0 ADD SLOAD SWAP1 DUP1 PUSH1 0x1 ADD DUP1 SLOAD PUSH2 0xE61 SWAP1 PUSH2 0x253C JUMP JUMPDEST DUP1 PUSH1 0x1F ADD PUSH1 0x20 DUP1 SWAP2 DIV MUL PUSH1 0x20 ADD PUSH1 0x40 MLOAD SWAP1 DUP2 ADD PUSH1 0x40 MSTORE DUP1 SWAP3 SWAP2 SWAP1 DUP2 DUP2 MSTORE PUSH1 0x20 ADD DUP3 DUP1 SLOAD PUSH2 0xE8D SWAP1 PUSH2 0x253C JUMP JUMPDEST DUP1 ISZERO PUSH2 0xED8 JUMPI DUP1 PUSH1 0x1F LT PUSH2 0xEAF JUMPI PUSH2 0x100 DUP1 DUP4 SLOAD DIV MUL DUP4 MSTORE SWAP2 PUSH1 0x20 ADD SWAP2 PUSH2 0xED8 JUMP JUMPDEST DUP3 ADD SWAP2 SWAP1 PUSH0 MSTORE PUSH1 0x20 PUSH0 KECCAK256 SWAP1 JUMPDEST DUP2 SLOAD DUP2 MSTORE SWAP1 PUSH1 0x1 ADD SWAP1 PUSH1 0x20 ADD DUP1 DUP4 GT PUSH2 0xEBB JUMPI DUP3 SWAP1 SUB PUSH1 0x1F AND DUP3 ADD SWAP2 JUMPDEST POP POP POP POP POP SWAP1 DUP1 PUSH1 0x2 ADD PUSH0 SWAP1 SLOAD SWAP1 PUSH2 0x100 EXP SWAP1 DIV PUSH20 0xFFFFFFFFFFFFFFFFFFFFFFFFFFFFFFFFFFFFFFFF AND SWAP1 DUP1 PUSH1 0x2 ADD PUSH1 0x14 SWAP1 SLOAD SWAP1 PUSH2 0x100 EXP SWAP1 DIV PUSH2 0xFFFF AND SWAP1 DUP1 PUSH1 0x3 ADD SLOAD SWAP1 DUP1 PUSH1 0x4 ADD DUP1 SLOAD PUSH2 0xF2C SWAP1 PUSH2 0x253C JUMP JUMPDEST DUP1 PUSH1 0x1F ADD PUSH1 0x20 DUP1 SWAP2 DIV MUL PUSH1 0x20 ADD PUSH1 0x40 MLOAD SWAP1 DUP2 ADD PUSH1 0x40 MSTORE DUP1 SWAP3 SWAP2 SWAP1 DUP2 DUP2 MSTORE PUSH1 0x20 ADD DUP3 DUP1 SLOAD PUSH2 0xF58 SWAP1 PUSH2 0x253C JUMP JUMPDEST DUP1 ISZERO PUSH2 0xFA3 JUMPI DUP1 PUSH1 0x1F LT PUSH2 0xF7A JUMPI PUSH2 0x100 DUP1 DUP4 SLOAD DIV MUL DUP4 MSTORE SWAP2 PUSH1 0x20 ADD SWAP2 PUSH2 0xFA3 JUMP JUMPDEST DUP3 ADD SWAP2 SWAP1 PUSH0 MSTORE PUSH1 0x20 PUSH0 KECCAK256 SWAP1 JUMPDEST DUP2 SLOAD DUP2 MSTORE SWAP1 PUSH1 0x1 ADD SWAP1 PUSH1 0x20 ADD DUP1 DUP4 GT PUSH2 0xF86 JUMPI DUP3 SWAP1 SUB PUSH1 0x1F AND DUP3 ADD SWAP2 JUMPDEST POP POP POP POP POP SWAP1 DUP1 PUSH1 0x5 ADD DUP1 SLOAD PUSH2 0xFB8 SWAP1 PUSH2 0x253C JUMP JUMPDEST DUP1 PUSH1 0x1F ADD PUSH1 0x20 DUP1 SWAP2 DIV MUL PUSH1 0x20 ADD PUSH1 0x40 MLOAD SWAP1 DUP2 ADD PUSH1 0x40 MSTORE DUP1 SWAP3 SWAP2 SWAP1 DUP2 DUP2 MSTORE PUSH1 0x20 ADD DUP3 DUP1 SLOAD PUSH2 0xFE4 SWAP1 PUSH2 0x253C JUMP JUMPDEST DUP1 ISZERO PUSH2 0x102F JUMPI DUP1 PUSH1 0x1F LT PUSH2 0x1006 JUMPI PUSH2 0x100 DUP1 DUP4 SLOAD DIV MUL DUP4 MSTORE SWAP2 PUSH1 0x20 ADD SWAP2 PUSH2 0x102F JUMP JUMPDEST DUP3 ADD SWAP2 SWAP1 PUSH0 MSTORE PUSH1 0x20 PUSH0 KECCAK256 SWAP1 JUMPDEST DUP2 SLOAD DUP2 MSTORE SWAP1 PUSH1 0x1 ADD SWAP1 PUSH1 0x20 ADD DUP1 DUP4 GT PUSH2 0x1012 JUMPI DUP3 SWAP1 SUB PUSH1 0x1F AND DUP3 ADD SWAP2 JUMPDEST POP POP POP POP POP SWAP1 DUP1 PUSH1 0x6 ADD DUP1 SLOAD PUSH2 0x1044 SWAP1 PUSH2 0x253C JUMP JUMPDEST DUP1 PUSH1 0x1F ADD PUSH1 0x20 DUP1 SWAP2 DIV MUL PUSH1 0x20 ADD PUSH1 0x40 MLOAD SWAP1 DUP2 ADD PUSH1 0x40 MSTORE DUP1 SWAP3 SWAP2 SWAP1 DUP2 DUP2 MSTORE PUSH1 0x20 ADD DUP3 DUP1 SLOAD PUSH2 0x1070 SWAP1 PUSH2 0x253C JUMP JUMPDEST DUP1 ISZERO PUSH2 0x10BB JUMPI DUP1 PUSH1 0x1F LT PUSH2 0x1092 JUMPI PUSH2 0x100 DUP1 DUP4 SLOAD DIV MUL DUP4 MSTORE SWAP2 PUSH1 0x20 ADD SWAP2 PUSH2 0x10BB JUMP JUMPDEST DUP3 ADD SWAP2 SWAP1 PUSH0 MSTORE PUSH1 0x20 PUSH0 KECCAK256 SWAP1 JUMPDEST DUP2 SLOAD DUP2 MSTORE SWAP1 PUSH1 0x1 ADD SWAP1 PUSH1 0x20 ADD DUP1 DUP4 GT PUSH2 0x109E JUMPI DUP3 SWAP1 SUB PUSH1 0x1F AND DUP3 ADD SWAP2 JUMPDEST POP POP POP POP POP SWAP1 DUP1 PUSH1 0x7 ADD SLOAD SWAP1 DUP1 PUSH1 0x8 ADD PUSH0 SWAP1 SLOAD SWAP1 PUSH2 0x100 EXP SWAP1 DIV PUSH1 0xFF AND SWAP1 POP DUP11 JUMP JUMPDEST DUP2 CALLER PUSH20 0xFFFFFFFFFFFFFFFFFFFFFFFFFFFFFFFFFFFFFFFF AND PUSH1 0x3 PUSH0 DUP4 DUP2 MSTORE PUSH1 0x20 ADD SWAP1 DUP2 MSTORE PUSH1 0x20 ADD PUSH0 KECCAK256 PUSH1 0x2 ADD PUSH0 SWAP1 SLOAD SWAP1 PUSH2 0x100 EXP SWAP1 DIV PUSH20 0xFFFFFFFFFFFFFFFFFFFFFFFFFFFFFFFFFFFFFFFF AND PUSH20 0xFFFFFFFFFFFFFFFFFFFFFFFFFFFFFFFFFFFFFFFF AND EQ PUSH2 0x117F JUMPI PUSH1 0x40 MLOAD PUSH32 0x8C379A000000000000000000000000000000000000000000000000000000000 DUP2 MSTORE PUSH1 0x4 ADD PUSH2 0x1176 SWAP1 PUSH2 0x28C6 JUMP JUMPDEST PUSH1 0x40 MLOAD DUP1 SWAP2 SUB SWAP1 REVERT JUMPDEST DUP3 PUSH0 DUP2 GT DUP1 ISZERO PUSH2 0x1190 JUMPI POP PUSH0 SLOAD DUP2 GT ISZERO JUMPDEST PUSH2 0x11CF JUMPI PUSH1 0x40 MLOAD PUSH32 0x8C379A000000000000000000000000000000000000000000000000000000000 DUP2 MSTORE PUSH1 0x4 ADD PUSH2 0x11C6 SWAP1 PUSH2 0x285E JUMP JUMPDEST PUSH1 0x40 MLOAD DUP1 SWAP2 SUB SWAP1 REVERT JUMPDEST CALLER PUSH20 0xFFFFFFFFFFFFFFFFFFFFFFFFFFFFFFFFFFFFFFFF AND DUP4 PUSH20 0xFFFFFFFFFFFFFFFFFFFFFFFFFFFFFFFFFFFFFFFF AND EQ PUSH2 0x123D JUMPI PUSH1 0x40 MLOAD PUSH32 0x8C379A000000000000000000000000000000000000000000000000000000000 DUP2 MSTORE PUSH1 0x4 ADD PUSH2 0x1234 SWAP1 PUSH2 0x2954 JUMP JUMPDEST PUSH1 0x40 MLOAD DUP1 SWAP2 SUB SWAP1 REVERT JUMPDEST DUP3 PUSH1 0x3 PUSH0 DUP7 DUP2 MSTORE PUSH1 0x20 ADD SWAP1 DUP2 MSTORE PUSH1 0x20 ADD PUSH0 KECCAK256 PUSH1 0x2 ADD PUSH0 PUSH2 0x100 EXP DUP2 SLOAD DUP2 PUSH20 0xFFFFFFFFFFFFFFFFFFFFFFFFFFFFFFFFFFFFFFFF MUL NOT AND SWAP1 DUP4 PUSH20 0xFFFFFFFFFFFFFFFFFFFFFFFFFFFFFFFFFFFFFFFF AND MUL OR SWAP1 SSTORE POP PUSH32 0xBA8CC72BDFDB4F3E2281C3F17F6BE90C470F76DD1106321A2928859835874BC2 DUP5 DUP5 PUSH1 0x40 MLOAD PUSH2 0x12C0 SWAP3 SWAP2 SWAP1 PUSH2 0x2972 JUMP JUMPDEST PUSH1 0x40 MLOAD DUP1 SWAP2 SUB SWAP1 LOG1 POP POP POP POP JUMP JUMPDEST DUP2 CALLER PUSH20 0xFFFFFFFFFFFFFFFFFFFFFFFFFFFFFFFFFFFFFFFF AND PUSH1 0x3 PUSH0 DUP4 DUP2 MSTORE PUSH1 0x20 ADD SWAP1 DUP2 MSTORE PUSH1 0x20 ADD PUSH0 KECCAK256 PUSH1 0x2 ADD PUSH0 SWAP1 SLOAD SWAP1 PUSH2 0x100 EXP SWAP1 DIV PUSH20 0xFFFFFFFFFFFFFFFFFFFFFFFFFFFFFFFFFFFFFFFF AND PUSH20 0xFFFFFFFFFFFFFFFFFFFFFFFFFFFFFFFFFFFFFFFF AND EQ PUSH2 0x1370 JUMPI PUSH1 0x40 MLOAD PUSH32 0x8C379A000000000000000000000000000000000000000000000000000000000 DUP2 MSTORE PUSH1 0x4 ADD PUSH2 0x1367 SWAP1 PUSH2 0x28C6 JUMP JUMPDEST PUSH1 0x40 MLOAD DUP1 SWAP2 SUB SWAP1 REVERT JUMPDEST DUP3 PUSH0 DUP2 GT DUP1 ISZERO PUSH2 0x1381 JUMPI POP PUSH0 SLOAD DUP2 GT ISZERO JUMPDEST PUSH2 0x13C0 JUMPI PUSH1 0x40 MLOAD PUSH32 0x8C379A000000000000000000000000000000000000000000000000000000000 DUP2 MSTORE PUSH1 0x4 ADD PUSH2 0x13B7 SWAP1 PUSH2 0x285E JUMP JUMPDEST PUSH1 0x40 MLOAD DUP1 SWAP2 SUB SWAP1 REVERT JUMPDEST DUP3 PUSH1 0x3 PUSH0 DUP7 DUP2 MSTORE PUSH1 0x20 ADD SWAP1 DUP2 MSTORE PUSH1 0x20 ADD PUSH0 KECCAK256 PUSH1 0x8 ADD PUSH0 PUSH2 0x100 EXP DUP2 SLOAD DUP2 PUSH1 0xFF MUL NOT AND SWAP1 DUP4 PUSH1 0x3 DUP2 GT ISZERO PUSH2 0x13F6 JUMPI PUSH2 0x13F5 PUSH2 0x1E34 JUMP JUMPDEST JUMPDEST MUL OR SWAP1 SSTORE POP PUSH32 0xB8A3401ADFC11253C3AFF18E4B48103CEC45C852B9AFC487C23F32E26746242C DUP5 DUP5 PUSH1 0x40 MLOAD PUSH2 0x142C SWAP3 SWAP2 SWAP1 PUSH2 0x2999 JUMP JUMPDEST PUSH1 0x40 MLOAD DUP1 SWAP2 SUB SWAP1 LOG1 POP POP POP POP JUMP JUMPDEST PUSH0 PUSH1 0x1 SLOAD SWAP1 POP SWAP1 JUMP JUMPDEST PUSH0 DUP2 PUSH0 DUP2 GT DUP1 ISZERO PUSH2 0x1455 JUMPI POP PUSH0 SLOAD DUP2 GT ISZERO JUMPDEST PUSH2 0x1494 JUMPI PUSH1 0x40 MLOAD PUSH32 0x8C379A000000000000000000000000000000000000000000000000000000000 DUP2 MSTORE PUSH1 0x4 ADD PUSH2 0x148B SWAP1 PUSH2 0x285E JUMP JUMPDEST PUSH1 0x40 MLOAD DUP1 SWAP2 SUB SWAP1 REVERT JUMPDEST PUSH1 0x3 PUSH0 DUP5 DUP2 MSTORE PUSH1 0x20 ADD SWAP1 DUP2 MSTORE PUSH1 0x20 ADD PUSH0 KECCAK256 PUSH1 0x8 ADD PUSH0 SWAP1 SLOAD SWAP1 PUSH2 0x100 EXP SWAP1 DIV PUSH1 0xFF AND SWAP2 POP POP SWAP2 SWAP1 POP JUMP JUMPDEST PUSH2 0x14C5 PUSH2 0x1A11 JUMP JUMPDEST DUP2 PUSH0 DUP2 GT DUP1 ISZERO PUSH2 0x14D7 JUMPI POP PUSH1 0x1 SLOAD DUP2 GT ISZERO JUMPDEST PUSH2 0x1516 JUMPI PUSH1 0x40 MLOAD PUSH32 0x8C379A000000000000000000000000000000000000000000000000000000000 DUP2 MSTORE PUSH1 0x4 ADD PUSH2 0x150D SWAP1 PUSH2 0x2A0A JUMP JUMPDEST PUSH1 0x40 MLOAD DUP1 SWAP2 SUB SWAP1 REVERT JUMPDEST PUSH1 0x4 PUSH0 DUP5 DUP2 MSTORE PUSH1 0x20 ADD SWAP1 DUP2 MSTORE PUSH1 0x20 ADD PUSH0 KECCAK256 PUSH1 0x40 MLOAD DUP1 PUSH1 0xE0 ADD PUSH1 0x40 MSTORE SWAP1 DUP2 PUSH0 DUP3 ADD SLOAD DUP2 MSTORE PUSH1 0x20 ADD PUSH1 0x1 DUP3 ADD DUP1 SLOAD PUSH2 0x154B SWAP1 PUSH2 0x253C JUMP JUMPDEST DUP1 PUSH1 0x1F ADD PUSH1 0x20 DUP1 SWAP2 DIV MUL PUSH1 0x20 ADD PUSH1 0x40 MLOAD SWAP1 DUP2 ADD PUSH1 0x40 MSTORE DUP1 SWAP3 SWAP2 SWAP1 DUP2 DUP2 MSTORE PUSH1 0x20 ADD DUP3 DUP1 SLOAD PUSH2 0x1577 SWAP1 PUSH2 0x253C JUMP JUMPDEST DUP1 ISZERO PUSH2 0x15C2 JUMPI DUP1 PUSH1 0x1F LT PUSH2 0x1599 JUMPI PUSH2 0x100 DUP1 DUP4 SLOAD DIV MUL DUP4 MSTORE SWAP2 PUSH1 0x20 ADD SWAP2 PUSH2 0x15C2 JUMP JUMPDEST DUP3 ADD SWAP2 SWAP1 PUSH0 MSTORE PUSH1 0x20 PUSH0 KECCAK256 SWAP1 JUMPDEST DUP2 SLOAD DUP2 MSTORE SWAP1 PUSH1 0x1 ADD SWAP1 PUSH1 0x20 ADD DUP1 DUP4 GT PUSH2 0x15A5 JUMPI DUP3 SWAP1 SUB PUSH1 0x1F AND DUP3 ADD SWAP2 JUMPDEST POP POP POP POP POP DUP2 MSTORE PUSH1 0x20 ADD PUSH1 0x2 DUP3 ADD PUSH0 SWAP1 SLOAD SWAP1 PUSH2 0x100 EXP SWAP1 DIV PUSH20 0xFFFFFFFFFFFFFFFFFFFFFFFFFFFFFFFFFFFFFFFF AND PUSH20 0xFFFFFFFFFFFFFFFFFFFFFFFFFFFFFFFFFFFFFFFF AND PUSH20 0xFFFFFFFFFFFFFFFFFFFFFFFFFFFFFFFFFFFFFFFF AND DUP2 MSTORE PUSH1 0x20 ADD PUSH1 0x3 DUP3 ADD DUP1 SLOAD PUSH2 0x1630 SWAP1 PUSH2 0x253C JUMP JUMPDEST DUP1 PUSH1 0x1F ADD PUSH1 0x20 DUP1 SWAP2 DIV MUL PUSH1 0x20 ADD PUSH1 0x40 MLOAD SWAP1 DUP2 ADD PUSH1 0x40 MSTORE DUP1 SWAP3 SWAP2 SWAP1 DUP2 DUP2 MSTORE PUSH1 0x20 ADD DUP3 DUP1 SLOAD PUSH2 0x165C SWAP1 PUSH2 0x253C JUMP JUMPDEST DUP1 ISZERO PUSH2 0x16A7 JUMPI DUP1 PUSH1 0x1F LT PUSH2 0x167E JUMPI PUSH2 0x100 DUP1 DUP4 SLOAD DIV MUL DUP4 MSTORE SWAP2 PUSH1 0x20 ADD SWAP2 PUSH2 0x16A7 JUMP JUMPDEST DUP3 ADD SWAP2 SWAP1 PUSH0 MSTORE PUSH1 0x20 PUSH0 KECCAK256 SWAP1 JUMPDEST DUP2 SLOAD DUP2 MSTORE SWAP1 PUSH1 0x1 ADD SWAP1 PUSH1 0x20 ADD DUP1 DUP4 GT PUSH2 0x168A JUMPI DUP3 SWAP1 SUB PUSH1 0x1F AND DUP3 ADD SWAP2 JUMPDEST POP POP POP POP POP DUP2 MSTORE PUSH1 0x20 ADD PUSH1 0x4 DUP3 ADD DUP1 SLOAD PUSH2 0x16C0 SWAP1 PUSH2 0x253C JUMP JUMPDEST DUP1 PUSH1 0x1F ADD PUSH1 0x20 DUP1 SWAP2 DIV MUL PUSH1 0x20 ADD PUSH1 0x40 MLOAD SWAP1 DUP2 ADD PUSH1 0x40 MSTORE DUP1 SWAP3 SWAP2 SWAP1 DUP2 DUP2 MSTORE PUSH1 0x20 ADD DUP3 DUP1 SLOAD PUSH2 0x16EC SWAP1 PUSH2 0x253C JUMP JUMPDEST DUP1 ISZERO PUSH2 0x1737 JUMPI DUP1 PUSH1 0x1F LT PUSH2 0x170E JUMPI PUSH2 0x100 DUP1 DUP4 SLOAD DIV MUL DUP4 MSTORE SWAP2 PUSH1 0x20 ADD SWAP2 PUSH2 0x1737 JUMP JUMPDEST DUP3 ADD SWAP2 SWAP1 PUSH0 MSTORE PUSH1 0x20 PUSH0 KECCAK256 SWAP1 JUMPDEST DUP2 SLOAD DUP2 MSTORE SWAP1 PUSH1 0x1 ADD SWAP1 PUSH1 0x20 ADD DUP1 DUP4 GT PUSH2 0x171A JUMPI DUP3 SWAP1 SUB PUSH1 0x1F AND DUP3 ADD SWAP2 JUMPDEST POP POP POP POP POP DUP2 MSTORE PUSH1 0x20 ADD PUSH1 0x5 DUP3 ADD SLOAD DUP2 MSTORE PUSH1 0x20 ADD PUSH1 0x6 DUP3 ADD PUSH0 SWAP1 SLOAD SWAP1 PUSH2 0x100 EXP SWAP1 DIV PUSH1 0xFF AND PUSH1 0x3 DUP2 GT ISZERO PUSH2 0x176E JUMPI PUSH2 0x176D PUSH2 0x1E34 JUMP JUMPDEST JUMPDEST PUSH1 0x3 DUP2 GT ISZERO PUSH2 0x1780 JUMPI PUSH2 0x177F PUSH2 0x1E34 JUMP JUMPDEST JUMPDEST DUP2 MSTORE POP POP SWAP2 POP POP SWAP2 SWAP1 POP JUMP JUMPDEST PUSH1 0x60 PUSH0 PUSH1 0x3 DUP2 GT ISZERO PUSH2 0x17A1 JUMPI PUSH2 0x17A0 PUSH2 0x1E34 JUMP JUMPDEST JUMPDEST DUP3 PUSH1 0x3 DUP2 GT ISZERO PUSH2 0x17B4 JUMPI PUSH2 0x17B3 PUSH2 0x1E34 JUMP JUMPDEST JUMPDEST SUB PUSH2 0x17F6 JUMPI PUSH1 0x40 MLOAD DUP1 PUSH1 0x40 ADD PUSH1 0x40 MSTORE DUP1 PUSH1 0x7 DUP2 MSTORE PUSH1 0x20 ADD PUSH32 0x4372656174656400000000000000000000000000000000000000000000000000 DUP2 MSTORE POP SWAP1 POP PUSH2 0x1969 JUMP JUMPDEST PUSH1 0x1 PUSH1 0x3 DUP2 GT ISZERO PUSH2 0x180A JUMPI PUSH2 0x1809 PUSH2 0x1E34 JUMP JUMPDEST JUMPDEST DUP3 PUSH1 0x3 DUP2 GT ISZERO PUSH2 0x181D JUMPI PUSH2 0x181C PUSH2 0x1E34 JUMP JUMPDEST JUMPDEST SUB PUSH2 0x185F JUMPI PUSH1 0x40 MLOAD DUP1 PUSH1 0x40 ADD PUSH1 0x40 MSTORE DUP1 PUSH1 0x7 DUP2 MSTORE PUSH1 0x20 ADD PUSH32 0x5368697070656400000000000000000000000000000000000000000000000000 DUP2 MSTORE POP SWAP1 POP PUSH2 0x1969 JUMP JUMPDEST PUSH1 0x2 PUSH1 0x3 DUP2 GT ISZERO PUSH2 0x1873 JUMPI PUSH2 0x1872 PUSH2 0x1E34 JUMP JUMPDEST JUMPDEST DUP3 PUSH1 0x3 DUP2 GT ISZERO PUSH2 0x1886 JUMPI PUSH2 0x1885 PUSH2 0x1E34 JUMP JUMPDEST JUMPDEST SUB PUSH2 0x18C8 JUMPI PUSH1 0x40 MLOAD DUP1 PUSH1 0x40 ADD PUSH1 0x40 MSTORE DUP1 PUSH1 0x8 DUP2 MSTORE PUSH1 0x20 ADD PUSH32 0x5265636569766564000000000000000000000000000000000000000000000000 DUP2 MSTORE POP SWAP1 POP PUSH2 0x1969 JUMP JUMPDEST PUSH1 0x3 DUP1 DUP2 GT ISZERO PUSH2 0x18DB JUMPI PUSH2 0x18DA PUSH2 0x1E34 JUMP JUMPDEST JUMPDEST DUP3 PUSH1 0x3 DUP2 GT ISZERO PUSH2 0x18EE JUMPI PUSH2 0x18ED PUSH2 0x1E34 JUMP JUMPDEST JUMPDEST SUB PUSH2 0x1930 JUMPI PUSH1 0x40 MLOAD DUP1 PUSH1 0x40 ADD PUSH1 0x40 MSTORE DUP1 PUSH1 0x4 DUP2 MSTORE PUSH1 0x20 ADD PUSH32 0x536F6C6400000000000000000000000000000000000000000000000000000000 DUP2 MSTORE POP SWAP1 POP PUSH2 0x1969 JUMP JUMPDEST PUSH1 0x40 MLOAD DUP1 PUSH1 0x40 ADD PUSH1 0x40 MSTORE DUP1 PUSH1 0x7 DUP2 MSTORE PUSH1 0x20 ADD PUSH32 0x556E6B6E6F776E00000000000000000000000000000000000000000000000000 DUP2 MSTORE POP SWAP1 POP JUMPDEST SWAP2 SWAP1 POP JUMP JUMPDEST PUSH0 SLOAD DUP2 JUMP JUMPDEST PUSH1 0x2 PUSH0 SWAP1 SLOAD SWAP1 PUSH2 0x100 EXP SWAP1 DIV PUSH20 0xFFFFFFFFFFFFFFFFFFFFFFFFFFFFFFFFFFFFFFFF AND DUP2 JUMP JUMPDEST PUSH1 0x40 MLOAD DUP1 PUSH2 0x140 ADD PUSH1 0x40 MSTORE DUP1 PUSH0 DUP2 MSTORE PUSH1 0x20 ADD PUSH1 0x60 DUP2 MSTORE PUSH1 0x20 ADD PUSH0 PUSH20 0xFFFFFFFFFFFFFFFFFFFFFFFFFFFFFFFFFFFFFFFF AND DUP2 MSTORE PUSH1 0x20 ADD PUSH0 PUSH2 0xFFFF AND DUP2 MSTORE PUSH1 0x20 ADD PUSH0 DUP2 MSTORE PUSH1 0x20 ADD PUSH1 0x60 DUP2 MSTORE PUSH1 0x20 ADD PUSH1 0x60 DUP2 MSTORE PUSH1 0x20 ADD PUSH1 0x60 DUP2 MSTORE PUSH1 0x20 ADD PUSH0 DUP2 MSTORE PUSH1 0x20 ADD PUSH0 PUSH1 0x3 DUP2 GT ISZERO PUSH2 0x1A0B JUMPI PUSH2 0x1A0A PUSH2 0x1E34 JUMP JUMPDEST JUMPDEST DUP2 MSTORE POP SWAP1 JUMP JUMPDEST PUSH1 0x40 MLOAD DUP1 PUSH1 0xE0 ADD PUSH1 0x40 MSTORE DUP1 PUSH0 DUP2 MSTORE PUSH1 0x20 ADD PUSH1 0x60 DUP2 MSTORE PUSH1 0x20 ADD PUSH0 PUSH20 0xFFFFFFFFFFFFFFFFFFFFFFFFFFFFFFFFFFFFFFFF AND DUP2 MSTORE PUSH1 0x20 ADD PUSH1 0x60 DUP2 MSTORE PUSH1 0x20 ADD PUSH1 0x60 DUP2 MSTORE PUSH1 0x20 ADD PUSH0 DUP2 MSTORE PUSH1 0x20 ADD PUSH0 PUSH1 0x3 DUP2 GT ISZERO PUSH2 0x1A6C JUMPI PUSH2 0x1A6B PUSH2 0x1E34 JUMP JUMPDEST JUMPDEST DUP2 MSTORE POP SWAP1 JUMP JUMPDEST PUSH0 DUP2 SWAP1 POP SWAP2 SWAP1 POP JUMP JUMPDEST PUSH2 0x1A84 DUP2 PUSH2 0x1A72 JUMP JUMPDEST DUP3 MSTORE POP POP JUMP JUMPDEST PUSH0 PUSH1 0x20 DUP3 ADD SWAP1 POP PUSH2 0x1A9D PUSH0 DUP4 ADD DUP5 PUSH2 0x1A7B JUMP JUMPDEST SWAP3 SWAP2 POP POP JUMP JUMPDEST PUSH0 PUSH1 0x40 MLOAD SWAP1 POP SWAP1 JUMP JUMPDEST PUSH0 DUP1 REVERT JUMPDEST PUSH0 DUP1 REVERT JUMPDEST PUSH0 DUP1 REVERT JUMPDEST PUSH0 DUP1 REVERT JUMPDEST PUSH0 PUSH1 0x1F NOT PUSH1 0x1F DUP4 ADD AND SWAP1 POP SWAP2 SWAP1 POP JUMP JUMPDEST PUSH32 0x4E487B7100000000000000000000000000000000000000000000000000000000 PUSH0 MSTORE PUSH1 0x41 PUSH1 0x4 MSTORE PUSH1 0x24 PUSH0 REVERT JUMPDEST PUSH2 0x1B02 DUP3 PUSH2 0x1ABC JUMP JUMPDEST DUP2 ADD DUP2 DUP2 LT PUSH8 0xFFFFFFFFFFFFFFFF DUP3 GT OR ISZERO PUSH2 0x1B21 JUMPI PUSH2 0x1B20 PUSH2 0x1ACC JUMP JUMPDEST JUMPDEST DUP1 PUSH1 0x40 MSTORE POP POP POP JUMP JUMPDEST PUSH0 PUSH2 0x1B33 PUSH2 0x1AA3 JUMP JUMPDEST SWAP1 POP PUSH2 0x1B3F DUP3 DUP3 PUSH2 0x1AF9 JUMP JUMPDEST SWAP2 SWAP1 POP JUMP JUMPDEST PUSH0 PUSH8 0xFFFFFFFFFFFFFFFF DUP3 GT ISZERO PUSH2 0x1B5E JUMPI PUSH2 0x1B5D PUSH2 0x1ACC JUMP JUMPDEST JUMPDEST PUSH2 0x1B67 DUP3 PUSH2 0x1ABC JUMP JUMPDEST SWAP1 POP PUSH1 0x20 DUP2 ADD SWAP1 POP SWAP2 SWAP1 POP JUMP JUMPDEST DUP3 DUP2 DUP4 CALLDATACOPY PUSH0 DUP4 DUP4 ADD MSTORE POP POP POP JUMP JUMPDEST PUSH0 PUSH2 0x1B94 PUSH2 0x1B8F DUP5 PUSH2 0x1B44 JUMP JUMPDEST PUSH2 0x1B2A JUMP JUMPDEST SWAP1 POP DUP3 DUP2 MSTORE PUSH1 0x20 DUP2 ADD DUP5 DUP5 DUP5 ADD GT ISZERO PUSH2 0x1BB0 JUMPI PUSH2 0x1BAF PUSH2 0x1AB8 JUMP JUMPDEST JUMPDEST PUSH2 0x1BBB DUP5 DUP3 DUP6 PUSH2 0x1B74 JUMP JUMPDEST POP SWAP4 SWAP3 POP POP POP JUMP JUMPDEST PUSH0 DUP3 PUSH1 0x1F DUP4 ADD SLT PUSH2 0x1BD7 JUMPI PUSH2 0x1BD6 PUSH2 0x1AB4 JUMP JUMPDEST JUMPDEST DUP2 CALLDATALOAD PUSH2 0x1BE7 DUP5 DUP3 PUSH1 0x20 DUP7 ADD PUSH2 0x1B82 JUMP JUMPDEST SWAP2 POP POP SWAP3 SWAP2 POP POP JUMP JUMPDEST PUSH0 PUSH2 0xFFFF DUP3 AND SWAP1 POP SWAP2 SWAP1 POP JUMP JUMPDEST PUSH2 0x1C06 DUP2 PUSH2 0x1BF0 JUMP JUMPDEST DUP2 EQ PUSH2 0x1C10 JUMPI PUSH0 DUP1 REVERT JUMPDEST POP JUMP JUMPDEST PUSH0 DUP2 CALLDATALOAD SWAP1 POP PUSH2 0x1C21 DUP2 PUSH2 0x1BFD JUMP JUMPDEST SWAP3 SWAP2 POP POP JUMP JUMPDEST PUSH2 0x1C30 DUP2 PUSH2 0x1A72 JUMP JUMPDEST DUP2 EQ PUSH2 0x1C3A JUMPI PUSH0 DUP1 REVERT JUMPDEST POP JUMP JUMPDEST PUSH0 DUP2 CALLDATALOAD SWAP1 POP PUSH2 0x1C4B DUP2 PUSH2 0x1C27 JUMP JUMPDEST SWAP3 SWAP2 POP POP JUMP JUMPDEST PUSH0 DUP1 PUSH0 DUP1 PUSH0 DUP1 PUSH1 0xC0 DUP8 DUP10 SUB SLT ISZERO PUSH2 0x1C6B JUMPI PUSH2 0x1C6A PUSH2 0x1AAC JUMP JUMPDEST JUMPDEST PUSH0 DUP8 ADD CALLDATALOAD PUSH8 0xFFFFFFFFFFFFFFFF DUP2 GT ISZERO PUSH2 0x1C88 JUMPI PUSH2 0x1C87 PUSH2 0x1AB0 JUMP JUMPDEST JUMPDEST PUSH2 0x1C94 DUP10 DUP3 DUP11 ADD PUSH2 0x1BC3 JUMP JUMPDEST SWAP7 POP POP PUSH1 0x20 PUSH2 0x1CA5 DUP10 DUP3 DUP11 ADD PUSH2 0x1C13 JUMP JUMPDEST SWAP6 POP POP PUSH1 0x40 PUSH2 0x1CB6 DUP10 DUP3 DUP11 ADD PUSH2 0x1C3D JUMP JUMPDEST SWAP5 POP POP PUSH1 0x60 DUP8 ADD CALLDATALOAD PUSH8 0xFFFFFFFFFFFFFFFF DUP2 GT ISZERO PUSH2 0x1CD7 JUMPI PUSH2 0x1CD6 PUSH2 0x1AB0 JUMP JUMPDEST JUMPDEST PUSH2 0x1CE3 DUP10 DUP3 DUP11 ADD PUSH2 0x1BC3 JUMP JUMPDEST SWAP4 POP POP PUSH1 0x80 DUP8 ADD CALLDATALOAD PUSH8 0xFFFFFFFFFFFFFFFF DUP2 GT ISZERO PUSH2 0x1D04 JUMPI PUSH2 0x1D03 PUSH2 0x1AB0 JUMP JUMPDEST JUMPDEST PUSH2 0x1D10 DUP10 DUP3 DUP11 ADD PUSH2 0x1BC3 JUMP JUMPDEST SWAP3 POP POP PUSH1 0xA0 DUP8 ADD CALLDATALOAD PUSH8 0xFFFFFFFFFFFFFFFF DUP2 GT ISZERO PUSH2 0x1D31 JUMPI PUSH2 0x1D30 PUSH2 0x1AB0 JUMP JUMPDEST JUMPDEST PUSH2 0x1D3D DUP10 DUP3 DUP11 ADD PUSH2 0x1BC3 JUMP JUMPDEST SWAP2 POP POP SWAP3 SWAP6 POP SWAP3 SWAP6 POP SWAP3 SWAP6 JUMP JUMPDEST PUSH0 PUSH1 0x20 DUP3 DUP5 SUB SLT ISZERO PUSH2 0x1D5F JUMPI PUSH2 0x1D5E PUSH2 0x1AAC JUMP JUMPDEST JUMPDEST PUSH0 PUSH2 0x1D6C DUP5 DUP3 DUP6 ADD PUSH2 0x1C3D JUMP JUMPDEST SWAP2 POP POP SWAP3 SWAP2 POP POP JUMP JUMPDEST PUSH0 DUP2 MLOAD SWAP1 POP SWAP2 SWAP1 POP JUMP JUMPDEST PUSH0 DUP3 DUP3 MSTORE PUSH1 0x20 DUP3 ADD SWAP1 POP SWAP3 SWAP2 POP POP JUMP JUMPDEST DUP3 DUP2 DUP4 MCOPY PUSH0 DUP4 DUP4 ADD MSTORE POP POP POP JUMP JUMPDEST PUSH0 PUSH2 0x1DA7 DUP3 PUSH2 0x1D75 JUMP JUMPDEST PUSH2 0x1DB1 DUP2 DUP6 PUSH2 0x1D7F JUMP JUMPDEST SWAP4 POP PUSH2 0x1DC1 DUP2 DUP6 PUSH1 0x20 DUP7 ADD PUSH2 0x1D8F JUMP JUMPDEST PUSH2 0x1DCA DUP2 PUSH2 0x1ABC JUMP JUMPDEST DUP5 ADD SWAP2 POP POP SWAP3 SWAP2 POP POP JUMP JUMPDEST PUSH0 PUSH1 0x20 DUP3 ADD SWAP1 POP DUP2 DUP2 SUB PUSH0 DUP4 ADD MSTORE PUSH2 0x1DED DUP2 DUP5 PUSH2 0x1D9D JUMP JUMPDEST SWAP1 POP SWAP3 SWAP2 POP POP JUMP JUMPDEST PUSH0 PUSH20 0xFFFFFFFFFFFFFFFFFFFFFFFFFFFFFFFFFFFFFFFF DUP3 AND SWAP1 POP SWAP2 SWAP1 POP JUMP JUMPDEST PUSH0 PUSH2 0x1E1E DUP3 PUSH2 0x1DF5 JUMP JUMPDEST SWAP1 POP SWAP2 SWAP1 POP JUMP JUMPDEST PUSH2 0x1E2E DUP2 PUSH2 0x1E14 JUMP JUMPDEST DUP3 MSTORE POP POP JUMP JUMPDEST PUSH32 0x4E487B7100000000000000000000000000000000000000000000000000000000 PUSH0 MSTORE PUSH1 0x21 PUSH1 0x4 MSTORE PUSH1 0x24 PUSH0 REVERT JUMPDEST PUSH1 0x4 DUP2 LT PUSH2 0x1E72 JUMPI PUSH2 0x1E71 PUSH2 0x1E34 JUMP JUMPDEST JUMPDEST POP JUMP JUMPDEST PUSH0 DUP2 SWAP1 POP PUSH2 0x1E82 DUP3 PUSH2 0x1E61 JUMP JUMPDEST SWAP2 SWAP1 POP JUMP JUMPDEST PUSH0 PUSH2 0x1E91 DUP3 PUSH2 0x1E75 JUMP JUMPDEST SWAP1 POP SWAP2 SWAP1 POP JUMP JUMPDEST PUSH2 0x1EA1 DUP2 PUSH2 0x1E87 JUMP JUMPDEST DUP3 MSTORE POP POP JUMP JUMPDEST PUSH0 PUSH1 0xE0 DUP3 ADD SWAP1 POP PUSH2 0x1EBA PUSH0 DUP4 ADD DUP11 PUSH2 0x1A7B JUMP JUMPDEST DUP2 DUP2 SUB PUSH1 0x20 DUP4 ADD MSTORE PUSH2 0x1ECC DUP2 DUP10 PUSH2 0x1D9D JUMP JUMPDEST SWAP1 POP PUSH2 0x1EDB PUSH1 0x40 DUP4 ADD DUP9 PUSH2 0x1E25 JUMP JUMPDEST DUP2 DUP2 SUB PUSH1 0x60 DUP4 ADD MSTORE PUSH2 0x1EED DUP2 DUP8 PUSH2 0x1D9D JUMP JUMPDEST SWAP1 POP DUP2 DUP2 SUB PUSH1 0x80 DUP4 ADD MSTORE PUSH2 0x1F01 DUP2 DUP7 PUSH2 0x1D9D JUMP JUMPDEST SWAP1 POP PUSH2 0x1F10 PUSH1 0xA0 DUP4 ADD DUP6 PUSH2 0x1A7B JUMP JUMPDEST PUSH2 0x1F1D PUSH1 0xC0 DUP4 ADD DUP5 PUSH2 0x1E98 JUMP JUMPDEST SWAP9 SWAP8 POP POP POP POP POP POP POP POP JUMP JUMPDEST PUSH2 0x1F32 DUP2 PUSH2 0x1A72 JUMP JUMPDEST DUP3 MSTORE POP POP JUMP JUMPDEST PUSH0 DUP3 DUP3 MSTORE PUSH1 0x20 DUP3 ADD SWAP1 POP SWAP3 SWAP2 POP POP JUMP JUMPDEST PUSH0 PUSH2 0x1F52 DUP3 PUSH2 0x1D75 JUMP JUMPDEST PUSH2 0x1F5C DUP2 DUP6 PUSH2 0x1F38 JUMP JUMPDEST SWAP4 POP PUSH2 0x1F6C DUP2 DUP6 PUSH1 0x20 DUP7 ADD PUSH2 0x1D8F JUMP JUMPDEST PUSH2 0x1F75 DUP2 PUSH2 0x1ABC JUMP JUMPDEST DUP5 ADD SWAP2 POP POP SWAP3 SWAP2 POP POP JUMP JUMPDEST PUSH2 0x1F89 DUP2 PUSH2 0x1E14 JUMP JUMPDEST DUP3 MSTORE POP POP JUMP JUMPDEST PUSH2 0x1F98 DUP2 PUSH2 0x1BF0 JUMP JUMPDEST DUP3 MSTORE POP POP JUMP JUMPDEST PUSH1 0x4 DUP2 LT PUSH2 0x1FAF JUMPI PUSH2 0x1FAE PUSH2 0x1E34 JUMP JUMPDEST JUMPDEST POP JUMP JUMPDEST PUSH0 DUP2 SWAP1 POP PUSH2 0x1FBF DUP3 PUSH2 0x1F9E JUMP JUMPDEST SWAP2 SWAP1 POP JUMP JUMPDEST PUSH0 PUSH2 0x1FCE DUP3 PUSH2 0x1FB2 JUMP JUMPDEST SWAP1 POP SWAP2 SWAP1 POP JUMP JUMPDEST PUSH2 0x1FDE DUP2 PUSH2 0x1FC4 JUMP JUMPDEST DUP3 MSTORE POP POP JUMP JUMPDEST PUSH0 PUSH2 0x140 DUP4 ADD PUSH0 DUP4 ADD MLOAD PUSH2 0x1FFA PUSH0 DUP7 ADD DUP3 PUSH2 0x1F29 JUMP JUMPDEST POP PUSH1 0x20 DUP4 ADD MLOAD DUP5 DUP3 SUB PUSH1 0x20 DUP7 ADD MSTORE PUSH2 0x2012 DUP3 DUP3 PUSH2 0x1F48 JUMP JUMPDEST SWAP2 POP POP PUSH1 0x40 DUP4 ADD MLOAD PUSH2 0x2027 PUSH1 0x40 DUP7 ADD DUP3 PUSH2 0x1F80 JUMP JUMPDEST POP PUSH1 0x60 DUP4 ADD MLOAD PUSH2 0x203A PUSH1 0x60 DUP7 ADD DUP3 PUSH2 0x1F8F JUMP JUMPDEST POP PUSH1 0x80 DUP4 ADD MLOAD PUSH2 0x204D PUSH1 0x80 DUP7 ADD DUP3 PUSH2 0x1F29 JUMP JUMPDEST POP PUSH1 0xA0 DUP4 ADD MLOAD DUP5 DUP3 SUB PUSH1 0xA0 DUP7 ADD MSTORE PUSH2 0x2065 DUP3 DUP3 PUSH2 0x1F48 JUMP JUMPDEST SWAP2 POP POP PUSH1 0xC0 DUP4 ADD MLOAD DUP5 DUP3 SUB PUSH1 0xC0 DUP7 ADD MSTORE PUSH2 0x207F DUP3 DUP3 PUSH2 0x1F48 JUMP JUMPDEST SWAP2 POP POP PUSH1 0xE0 DUP4 ADD MLOAD DUP5 DUP3 SUB PUSH1 0xE0 DUP7 ADD MSTORE PUSH2 0x2099 DUP3 DUP3 PUSH2 0x1F48 JUMP JUMPDEST SWAP2 POP POP PUSH2 0x100 DUP4 ADD MLOAD PUSH2 0x20B0 PUSH2 0x100 DUP7 ADD DUP3 PUSH2 0x1F29 JUMP JUMPDEST POP PUSH2 0x120 DUP4 ADD MLOAD PUSH2 0x20C5 PUSH2 0x120 DUP7 ADD DUP3 PUSH2 0x1FD5 JUMP JUMPDEST POP DUP1 SWAP2 POP POP SWAP3 SWAP2 POP POP JUMP JUMPDEST PUSH0 PUSH1 0x20 DUP3 ADD SWAP1 POP DUP2 DUP2 SUB PUSH0 DUP4 ADD MSTORE PUSH2 0x20E8 DUP2 DUP5 PUSH2 0x1FE4 JUMP JUMPDEST SWAP1 POP SWAP3 SWAP2 POP POP JUMP JUMPDEST PUSH1 0x4 DUP2 LT PUSH2 0x20FC JUMPI PUSH0 DUP1 REVERT JUMPDEST POP JUMP JUMPDEST PUSH0 DUP2 CALLDATALOAD SWAP1 POP PUSH2 0x210D DUP2 PUSH2 0x20F0 JUMP JUMPDEST SWAP3 SWAP2 POP POP JUMP JUMPDEST PUSH0 DUP1 PUSH0 DUP1 PUSH1 0x80 DUP6 DUP8 SUB SLT ISZERO PUSH2 0x212B JUMPI PUSH2 0x212A PUSH2 0x1AAC JUMP JUMPDEST JUMPDEST PUSH0 DUP6 ADD CALLDATALOAD PUSH8 0xFFFFFFFFFFFFFFFF DUP2 GT ISZERO PUSH2 0x2148 JUMPI PUSH2 0x2147 PUSH2 0x1AB0 JUMP JUMPDEST JUMPDEST PUSH2 0x2154 DUP8 DUP3 DUP9 ADD PUSH2 0x1BC3 JUMP JUMPDEST SWAP5 POP POP PUSH1 0x20 DUP6 ADD CALLDATALOAD PUSH8 0xFFFFFFFFFFFFFFFF DUP2 GT ISZERO PUSH2 0x2175 JUMPI PUSH2 0x2174 PUSH2 0x1AB0 JUMP JUMPDEST JUMPDEST PUSH2 0x2181 DUP8 DUP3 DUP9 ADD PUSH2 0x1BC3 JUMP JUMPDEST SWAP4 POP POP PUSH1 0x40 DUP6 ADD CALLDATALOAD PUSH8 0xFFFFFFFFFFFFFFFF DUP2 GT ISZERO PUSH2 0x21A2 JUMPI PUSH2 0x21A1 PUSH2 0x1AB0 JUMP JUMPDEST JUMPDEST PUSH2 0x21AE DUP8 DUP3 DUP9 ADD PUSH2 0x1BC3 JUMP JUMPDEST SWAP3 POP POP PUSH1 0x60 PUSH2 0x21BF DUP8 DUP3 DUP9 ADD PUSH2 0x20FF JUMP JUMPDEST SWAP2 POP POP SWAP3 SWAP6 SWAP2 SWAP5 POP SWAP3 POP JUMP JUMPDEST PUSH2 0x21D4 DUP2 PUSH2 0x1BF0 JUMP JUMPDEST DUP3 MSTORE POP POP JUMP JUMPDEST PUSH2 0x21E3 DUP2 PUSH2 0x1FC4 JUMP JUMPDEST DUP3 MSTORE POP POP JUMP JUMPDEST PUSH0 PUSH2 0x140 DUP3 ADD SWAP1 POP PUSH2 0x21FD PUSH0 DUP4 ADD DUP14 PUSH2 0x1A7B JUMP JUMPDEST DUP2 DUP2 SUB PUSH1 0x20 DUP4 ADD MSTORE PUSH2 0x220F DUP2 DUP13 PUSH2 0x1D9D JUMP JUMPDEST SWAP1 POP PUSH2 0x221E PUSH1 0x40 DUP4 ADD DUP12 PUSH2 0x1E25 JUMP JUMPDEST PUSH2 0x222B PUSH1 0x60 DUP4 ADD DUP11 PUSH2 0x21CB JUMP JUMPDEST PUSH2 0x2238 PUSH1 0x80 DUP4 ADD DUP10 PUSH2 0x1A7B JUMP JUMPDEST DUP2 DUP2 SUB PUSH1 0xA0 DUP4 ADD MSTORE PUSH2 0x224A DUP2 DUP9 PUSH2 0x1D9D JUMP JUMPDEST SWAP1 POP DUP2 DUP2 SUB PUSH1 0xC0 DUP4 ADD MSTORE PUSH2 0x225E DUP2 DUP8 PUSH2 0x1D9D JUMP JUMPDEST SWAP1 POP DUP2 DUP2 SUB PUSH1 0xE0 DUP4 ADD MSTORE PUSH2 0x2272 DUP2 DUP7 PUSH2 0x1D9D JUMP JUMPDEST SWAP1 POP PUSH2 0x2282 PUSH2 0x100 DUP4 ADD DUP6 PUSH2 0x1A7B JUMP JUMPDEST PUSH2 0x2290 PUSH2 0x120 DUP4 ADD DUP5 PUSH2 0x21DA JUMP JUMPDEST SWAP12 SWAP11 POP POP POP POP POP POP POP POP POP POP POP JUMP JUMPDEST PUSH2 0x22A8 DUP2 PUSH2 0x1E14 JUMP JUMPDEST DUP2 EQ PUSH2 0x22B2 JUMPI PUSH0 DUP1 REVERT JUMPDEST POP JUMP JUMPDEST PUSH0 DUP2 CALLDATALOAD SWAP1 POP PUSH2 0x22C3 DUP2 PUSH2 0x229F JUMP JUMPDEST SWAP3 SWAP2 POP POP JUMP JUMPDEST PUSH0 DUP1 PUSH1 0x40 DUP4 DUP6 SUB SLT ISZERO PUSH2 0x22DF JUMPI PUSH2 0x22DE PUSH2 0x1AAC JUMP JUMPDEST JUMPDEST PUSH0 PUSH2 0x22EC DUP6 DUP3 DUP7 ADD PUSH2 0x1C3D JUMP JUMPDEST SWAP3 POP POP PUSH1 0x20 PUSH2 0x22FD DUP6 DUP3 DUP7 ADD PUSH2 0x22B5 JUMP JUMPDEST SWAP2 POP POP SWAP3 POP SWAP3 SWAP1 POP JUMP JUMPDEST PUSH1 0x4 DUP2 LT PUSH2 0x2313 JUMPI PUSH0 DUP1 REVERT JUMPDEST POP JUMP JUMPDEST PUSH0 DUP2 CALLDATALOAD SWAP1 POP PUSH2 0x2324 DUP2 PUSH2 0x2307 JUMP JUMPDEST SWAP3 SWAP2 POP POP JUMP JUMPDEST PUSH0 DUP1 PUSH1 0x40 DUP4 DUP6 SUB SLT ISZERO PUSH2 0x2340 JUMPI PUSH2 0x233F PUSH2 0x1AAC JUMP JUMPDEST JUMPDEST PUSH0 PUSH2 0x234D DUP6 DUP3 DUP7 ADD PUSH2 0x1C3D JUMP JUMPDEST SWAP3 POP POP PUSH1 0x20 PUSH2 0x235E DUP6 DUP3 DUP7 ADD PUSH2 0x2316 JUMP JUMPDEST SWAP2 POP POP SWAP3 POP SWAP3 SWAP1 POP JUMP JUMPDEST PUSH0 PUSH1 0x20 DUP3 ADD SWAP1 POP PUSH2 0x237B PUSH0 DUP4 ADD DUP5 PUSH2 0x21DA JUMP JUMPDEST SWAP3 SWAP2 POP POP JUMP JUMPDEST PUSH2 0x238A DUP2 PUSH2 0x1E87 JUMP JUMPDEST DUP3 MSTORE POP POP JUMP JUMPDEST PUSH0 PUSH1 0xE0 DUP4 ADD PUSH0 DUP4 ADD MLOAD PUSH2 0x23A5 PUSH0 DUP7 ADD DUP3 PUSH2 0x1F29 JUMP JUMPDEST POP PUSH1 0x20 DUP4 ADD MLOAD DUP5 DUP3 SUB PUSH1 0x20 DUP7 ADD MSTORE PUSH2 0x23BD DUP3 DUP3 PUSH2 0x1F48 JUMP JUMPDEST SWAP2 POP POP PUSH1 0x40 DUP4 ADD MLOAD PUSH2 0x23D2 PUSH1 0x40 DUP7 ADD DUP3 PUSH2 0x1F80 JUMP JUMPDEST POP PUSH1 0x60 DUP4 ADD MLOAD DUP5 DUP3 SUB PUSH1 0x60 DUP7 ADD MSTORE PUSH2 0x23EA DUP3 DUP3 PUSH2 0x1F48 JUMP JUMPDEST SWAP2 POP POP PUSH1 0x80 DUP4 ADD MLOAD DUP5 DUP3 SUB PUSH1 0x80 DUP7 ADD MSTORE PUSH2 0x2404 DUP3 DUP3 PUSH2 0x1F48 JUMP JUMPDEST SWAP2 POP POP PUSH1 0xA0 DUP4 ADD MLOAD PUSH2 0x2419 PUSH1 0xA0 DUP7 ADD DUP3 PUSH2 0x1F29 JUMP JUMPDEST POP PUSH1 0xC0 DUP4 ADD MLOAD PUSH2 0x242C PUSH1 0xC0 DUP7 ADD DUP3 PUSH2 0x2381 JUMP JUMPDEST POP DUP1 SWAP2 POP POP SWAP3 SWAP2 POP POP JUMP JUMPDEST PUSH0 PUSH1 0x20 DUP3 ADD SWAP1 POP DUP2 DUP2 SUB PUSH0 DUP4 ADD MSTORE PUSH2 0x244F DUP2 DUP5 PUSH2 0x2390 JUMP JUMPDEST SWAP1 POP SWAP3 SWAP2 POP POP JUMP JUMPDEST PUSH0 PUSH1 0x20 DUP3 DUP5 SUB SLT ISZERO PUSH2 0x246C JUMPI PUSH2 0x246B PUSH2 0x1AAC JUMP JUMPDEST JUMPDEST PUSH0 PUSH2 0x2479 DUP5 DUP3 DUP6 ADD PUSH2 0x2316 JUMP JUMPDEST SWAP2 POP POP SWAP3 SWAP2 POP POP JUMP JUMPDEST PUSH0 PUSH1 0x20 DUP3 ADD SWAP1 POP PUSH2 0x2495 PUSH0 DUP4 ADD DUP5 PUSH2 0x1E25 JUMP JUMPDEST SWAP3 SWAP2 POP POP JUMP JUMPDEST PUSH32 0x4E487B7100000000000000000000000000000000000000000000000000000000 PUSH0 MSTORE PUSH1 0x11 PUSH1 0x4 MSTORE PUSH1 0x24 PUSH0 REVERT JUMPDEST PUSH0 PUSH2 0x24D2 DUP3 PUSH2 0x1A72 JUMP JUMPDEST SWAP2 POP PUSH32 0xFFFFFFFFFFFFFFFFFFFFFFFFFFFFFFFFFFFFFFFFFFFFFFFFFFFFFFFFFFFFFFFF DUP3 SUB PUSH2 0x2504 JUMPI PUSH2 0x2503 PUSH2 0x249B JUMP JUMPDEST JUMPDEST PUSH1 0x1 DUP3 ADD SWAP1 POP SWAP2 SWAP1 POP JUMP JUMPDEST PUSH32 0x4E487B7100000000000000000000000000000000000000000000000000000000 PUSH0 MSTORE PUSH1 0x22 PUSH1 0x4 MSTORE PUSH1 0x24 PUSH0 REVERT JUMPDEST PUSH0 PUSH1 0x2 DUP3 DIV SWAP1 POP PUSH1 0x1 DUP3 AND DUP1 PUSH2 0x2553 JUMPI PUSH1 0x7F DUP3 AND SWAP2 POP JUMPDEST PUSH1 0x20 DUP3 LT DUP2 SUB PUSH2 0x2566 JUMPI PUSH2 0x2565 PUSH2 0x250F JUMP JUMPDEST JUMPDEST POP SWAP2 SWAP1 POP JUMP JUMPDEST PUSH0 DUP2 SWAP1 POP DUP2 PUSH0 MSTORE PUSH1 0x20 PUSH0 KECCAK256 SWAP1 POP SWAP2 SWAP1 POP JUMP JUMPDEST PUSH0 PUSH1 0x20 PUSH1 0x1F DUP4 ADD DIV SWAP1 POP SWAP2 SWAP1 POP JUMP JUMPDEST PUSH0 DUP3 DUP3 SHL SWAP1 POP SWAP3 SWAP2 POP POP JUMP JUMPDEST PUSH0 PUSH1 0x8 DUP4 MUL PUSH2 0x25C8 PUSH32 0xFFFFFFFFFFFFFFFFFFFFFFFFFFFFFFFFFFFFFFFFFFFFFFFFFFFFFFFFFFFFFFFF DUP3 PUSH2 0x258D JUMP JUMPDEST PUSH2 0x25D2 DUP7 DUP4 PUSH2 0x258D JUMP JUMPDEST SWAP6 POP DUP1 NOT DUP5 AND SWAP4 POP DUP1 DUP7 AND DUP5 OR SWAP3 POP POP POP SWAP4 SWAP3 POP POP POP JUMP JUMPDEST PUSH0 DUP2 SWAP1 POP SWAP2 SWAP1 POP JUMP JUMPDEST PUSH0 PUSH2 0x260D PUSH2 0x2608 PUSH2 0x2603 DUP5 PUSH2 0x1A72 JUMP JUMPDEST PUSH2 0x25EA JUMP JUMPDEST PUSH2 0x1A72 JUMP JUMPDEST SWAP1 POP SWAP2 SWAP1 POP JUMP JUMPDEST PUSH0 DUP2 SWAP1 POP SWAP2 SWAP1 POP JUMP JUMPDEST PUSH2 0x2626 DUP4 PUSH2 0x25F3 JUMP JUMPDEST PUSH2 0x263A PUSH2 0x2632 DUP3 PUSH2 0x2614 JUMP JUMPDEST DUP5 DUP5 SLOAD PUSH2 0x2599 JUMP JUMPDEST DUP3 SSTORE POP POP POP POP JUMP JUMPDEST PUSH0 SWAP1 JUMP JUMPDEST PUSH2 0x264E PUSH2 0x2642 JUMP JUMPDEST PUSH2 0x2659 DUP2 DUP5 DUP5 PUSH2 0x261D JUMP JUMPDEST POP POP POP JUMP JUMPDEST JUMPDEST DUP2 DUP2 LT ISZERO PUSH2 0x267C JUMPI PUSH2 0x2671 PUSH0 DUP3 PUSH2 0x2646 JUMP JUMPDEST PUSH1 0x1 DUP2 ADD SWAP1 POP PUSH2 0x265F JUMP JUMPDEST POP POP JUMP JUMPDEST PUSH1 0x1F DUP3 GT ISZERO PUSH2 0x26C1 JUMPI PUSH2 0x2692 DUP2 PUSH2 0x256C JUMP JUMPDEST PUSH2 0x269B DUP5 PUSH2 0x257E JUMP JUMPDEST DUP2 ADD PUSH1 0x20 DUP6 LT ISZERO PUSH2 0x26AA JUMPI DUP2 SWAP1 POP JUMPDEST PUSH2 0x26BE PUSH2 0x26B6 DUP6 PUSH2 0x257E JUMP JUMPDEST DUP4 ADD DUP3 PUSH2 0x265E JUMP JUMPDEST POP POP JUMPDEST POP POP POP JUMP JUMPDEST PUSH0 DUP3 DUP3 SHR SWAP1 POP SWAP3 SWAP2 POP POP JUMP JUMPDEST PUSH0 PUSH2 0x26E1 PUSH0 NOT DUP5 PUSH1 0x8 MUL PUSH2 0x26C6 JUMP JUMPDEST NOT DUP1 DUP4 AND SWAP2 POP POP SWAP3 SWAP2 POP POP JUMP JUMPDEST PUSH0 PUSH2 0x26F9 DUP4 DUP4 PUSH2 0x26D2 JUMP JUMPDEST SWAP2 POP DUP3 PUSH1 0x2 MUL DUP3 OR SWAP1 POP SWAP3 SWAP2 POP POP JUMP JUMPDEST PUSH2 0x2712 DUP3 PUSH2 0x1D75 JUMP JUMPDEST PUSH8 0xFFFFFFFFFFFFFFFF DUP2 GT ISZERO PUSH2 0x272B JUMPI PUSH2 0x272A PUSH2 0x1ACC JUMP JUMPDEST JUMPDEST PUSH2 0x2735 DUP3 SLOAD PUSH2 0x253C JUMP JUMPDEST PUSH2 0x2740 DUP3 DUP3 DUP6 PUSH2 0x2680 JUMP JUMPDEST PUSH0 PUSH1 0x20 SWAP1 POP PUSH1 0x1F DUP4 GT PUSH1 0x1 DUP2 EQ PUSH2 0x2771 JUMPI PUSH0 DUP5 ISZERO PUSH2 0x275F JUMPI DUP3 DUP8 ADD MLOAD SWAP1 POP JUMPDEST PUSH2 0x2769 DUP6 DUP3 PUSH2 0x26EE JUMP JUMPDEST DUP7 SSTORE POP PUSH2 0x27D0 JUMP JUMPDEST PUSH1 0x1F NOT DUP5 AND PUSH2 0x277F DUP7 PUSH2 0x256C JUMP JUMPDEST PUSH0 JUMPDEST DUP3 DUP2 LT ISZERO PUSH2 0x27A6 JUMPI DUP5 DUP10 ADD MLOAD DUP3 SSTORE PUSH1 0x1 DUP3 ADD SWAP2 POP PUSH1 0x20 DUP6 ADD SWAP5 POP PUSH1 0x20 DUP2 ADD SWAP1 POP PUSH2 0x2781 JUMP JUMPDEST DUP7 DUP4 LT ISZERO PUSH2 0x27C3 JUMPI DUP5 DUP10 ADD MLOAD PUSH2 0x27BF PUSH1 0x1F DUP10 AND DUP3 PUSH2 0x26D2 JUMP JUMPDEST DUP4 SSTORE POP JUMPDEST PUSH1 0x1 PUSH1 0x2 DUP9 MUL ADD DUP9 SSTORE POP POP POP JUMPDEST POP POP POP POP POP POP JUMP JUMPDEST PUSH0 PUSH1 0x60 DUP3 ADD SWAP1 POP PUSH2 0x27EB PUSH0 DUP4 ADD DUP7 PUSH2 0x1A7B JUMP JUMPDEST DUP2 DUP2 SUB PUSH1 0x20 DUP4 ADD MSTORE PUSH2 0x27FD DUP2 DUP6 PUSH2 0x1D9D JUMP JUMPDEST SWAP1 POP PUSH2 0x280C PUSH1 0x40 DUP4 ADD DUP5 PUSH2 0x1E25 JUMP JUMPDEST SWAP5 SWAP4 POP POP POP POP JUMP JUMPDEST PUSH32 0x50726F6475637420494420646F6573206E6F7420657869737400000000000000 PUSH0 DUP3 ADD MSTORE POP JUMP JUMPDEST PUSH0 PUSH2 0x2848 PUSH1 0x19 DUP4 PUSH2 0x1D7F JUMP JUMPDEST SWAP2 POP PUSH2 0x2853 DUP3 PUSH2 0x2814 JUMP JUMPDEST PUSH1 0x20 DUP3 ADD SWAP1 POP SWAP2 SWAP1 POP JUMP JUMPDEST PUSH0 PUSH1 0x20 DUP3 ADD SWAP1 POP DUP2 DUP2 SUB PUSH0 DUP4 ADD MSTORE PUSH2 0x2875 DUP2 PUSH2 0x283C JUMP JUMPDEST SWAP1 POP SWAP2 SWAP1 POP JUMP JUMPDEST PUSH32 0x4E6F74204F776E65720000000000000000000000000000000000000000000000 PUSH0 DUP3 ADD MSTORE POP JUMP JUMPDEST PUSH0 PUSH2 0x28B0 PUSH1 0x9 DUP4 PUSH2 0x1D7F JUMP JUMPDEST SWAP2 POP PUSH2 0x28BB DUP3 PUSH2 0x287C JUMP JUMPDEST PUSH1 0x20 DUP3 ADD SWAP1 POP SWAP2 SWAP1 POP JUMP JUMPDEST PUSH0 PUSH1 0x20 DUP3 ADD SWAP1 POP DUP2 DUP2 SUB PUSH0 DUP4 ADD MSTORE PUSH2 0x28DD DUP2 PUSH2 0x28A4 JUMP JUMPDEST SWAP1 POP SWAP2 SWAP1 POP JUMP JUMPDEST PUSH32 0x4E6577204F776E65722063616E206E6F74206265207468652063757272656E74 PUSH0 DUP3 ADD MSTORE PUSH32 0x206F776E65720000000000000000000000000000000000000000000000000000 PUSH1 0x20 DUP3 ADD MSTORE POP JUMP JUMPDEST PUSH0 PUSH2 0x293E PUSH1 0x26 DUP4 PUSH2 0x1D7F JUMP JUMPDEST SWAP2 POP PUSH2 0x2949 DUP3 PUSH2 0x28E4 JUMP JUMPDEST PUSH1 0x40 DUP3 ADD SWAP1 POP SWAP2 SWAP1 POP JUMP JUMPDEST PUSH0 PUSH1 0x20 DUP3 ADD SWAP1 POP DUP2 DUP2 SUB PUSH0 DUP4 ADD MSTORE PUSH2 0x296B DUP2 PUSH2 0x2932 JUMP JUMPDEST SWAP1 POP SWAP2 SWAP1 POP JUMP JUMPDEST PUSH0 PUSH1 0x40 DUP3 ADD SWAP1 POP PUSH2 0x2985 PUSH0 DUP4 ADD DUP6 PUSH2 0x1A7B JUMP JUMPDEST PUSH2 0x2992 PUSH1 0x20 DUP4 ADD DUP5 PUSH2 0x1E25 JUMP JUMPDEST SWAP4 SWAP3 POP POP POP JUMP JUMPDEST PUSH0 PUSH1 0x40 DUP3 ADD SWAP1 POP PUSH2 0x29AC PUSH0 DUP4 ADD DUP6 PUSH2 0x1A7B JUMP JUMPDEST PUSH2 0x29B9 PUSH1 0x20 DUP4 ADD DUP5 PUSH2 0x21DA JUMP JUMPDEST SWAP4 SWAP3 POP POP POP JUMP JUMPDEST PUSH32 0x5573657220494420646F6573206E6F7420657869737400000000000000000000 PUSH0 DUP3 ADD MSTORE POP JUMP JUMPDEST PUSH0 PUSH2 0x29F4 PUSH1 0x16 DUP4 PUSH2 0x1D7F JUMP JUMPDEST SWAP2 POP PUSH2 0x29FF DUP3 PUSH2 0x29C0 JUMP JUMPDEST PUSH1 0x20 DUP3 ADD SWAP1 POP SWAP2 SWAP1 POP JUMP JUMPDEST PUSH0 PUSH1 0x20 DUP3 ADD SWAP1 POP DUP2 DUP2 SUB PUSH0 DUP4 ADD MSTORE PUSH2 0x2A21 DUP2 PUSH2 0x29E8 JUMP JUMPDEST SWAP1 POP SWAP2 SWAP1 POP JUMP INVALID LOG2 PUSH5 0x6970667358 0x22 SLT KECCAK256 PC 0xF6 TSTORE 0x2E 0xA5 JUMP 0xEB SWAP4 DUP5 SGT DUP8 MSTORE8 0x29 PUSH19 0xA2F22E4BCA782932B255921ADDF53B7BC70864 PUSH20 0x6F6C634300081A00330000000000000000000000 "
				},
				"gasEstimates": {
					"creation": {
						"codeDepositCost": "2169200",
						"executionCost": "36582",
						"totalCost": "2205782"
					},
					"external": {
						"ProductOwner()": "2596",
						"changeOwnership(uint256,address)": "infinite",
						"checkStatus(uint8)": "infinite",
						"createCustomer(string,string,string,uint8)": "infinite",
						"createProduct(string,uint16,uint256,string,string,string)": "infinite",
						"getTotalUsers()": "2499",
						"getUser(uint256)": "infinite",
						"productCount()": "2490",
						"productDetails(uint256)": "infinite",
						"productStatus(uint256)": "infinite",
						"products(uint256)": "infinite",
						"updateProductStatus(uint256,uint8)": "infinite",
						"userCount()": "2449",
						"users(uint256)": "infinite",
						"viewStatus(uint256)": "5153"
					}
				},
				"methodIdentifiers": {
					"ProductOwner()": "f46296be",
					"changeOwnership(uint256,address)": "89b3887e",
					"checkStatus(uint8)": "d6d9a024",
					"createCustomer(string,string,string,uint8)": "52312cea",
					"createProduct(string,uint16,uint256,string,string,string)": "084289f8",
					"getTotalUsers()": "9be572f6",
					"getUser(uint256)": "b0467deb",
					"productCount()": "e0f6ef87",
					"productDetails(uint256)": "48f7eb30",
					"productStatus(uint256)": "0ea3d3ee",
					"products(uint256)": "7acc0b20",
					"updateProductStatus(uint256,uint8)": "920e2621",
					"userCount()": "07973ccf",
					"users(uint256)": "365b98b2",
					"viewStatus(uint256)": "ac4640e1"
				}
			},
			"storageLayout": {
				"storage": [
					{
						"astId": 73,
						"contract": "contracts/LiskSupplyChain.sol:LiskSupplyChain",
						"label": "productCount",
						"offset": 0,
						"slot": "0",
						"type": "t_uint256"
					},
					{
						"astId": 76,
						"contract": "contracts/LiskSupplyChain.sol:LiskSupplyChain",
						"label": "userCount",
						"offset": 0,
						"slot": "1",
						"type": "t_uint256"
					},
					{
						"astId": 80,
						"contract": "contracts/LiskSupplyChain.sol:LiskSupplyChain",
						"label": "ProductOwner",
						"offset": 0,
						"slot": "2",
						"type": "t_address"
					},
					{
						"astId": 85,
						"contract": "contracts/LiskSupplyChain.sol:LiskSupplyChain",
						"label": "products",
						"offset": 0,
						"slot": "3",
						"type": "t_mapping(t_uint256,t_struct(Product)54_storage)"
					},
					{
						"astId": 90,
						"contract": "contracts/LiskSupplyChain.sol:LiskSupplyChain",
						"label": "users",
						"offset": 0,
						"slot": "4",
						"type": "t_mapping(t_uint256,t_struct(User)70_storage)"
					}
				],
				"types": {
					"t_address": {
						"encoding": "inplace",
						"label": "address",
						"numberOfBytes": "20"
					},
					"t_enum(Roles)6": {
						"encoding": "inplace",
						"label": "enum LiskSupplyChain.Roles",
						"numberOfBytes": "1"
					},
					"t_enum(Status)11": {
						"encoding": "inplace",
						"label": "enum LiskSupplyChain.Status",
						"numberOfBytes": "1"
					},
					"t_mapping(t_uint256,t_struct(Product)54_storage)": {
						"encoding": "mapping",
						"key": "t_uint256",
						"label": "mapping(uint256 => struct LiskSupplyChain.Product)",
						"numberOfBytes": "32",
						"value": "t_struct(Product)54_storage"
					},
					"t_mapping(t_uint256,t_struct(User)70_storage)": {
						"encoding": "mapping",
						"key": "t_uint256",
						"label": "mapping(uint256 => struct LiskSupplyChain.User)",
						"numberOfBytes": "32",
						"value": "t_struct(User)70_storage"
					},
					"t_string_storage": {
						"encoding": "bytes",
						"label": "string",
						"numberOfBytes": "32"
					},
					"t_struct(Product)54_storage": {
						"encoding": "inplace",
						"label": "struct LiskSupplyChain.Product",
						"members": [
							{
								"astId": 34,
								"contract": "contracts/LiskSupplyChain.sol:LiskSupplyChain",
								"label": "id",
								"offset": 0,
								"slot": "0",
								"type": "t_uint256"
							},
							{
								"astId": 36,
								"contract": "contracts/LiskSupplyChain.sol:LiskSupplyChain",
								"label": "name",
								"offset": 0,
								"slot": "1",
								"type": "t_string_storage"
							},
							{
								"astId": 38,
								"contract": "contracts/LiskSupplyChain.sol:LiskSupplyChain",
								"label": "owner",
								"offset": 0,
								"slot": "2",
								"type": "t_address"
							},
							{
								"astId": 40,
								"contract": "contracts/LiskSupplyChain.sol:LiskSupplyChain",
								"label": "price",
								"offset": 20,
								"slot": "2",
								"type": "t_uint16"
							},
							{
								"astId": 42,
								"contract": "contracts/LiskSupplyChain.sol:LiskSupplyChain",
								"label": "quantity",
								"offset": 0,
								"slot": "3",
								"type": "t_uint256"
							},
							{
								"astId": 44,
								"contract": "contracts/LiskSupplyChain.sol:LiskSupplyChain",
								"label": "description",
								"offset": 0,
								"slot": "4",
								"type": "t_string_storage"
							},
							{
								"astId": 46,
								"contract": "contracts/LiskSupplyChain.sol:LiskSupplyChain",
								"label": "from",
								"offset": 0,
								"slot": "5",
								"type": "t_string_storage"
							},
							{
								"astId": 48,
								"contract": "contracts/LiskSupplyChain.sol:LiskSupplyChain",
								"label": "to",
								"offset": 0,
								"slot": "6",
								"type": "t_string_storage"
							},
							{
								"astId": 50,
								"contract": "contracts/LiskSupplyChain.sol:LiskSupplyChain",
								"label": "date",
								"offset": 0,
								"slot": "7",
								"type": "t_uint256"
							},
							{
								"astId": 53,
								"contract": "contracts/LiskSupplyChain.sol:LiskSupplyChain",
								"label": "status",
								"offset": 0,
								"slot": "8",
								"type": "t_enum(Status)11"
							}
						],
						"numberOfBytes": "288"
					},
					"t_struct(User)70_storage": {
						"encoding": "inplace",
						"label": "struct LiskSupplyChain.User",
						"members": [
							{
								"astId": 56,
								"contract": "contracts/LiskSupplyChain.sol:LiskSupplyChain",
								"label": "id",
								"offset": 0,
								"slot": "0",
								"type": "t_uint256"
							},
							{
								"astId": 58,
								"contract": "contracts/LiskSupplyChain.sol:LiskSupplyChain",
								"label": "name",
								"offset": 0,
								"slot": "1",
								"type": "t_string_storage"
							},
							{
								"astId": 60,
								"contract": "contracts/LiskSupplyChain.sol:LiskSupplyChain",
								"label": "userAddress",
								"offset": 0,
								"slot": "2",
								"type": "t_address"
							},
							{
								"astId": 62,
								"contract": "contracts/LiskSupplyChain.sol:LiskSupplyChain",
								"label": "location",
								"offset": 0,
								"slot": "3",
								"type": "t_string_storage"
							},
							{
								"astId": 64,
								"contract": "contracts/LiskSupplyChain.sol:LiskSupplyChain",
								"label": "description",
								"offset": 0,
								"slot": "4",
								"type": "t_string_storage"
							},
							{
								"astId": 66,
								"contract": "contracts/LiskSupplyChain.sol:LiskSupplyChain",
								"label": "date",
								"offset": 0,
								"slot": "5",
								"type": "t_uint256"
							},
							{
								"astId": 69,
								"contract": "contracts/LiskSupplyChain.sol:LiskSupplyChain",
								"label": "role",
								"offset": 0,
								"slot": "6",
								"type": "t_enum(Roles)6"
							}
						],
						"numberOfBytes": "224"
					},
					"t_uint16": {
						"encoding": "inplace",
						"label": "uint16",
						"numberOfBytes": "2"
					},
					"t_uint256": {
						"encoding": "inplace",
						"label": "uint256",
						"numberOfBytes": "32"
					}
				}
			},
			"userdoc": {
				"kind": "user",
				"methods": {},
				"version": 1
			}
		}
	}
}